:020000040000FA
:10000000D8200020150400001D0400001F0400007B
:10001000210400002304000025040000000000006B
:1000200000000000000000000000000027040000A5
:1000300029040000000000002B0400002D04000033
:100040002F0400002F0400002F0400002F040000E4
:100050002F0400002F040000810400002F04000082
:1000600021080000350800002F0400002F040000C4
:100070002F0400002F0400002F0400002F040000B4
:100080002F0400002F0400002F0400002F040000A4
:100090002F0400002F0400002F0400002F04000094
:1000A0002F0400002F0400002F0400002F04000084
:1000B0002F0400002F0400000000000000000000DA
:1000C0002F0400002F0400002F0400002F04000064
:1000D0002F0400002F0400002F0400000000000087
:1000E0000000000000000000000000000000000010
:1000F0000000000000000000000000000000000000
:1001000000000000000000000000000000000000EF
:1001100000000000000000000000000000000000DF
:10040000DFF80CD000F02AF800480047710D00001A
:10041000D82000200648804706480047FEE7FEE750
:10042000FEE7FEE7FEE7FEE7FEE7FEE7FEE7FEE7A4
:10043000B50500000104000040EA01039B0703D05A
:1004400009E008C9121F08C0042AFAD203E011F813
:10045000013B00F8013B521EF9D27047064C074D94
:1004600006E0E06840F0010394E807009847103484
:10047000AC42F6D3FFF7C8FF18160000381600008C
:100480002DE9F84F0025DFF82091A8464FF480763B
:1004900001242F46304600F0C1FF38B1D9F80403DB
:1004A000204203D0304600F0AFFF2543361D6400E4
:1004B0007F1CB6B2082FEDD34FF4BE74204600F077
:1004C000ADFFDFF8E8A030B1204600F09DFFDAF87C
:1004D000008045F00045364E15F0FF0F15D001277E
:1004E00000242F420DD009EB8401D1F81005D1F87A
:1004F0001015C0F3042056F82420C1F3014102B1C5
:1005000090477F00641C082CEBD3002D2CDA0024CC
:10051000611E96F84420002750B222F0C005401C0E
:1005200022D0012000FA05F919EA010F1CD04FEA88
:10053000921B284600F0E0FB56F82000009010B90E
:10054000BBF1030F10D14846BBF1030F00D10443A8
:10055000A90001F1A041D1F8001719EA080FC1F371
:10056000014103D0022903D0BDE8F88F0329FBD154
:10057000BBF1030F06D1022913D00221284600F057
:1005800035FF0127009818B1009A59462846904730
:10059000002FE9D0DAF800004045E5D0804621463A
:1005A000B7E70321EAE700000060004010050050B3
:1005B0004000002070B58D480023021D0178101DF9
:1005C0000124062907D115782D0704D10578C5F334
:1005D0000315032D02D0062904D00FE0854E844D6B
:1005E00075670EE015782D0708D10578C5F303155A
:1005F000032D06D0042D04D0052D02D0062909D0E4
:1006000010E04FF08055D5F844527B4EC5F342358B
:10061000356002E015782D0704D10578C5F3031580
:10062000032D02D0062906D011E0744D2E6826F065
:1006300080762E600EE015782D0708D10578C5F379
:100640000315032D06D0042D04D0052D02D0062954
:100650000AD011E04FF08045C5F80C31C5F81031D3
:10066000654D2D1F2B6002E015782D0704D105780C
:10067000C5F30315032D02D0062905D00CE05E4A10
:100680000321643211600AE015782D0704D1057842
:10069000C5F30315032D02D006290DD06AE0584A90
:1006A00005211160564978310C60554908310B60BD
:1006B0003F21121D116002E0117809075AD100781C
:1006C000C0F30310052855D14E4800684E49086014
:1006D0004C48001D0068091D08604A480830006841
:1006E000091D086047480C300068091D086045482E
:1006F00010300068091D0860424814300068091D68
:1007000008604048183000683F49203108603D4883
:100710001C300068091D08603A4820300068091D37
:100720000860384824300068091D086035482830C2
:100730000068091D086033482C300068091D0860F6
:100740003048303000683049403108602D4834303E
:100750000068091D08602B4838300068091D0860D2
:1007600028483C300068091D086026484030006871
:10077000091D086021487438016841F47001016066
:10078000BFF34F8FBFF36F8F4FF01021D1F80002EE
:10079000002803DBD1F80402002822DA1B4A146087
:1007A0001B480468002CFCD01524C1F800420568E1
:1007B000002DFCD0C1F8044201680029FCD0136070
:1007C00001680029FCD0BFF34F8F0C48F038016856
:1007D000104A01F4E06111430160BFF34F8F00BF85
:1007E000FDE70E490C48086070BD0000E00F00F006
:1007F0000DF0ADBA00C007403C050040FCED00E044
:10080000105600400404001020C5004004E50140DB
:1008100000E401400400FA050090D0031800002015
:1008200004220249024800F06FBA0000880000204C
:100830000080004004220249024800F065BA00002E
:10084000940000200090004002E008C8121F08C178
:10085000002AFAD170477047002001E001C1121F41
:10086000002AFBD170470000BFF34F8F0548016895
:10087000054A01F4E06111430160BFF34F8F00BFEF
:10088000FDE700000CED00E00400FA050EB50021C4
:100890000091CDE901106A4644F20100FFF7E4FF40
:1008A0000EBD000030B542680B4C1379E15C0120AD
:1008B000FF290ED0FE290DD012684FF4A86505EB74
:1008C00081015158054A52F82320914202D1FF205C
:1008D000E054002030BD00000D000020A0000020EA
:1008E00003681B8B9BB253436422B3FBF2F292B2B8
:1008F000AFF3008070B50446006816460D4690F8C8
:10090000212001EB450100EB8101022A01D00820E2
:1009100070BD4968B14205D1C16909B36068007909
:1009200088471DE02046FFF7BDFF08B1112070BDCC
:1009300061680C4AFE200979505432462946204607
:1009400000F0E6FD2068C06950B16168064A0220E7
:10095000097902EB410148550221606800F070FC02
:10096000002070BD0D000020B40000202DE9F84FDC
:1009700006688A46054601EB4A0896F821001F469C
:10098000914606EB880410B10820BDE8F88F4FF0BF
:10099000000B3148C4F804B0A772006800900A2226
:1009A000296802EB8800085C40B100208DF8010046
:1009B0006946484600F0CAFAA0B901E00120F5E70F
:1009C00046F828904FF0010808FA09F00FB12349C2
:1009D00001E02249091F08600026A019083000F034
:1009E0006DFB08B10420D0E7761CF6B2022EF4D3DA
:1009F000207A00F0B1FB607A00F0AEFB206837B1DE
:100A000000F060FA0646206800F04CFB05E000F0BC
:100A100049FB0646206800F055FA074651466868CB
:100A200000F0FFFB0146207A324600F077FB0221FE
:100A3000686800F0F6FB0146607A3A4600F06EFB0B
:100A400084F80B806968064A097902EB410202F8D2
:100A50000AB0002099E700000C1600000C050050B9
:100A6000B40000202DE9F0470025DFF86890076802
:100A70000446A846626805EB450007EB800613793B
:100A800009EB430202F80580F17A71B10A2221686C
:100A900002EB8000085CD8B10021306800F0CCFA8D
:100AA000306800F0AFFAC6F804806D1C022DE1D367
:100AB0006168094AFF2009795054606800F09CFB86
:100AC000606800F0DDFB022087F82100BDE8F087B8
:100AD0000121E2E7B40000200D0000202DE9F74FCE
:100AE00084B00E00044607D0256895F8210028B18F
:100AF000082007B0BDE8F08F0B20FAE700F070FB8C
:100B000018B1852801D00420F3E700F015FA20B9C8
:100B100000F0E4F908B10320EBE74E48DFF838A114
:100B2000002100784FF0010BC0F30310032821D0FF
:100B30008AF800B0FF2285F82020002091464FF06F
:100B4000FF3C00BF00EB400705EB8703401CD97258
:100B500083F8089083F80990C0B245F827C00228AE
:100B6000F0D305F1200000F0A9FA30B1204600F0E2
:100B700069FCC8E78AF80010DCE7002756F8272050
:100B8000501C12D0F0193946037A2046FFF7EEFECA
:100B90005FEA000804D0204600F054FC4046A8E775
:100BA000002239462046FFF7A5FE7F1CFFB2022F28
:100BB000E4D3002009224FF48053316901E0490851
:100BC000401C994201D39042F9D39AF8001009B120
:100BD00000B90120214AD2E90112CDE901128DF8B4
:100BE000040060681E4A01A900790290606800F064
:100BF0006BFB070004D0204600F024FC384678E761
:100C0000606831690068D0F810050E01C640AE6119
:100C1000606800F0F1FACDF800B05F460423324678
:100C20000221606800F03AFB0221606800F001FBDD
:100C30000698E86160680B49074A0079521C41F840
:100C400020406168097902F8019085F82170002040
:100C50004FE70000E80F00F00C0000200C16000029
:100C6000B9140000C000002000F002B800F008B87D
:100C700072B602480168491C0160704714000020E8
:100C800003490868401E086000D162B67047000042
:100C90001400002005494FF0FF32082841F82020B9
:100CA00002D3084480F83C20704700004000002038
:100CB000F0B54FF0FF3512B10023082601E00823FC
:100CC00009260C4C05E000BF54F823707F1C04D0AB
:100CD0005B1CB342F8D32846F0BD26185DB286F8F7
:100CE000245044F82310002AF5D1E11881F83C0083
:100CF000F1E70000400000200249084490F9240078
:100D000070470000400000202DE9F84300251646FA
:100D1000884604462F4614E04FF4A07000EB85008F
:100D20004FF480312258A9404AB1D4F804230A4232
:100D300005D0275021580091D8E9002190476D1C1B
:100D4000EDB2B542E8D3BDE8F8830000012181404F
:100D500003484068014201D00120704700207047DD
:100D60000400002001218140080300D001207047C9
:100D700086B014221F496846FFF75EFB01208DF8FC
:100D800009001C481C4A69460838FFF7A7FE08B14D
:100D9000FFF77CFD17480838FFF764FE174D002465
:100DA000274601E0142C02D204EB840604E0C4F1CF
:100DB000140000EB800664362F700E48B2B200219A
:100DC0000838FFF78DFD1128F7D028780028FCD0CF
:100DD0000848B2B201210838FFF782FD08B1FFF7D9
:100DE00055FD46F2A81000F00BF8641CE4B2282C64
:100DF000D5D2D7E7F8150000AD14000000000020A0
:100E000000283ED01F49204A096800BF00BF00BF2C
:100E100000BF00BF00BF00BF00BF91422FD000BF86
:100E200000BF00BF00BF00BF00BF00BF00BF00BFCA
:100E300000BF00BF00BF00BF00BF00BF00BF00BFBA
:100E400000BF00BF00BF00BF00BF00BF00BF00BFAA
:100E500000BF00BF00BF00BF00BF00BF00BF00BF9A
:100E600000BF00BF00BF00BF00BF00BF00BF00BF8A
:100E700000BF00BF00BF00BF00BF00BF00BF401EDB
:100E8000C3D17047180000200024F4004907090E60
:100E9000002806DA00F00F0202F1E02282F8141DA9
:100EA00003E000F1E02282F8001400F01F020121AB
:100EB00091404009800000F1E020C0F88012C0F8A5
:100EC0000011704710B5FFF717FF602101EB80009C
:100ED0000149C0B2084410BD0060004070B5144D17
:100EE00095F8450008B1082070BD0020411E2A1861
:100EF000401CC0B282F824102028F8D300242046D9
:100F0000FFF7C8FE641CE4B2092CF8D3062108469A
:100F1000FFF7BCFF4FF4BE7000F076FA05494FF0C2
:100F20000040C1F80403012085F84500002070BD91
:100F30004000002000600040034890F84500002871
:100F400000D0012070470000400000202DE9FC4146
:100F5000044628480D462044002690F92410491CD8
:100F600001D008263FE0A978002751B301220021D3
:100F70002046FFF79DFE411C21D083001E482A78A1
:100F800018446978D0F81035DFF870C003EA0C0314
:100F9000C0F81035D0F810354FF4F85C0CEA042C8A
:100FA00043EA0C034FF4403C0CEA02424FF4801C2D
:100FB0000CEA01510A431343C0F8103504E004263B
:100FC00011E0FE2180F8241069780120A040012959
:100FD0000CD00B49086001222046009700231146DF
:100FE000019700F0E9F93046BDE8FC810449091F8A
:100FF000F0E700004000002000600040FFE0ECFF50
:101000000C0500500A49084490F924008100094861
:101010000144D1F8100540F0030040F4F852C1F843
:10102000102501F5A26100BF00BF00BF0860704736
:10103000400000200060004001B10121064A104438
:1010400090F92400820005481044D0F8102561F37F
:101050001452C0F810257047400000200060004086
:1010600010B5044600F0E2F970B12046FFF744FEE7
:10107000C0B2FFF70FFE2046FFF73EFE074A0021F1
:1010800002EB8000C0F810150549FF20214481F8CB
:1010900024002046BDE8104000F09FB900600040E9
:1010A0004000002010B5FFF727FE302101EB800043
:1010B0000149C0B2084410BD006000402DE9F0476E
:1010C0000427144E814600244FF001080020FFF74A
:1010D000CBFD08FA04F5354203D02046FFF736FE73
:1010E00058B10020FFF7C2FD27B104F10104AE435F
:1010F000E4B2EBD13846BDE8F087074908FA04F0BE
:1011000000274A681043486089F800403846FFF7D6
:10111000ADFDEFE7FFFF0F000400002070B514469F
:101120000D00064610D07CB1FFF71CFE70B13046B2
:10113000FFF70CFE60B1074800EBC600C0F8105581
:10114000C0F81445002070BD0E2070BD072070BD92
:10115000082070BD00F0014070B504460125A5408F
:10116000FFF700FE18B12046FFF7F0FD18B1034865
:101170000560002070BD082070BD000008F501402A
:1011800070B504460125A540FFF7ECFD18B12046D7
:10119000FFF7DCFD18B103480560002070BD082092
:1011A00070BD000004F5014070B50546FFF7DAFD9B
:1011B00078B109480124AC4004600020FFF754FDD9
:1011C00006484168A14341600020FFF74FFD002021
:1011D00070BD072070BD000008F50140040000202C
:1011E0000448017809B18520704701210170002071
:1011F000704700000400002000680121C1607047B2
:1012000030B54FF4803405688C4013B1C5F8044301
:1012100001E0C5F80843006800EB8100C0F84025F4
:1012200030BD02684FF4A07000EB810080B2104422
:10123000704702684FF480308840C2F80803704756
:1012400018B54FF4A07202EB8102036892B2002439
:101250009C509A58009202684FF480308840C2F83F
:10126000040318BD0268012111610079034A00EBF3
:10127000400002EB800001727047000088000020EF
:10128000016801220A600079034A00EB400002EB8A
:10129000800002210172704788000020F0B40468C9
:1012A000049E40F20115D4F800728D40AF43C4F89B
:1012B00000720468D4F800521D43C4F8005233464B
:1012C000F0BCFFF79DBF0000F8B504460D4600795D
:1012D000204900EB400001EB8006307A08B108207D
:1012E000F8BD3AB1326068687060002003464FF480
:1012F000A07709E00720F8BD226807EB8001535072
:101300005158401CC0B2009161798142F4D82068E4
:10131000E978000B40B2FFF7B9FD20686978D0F892
:10132000042561F30102C0F804252068A978D0F8EB
:10133000082561F30102C0F8082520682978D0F853
:10134000102561F30302C0F810250120307200203F
:10135000F8BD00008800002030B503460068012178
:10136000000B40B200F01F0291404009800000F1E4
:10137000E020C0F8801119684FF0FF30D1F800224A
:101380000024C1F800421968C1F808031879094D12
:1013900000EB400005EB8000007A022802D11846DD
:1013A000FFF760FF187900EB400005EB8000047246
:1013B00030BD00008800002030B541EA4201DDE97F
:1013C000034541EA8301800041EA042100F1A04085
:1013D00041EA0541C0F8001730BD1CB5002100915D
:1013E0000B4601220191FFF7E7FF1CBD800000F5CD
:1013F000E06000F1A040026822F44032026002681E
:1014000042EA014101607047034908B508440021E0
:1014100001600068009008BD00600040024940582B
:10142000012800D0002070470060004004490844B3
:1014300090F92400082801D201207047002070474D
:10144000400000202DE9F05F0668834696F82000F2
:10145000FFF7AAFE002505EB450800244FF0FF0A20
:1014600006EB880707EB040999F80800FF2803D06A
:10147000FFF79AFE89F808A0641CE4B2022CF1D3AD
:1014800056F82800411C05D0FFF7EAFD4FF0FF3168
:1014900046F8281000206D1CEDB2F872022DDAD348
:1014A000DBF80400BDE8F05FFFF756BF01490120FB
:1014B00008707047000000202DE9F04113480D46E8
:1014C0000127002400F10C0800EB4506305D28B12F
:1014D000305D401E3055305D70B10027641CE4B2B1
:1014E000022CF3D3002F0ED058F8250002214068BB
:1014F000BDE8F041FFF79DBE58F825000068C169BE
:1015000028468847EAE7BDE8F0810000B4000020E3
:101510002DE9F04788460546076801EB480007EBD0
:101520008004164697F82000FFF716FEDFF8B0900B
:101530004FF0FF0A7EB1B869B04211D886B2207A66
:10154000FFF70AFE94F80900FFF71AFE69680A79A6
:1015500009F802A040E0607AFFF7FEFD207AF3E789
:101560006268824228D03AB3B24225D900230321CF
:101570006868FFF745FEA07A0028206802D0FFF7D0
:10158000A1FC01E0FFF78EFD824603216868FFF7AA
:1015900048FE014617F8200F5246FFF7BFFD387886
:1015A000FFF7EEFD69680A7909F8028068680D495D
:1015B000007941F8206003E069680A7909F802A01F
:1015C0000023324641466868FFF71AFE207AFFF78B
:1015D000D7FD607AFFF7D4FD6660BDE8F0870000B4
:1015E0000D000020A0000020009000400104000039
:1015F0001C000020E815000011000000120000008F
:101600000000000002000000881300000300010039
:101610000000000600000000381600000000002056
:101620001C00000048080000541600001C000020A8
:10163000BC2000005808000000000000000000006E
:10164000000000000000000000000000000000009A
:041650000090D00333
:0400000500000401F2
:00000001FF
