:020000040000FA
:1000000070200020150400001D0400001F040000E3
:10001000210400002304000025040000000000006B
:1000200000000000000000000000000027040000A5
:1000300029040000000000002B0400002D04000033
:100040002F0400002F0400002F0400002F040000E4
:100050002F0400002F0400005D0400002F040000A6
:10006000FD0700002F0400002F0400002F040000F3
:100070002F0400002F0400002F0400002F040000B4
:100080002F0400002F0400002F0400002F040000A4
:100090002F0400002F0400002F0400002F04000094
:1000A0002F0400002F0400002F0400002F04000084
:1000B0002F0400002F0400000000000000000000DA
:1000C0002F0400002F0400002F0400002F04000064
:1000D0002F0400002F0400002F0400000000000087
:1000E0000000000000000000000000000000000010
:1000F0000000000000000000000000000000000000
:1001000000000000000000000000000000000000EF
:1001100000000000000000000000000000000000DF
:10040000DFF80CD000F018F800480047DD090000C4
:10041000702000200648804706480047FEE7FEE7B8
:10042000FEE7FEE7FEE7FEE7FEE7FEE7FEE7FEE7A4
:100430009105000001040000064C074D06E0E0684D
:1004400040F0010394E8070098471034AC42F6D31B
:10045000FFF7DAFF040E0000240E00002DE9F84F2C
:100460000025DFF82091A8464FF4807601242F461E
:10047000304600F0B7FC38B1D9F80403204203D06D
:10048000304600F0A5FC2543361D64007F1CB6B243
:10049000082FEDD34FF4BE74204600F0A3FCDFF824
:1004A000E8A030B1204600F093FCDAF8008045F077
:1004B0000045364E15F0FF0F15D0012700242F42BE
:1004C0000DD009EB8401D1F81005D1F81015C0F357
:1004D000042056F82420C1F3014102B190477F0067
:1004E000641C082CEBD3002D2CDA0024611E96F836
:1004F0004420002750B222F0C005401C22D0012029
:1005000000FA05F919EA010F1CD04FEA921B2846A0
:1005100000F010FA56F82000009010B9BBF1030F5C
:1005200010D14846BBF1030F00D10443A90001F1EB
:10053000A041D1F8001719EA080FC1F3014103D017
:10054000022903D0BDE8F88F0329FBD1BBF1030FCB
:1005500006D1022913D00221284600F02AFC0127E7
:10056000009818B1009A594628469047002FE9D0C4
:10057000DAF800004045E5D080462146B7E7032180
:10058000EAE700000060004010050050180000205D
:1005900070B58D480023021D0178101D0124062925
:1005A00007D115782D0704D10578C5F30315032D60
:1005B00002D0062904D00FE0854E844D75670EE009
:1005C00015782D0708D10578C5F30315032D06D03E
:1005D000042D04D0052D02D0062909D010E04FF0DB
:1005E0008055D5F844527B4EC5F34235356002E064
:1005F00015782D0704D10578C5F30315032D02D016
:10060000062906D011E0744D2E6826F080762E6003
:100610000EE015782D0708D10578C5F30315032DD5
:1006200006D0042D04D0052D02D006290AD011E0F1
:100630004FF08045C5F80C31C5F81031654D2D1FC0
:100640002B6002E015782D0704D10578C5F303155A
:10065000032D02D0062905D00CE05E4A0321643246
:1006600011600AE015782D0704D10578C5F303154C
:10067000032D02D006290DD06AE0584A05211160E9
:10068000564978310C60554908310B603F21121DE5
:10069000116002E0117809075AD10078C0F3031005
:1006A000052855D14E4800684E4908604C48001D49
:1006B0000068091D08604A4808300068091D086084
:1006C00047480C300068091D086045481030006834
:1006D000091D0860424814300068091D0860404840
:1006E000183000683F49203108603D481C300068E0
:1006F000091D08603A4820300068091D0860384824
:1007000024300068091D0860354828300068091D3C
:10071000086033482C300068091D086030483030CC
:1007200000683049403108602D4834300068091DA8
:1007300008602B4838300068091D086028483C30A4
:100740000068091D0860264840300068091D0860DF
:1007500021487438016841F470010160BFF34F8F84
:10076000BFF36F8F4FF01021D1F80002002803DB98
:10077000D1F80402002822DA1B4A14601B480468DE
:10078000002CFCD01524C1F800420568002DFCD0D7
:10079000C1F8044201680029FCD0136001680029F7
:1007A000FCD0BFF34F8F0C48F0380168104A01F4B9
:1007B000E06111430160BFF34F8F00BFFDE70E49B9
:1007C0000C48086070BD0000E00F00F00DF0ADBAFD
:1007D00000C007403C050040FCED00E01056004022
:1007E0000404001020C5004004E5014000E401407D
:1007F0000400FA050090D003140000202DE9F8430E
:1008000000250F4C04274FF4A078BE034FEA0509DA
:1008100008EB850006FA05F122585AB1D4F80423F2
:100820000A4207D044F800902158064A00915168C6
:10083000126890476D1CEDB2BD42E9D3BDE8F88364
:10084000008000406000002002E008C8121F08C1BC
:10085000002AFAD170477047002001E001C1121F41
:10086000002AFBD170470000BFF34F8F0548016895
:10087000054A01F4E06111430160BFF34F8F00BFEF
:10088000FDE700000CED00E00400FA050EB50021C4
:100890000091CDE901106A4644F20100FFF7E4FF40
:1008A0000EBD00F003B800F009B8000072B60248AF
:1008B0000168491C01607047100000200349086866
:1008C000401E086000D162B6704700001000002092
:1008D00005494FF0FF32082841F8202002D3084490
:1008E00080F83C207047000018000020F0B54FF061
:1008F000FF3512B10023082601E0082309260C4C1D
:1009000005E000BF54F823707F1C04D05B1CB34289
:10091000F8D32846F0BD26185DB286F8245044F876
:100920002310002AF5D1E11881F83C00F1E700001E
:10093000180000200249084490F924007047000084
:10094000180000200121814003484068014201D085
:1009500001207047002070470800002001218140DD
:10096000080300D0012070473EB5194802A900686D
:100970000290112000F0A0F808B1FFF787FF0020D7
:10098000014600900123134A134800F0A3F901A87F
:1009900000F012F908B1FFF779FF0F480468112041
:1009A00004F5A07400F0E4F8024621469DF8040026
:1009B00000F032F908B1FFF769FF9DF8040000F07C
:1009C00049F908B1FFF762FF112000F0DBF83EBDE6
:1009D000F80D0000400D0300000000201CB500F0E1
:1009E0004DF908B1FFF752FF00F038F808B1FFF7F2
:1009F0004DFF0949094AD1E90101CDE900016946E4
:100A0000074800F07DF908B1FFF740FFFFF7ACFFA2
:100A1000034800F051F9FEE7F80D0000F50D000065
:100A2000000000204907090E002806DA00F00F0236
:100A300002F1E02282F8141D03E000F1E02282F8C6
:100A4000001400F01F02012191404009800000F1D4
:100A5000E020C0F88012C0F80011704770B5144D46
:100A600095F8450008B1082070BD0020411E2A18E5
:100A7000401CC0B282F824102028F8D3002420465D
:100A8000FFF726FF641CE4B2092CF8D306210846C0
:100A9000FFF7C8FF4FF4BE7000F09AF905494FF018
:100AA0000040C1F80403012085F84500002070BD16
:100AB00018000020006000402DE9FC410446284851
:100AC0000D462044002690F92410491C01D0082628
:100AD0003FE0A978002751B3012200212046FFF70B
:100AE00005FF411C21D083001E482A7818446978EC
:100AF000D0F81035DFF870C003EA0C03C0F81035E9
:100B0000D0F810354FF4F85C0CEA042C43EA0C03DF
:100B10004FF4403C0CEA02424FF4801C0CEA0151B5
:100B20000A431343C0F8103504E0042611E0FE2107
:100B300080F8241069780120A04001290CD00B49CD
:100B4000086001222046009700231146019700F01B
:100B50001FF93046BDE8FC810449091FF0E7000099
:100B60001800002000600040FFE0ECFF0C05005082
:100B700010B5FFF7DFFE0249800601EB106010BDE3
:100B8000006000400A49084490F9240081000948A7
:100B90000144D1F8100540F0030040F4F852C1F8C8
:100BA000102501F5A26100BF00BF00BF08607047BB
:100BB00018000020006000402DE9F0470427144E83
:100BC000814600244FF001080020FFF76AFE08FA72
:100BD00004F5354203D02046FFF7B4FE58B100209B
:100BE000FFF761FE27B104F10104AE43E4B2EBD19B
:100BF0003846BDE8F087074908FA04F000274A683C
:100C00001043486089F800403846FFF74CFEEFE794
:100C1000FFFF0F000800002070B514460D000646C7
:100C200010D07CB1FFF79AFE70B13046FFF78AFE14
:100C300060B1074800EBC600C0F81055C0F8144575
:100C4000002070BD0E2070BD072070BD082070BD53
:100C500000F0014070B504460125A540FFF77EFE77
:100C600018B12046FFF76EFE18B10348056000205A
:100C700070BD082070BD000004F5014004480178F3
:100C800009B18520704701210170002070470000E4
:100C90000800002030B54FF4803405688C4013B153
:100CA000C5F8044301E0C5F80843006800EB810083
:100CB000C0F8402530BD0000016801220A600079BB
:100CC000034A00EB400002EB8000022101727047F2
:100CD00060000020F0B40468049E40F20115D4F8CE
:100CE00000728D40AF43C4F800720468D4F800521B
:100CF0001D43C4F800523346F0BCFFF7CBBF0000E1
:100D0000F8B504460D460079204900EB400001EBA0
:100D10008006307A08B10820F8BD3AB132606868C0
:100D20007060002003464FF4A07709E00720F8BD6B
:100D3000226807EB800153505158401CC0B200910B
:100D400061798142F4D82068E978000B40B2FFF75E
:100D500069FE20686978D0F8042561F30102C0F8C3
:100D600004252068A978D0F8082561F30102C0F8AD
:100D7000082520682978D0F8102561F30302C0F80F
:100D80001025012030720020F8BD00006000002016
:100D900030B541EA4201DDE9034541EA83018000C3
:100DA00041EA042100F1A04041EA0541C0F80017E2
:100DB00030BD800000F5E06000F1A040026822F440
:100DC00040320260026842EA01410160704700005F
:100DD000034908B50844002101600068009008BD7F
:100DE0000060004002494058012800D000207047B0
:100DF000006000407047000003000100040003068B
:100E000000000000240E0000000000201800000078
:100E1000480800003C0E0000180000205820000088
:100E2000580800000080004000040000000000009E
:0C0E300000000000000000000090D00353
:0400000500000401F2
:00000001FF
