:020000040000FA
:1000000038270020150400001D0400001F04000014
:10001000210400002304000025040000000000006B
:1000200000000000000000000000000027040000A5
:1000300029040000000000002B0400002D04000033
:10004000E10500002F040000F50800002F04000067
:100050002F0400002F0400002F0400002F040000D4
:100060002F040000CD080000E10800002F0400006C
:100070002F0400002F0400002F0400002F040000B4
:100080002F040000390600002F0400005305000073
:100090005D0600002F0400002F0400002F04000064
:1000A0002F0400002F0400002F0400002F04000084
:1000B0002F0400002F0400000000000000000000DA
:1000C0002F0400002F0400002F0400002F04000064
:1000D0002F0400002F0400002F0400000000000087
:1000E0000000000000000000000000000000000010
:1000F0000000000000000000000000000000000000
:1001000000000000000000000000000000000000EF
:1001100000000000000000000000000000000000DF
:10040000DFF80CD000F074F800480047091700002E
:10041000382700200648804706480047FEE7FEE7E9
:10042000FEE7FEE7FEE7FEE7FEE7FEE7FEE7FEE7A4
:10043000610600000104000040EA01039B0703D0AD
:1004400009E008C9121F08C0042AFAD203E011F813
:10045000013B00F8013B521EF9D27047D2B201E0D5
:1004600000F8012B491EFBD270470022F6E710B5B9
:1004700013460A4604461946FFF7F0FF204610BD12
:10048000421C10F8011B0029FBD1801A70472DE98E
:10049000F05F0546002092469B4688460646814608
:1004A00040241BE0284641464746224600F041F8DA
:1004B00053465A46C01A914110D311461846224657
:1004C00000F028F82D1A67EB01084F46224601205C
:1004D000002100F01FF817EB00094E41201EA4F187
:1004E0000104DFDC484631462A464346BDE8F09F1A
:1004F000064C074D06E0E06840F0010394E8070071
:1005000098471034AC42F6D3FFF77EFF6C2D000005
:100510008C2D0000202A04DB203A00FA02F1002092
:1005200070479140C2F1200320FA03F31943904031
:100530007047202A04DB203A21FA02F0002170479C
:1005400021FA02F3D040C2F120029140084319463B
:10055000704710B50121080200F0E0FD02214FF4C0
:10056000827000F0DBFD04214FF4847000F0D6FDB2
:10057000BDE8104008214FF4867000F0CFBD00F0B8
:100580001F02012191404009800000F1E020C0F8E5
:100590008012704700F01F02012191404009800045
:1005A00000F1E020C0F80011704700F01F020121A7
:1005B00091404009800000F1E020C0F8001270472F
:1005C0004907090E002806DA00F00F0000F1E020CC
:1005D00080F8141D704700F1E02080F80014704787
:1005E0002DE9F0414FF48077384601F0EDF8012411
:1005F000104EA50748B1384601F0EDF80120C5F8C6
:1006000008037470002000F073FD4FF482773846C1
:1006100001F0DAF800280BD0384601F0DCF80220AF
:10062000C5F80803B470BDE8F041012000F060BDDA
:10063000BDE8F0813C01002007480021C0F84011CE
:10064000C0F84411C0F84811C0F84C11C0F80011AE
:10065000C0F8041102F0A6B90010014002F03EB942
:1006600070B58D480023021D0178101D0124062954
:1006700007D115782D0704D10578C5F30315032D8F
:1006800002D0062904D00FE0854E844D75670EE038
:1006900015782D0708D10578C5F30315032D06D06D
:1006A000042D04D0052D02D0062909D010E04FF00A
:1006B0008055D5F844527B4EC5F34235356002E093
:1006C00015782D0704D10578C5F30315032D02D045
:1006D000062906D011E0744D2E6826F080762E6033
:1006E0000EE015782D0708D10578C5F30315032D05
:1006F00006D0042D04D0052D02D006290AD011E021
:100700004FF08045C5F80C31C5F81031654D2D1FEF
:100710002B6002E015782D0704D10578C5F3031589
:10072000032D02D0062905D00CE05E4A0321643275
:1007300011600AE015782D0704D10578C5F303157B
:10074000032D02D006290DD06AE0584A0521116018
:10075000564978310C60554908310B603F21121D14
:10076000116002E0117809075AD10078C0F3031034
:10077000052855D14E4800684E4908604C48001D78
:100780000068091D08604A4808300068091D0860B3
:1007900047480C300068091D086045481030006863
:1007A000091D0860424814300068091D086040486F
:1007B000183000683F49203108603D481C3000680F
:1007C000091D08603A4820300068091D0860384853
:1007D00024300068091D0860354828300068091D6C
:1007E000086033482C300068091D086030483030FC
:1007F00000683049403108602D4834300068091DD8
:1008000008602B4838300068091D086028483C30D3
:100810000068091D0860264840300068091D08600E
:1008200021487438016841F470010160BFF34F8FB3
:10083000BFF36F8F4FF01021D1F80002002803DBC7
:10084000D1F80402002822DA1B4A14601B4804680D
:10085000002CFCD01524C1F800420568002DFCD006
:10086000C1F8044201680029FCD013600168002926
:10087000FCD0BFF34F8F0C48F0380168104A01F4E8
:10088000E06111430160BFF34F8F00BFFDE70E49E8
:100890000C48086070BD0000E00F00F00DF0ADBA2C
:1008A00000C007403C050040FCED00E01056004051
:1008B0000404001020C5004004E5014000E40140AC
:1008C0000400FA050090D003B00000200422024981
:1008D000024800F031BE00005001002000900040AE
:1008E00004220249024800F027BE00005C010020FB
:1008F00000A000400448017F04480029024901D0BB
:1009000002F05FB902F0CEB868010020002000407C
:100910000FB4084B10B504A902AA039800F01CF804
:10092000044602A9002000F048FA204610BC5DF8F9
:1009300014FB0000BB0D000002E008C8121F08C134
:10094000002AFAD170477047002001E001C1121F50
:10095000002AFBD1704700002DE9FF4F8DB00F46F4
:100960000546002606E025280BD0DDE90F1290474A
:100970006D1C761C28780028F5D111B03046BDE8F2
:10098000F08F0024A246A1460122EC4900E0044376
:1009900015F8013F203B02FA03F00842F7D128780E
:1009A0002A2810D06FF02F022878A0F130010929F1
:1009B00014D80AEB8A0102EB410144F0020400EB77
:1009C000010A6D1CF0E701CF5FEA000A03D544F489
:1009D0000054CAF1000A44F002046D1C28782E2845
:1009E00017D115F8010F44F004042A280ED06FF037
:1009F0002F022878A0F1300109290AD809EB8901D2
:100A000002EB410100EB01096D1CF2E757F8049B72
:100A10006D1C28786C280FD006DC4C2817D068286D
:100A20000DD06A2814D104E0742810D07A280FD190
:100A30000DE044F400140AE044F4801401E044F4AE
:100A400040146978814202D104F580146D1C6D1C3C
:100A50002A786E2A1FD00CDC632A31D004DC002AED
:100A60008BD0582A11D1A3E0642A68D0692A0CD10E
:100A700065E0732A2ED004DC6F2A73D0702A04D16B
:100A80009BE0752A6FD0782A6ED01046DDE90F12F0
:100A90009047761C50E1C4F30250022806D0032888
:100AA00009D0042801CF09D0066045E101CFF11734
:100AB000C0E9006140E101CF06803DE106703BE105
:100AC00017F8040B8DF8000000208DF80100EB46AC
:100AD000012003E057F804BB4FF0FF3061074FF0EF
:100AE000000102D40DE008F10101884649450FDA02
:100AF0008045F8DB1BF808100029F4D108E008F164
:100B0000010188468142FADB1BF808100029F6D162
:100B1000DDE90F23AAEB08008146214600F036F9F3
:100B2000304400EB080604E0DDE90F121BF8010B6E
:100B30009047B8F10108F7D221464846F7E00A216C
:100B4000C4F302534FF0000B0891022B04D001CFE5
:100B5000C117032B09D00AE0FF1D27F00707F7E8AC
:100B6000020108E032E01FE020E000B2C117042BD0
:100B700001D140B2C117031E71F1000307DA4FF033
:100B8000000CD0EB0C006CEB01012D2302E02305DF
:100B900004D52B238DF82430012303E0E30701D093
:100BA0002023F7E7984658E00A2110E010210EE0D4
:100BB00010204FF0000B08900CE010214FF0000BBC
:100BC00044F004044FF00809089103E008214FF0B5
:100BD000000B0891C4F30253022B04D001CF002173
:100BE000032B06D006E0FF1D27F00707F7E80201F8
:100BF00003E080B2042B00D1C0B24FF000082307FD
:100C00002BD5702A07D0DDF820C08CF0100C5CEAE0
:100C10000B0C05D00EE040238DF82430012308E0B2
:100C200050EA010306D030238DF824308DF82520BA
:100C300002239846DDF820C08CF0080C5CEA0B0C0F
:100C40000BD150EA010301D1630706D530238DF89B
:100C500024304FF00108A9F10109582A04D038A224
:100C60000B9208AA0A920BE03AA2F9E75B46089AAF
:100C7000FFF70DFC0B9B9B5C0A9A521E0A921370A5
:100C800050EA0102F2D10A98ADEB000000F1200B0E
:100C9000600702D524F4803401E04FF00109D94502
:100CA00002DDA9EB0B0000E0002000EB0B0141444A
:100CB0000890AAEB010AE00306D4DDE90F232146E0
:100CC000504600F063F806444FF0000908E009A917
:100CD00011F80900DDE90F12904709F10109761CAE
:100CE000C145F4DBE0030CD5DDE90F232146504676
:100CF00000F04CF8064404E0DDE90F123020904784
:100D0000761C0899481E08900029F5DC08E00A982E
:100D10000A990078491C0A91DDE90F129047761C68
:100D2000BBF10001ABF1010BF1DC21465046DDE9DE
:100D30000F2300F019F806446D1C1BE6092801007A
:100D40003031323334353637383961626364656641
:100D50000000000030313233343536373839414203
:100D600043444546000000002DE9F04104460025BB
:100D70001E461746880404D405E039462020B047B3
:100D80006D1C641EF9D52846BDE8F0812DE9F041BF
:100D9000044600251E469046C80301D5302700E0D2
:100DA0002027880404D505E041463846B0476D1C2D
:100DB000641EF9D52846BDE8F0810A68531C0B6013
:100DC000107070470BA1012001F008FC01F060FBDE
:100DD00001F062FB0028FBD1BFF34F8F0B48016885
:100DE0000B4A01F4E06111430160BFF34F8F00BF74
:100DF000FDE700004150505F4552524F523A455274
:100E0000524F523A466174616C0D0A000CED00E0DD
:100E10000400FA050EB500210091CDE901106A46E3
:100E200044F20100FFF7CEFF0EBD0000074B5B68E8
:100E300023B12AB120B10068037C1BB108207047A0
:100E400007207047417442610020704780000020F5
:100E50002DE9F047074698461446894690074FF01B
:100E6000000526D12CB301F0B9FC134E06F1100099
:100E7000C6F80C800570457080F80290446075607B
:100E8000357075701420FFF77AFB06211420FFF7E8
:100E900097FB1420FFF77EFB08480760062111200E
:100EA000FFF78EFB0548001F0068B0600020BDE81A
:100EB000F0870720FBE700007000002008150140C4
:100EC0002DE9F843DFF87090D9F804305BB350B3E4
:100ED000052902D20720BDE8F88343691BB3437C90
:100EE000012B22D0002704460025884616462846B6
:100EF00000F026F8684601F0DDFEC0B10121017066
:100F00000E4944600968C0E90218C0E904769DF8FA
:100F1000000089F80100002000F014F81420FFF709
:100F200044FB2846D7E70820D5E70F46DBE7042532
:100F3000002000F007F8F4E78000002004150140CD
:100F400000F002B800F008B872B602480168491C07
:100F5000016070479000002003490868401E086047
:100F600000D162B670470000900000202DE9F041EA
:100F700005460878214F012606FA00F00C46386035
:100F8000086801F030F90021606801F023F9287940
:100F90001B4901EB4010A169007F00282868C0F8B8
:100FA000241519D0607D217D2A680843C2F86C059C
:100FB00018E00021A06801F00DF9207B86403E601A
:100FC000E06801F010F9D4E902122868C0F8082599
:100FD000C0F81015BDE8F081607D227D29681043BE
:100FE000C1F86C05D4E900122868C0F80C15C0F8E7
:100FF0001425207D0128DCD0ECE700000805005016
:1010000068010020002901DA0020704702681144BD
:1010100001600120704700002DE9F041461C0125C8
:101020000020FFF78DFF1149741CD1E900208F6863
:10103000101A3B1A5B1C9C420FD963B10C480D4B34
:101040003A4000681B6801EB820263F39F20D06086
:101050000868401C0860002501E090190860002025
:10106000FFF770FF2846BDE8F08100002003002054
:101070003C2D0000AC000020034803C8814201D190
:101080000120704700207047200300200348017FA3
:10109000B1FA81F1C1F11F014176704700020020D1
:1010A00070B5491C114AC9B202EB410332F8115024
:1010B00033F8022C5C88AE1833198E1E72434E1E14
:1010C00005FB062204FB01218289807B521E401E03
:1010D0005143584301EB5001B1FBF0F0401C84B286
:1010E00028210248FFF7C1F9204670BDD801002031
:1010F00070B5084C050009D010342168002907D0CC
:1011000008682060496828468847F6E70834F4E70D
:1011100070BD00003C0100207047000010B504467F
:1011200008482258002A0CD0D0F80403084208D0FE
:10113000204600F059FB044920464968BDE81040AC
:10114000084710BD00300140600000202DE9F05F2D
:1011500026484168F1B3DFF898B00E688146DBF8A5
:10116000004087688078E11B21F07F45ED1CB0B915
:10117000DFF880804FF48030C8F84403C8F80403D7
:101180001120FFF7FCF91120FFF704FA4FF0010AD4
:10119000C8F800A02F2000F0E5FB89F802A0B542B6
:1011A00000D23546124BE8193C3320F07F401860DE
:1011B000DBF800105A46091B21F07F41001B20F08C
:1011C0007F40C91C81420FD9106818602F2000F0A1
:1011D000C9FB00E004E0BDE8F05F1120FFF7E5B9CE
:1011E000BDE8F05F01F0FABABDE8F09F70000020A2
:1011F000041501400010014038B50E4C617E04EB2F
:1012000041010881ADF80000607E8DF80200207F6A
:10121000627E012191408843207700D12076616869
:1012200068468847207F002803D0FFF72FFF00F093
:1012300051FD38BD0002002010B5B0F5A07F0FD1E0
:1012400008480068D0F8440584B2064800F07AFEE9
:10125000044800F0F5FD2046BDE81040FFF7CCBF84
:1012600010BD0000002D00002DE9FE43434D8178A4
:1012700001262A7F06FA01F31A427CD005EB4101D0
:101280000088888100F020FD002874D13C48A5F139
:1012900010074FF0000844685FE0E07BC0B30194A2
:1012A000D4F804C0002000BF05EB40018A8937F85C
:1012B0001010A1F10F039A4202DB0F318A4201D9CB
:1012C000002012E0401CC0B20828EDD344E000BF6B
:1012D0009CF80710BCF8042005EB41018989914274
:1012E00001D9012004E0DCF800C0BCF1000FEFD10F
:1012F000217C71B10028A07B1CD001282CD920466C
:1013000000F0CEF8ADF8080004208DF8000020E0D1
:1013100022E008B3A07B012808D9204600F0C0F8DD
:10132000ADF8080002208DF8000001E08DF8008083
:1013300026740EE0012808D9204600F0B1F8ADF877
:10134000080003208DF8000001E08DF8006084F8AB
:1013500010802968684688472468002C9DD107487A
:1013600028212030FFF781F8044910220C31A1F127
:101370001C00FFF761F8BDE8FE830000B801002003
:101380009400002003480079022801D100F0A2BC9B
:1013900070470000B8010020704700000E4910B5EA
:1013A0000A784C780023A24212D0521CD2B20A70A2
:1013B000022A00D10B70084A0B78183252F8232009
:1013C00002608868104420F07F408860012010BDD2
:1013D0000360002010BD0000700000202DE9F043E4
:1013E0000346002002462D4E02244FF001095968A1
:1013F00051E0CD798F79D3F808C006EB450504EBB1
:101400008707AD893CF80780A84501D92CF807501B
:101410008F79D3F808C03CF82780A84501D22CF872
:1014200027508D799F6804EB850837F825C037F879
:101430000870BC4523D9ACEB070C1FFA8CFCBCF13F
:10144000000F1CD091F8078006EB4808B8F80C8014
:10145000A8EB07074FF47A7807FB08F7B7FBFCF710
:10146000DFF838C0BFB20CF1200C0CEB45059742F9
:101470006F8008D98D793A4609FA05F00AE04FF0F5
:101480000000BDE8F08305D13A468F7909FA07F5E7
:1014900045EA000009680029ABD1F2E7B801002055
:1014A0002DE9F0478146FFF799FF02004FF6FF70E4
:1014B0003CD0514232EA010108D0002604463146B0
:1014C0004FF001081A4F99F80E5021E0B2FA82F05D
:1014D000C0F11F0080B223E008FA01FC1CEA020FF1
:1014E00014D007EB410C37F81130BCF804C05CFA9B
:1014F00083F3DBB221B1A5F1010C8C4500D05B0870
:10150000462B03D9B34201D91E460846491CC9B22D
:101510008D42E1D80749A04201D1088800E0088047
:10152000C1B24846BDE8F047FFF7BABDBDE8F08755
:10153000D8010020940000202DE9F843002516462C
:10154000884604462F4614E04FF4A07000EB850057
:101550004FF480312258A9404AB1D4F804230A42FA
:1015600005D0275021580091D8E9002190476D1CE3
:10157000EDB2B542E8D3BDE8F88300000121814017
:1015800003484068014201D00120704700207047A5
:101590006800002001218140080300D0012070472D
:1015A00002680A60016070472DE9F043264CA4F1FF
:1015B00010092278D9F8048099F80350404694F82D
:1015C00001C0D9F8086031E002EB42036168521CA7
:1015D00001EBC301A378D2B2934200D100220B7871
:1015E000022B02D0032B21D11DE003464F68194680
:1015F00003E0B94203D00B46C969B9B1F9E7A9B113
:101600008B4205D1C06918B9104E0125B56000267E
:101610000F68C969D96149B10B683B440B6005E0AB
:101620000174C06900E000210028F9D19445CBD1B4
:10163000C9E9010689F80350404502D00120BDE800
:10164000F0830020FBE70000800000200010014034
:101650002DE9F0412A4F0446002607F11005D7F87E
:1016600004803EE002D02046E4691DE028786968E5
:1016700000EB4002401CC0B201EBC2012870AA7806
:10168000904200D12E700A784868012A2BD1027C42
:101690004ABB8A684260CA6882600A69C260496956
:1016A0008161F97801B146604368BA68DFF854C0D7
:1016B000991A21F07F41614502D28268114406E007
:1016C000D11A826821F07F418A4202D9511A016001
:1016D00000E006604660012186600174C66101F089
:1016E00043F9002CBED1287869788842BED1796848
:1016F000414502D00120BDE8F0810020FBE7000059
:1017000070000020FFFF7F00002000F0C3FF08B141
:10171000FFF780FB1CA1032000F060FF0023264A96
:1017200005211846FFF794FB08B1FFF773FB00F0A3
:101730005FF910B1FFF76EFB02E0002000F070F9D6
:1017400040F602011D4800F0E9F808B1FFF762FB1E
:101750001B48811C486118311A484861A1F11800E2
:1017600000F04CF808B1FFF755FB15481A3000F0AF
:1017700045F808B1FFF74EFBAFF3038000F08CFE95
:101780000028FBD1F8E700004150503A494E464F3F
:101790003A436170616369746976652073656E733D
:1017A000696E67206C696272617279206578616D1B
:1017B000706C652E0D0A0000B40000208118000036
:1017C0000A0000209D28000000F1804000680028E9
:1017D00000D00120704708B500F180400021016071
:1017E0000068009008BD0000034908B508440022C5
:1017F00002600068009008BD00300140044900E02C
:1018000011460A68002AFBD1086000F003B8000006
:10181000980000202DE9F041174C05460026207F56
:1018200038B916480022A1684068FFF749FB002834
:101830001FD10122EA7302274FF6FF7E686811E08C
:101840008379A96807EB830321F803E090F807C0C8
:10185000237F02FA0CF10B4203D10E430B43F6B285
:10186000237700680028EBD12771304600F0CAF9D1
:101870000020BDE8F0810000B8010020F02C00003D
:10188000017805291ED2DFE801F021032121100093
:1018900040680F49884219D140690188491C8AB2C1
:1018A00002800CA1032000F0BFBE094A4168183233
:1018B00091420BD10089A0F57F42FF3A06D04A69D8
:1018C000022110470DA1022000F088BE70470000E1
:1018D0000C0000204150503A494E464F3A42757430
:1018E000746F6E20746F756368656420253033648F
:1018F0002074696D65732E0D0A0000004150503A46
:101900005741524E494E473A556E6B6E6F776E2077
:101910006576656E742E0D0A0000000010B50C4C43
:101920000D4AA1600B4920600020486001210B484E
:10193000FFF77CFA002809D108480949001F00F088
:101940006FF9002802D101202071002010BD000095
:10195000B80100209400002085130000F42C000042
:101960006912000000283ED01F49204A096800BFC4
:1019700000BF00BF00BF00BF00BF00BF00BF91425B
:101980002FD000BF00BF00BF00BF00BF00BF00BF1F
:1019900000BF00BF00BF00BF00BF00BF00BF00BF4F
:1019A00000BF00BF00BF00BF00BF00BF00BF00BF3F
:1019B00000BF00BF00BF00BF00BF00BF00BF00BF2F
:1019C00000BF00BF00BF00BF00BF00BF00BF00BF1F
:1019D00000BF00BF00BF00BF00BF00BF00BF00BF0F
:1019E00000BF401EC3D17047B00000200024F400A7
:1019F00010B5094C207808B1852010BD0020A060EA
:101A000060602061E060062100F03AF8034901209F
:101A100008602070002010BD3C0100201805004027
:101A200070B5154D0446A87838B114B1616801202D
:101A300088470020FFF784FA15E00020FFF780FABE
:101A400024B10D4821461030FFF7AAFDE86850B9CF
:101A50004FF48270FFF7BFFE02204107C1F8040374
:101A6000064901200860E868401CE860BDE8704055
:101A70000020FFF767BA00003C010020080000408A
:101A80004907090E002806DA00F00F0202F1E022F1
:101A900082F8141D03E000F1E02282F8001400F047
:101AA0001F02012191404009800000F1E020C0F8B0
:101AB0008012C0F8001170472DE9F843354D0446F7
:101AC0000E46287810B10820BDE8F88304B9324CDE
:101AD000DFF8C880012708F10400076030490220C0
:101AE0000860C001FFF780FE4FF48270FFF77CFEB4
:101AF0004FF48470FFF778FE4FF48670FFF774FEA2
:101B000027492078083108602078072802D1091D6C
:101B100060780860B4F80300ADF800009DF800009C
:101B20009DF801104FF47C5200F03F0002EA0121C1
:101B300008431B49303108601948A17834300268E5
:101B400042EA01210160617902680A430260144996
:101B5000A079383100F001000860E079091D00F03B
:101B600003000860D8F8001221F01C01C8F8001228
:101B70000F21C8F808135EB109496E60091D207A6B
:101B80000860617A1320FFF77BFF2F7000209BE72E
:101B9000072099E760000020E42C0000003001409D
:101BA0000035014030B50B490A680B4C0123C2F3E4
:101BB00040022360094C2578022D00D123700023B8
:101BC0000B60044B1B1D1860002A01D00220086026
:101BD00030BD0000003501400430014060000020AD
:101BE000064AC2F80403D2F800020843C2F8000211
:101BF0000120106002490220087070470030014047
:101C000060000020054901220A7602220A708A7EBD
:101C100002438A7600200876704700000002002008
:101C2000FEB5D8B1D1B1224D002669606E77214F43
:101C300007F1180007C88DE807004FF08050D0F872
:101C400024031D49C0F30420086003248DF80740D5
:101C50001A496846FFF730FF78B901E00720FEBD5A
:101C6000D7E90401CDE9010112488DF80560144A55
:101C700001A9083000F01EF908B12046FEBD01267A
:101C80008DF805600F4A01A90A4800F013F90028F1
:101C9000F3D140F20113142200210648009600F00F
:101CA000F3F800F04FFD0028E8D12E70FEBD0000D3
:101CB00000020020F82C00004035014019110000FE
:101CC00099130000391200000148007E704700009F
:101CD0000002002070B5154CA07EE0B1207F0125E8
:101CE00040B9207E08B1112070BD2576A07E2077F6
:101CF000FFF7CCF9607F00280D480ED000F026F9E0
:101D00000B48083000F022F9607EFFF74BFF0021FE
:101D10000846FFF765FF002070BD00F0A7F80448F3
:101D2000083000F0A3F86577EEE70000000200201D
:101D3000F82C00002DE9F0470427144E81460024BA
:101D40004FF001080020FFF7FBF808FA04F53542D0
:101D500003D02046FFF712FC58B10020FFF7F2F83D
:101D600027B104F10104AE43E4B2EBD13846BDE83B
:101D7000F087074908FA04F000274A6810434860D2
:101D800089F800403846FFF7DDF8EFE7FFFF0F0066
:101D90006800002070B514460D00064610D07CB1D6
:101DA000FFF7F8FB70B13046FFF7E8FB60B107487A
:101DB00000EBC600C0F81055C0F81445002070BDF7
:101DC0000E2070BD072070BD082070BD00F00140DE
:101DD00070B504460125A540FFF7DCFB18B120468D
:101DE000FFF7CCFB18B103480560002070BD082048
:101DF00070BD000004F5014070B50C460546FFF7C4
:101E0000C9FB50B12846FFF7B9FB40B1054901EBCA
:101E10008500C0F81049002070BD072070BD082063
:101E200070BD000000F001400448017809B1852030
:101E300070470121017000207047000068000020F9
:101E400000680121C160704730B54FF480340568E7
:101E50008C4013B1C5F8044301E0C5F8084300689D
:101E600000EB8100C0F8402530BD00000168012270
:101E70000A600079034A00EB400002EB8000022177
:101E80000172704750010020F0B40468049E40F2D3
:101E90000115D4F800728D40AF43C4F80072046895
:101EA000D4F800521D43C4F800523346F0BCFFF78B
:101EB000CBBF0000F8B504460D460079204900EB81
:101EC000400001EB8006307A08B10820F8BD3AB135
:101ED000326068687060002003464FF4A07709E024
:101EE0000720F8BD226807EB800153505158401C71
:101EF000C0B2009161798142F4D82068E978000B82
:101F000040B2FFF7BDFD20686978D0F8042561F381
:101F10000102C0F804252068A978D0F8082561F3EB
:101F20000102C0F8082520682978D0F8102561F34F
:101F30000302C0F81025012030720020F8BD000017
:101F400050010020006801214160704700680121B4
:101F5000016070472DE9F041044600792D4F90460D
:101F600007EB40150E46E87E10B10820BDE8F08171
:101F7000707F28772046FEF7F9FF5FEA0800686067
:101F80003169296031D0207996F81C8007EB401028
:101F90004FF4A276007F0028206814D04FF4887197
:101FA00000F0A0FB4FF49071206800F09BFB4FF411
:101FB0009271206800F096FB3146206800F092FB99
:101FC0001549206809E04FF48E7100F07AFB314624
:101FD000206800F076FB11492068C0F804132068DF
:101FE0004146000B40B2FFF74BFD207907EB401054
:101FF000007F0028206801D0082100E00421C0F8FB
:1020000000150020E8752876A8750121E976A876E4
:10201000ACE700006801002010030200800002000D
:102020002DE9F047054600793E4C0E4604EB40137F
:10203000187F38B14FF40050B0EB164F02D010208B
:10204000BDE8F087284600F06FF808B11120F7E7E7
:102050009A7500279E609F8228794FF0010804EB53
:1020600040143E46207F0028286825D04FF4907900
:10207000494600F037FB4FF4AC7A5146286800F02F
:1020800031FB2868A17DA268C0F84425C0F8481536
:102090002868C0F808806068F0B94946286800F0F0
:1020A0001CFB80465146286800F017FB58EA0001E7
:1020B000F3D058BBA7750FE04FF48E7A514600F06D
:1020C00000FB2868C0F808802146286800F0C4FC9E
:1020D00061684FF4807089B13046B1E75146286895
:1020E00000F0EAFA10B9A08A4845F7D1A08A48451D
:1020F00005D02146286800F0AFFC00E08146A08AA8
:10210000A17D8842EAD3A08A484501D10F26D1E7B4
:102110005146286800F0D0FA0028F9D02868C0F8A5
:102120000C80C7E7680100200079044901EB4010EA
:10213000807D002800D00120704700006801002049
:1021400070B50179144A002502EB41140168237F20
:10215000C1F800556168C9B1017902EB4111097FED
:102160000029016801D00D4A01E00C4A8C3AC1F8FF
:10217000082301680122090B49B201F01F039A40AC
:102180004909890001F1E021C1F8802100F0B0FA8D
:10219000E576656070BD0000680100201003020054
:1021A00030B541EA4201DDE9034541EA830180009F
:1021B00041EA042100F1A04041EA0541C0F80017BE
:1021C00030BD1CB5002100910B4601220191FFF7A3
:1021D000E7FF1CBD1CB500220B4600921146019280
:1021E000FFF7DEFF1CBD1CB5002100910B4601224C
:1021F00001911146FFF7D4FF1CBD00000048704755
:102200007522000030B5184C054689B0207828B1F9
:102210006078854202D1002009B030BD20221349E8
:102220006846FEF709F900208DF81400062000909A
:102230000820019005200390072002904FF0EB70DA
:1022400006900948001DFFF77BFF0DB1002200E05A
:10225000074A05486946001DFFF77CFE0028DBD1D0
:10226000012020706570D6E7A00000201C2D000022
:10227000952A00002DE9F04FC1B00D00DDF82CB11A
:102280004D984FF000011C4690460BEB000A409120
:1022900001D00A2600E0002600F0E4FA002873D1FD
:1022A0006F46BCB9409840AA3918284600F0BCFBDC
:1022B000002869D04046FEF7E3F8C22800D9C220C2
:1022C000054640982A4638444146FEF7B5F84098FE
:1022D000284440904FF020094098821931320DEB8C
:1022E00002016844002202E000F8019B521CB24245
:1022F000FAD30027544508D300F8019B00F8019B4E
:1023000000F8019B01F8019B26E05C4502D24A9A45
:10231000125D03E04C9AA4EB0B03D25C84460125CA
:10232000AB0022FA03F808F00F03092B01D9373369
:1023300000E03033C5F101086D1E0CF80830EFD213
:102340000CF10200A2F1200300F8019B5E2B00D9E2
:102350002E2201F8012B641C7F1C102FCAD30D22E2
:102360000A700A224A7080F800904098811943311F
:102370006846409100F07CFA30B100F073FA18B969
:10238000002040905445A7D341B02046BDE8F08FCF
:102390002DE9F043C5B000251C46904689464C9F68
:1023A000449500F05FFAB0BB449804AE311844AADB
:1023B000484600F039FB00282ED0072F22D2DFE854
:1023C00007F00412192E384451004046FEF758F821
:1023D000054644982918FF2914D830442A46414616
:1023E000FEF72AF80EE04498226830444146FEF792
:1023F0008FFA06E0D4E90023449841463044FEF7C2
:1024000087FA0546294644A8FEF7FCFD18B1449911
:10241000B1F5807F33D9002045B0BDE8F083A068D6
:102420000090D4E90023449841463044FEF770FA06
:10243000E7E7D4E90201CDE90001D4E9002344989B
:1024400041463044FEF764FADBE704F1080007C8B0
:102450008DE80700D4E90023449841463044FEF754
:1024600057FACEE704F108000FC88DE80F00D4E951
:102470000023449841463044FEF74AFAC1E704A8D5
:1024800000F0F6F9C8E7000000487047912300000B
:102490000120FFF7B7BE00002DE9F04F87B0FEF72F
:1024A000EBFD18B1002007B0BDE8F08F454ED6E92E
:1024B000014704EA070006EB8000A146641CC568DA
:1024C0000CE000BFC5F3891000EB9550044404EA0A
:1024D000070006EB8000A146C568641CA807F1D080
:1024E00005F003004FF0000B022805D0AA0A01A84E
:1024F000C5F38313002153E004EA070006EB8000D4
:1025000004F1010A0AEA0704C268381B80004FEA96
:102510009558001DC5F38913804521D929490C31EF
:1025200038B106EB840400F0FF0CA8EB00000C347B
:1025300004E00C46002108F0FF0C0846C0B2CDE9CB
:102540000210CDE9004CD6F81444C5F3C200594638
:10255000A047404511D108F103080AEB98042AE08E
:10256000002106EB84000C300090CDE9018103913D
:10257000C5F3C200D6F81444EAE760F38F1509EA00
:10258000070006EB8000C56016E000BF04EA070CF8
:1025900006EB8C0C491CDCF80CC040F804CB641C26
:1025A0009942F3D3C5F3C2000093D6F8105401AB9F
:1025B0005946A84700B17460FEF75EFD80F0010047
:1025C00071E7000020030020034AFF2393600023EB
:1025D0001360536000F056B8200300202DE9F04747
:1025E000DFF83C800446002689463046D8F808705B
:1025F000D8F80050FEF710FD00280ED00948002141
:102600003D40406861F3820064F3C50066F38910C1
:1026100008EB850169F39F20C860BDE8F0870000E2
:10262000200300203C2D00002DE9F047DFF84C800E
:1026300005460127924689463846D8F80860D8F8FA
:102640000040FEF7E9FC002815D00D48002104EAFF
:1026500006028068641C61F3820065F3C50067F3BD
:10266000891008EB8202344069F39F2008EB840153
:10267000D060C1F80CA0BDE8F08700002003002066
:102680003C2D0000024A02F5826203C2704700003E
:102690002003002070B506460020FFF7B3FD0400BC
:1026A00008D1FFF7ABFD0546FFF7EEFE324629469F
:1026B000FFF78AFF204670BD4058002800D0012057
:1026C000704708B5002242504058009008BDD0F82D
:1026D0000403084000D0012070474058002800D073
:1026E0000120704708B5002242504058009008BDB4
:1026F00070B502464FF0FF301168D1F80C35D1F8B3
:102700001465D1F80855D1F81045C1F80C05C1F889
:1027100014051168C1F80805C1F810051846FFF73F
:1027200050FD3046FFF74DFD601C02D02046FFF7FC
:1027300048FD681C04D02846BDE87040FFF741BD45
:1027400070BD000070B5FFF76FFB08B1852834D16C
:102750001E4C00256019FFF7EDFA70BB6D1CEDB241
:10276000032DF7D31A4E1B49207832680832FFF741
:1027700011FB10BB06F1080531682A68607801F585
:10278000A0714432FFF706FBB8B913496078FFF730
:1027900033FB90B90F4932680C39A0780C32FFF73F
:1027A000F9FA50B92968A0780C31FFF725FB20B958
:1027B0000025605DFFF70CFB08B1032070BD6D1CA8
:1027C000EDB2032DF5D3002070BD00009C00002069
:1027D000F82C00000C3101400430014070B5012696
:1027E00070044FF0E0210025C1F88001084C401032
:1027F000C4F84803C4F8080366602F20FFF7B2F856
:10280000A660044C2F20A560FFF7ACF8A57070BD42
:10281000001001407000002070B50546C87D0C46D0
:1028200000284FF4847128460AD0FFF74AFFD5F8F4
:102830001805627EE1688854607E401C607670BD39
:10284000FFF73FFFD5F8180570BD1FB501238DF8C0
:1028500000308DF808100192D0E9001268469047C8
:102860001FBD00000148FFF75FBC0000A40000206E
:1028700070B50D460A46014601240648FDF7DCFD09
:10288000EAB204490448FFF7CBFB00B1002420461C
:1028900070BD000020020020A400002070B5064D8D
:1028A00004462888A04205D0224604A10320FFF751
:1028B000BBFE2C8070BD0000080000204150503A43
:1028C000494E464F3A536C696465722076616C7567
:1028D000653A20253033642E0D0A00002DE9F84FAB
:1028E000204C00256846D4E901B6FEF757FD804626
:1028F000FEF75AFE0746A946B8F1000F25D000237F
:10290000009ACC46606819E007680146974202D9F0
:10291000BA1A026014E0C1F800C0D1F80C80D21BD2
:10292000C8693B448A46B8F1000F07D0F71827F072
:102930007F47C1E90178CAF81C500D460028E3D151
:1029400060602846FEF784FE04E02846FEF780FE1D
:1029500000B917B15846FEF7F9FB84F80390BDE8BB
:10296000F88F0000700000200D4B10B5596831B190
:1029700002680C68A24204D8A21A0A60C1615860B9
:1029800010BD0B4603E00B46C969121B21B10C6850
:102990009442F8D3A41A0C600260C161D86110BDE2
:1029A000700000202DE9F0411D4D6C68002C35D0E1
:1029B0001C4800270068A968B846401A20F07F46E6
:1029C0002068B04215D82246361A0744E469107CC4
:1029D00068B182F81080EB6833B1D2E905019847FD
:1029E00028B1FEF717FA02E0D2E905108847002C5B
:1029F000E6D129786878814206D1401CC0B268705F
:102A0000022801D185F8018005486978183040F81E
:102A10002170BDE8F0411420FDF7C7BDBDE8F0818D
:102A2000700000200415014010B5144602004FF05C
:102A300001000AD00846126805A1FDF769FF0146AA
:102A40002046BDE81040FEF7DDBA0021216010BD30
:102A50005B253038645D000070B50C4605464FF4C8
:102A60008E71FFF72EFEA18AA068415CA08A401CEF
:102A7000A082C5F81C1570BD1FB500228DF800207E
:102A80008DF80810816801918275D0E900126846BE
:102A900090471FBD0078012801D101498870704717
:102AA000A00000202DE9FF470C4605464FF40071B9
:102AB000FFF70DFE01274FF40178002618B34FF4FD
:102AC000927949462846FFF7F7FDE0B14946284686
:102AD000FFF7F7FDC5F80883A07E00B96F600220FC
:102AE0008DF80000D5F88004C5F880040390E07DDF
:102AF0008DF80800E0680190E6752676D4E90012AA
:102B00006846904727E004212846FFF7E0FD10B310
:102B10004FF484712846FFF7CFFDE0B121462846E7
:102B2000FFF77AFEE07D617E884214D1207E38B1C5
:102B3000617EE268E0752069E0602676667607E0EF
:102B4000A07E00B96F60C5F80883E675617EE26813
:102B50002046FFF77AFE4FF48E7841462846FFF76D
:102B6000ABFD88B1A08AA17D884204D221462846C7
:102B7000FFF772FF08E041462846FFF7A2FDA17D5E
:102B800011B12046FFF778FF4FF4A278414628465E
:102B9000FFF792FD002812D041462846FFF791FD2D
:102BA000A07E00B12F60E07D002808D0E675617E30
:102BB000E26804B02046BDE8F047FFF746BEBDE836
:102BC000FF872DE9FF410C464FF4927705463946C1
:102BD000FFF783FD0026C0B139462846FFF782FD86
:102BE00002208DF80000D5F88004C5F88004039019
:102BF000D5F83C058DF80800E0680190E67526766A
:102C0000D4E900126846904724E04FF488773946AB
:102C10002846FFF762FDE8B139462846FFF762FD16
:102C2000D5F83C05C1B2E07D884213D1207E60B169
:102C3000E268D5F8000220F02000C5F80002207EEE
:102C4000E0752069E060267601E0E675E2682046DE
:102C5000FFF7FBFD4FF4A27739462846FFF73DFD0D
:102C600068B139462846FFF73DFDE07D38B1E6758D
:102C7000D5F83C05E268C1B22046FFF7E6FD4FF407
:102C8000907631462846FFF728FD00280FD03146C0
:102C90002846FFF727FDA07D002808D0D5F84C0571
:102CA00004B0C1B22046BDE8F041FFF7E5BEBDE883
:102CB000FF8100000A4A10B553789478591CC9B2B4
:102CC0008C4200D1002114788C4201D1002010BD2B
:102CD0000170506803EB430100EBC10010BD000020
:102CE00080000020010000113402000000060000F6
:102CF0001E00000088010020009000400004000039
:102D000000A00040010400000000000600000000D8
:102D1000010000113402000000060000FFFFFFFF69
:102D2000FFFFFFFFFFFFFFFFFFFFFFFF00000000AF
:102D3000000000000000D60106010000290000008C
:102D4000010000000100000001000000010000007F
:102D5000010000000100000001000000020000006E
:102D60004F766572666C6F770D0A00008C2D00003F
:102D700000000020B400000038090000402E0000D0
:102D8000B400002084260000480900000000000074
:102D9000B004000700000000000000000000002058
:102DA0005C000020010001000000000000000000A5
:102DB000000000003C0000202C0100203200040034
:102DC000000000000000000044000020E8030004B0
:102DD0004C000020E803010154000020E803020237
:102DE00000000000E80303040000000000000000F1
:102DF00000000000000000000000000000000000D3
:102E000000000000000000000000000000000000C2
:102E100000000000000000000000000000000000B2
:102E200000000000000000000000000000000000A2
:102E30000020004000000000602D00000090D00342
:0400000500000401F2
:00000001FF
