:020000040000FA
:1000000098090020D5000000EF000000F10000007A
:1000100000000000000000000000000000000000E0
:10002000000000000000000000000000F3000000DD
:100030000000000000000000F5000000F7000000D4
:10004000F1020000F9000000F9000000F9000000D2
:10005000F9000000000000005D010000F900000050
:10006000F9000000F9000000F9000000F9000000AC
:10007000F9000000F9000000F9000000F90000009C
:100080000D04000045030000F9000000F900000025
:1000900065030000F9000000F9000000F90000000D
:1000A000F9000000F900000000000000000000005E
:1000B0000000000000000000000000000000000040
:1000C0000348854600F038F800480047710E0000EC
:1000D000980900200321094802680A430260084881
:1000E00002680A4302600748804707480047FEE766
:1000F000FEE7FEE7FEE7FEE7FEE70000240500401E
:10010000540500406D030000C100000030B50B46EF
:10011000014600202022012409E00D46D5409D42E1
:1001200005D31D469540491B254695404019154667
:10013000521E002DF1DC30BD064C0125064E05E0B7
:10014000E36807CC2B430C3C98471034B442F7D3F8
:10015000FFF7BAFF3016000050160000F0B500257A
:10016000FF268BB0013601242F460195304601F061
:1001700003F9002807D048484068204203D03046A1
:1001800001F0F2F82543361D64007F1CB6B2042F3F
:10019000ECD3FF247D34204601F0EEF8002807D090
:1001A000204601F0E1F8600705433C4800690190F2
:1001B0003B4C280714D0012700262F420CD0394889
:1001C000B200111808690969C004C00E8903A25859
:1001D000890F002A00D090477F00761C042EECD3B4
:1001E000002D57DA00200590401E4DE0A119403146
:1001F00008788506AD0E42B2521C39D00121A940C3
:10020000089A0091114233D080090390284600F0EB
:100210005FFC800020580490002802D10398032836
:1002200026D103980099032802D105980843059028
:100230001D4AA80080180068019A8003800F1142AF
:1002400002D0022802D013E0032811D10399032918
:1002500007D102281CD00221284601F075F87F1C26
:10026000FFB20498002803D0049A284603999047C7
:10027000761C042EBAD3002F0CD0084800690199CF
:10028000884207D00190059800273E460890ADE7C8
:100290000321E1E70BB0F0BD006300400005005012
:1002A0002C01002000650040000700508307FF225A
:1002B000DB0E9A408907090E994000280BDA0007E7
:1002C000000F0838830808489B001818C369934337
:1002D0000B43C3617047830804489B001B181868D0
:1002E000904308431860704700ED00E000E400E030
:1002F000F8B5FF20013000F03FFE002401250E4E2E
:100300000E4F002807D00E4804600120B0607D70B9
:10031000002000F0E5FBFF20053000F02DFE002856
:1003200008D00748001D04600220B060BD700120A5
:1003300000F0D6FBF8BD00000003004018010020CB
:100340000001004010B50649002008604860886040
:10035000C860034940390860486001F0DBF810BD0F
:100360004011014010B501F04BF810BD10B500F080
:1003700097FC002805D01F491D484860C8131E4936
:1003800088611E48018CC9B201290BD1828C1207E9
:1003900008D1028D1206120F042A03D1828D120693
:1003A000120F0AD0012921D1818C09071ED1018D9C
:1003B0000906090F0A2904D007E0114A01219160BA
:1003C000F5E7828D1206120F05D00D290ED1808D12
:1003D0000006000F0AD10B480168012904D00A4920
:1003E000016001680129FCD1C021416110BD0000FC
:1003F000DFFF07C000050040006C0040C00F00F0A8
:100400000006004000EC0640759300000648406876
:10041000C107C90F0020002904D00449086004481E
:1004200040680047704700000003014000010140A0
:100430001C00002030B47446641E2578641CAB4256
:1004400000D21D46635D5B00E31830BC184702E034
:1004500008C8121F08C1002AFAD17047704700204F
:1004600001E001C1121F002AFBD170470448426815
:100470000121C9050B46934383600A40C26070475F
:100480000005005070B50024064D06E06968E000E4
:10049000085C012100F00CFE641C28788442F5D32E
:1004A000002070BD28000020F8B515460C46064611
:1004B000052A01D20720F8BD00F0D0FE002803D1A4
:1004C00000F09EFE0028F6D1104900204E600C700E
:1004D000C8608D6008610E4D0DE0E000696880190C
:1004E000009181786A46517000780A4A694600F0A6
:1004F0002BFE0028DFD12046641EE4B20028ECD198
:10050000054A0021024800F01FF8F8BD280000202D
:1005100028160000510C0000B10B00000F21034809
:10052000490581600021C160FEE700000005005020
:100530000EB50021029000916A4601910148FFF733
:10054000EDFF0EBD01400000094B5B68002B07D09A
:10055000002A07D0002805D00068037C002B03D0B8
:10056000082070470720704741744261002070479F
:100570004C000020FFB507469007002581B01E46BD
:100580001446002825D1002C23D000F017FF304658
:10059000114EF06030461030057045700299817040
:1005A00044607560357001240C4875702405046042
:1005B00003211420FFF77AFE09480460094CA76064
:1005C00003211120FFF772FE6068B060002005B0C3
:1005D000F0BD0720FBE700003C00002080E200E0C7
:1005E00000E100E000150140FEB51D4B5B68002BEB
:1005F0002DD000282BD0052901D20720FEBD43694C
:10060000002B24D0437C012B23D000270446002557
:1006100016462846019100F03BF8684600F0BAFF04
:10062000002818D0012101700E494460496881609A
:10063000019907614661C1606846094900784870C0
:10064000002000F029F800F01DFF2846FEBD08201C
:10065000FEBD0F46DAE70425002000F01DF8F4E7A0
:100660004C0000200015014010B5084949680029D8
:100670000AD0002808D04169002905D00021017462
:10068000022100F027FF10BD082010BD4C00002003
:1006900000B500F005F800BD00B500F009F800BD98
:1006A00072B602480168491C016070475C00002076
:1006B00003490868401E086000D162B67047000018
:1006C0005C000020F8B507460024234802E0641CC3
:1006D000042C1AD2A2008258BA42F8D1042C14D2A7
:1006E0001D481E4E0C38002929D001290ED00229A0
:1006F0000BD16000201880194578002D05D01848CE
:100700000169002901D028468847F8BD61006118B9
:10071000755C8E19717800290CD011490A2249683C
:10072000806851430E4A521CFFF75EFF002801D13A
:100730000B4847700A48B17814300155DDE78068EE
:10074000FFF792FF06486100611814308919005DB7
:100750008D78A842D1D0F8BDEC150000EC00002047
:100760000400002010B5FFF78DFE10BD10B50D2858
:1007700003D10248007800F097FD10BD0000002072
:1007800070B50023042811D2440004190D4D012A2C
:1007900002D101290DD0002246008019094E80198E
:1007A00000290CD0012906D0022906D007231846BB
:1007B00070BD0D30C2B22A55F9E74270F7E782707A
:1007C000F5E70000EC00002070B50E462049054614
:1007D0004E608D6000200A61A9071ED50024012209
:1007E00011462046FFF7CCFF641C042C02D20028DF
:1007F000F5D012E0002810D1720804211548FFF747
:1008000053FE002809D1FFF73DFE002805D111480D
:10081000114A00211438FFF797FEE90706D00F228E
:100820000E4952058A600023CB608A6100280DD1F1
:1008300008480B4A00211C38FFF786FE002805D126
:100840000448084A01211838FFF77EFE70BD0000F9
:1008500004000020FC150000610A000000050050A3
:10086000F10C00006D040000FEB57A4D0722EB6824
:1008700092059A4302936B6800939C0006461B19ED
:1008800000200121019349050746734C3300FFF70F
:10089000D1FD180D1515374755677C887F8891DE87
:1008A0009E9E9E9E9EC8CED1D8DEDE140F21029A57
:1008B00049059143A160E7602F70FEBDA260E7602B
:1008C00060680F2252055040800209D5A160E760A0
:1008D000022E02D1E120C0000AE07D20400107E0A5
:1008E000E160A760022E01D1C82001E0FF20913015
:1008F0002E706421FFF70AFC0099414300223FE07B
:10090000A260E76060680F2252055040800204D563
:10091000A160E76019204001EAE7E160A760E3E732
:10092000A260E76060680F2252055040800202D545
:10093000A160E760D1E7E160A760D7E7A260E76068
:1009400060680F2252055040800202D5A160E76026
:1009500001E0E160A7602E700098410000220FE0E6
:10096000A260E76060680F2252055040800202D505
:10097000A160E76001E0E160A7602E7000990022AD
:1009800036480068FFF730FEFEBDA260E7601BE05E
:1009900061680120800502468A43A2600140E1604F
:1009A00010E06068012189050A468243A260084080
:1009B000E060E3E76068012189050A468243A2609E
:1009C0000840E0600199C9E7E160A7602DE0234895
:1009D0004068FFF749FE11218A1B01D0002807D08B
:1009E0000F22E96852051140A160E760EF60FEBD8B
:1009F0000121C905E960012A0CD91046C8214843E4
:100A00006421FFF783FB6968002241431348406873
:100A1000FFF7EAFD0F22E96852051140E160A76087
:100A2000FEBD0F214905A160E7602E70FEBD0722C3
:100A30009205AAE70D214905A160E760012189051A
:100A4000C2E70321C905A160E7608910BCE70F2157
:100A50004905B9E70400002000050050E01500003A
:100A600010B500780221FFF72DFE10BD0022D24301
:100A7000830004490428CA5002D3081820300277A2
:100A8000704700002C010020F0B50025ED43002A3E
:100A900002D00023042601E0042308260B4C04E0C6
:100AA0009F00E7597F1C04D05B1CB342F8D3284653
:100AB000F0BD26185DB2203635709E00A151002A87
:100AC000F5D1E11820310877F1E700002C01002072
:100AD0000249091820200856704700002C01002008
:100AE00070B5084C050009D010342168002907D0E2
:100AF00008682060496828468847F6E70834F4E724
:100B000070BD000018010020F8B523484168002995
:100B10003ED00E6821494C6887688078E11B0D0241
:100B20002D0AED1C002814D101201D4A000450603C
:100B30001B4A403A50601B49400008601A4908604F
:100B40001A49012008602F2000F01EFA12490120E6
:100B50008870B54200D23546E81900020F4B000AF2
:100B6000403318600D4A5168001B091B0902090A2D
:100B70000002000AC91C814209D9506818602F2060
:100B800000F002FA01200749400480390860F8BDEE
:100B900000F014FCF8BD00003C00002000150140EE
:100BA0004013014080E200E000E100E0001001405D
:100BB000F8B500260124154D23E06968F0004718B8
:100BC000387821462A698140114218D08A432A6127
:100BD00000F00CFB3A782146EB689140194003463F
:100BE000934099420BD17978012901D0012100E08D
:100BF00000217B684140002B01D010469847761CAD
:100C0000F6B228788642D8D3F8BD0000280000202C
:100C100010B50E4900230A784C78A24212D0521C1B
:100C2000D2B20A70022A00D10B700A78074B9200E8
:100C300018339A580260886810180002000A886009
:100C4000012010BD0360002010BD00003C0000200A
:100C5000F8B50746104E0125BD403068FFF704FD8A
:100C600000280DD10D4C2069284207D1384600F0EC
:100C7000BDFA0028E06804D0284303E0A8432061BF
:100C8000F8BDA843E0602069002228432061A168E4
:100C90003068FFF7A9FCF8BD2816000028000020E6
:100CA0001048018CC9B2012917D1818C090714D1D0
:100CB000018D09060A0F03D1828D1206120F0ED084
:100CC000090F012903D1828D1206120F07D00329C3
:100CD00003D1808D0006000F01D000207047012055
:100CE00070470000C00F00F002680A6001607047A2
:100CF00010B50448017AC90702D00078FFF7B4FDA7
:100D000010BD000004000020F0B5284C2146103929
:100D100048688B68227886469C46CF78667836E0AD
:100D2000182353436168521CC918A378D2B2934266
:100D300000D100220B78022B02D0032B27D123E015
:100D400003464D68194603E0A94204D00B46C96921
:100D500000291CD0F8E7002919D08B4208D1C069BE
:100D6000002805D1124F0125BD600025AC460127A2
:100D70000D68C969D961002909D00B685B190B603E
:100D800005E00174C06900E000210028F9D1964215
:100D9000C6D10649624610398A604860CF707045F6
:100DA00001D00120F0BD0020F0BD00004C0000206B
:100DB00000100140F8B52C4E0446706800250090E4
:100DC00041E0002C02D02046E46920E026481823A8
:100DD0001030017842684B43491CC9B2D2180170E7
:100DE0008378994200D105701178506801292CD17F
:100DF000017C002929D191684160D1688160116925
:100E0000C16051698161F178002900D04560436873
:100E1000B268164F991A0902090AB94202D28268C9
:100E2000891806E0D11A09028268090A8A4202D9A1
:100E3000511A016000E00560456001218560017480
:100E4000C56100F027FB002CBBD1074810300178AA
:100E500040788142BAD171680098814201D0012066
:100E6000F8BD0020F8BD00003C000020FFFF7F001F
:100E70000EB500F0A1F8002801D0FFF759FB0020C3
:100E800000F0B4F80023314A03211846FFF772FB43
:100E9000002801D0FFF74CFB2D4A2E490220FFF716
:100EA00093FC002801D0FFF743FB002001212A4BCF
:100EB000032205460C468440E401240F02D084003E
:100EC000E4182260401C2028F4D30F26234C76051A
:100ED000A660E560224A6B4607CA07C321496846F7
:100EE00000F0FCF9002801D0FFF722FB1E4800F0BB
:100EF000BDF9002801D0FFF71BFB00F0DFF91C490A
:100F00001A4A1C4F0B680020114600BF00BF00BFEB
:100F100000BF00BF00BF00BF00BFBB4200D000BF8A
:100F2000491EF2D10121490581403140E160A560AF
:100F3000401C0428E8D3FFF715FC002801D0FFF778
:100F4000F7FA40BF20BF20BFFBE70000640000208D
:100F50006D070000CD0C0000000700500005005098
:100F6000D4150000C115000000000020400D030052
:100F7000600000200024F400012189074018006867
:100F8000002800D00120704700280FD00849094AE6
:100F9000096800BF00BF00BF00BF00BF00BF00BFA7
:100FA00000BF914200D000BF401EF2D17047000048
:100FB000600000200024F40010B50A4C20780028BE
:100FC00001D0852010BD0020A06060602061E0603D
:100FD000032100F03DF804490120886120700020C1
:100FE00010BD0000180100200005004070B5154C30
:100FF0000546A078002808D0002D02D0696801209D
:1010000088470020FFF744FB15E00020FFF740FB76
:10101000002D04D00B4829461030FFF765FEE0682C
:10102000002808D10849086008490220486006499C
:101030000120FC390860E068401CE0600020FFF7F8
:101040002BFB70BD1801002004010040000300408C
:101050008207D30EFF229A408907090E10B59940E6
:1010600000280BDA03071B0F083B9C080C4BA4005D
:10107000E318DC6994430C43DC6107E08408094B06
:10108000A400E418236893430B432360C106C90EF0
:1010900001208840044908600449086010BD000030
:1010A00000ED00E000E400E080E200E000E100E0AC
:1010B000F3B581B00F46019800F068F901240028CB
:1010C0001D4E019817D0FFF703FD80192030007FD7
:1010D0008009032802D0012806D007E017480069DC
:1010E00001998C40204201D1022100E003210198A6
:1010F00000F02AF9FEBD00F055F90028FAD0019859
:10110000FFF7E6FC05468100C81D0D4AF930891835
:101110000A6980B222430A6100F026F9002FE9D063
:101120000198FFF7D5FC800030580028E2D0054830
:10113000AC404460FEBD00002C01002000050050C2
:101140000065004000630040FEB5044623480E469B
:101150000019202141560027C8171346401C01D012
:10116000082738E0F27819462046FFF78DFC05463F
:10117000401C2FD0B078002807D01948A1000918CA
:10118000086802229043086007E000217378204637
:1011900000910A46019100F0C5F8F078002810D0BF
:1011A0001048AA001018317802690F4B1A400261EA
:1011B000E206D20C8907890B0A4301690A430261DE
:1011C00009E00648327840192030017F920111432E
:1011D000017700E004273846FEBD00002C01002006
:1011E0000007005000650040FFE0FCFF034909696B
:1011F000C140C807C00F00D0012070470005005053
:1012000070B5144D2879002801D0082070BD11490F
:1012100000204039421E0B182033401CC0B21A7007
:101220002028F8D300242046FFF720FC641CE4B2F9
:10123000082CF8D303210620FFF70AFFFF207D309A
:1012400000F092F801200449C0074860012028718D
:10125000002070BD6C01002000630040024800794E
:10126000002800D0012070476C01002010B5044612
:101270000020FFF70DFA0A48816808290AD2217078
:101280004A1C82600748826801238B401A438260AF
:10129000002400E004240020FFF7FEF9204610BDE2
:1012A0001C00002000050140034A8000014980180D
:1012B000016070473546526E000601400449012026
:1012C00048600146034801600349022008707047E6
:1012D00000030140000001401C00002070B50446DE
:1012E0000D4841600178002901D0082070BD01211E
:1012F0000170002C00D1094C094D2078E86060682D
:101300007D21C003C900FEF701FF6860217A10202B
:10131000FFF79EFE002070BD1C0000201C16000080
:101320000005014030B552000A439900039C0A436E
:101330002102049D0A4329040A43024980004018FF
:10134000026030BD00070050820006481018026895
:1013500003231B049A430260026809040A430260E3
:10136000704700000007005002494018002101604A
:1013700070470000006000400349401800680128E1
:1013800000D00020704700000060004004490818A9
:1013900020214156042901DB0120704700207047BD
:1013A0002C0100200449081820214156042901D2AB
:1013B00001207047002070472C01002070B50124E7
:1013C0000B49600408600B494010886009494039A6
:1013D0008860094D6C602F20FFF7D6FDAC60074D8B
:1013E00000242F20AC60FFF7CFFDAC7070BD000073
:1013F00080E100E040130140001001403C0000206B
:10140000FEB51F4C0025A768606802906846FFF78C
:10141000FFFB0190FFF778FC06460198002822D0D8
:1014200000230098616817E00E680A46864202D9D8
:10143000301A086012E0801BF31800261660D66888
:10144000D169B446002E07D0FE183602360A56601F
:1014500066469660D56115460029E5D1284661604B
:10146000FFF7A8FC06E02846FFF7A4FC002801D1FE
:10147000002E02D00298FFF747FB0020E070FEBD6F
:101480003C00002001200249000508607047000070
:1014900000E200E010B50E4B5968002906D0026842
:1014A0000C68A24204D8A21A0A60C161586010BD3B
:1014B0000B4604E00B46C969121B002904D00C68D6
:1014C0009442F7D3A41A0C600260C161D86110BDC8
:1014D0003C000020F8B5064600240D462046FFF7E4
:1014E000D7F8684600F056F800280CD00570466022
:1014F00068460749007848700020FFF7CDF8FFF7ED
:10150000C1FF2046F8BD04240020FFF7C5F8F8E726
:101510004C000020F8B51D4D6C68002C34D01C48E0
:1015200000274068A968401A0602360A2068B042BF
:1015300018D8361AC7192246107CE46900280FD043
:1015400000201074EB68002B07D091695069984710
:10155000002805D0FEF7ECFF02E05169906988474A
:10156000002CE3D129786878814206D1401CC0B2B2
:101570006870022801D10020687004490006800DBF
:1015800018310F50FFF77EFFF8BD00003C0000202F
:101590000015014010B509494B788C785A1CD2B21D
:1015A000944200D100220C78944201D1002010BD59
:1015B0000270486818214B43C01810BD4C00002031
:1015C0000F210348490581600021C1607047000078
:1015D0000005005001000000D007000003000000DB
:1015E000AC000020CC000020F8000020110000001A
:1015F000120000001300000014000000110003009E
:10160000C506000012000300C50600001300030019
:10161000C506000014000300C5060000010000001C
:10162000D007000003000000740100200300000048
:101630005016000000000020640000004E0400006E
:10164000B416000064000020340900005E040000AD
:10165000000000000000000000000000000000008A
:10166000000000000000000000000000000000007A
:10167000000000000000000000000000000000006A
:10168000000000000000000000000000000000005A
:10169000000000000000000000000000000000004A
:1016A000000000000000000000000000000000003A
:0416B0000024F4001E
:04000005000000C136
:00000001FF
