:020000040000FA
:10000000A8440020150400001D0400001F04000087
:10001000210400002304000025040000000000006B
:1000200000000000000000000000000027040000A5
:1000300029040000000000002B0400002D04000033
:100040002F0400002F040000990800002F04000076
:100050002F0400002F0400002F0400002F040000D4
:100060002F0400002F0400002F0400002F040000C4
:100070002F0400002F0400002F0400002F040000B4
:100080002F0400002F0400002F0400002F040000A4
:100090002F0400002F0400002F0400002F04000094
:1000A0002F0400002F0400002F0400002F04000084
:1000B0002F0400002F0400000000000000000000DA
:1000C0002F0400002F0400002F0400002F04000064
:1000D0002F040000550500002F0400000000000060
:1000E0000000000000000000000000000000000010
:1000F0000000000000000000000000000000000000
:1001000000000000000000000000000000000000EF
:1001100000000000000000000000000000000000DF
:10040000DFF80CD000F074F8004800478D100000B1
:10041000A84400200648804706480047FEE7FEE75C
:10042000FEE7FEE7FEE7FEE7FEE7FEE7FEE7FEE7A4
:100430002D0600000104000040EA01039B0703D0E1
:1004400009E008C9121F08C0042AFAD203E011F813
:10045000013B00F8013B521EF9D27047D2B201E0D5
:1004600000F8012B491EFBD270470022F6E710B5B9
:1004700013460A4604461946FFF7F0FF204610BD12
:10048000421C10F8011B0029FBD1801A70472DE98E
:10049000F05F0546002092469B4688460646814608
:1004A00040241BE0284641464746224600F041F8DA
:1004B00053465A46C01A914110D311461846224657
:1004C00000F028F82D1A67EB01084F46224601205C
:1004D000002100F01FF817EB00094E41201EA4F187
:1004E0000104DFDC484631462A464346BDE8F09F1A
:1004F000064C074D06E0E06840F0010394E8070071
:1005000098471034AC42F6D3FFF77EFFA4200000DA
:10051000C4200000202A04DB203A00FA02F1002067
:1005200070479140C2F1200320FA03F31943904031
:100530007047202A04DB203A21FA02F0002170479C
:1005400021FA02F3D040C2F120029140084319463B
:10055000704700002DE9F041324F00254FF48A78B2
:100560002E464146384601F0C2F82F4CA0B1414614
:10057000384601F0C1F8E06870B1D7F84015814203
:1005800003D1E18800EB810600E00646C7F840652C
:10059000607940F0040060714FF48278414638463B
:1005A00001F0A5F8B8B14146384601F0A5F8A068B9
:1005B00088B1D7F83815814202D1E18800EB81007B
:1005C000C7F83805617941F0020161710A0701D568
:1005D000CA0711D005466079C10711D0810709D536
:1005E000410707D520F006006071010710D520F003
:1005F00008006071BDE8F08121F008006071EAE751
:1006000055EA0600F6D0E28831462846236805E020
:10061000D7F84015D7F83805E2882368BDE8F041DF
:100620001847000000500240601F002070B58D4840
:100630000023021D0178101D0124062907D1157819
:100640002D0704D10578C5F30315032D02D0062923
:1006500004D00FE0854E844D75670EE015782D07A8
:1006600008D10578C5F30315032D06D0042D04D059
:10067000052D02D0062909D010E04FF08055D5F89D
:1006800044527B4EC5F34235356002E015782D07A4
:1006900004D10578C5F30315032D02D0062906D031
:1006A00011E0744D2E6826F080762E600EE01578ED
:1006B0002D0708D10578C5F30315032D06D0042DA9
:1006C00004D0052D02D006290AD011E04FF0804554
:1006D000C5F80C31C5F81031654D2D1F2B6002E0B7
:1006E00015782D0704D10578C5F30315032D02D025
:1006F000062905D00CE05E4A0321643211600AE04D
:1007000015782D0704D10578C5F30315032D02D004
:1007100006290DD06AE0584A052111605649783102
:100720000C60554908310B603F21121D116002E039
:10073000117809075AD10078C0F30310052855D164
:100740004E4800684E4908604C48001D0068091D6D
:1007500008604A4808300068091D086047480C30A6
:100760000068091D0860454810300068091D0860D0
:10077000424814300068091D08604048183000687D
:100780003F49203108603D481C300068091D086061
:100790003A4820300068091D086038482430006855
:1007A000091D0860354828300068091D0860334875
:1007B0002C300068091D086030483030006830492E
:1007C000403108602D4834300068091D08602B480E
:1007D00038300068091D086028483C300068091D51
:1007E0000860264840300068091D086021487438B8
:1007F000016841F470010160BFF34F8FBFF36F8F49
:100800004FF01021D1F80002002803DBD1F80402D8
:10081000002822DA1B4A14601B480468002CFCD014
:100820001524C1F800420568002DFCD0C1F804422F
:1008300001680029FCD0136001680029FCD0BFF3D7
:100840004F8F0C48F0380168104A01F4E061114301
:100850000160BFF34F8F00BFFDE70E490C480860F1
:1008600070BD0000E00F00F00DF0ADBA00C0074011
:100870003C050040FCED00E0105600400404001070
:1008800020C5004004E5014000E401400400FA05F1
:100890000090D0031C0000200448017F0448002978
:1008A000024901D001F049BB01F0B8BA701F002025
:1008B000002000400FB4084B10B504A902AA039809
:1008C00000F01CF8044602A9002000F048FA204677
:1008D00010BC5DF814FB00005F0D000002E008C8CA
:1008E000121F08C1002AFAD170477047002001E0AA
:1008F00001C1121F002AFBD1704700002DE9FF4FF4
:100900008DB00F460546002606E025280BD0DDE910
:100910000F1290476D1C761C28780028F5D111B075
:100920003046BDE8F08F0024A246A1460122EC49E2
:1009300000E0044315F8013F203B02FA03F00842AF
:10094000F7D128782A2810D06FF02F022878A0F14C
:100950003001092914D80AEB8A0102EB410144F065
:10096000020400EB010A6D1CF0E701CF5FEA000A08
:1009700003D544F40054CAF1000A44F002046D1C8B
:1009800028782E2817D115F8010F44F004042A28DE
:100990000ED06FF02F022878A0F1300109290AD873
:1009A00009EB890102EB410100EB01096D1CF2E743
:1009B00057F8049B6D1C28786C280FD006DC4C2857
:1009C00017D068280DD06A2814D104E0742810D0FC
:1009D0007A280FD10DE044F400140AE044F48014A6
:1009E00001E044F440146978814202D104F5801496
:1009F0006D1C6D1C2A786E2A1FD00CDC632A31D046
:100A000004DC002A8BD0582A11D1A3E0642A68D0D4
:100A1000692A0CD165E0732A2ED004DC6F2A73D0CA
:100A2000702A04D19BE0752A6FD0782A6ED01046C8
:100A3000DDE90F129047761C50E1C4F30250022802
:100A400006D0032809D0042801CF09D0066045E16B
:100A500001CFF117C0E9006140E101CF06803DE11F
:100A600006703BE117F8040B8DF8000000208DF8AC
:100A70000100EB46012003E057F804BB4FF0FF30C4
:100A800061074FF0000102D40DE008F10101884632
:100A900049450FDA8045F8DB1BF808100029F4D12E
:100AA00008E008F1010188468142FADB1BF80810D2
:100AB0000029F6D1DDE90F23AAEB08008146214683
:100AC00000F036F9304400EB080604E0DDE90F12CF
:100AD0001BF8010B9047B8F10108F7D221464846B0
:100AE000F7E00A21C4F302534FF0000B0891022BE8
:100AF00004D001CFC117032B09D00AE0FF1D27F056
:100B00000707F7E8020108E032E01FE020E000B24A
:100B1000C117042B01D140B2C117031E71F10003AC
:100B200007DA4FF0000CD0EB0C006CEB01012D2329
:100B300002E0230504D52B238DF82430012303E0A4
:100B4000E30701D02023F7E7984658E00A2110E098
:100B500010210EE010204FF0000B08900CE0102147
:100B60004FF0000B44F004044FF00809089103E033
:100B700008214FF0000B0891C4F30253022B04D05C
:100B800001CF0021032B06D006E0FF1D27F0070749
:100B9000F7E8020103E080B2042B00D1C0B24FF0AD
:100BA000000823072BD5702A07D0DDF820C08CF071
:100BB000100C5CEA0B0C05D00EE040238DF82430BD
:100BC000012308E050EA010306D030238DF82430D9
:100BD0008DF8252002239846DDF820C08CF0080C03
:100BE0005CEA0B0C0BD150EA010301D1630706D577
:100BF00030238DF824304FF00108A9F10109582A5B
:100C000004D038A20B9208AA0A920BE03AA2F9E7A4
:100C10005B46089AFFF73BFC0B9B9B5C0A9A521EB3
:100C20000A92137050EA0102F2D10A98ADEB00006B
:100C300000F1200B600702D524F4803401E04FF06E
:100C40000109D94502DDA9EB0B0000E0002000EB13
:100C50000B0141440890AAEB010AE00306D4DDE948
:100C60000F232146504600F063F806444FF0000978
:100C700008E009A911F80900DDE90F12904709F110
:100C80000109761CC145F4DBE0030CD5DDE90F2337
:100C90002146504600F04CF8064404E0DDE90F120E
:100CA00030209047761C0899481E08900029F5DCF2
:100CB00008E00A980A990078491C0A91DDE90F12A8
:100CC0009047761CBBF10001ABF1010BF1DC214632
:100CD0005046DDE90F2300F019F806446D1C1BE6B1
:100CE0000928010030313233343536373839616202
:100CF00063646566000000003031323334353637C6
:100D00003839414243444546000000002DE9F04196
:100D1000044600251E461746880404D405E03946DB
:100D20002020B0476D1C641EF9D52846BDE8F0812F
:100D30002DE9F041044600251E469046C80301D522
:100D4000302700E02027880404D505E041463846D6
:100D5000B0476D1C641EF9D52846BDE8F0810A68CD
:100D6000531C0B601070704703494FF4F01008607B
:100D70000020091F0860FEE70C0500500EB5002199
:100D80000091CDE901106A4644F20100FFF7ECFF43
:100D90000EBD00F003B800F009B8000072B60248BA
:100DA0000168491C01607047080000200349086879
:100DB000401E086000D162B67047000008000020A5
:100DC0002DE9F04105460878214F012606FA00F08A
:100DD0000C463860086800F080FC0021606800F074
:100DE00069FC28791B4901EB4010A169007F0028AC
:100DF0002868C0F8241519D0607D217D2A68084331
:100E0000C2F86C0518E00021A06800F053FC207BBC
:100E100086403E60E06800F060FCD4E90212286879
:100E2000C0F80825C0F81015BDE8F081607D227D6E
:100E300029681043C1F86C05D4E900122868C0F88D
:100E40000C15C0F81425207D0128DCD0ECE700004B
:100E500008050050701F0020002901DA00207047AB
:100E60000268114401600120704700002DE9F04143
:100E7000461C01250020FFF78CFF1149741CD1E9A5
:100E800000208F68101A3B1A5B1C9C420FD963B17B
:100E90000C480D4B3A4000681B6801EB820263F37B
:100EA0009F20D0600868401C0860002501E0901970
:100EB00008600020FFF76FFF2846BDE8F0810000C2
:100EC000902000207420000018000020034803C870
:100ED000814201D1012070470020704790200020FE
:100EE0002DE9F047164D2A78521C2A70154EAA7823
:100EF0004FF000084FF40037341DA6F1040A4FF4F8
:100F000080292AB900F020F890F00100A8700AD0DA
:100F10003760C4F80080DAF8000029EA0001316087
:100F200000F4802009E0C6F80090C4F80080DAF8E8
:100F300000008743376000F400302060BDE8F08790
:100F40000000002008050050FEB50024164A22E0EB
:100F500000EB840530F824306E8855780DB103B964
:100F6000AEB100255570D5886F1E6D1CBFB21FFA3B
:100F700085FCD580BB4201D166450AD08DE8C01002
:100F800012780AA1032000F0FDFD0020FEBD6D1EB9
:100F90005570641CA4B28C42DAD312780FA10320DE
:100FA00000F0C2FD0120FEBD000000204150503A7B
:100FB000494E464F3A2533753A20253034782F254F
:100FC0003034782C2065787065637465643A202528
:100FD0003034782F253034780D0A00004150503AD3
:100FE000494E464F3A2533753A204F4B0D0A0000C3
:100FF0002DE9F04107468179007879B1002100F0B0
:1010000050FB7878002100F04CFBBE784FF0FF34A5
:10101000FF2E09D0304600F056FB06E000F053FBEF
:10102000787800F050FBF0E72646FD78FF2D03D0DE
:10103000284600F048FB00E025463879FF2803D019
:101040000446002100F02DFB074839787A78C0F873
:101050006415C0F86825C0F86065C0F87055C0F820
:101060006C45BDE8F08100000050024070B51546A7
:101070000C4610B11146FFF733FF002C05D029466E
:101080002046BDE8704000F029BE70BD002001215F
:1010900086B0032401FA00F212F4C02F04D08200BB
:1010A00002F1A042C2F80047401C2028F2D30020E1
:1010B00000F0BCFD08B1FFF761FE25A1032000F0A0
:1010C0000DFD14222B496846FFF7B6F91A208DF85A
:1010D00004001B208DF803004FF0406003900025B2
:1010E0008DF810408DF80A502349684600F0B2F898
:1010F00008B1FFF743FEDFF88880204C214F4FF402
:101100007A6A4FF47A7B4FF4C02608F10409CC22A6
:1011100051461D48FFF7A2F9257000235A461B4986
:10112000194800F0EBF808B1FFF728FE20781428E2
:10113000FCD300F04DF9C8F80060C9F800503846FB
:1011400000F026F800F028FC0028FBD1DFE70000C3
:101150004150503A494E464F3A0D0A493253206C9D
:101160006F6F706261636B206578616D706C650D87
:101170000A0000002C2000006D100000000000207C
:101180000805005020A1070020000020C00F00200B
:1011900000283ED01F49204A096800BF00BF00BF99
:1011A00000BF00BF00BF00BF00BF91422FD000BFF3
:1011B00000BF00BF00BF00BF00BF00BF00BF00BF37
:1011C00000BF00BF00BF00BF00BF00BF00BF00BF27
:1011D00000BF00BF00BF00BF00BF00BF00BF00BF17
:1011E00000BF00BF00BF00BF00BF00BF00BF00BF07
:1011F00000BF00BF00BF00BF00BF00BF00BF00BFF7
:1012000000BF00BF00BF00BF00BF00BF00BF401E47
:10121000C3D170471C0000200024F4004907090EC8
:10122000002806DA00F00F0202F1E02282F8141D15
:1012300003E000F1E02282F8001400F01F02012117
:1012400091404009800000F1E020C0F88012C0F811
:10125000001170472DE9F047254D04468A4628794C
:1012600010B10820BDE8F08704B9224C4FF0000906
:10127000A67994F8078094F808C0627AA77A217C4E
:10128000E36886B9012A02D0022A03D00BE00129C3
:1012900028D008E031B3022924D0042922D006291D
:1012A00020D008291ED01448C0F80465C0F8248551
:1012B000C0F820C5C0F81C25C0F82875C0F818155E
:1012C00001268BB1C0F81435C0F810652046FFF731
:1012D0008FFEC5F800A061792520FFF79FFF2E71D2
:1012E0000020BFE70720BDE7C0F81095EEE700003B
:1012F000601F002040200000005002402DE9F04710
:10130000314C0646570820799A4691460D460128E9
:1013100002D00820BDE8F0871EB1304600F068F822
:1013200068B11DB1284600F063F840B1DFF89C8039
:10133000C8F85075C8F838651EB1012002E01020C9
:10134000E8E70020C8F80805C8F84055280000D094
:101350000120C8F80C05C4E90265E78061792846D8
:1013600041F008013A4661715FEACA7306D02EB1B6
:1013700020B121F0060141F0010101E021F001015D
:1013800061710125C8F800550221217150B16179C0
:10139000C90703D04946FFF768F803E00146236810
:1013A000002098474FF48271404600F0A5F94FF4B1
:1013B0008A71404600F0A0F92220C8F80403C8F85A
:1013C00000500020A6E70000601F002000500240EF
:1013D00005482221C0F80813012141600022C0F80D
:1013E000002502480171704700500240601F002034
:1013F0000121B1EB507F01D10120704700207047DF
:101400002DE9F041044600792D4F904607EB401539
:101410000E46E87E10B10820BDE8F081707F287785
:101420002046FFF7CDFC5FEA08006860316929605B
:1014300031D0207996F81C8007EB40104FF4A2764B
:10144000007F0028206814D04FF4887100F016FC4B
:101450004FF49071206800F011FC4FF492712068F5
:1014600000F00CFC3146206800F008FC15492068AB
:1014700009E04FF48E7100F0F0FB3146206800F077
:10148000ECFB11492068C0F8041320684146000BAA
:1014900040B2FFF7C3FE207907EB4010007F002821
:1014A000206801D0082100E00421C0F800150020C8
:1014B000E8752876A8750121E976A876ACE70000E2
:1014C000701F002010030200800002002DE9F04789
:1014D000054600793E4C0E4604EB4013187F38B1A8
:1014E0004FF40050B0EB164F02D01020BDE8F0874B
:1014F000284600F06FF808B11120F7E79A75002729
:101500009E609F8228794FF0010804EB40143E460C
:10151000207F0028286825D04FF49079494600F0B4
:10152000ADFB4FF4AC7A5146286800F0A7FB286861
:10153000A17DA268C0F84425C0F848152868C0F805
:1015400008806068F0B94946286800F092FB804640
:101550005146286800F08DFB58EA0001F3D058BBD3
:10156000A7750FE04FF48E7A514600F076FB28689D
:10157000C0F808802146286800F02AFC61684FF412
:10158000807089B13046B1E75146286800F060FBB1
:1015900010B9A08A4845F7D1A08A484505D0214610
:1015A000286800F015FC00E08146A08AA17D8842F1
:1015B000EAD3A08A484501D10F26D1E751462868D1
:1015C00000F046FB0028F9D02868C0F80C80C7E777
:1015D000701F00200079044901EB4010807D002835
:1015E00000D0012070470000701F002070B5017905
:1015F000144A002502EB41140168237FC1F800550D
:101600006168C9B1017902EB4111097F00290168C4
:1016100001D00D4A01E00C4A8C3AC1F80823016858
:101620000122090B49B201F01F039A4049098900C0
:1016300001F1E021C1F8802100F026FBE57665602C
:1016400070BD0000701F00201003020030B541EA99
:101650004201DDE9034541EA8301800041EA0421BA
:1016600000F1A04041EA0541C0F8001730BD30B597
:1016700041EA4201DDE9034541EA8301800041EA94
:10168000042100F1A04041EA0541C0F8001730BD37
:101690001CB5002100910B4601220191FFF7E7FFE5
:1016A0001CBD1CB500220B46009211460192FFF7AB
:1016B000CDFF1CBD1CB500220B46009211460192C5
:1016C000FFF7D5FF1CBD1CB5002100910B46012280
:1016D00001911146FFF7BAFF1CBD1CB50021009116
:1016E0000B46012201911146FFF7C1FF1CBD405876
:1016F000002800D00120704708B500224250405811
:10170000009008BD004870477D17000030B5184CA8
:10171000054689B0207828B16078854202D1002042
:1017200009B030BD202213496846FEF785FE00202F
:101730008DF81400062000900820019005200390E9
:10174000072002904FF0EB7006900948001DFFF74C
:101750004DFF0DB1002200E0074A05486946001D13
:10176000FFF74EFE0028DBD1012020706570D6E720
:101770000C000020542000000D1E00002DE9F04F49
:10178000C1B00D00DDF82CB14D984FF000011C46A2
:1017900090460BEB000A409101D00A2600E000269B
:1017A00000F0E2FA002873D16F46BCB9409840AA15
:1017B0003918284600F0F4FA002869D04046FEF7B0
:1017C0005FFEC22800D9C220054640982A46384408
:1017D0004146FEF731FE4098284440904FF02009E2
:1017E0004098821931320DEB02016844002202E078
:1017F00000F8019B521CB242FAD30027544508D38B
:1018000000F8019B00F8019B00F8019B01F8019B87
:1018100026E05C4502D24A9A125D03E04C9AA4EBA2
:101820000B03D25C84460125AB0022FA03F808F0D2
:101830000F03092B01D9373300E03033C5F101081C
:101840006D1E0CF80830EFD20CF10200A2F120035B
:1018500000F8019B5E2B00D92E2201F8012B641C9D
:101860007F1C102FCAD30D220A700A224A7080F8FA
:1018700000904098811943316846409100F07AFA0F
:1018800030B100F071FA18B9002040905445A7D348
:1018900041B02046BDE8F08F2DE9F043C5B00025EA
:1018A0001C46904689464C9F449500F05DFAB0BBBB
:1018B000449804AE311844AA484600F071FA002852
:1018C0002ED0072F22D2DFE807F00412192E384459
:1018D00051004046FEF7D4FD054644982918FF29DB
:1018E00014D830442A464146FEF7A6FD0EE044983F
:1018F000226830444146FEF7DDFF06E0D4E90023CC
:10190000449841463044FEF7D5FF0546294644A891
:10191000FFF7A2FA18B14499B1F5807F33D90020BE
:1019200045B0BDE8F083A0680090D4E90023449856
:1019300041463044FEF7BEFFE7E7D4E90201CDE9B6
:101940000001D4E90023449841463044FEF7B2FF39
:10195000DBE704F1080007C88DE80700D4E900239D
:10196000449841463044FEF7A5FFCEE704F1080055
:101970000FC88DE80F00D4E9002344984146304455
:10198000FEF798FFC1E704A800F0F4F9C8E70000EB
:1019900000487047991800002DE9F04F87B0FFF715
:1019A00095FA18B1002007B0BDE8F08F454ED6E992
:1019B000014704EA070006EB8000A146641CC568E5
:1019C0000CE000BFC5F3891000EB9550044404EA15
:1019D000070006EB8000A146C568641CA807F1D08B
:1019E00005F003004FF0000B022805D0AA0A01A859
:1019F000C5F38313002153E004EA070006EB8000DF
:101A000004F1010A0AEA0704C268381B80004FEAA1
:101A10009558001DC5F38913804521D929490C31FA
:101A200038B106EB840400F0FF0CA8EB00000C3486
:101A300004E00C46002108F0FF0C0846C0B2CDE9D6
:101A40000210CDE9004CD6F81444C5F3C200594643
:101A5000A047404511D108F103080AEB98042AE099
:101A6000002106EB84000C300090CDE90181039148
:101A7000C5F3C200D6F81444EAE760F38F1509EA0B
:101A8000070006EB8000C56016E000BF04EA070C03
:101A900006EB8C0C491CDCF80CC040F804CB641C31
:101AA0009942F3D3C5F3C2000093D6F8105401ABAA
:101AB0005946A84700B17460FFF708FA80F00100AA
:101AC00071E7000090200020034AFF239360002369
:101AD0001360536000F0A2B8902000202DE9F04779
:101AE000DFF83C800446002689463046D8F8087066
:101AF000D8F80050FFF7BAF900280ED009480021A5
:101B00003D40406861F3820064F3C50066F38910CC
:101B100008EB850169F39F20C860BDE8F0870000ED
:101B200090200020742000002DE9F047DFF84C8061
:101B300005460127924689463846D8F80860D8F805
:101B40000040FFF793F9002815D00D48002104EA62
:101B500006028068641C61F3820065F3C50067F3C8
:101B6000891008EB8202344069F39F2008EB84015E
:101B7000D060C1F80CA0BDE8F087000090200020E4
:101B8000742000002DE9F05FDFF888800646052705
:101B90009A46934689463846D8F80850D8F8004007
:101BA000FFF764F9002832D01B48002104EA05023F
:101BB000806908EB820261F3820066F3C50067F377
:101BC000891069F39F20641CD06004EA050208EBC9
:101BD0008202641CC2F80CB004EA050208EB82021F
:101BE000641CC2F80CA004EA050208EB82020A9801
:101BF000D060641C04EA0502414601EB8202641CC9
:101C00000B982C40D06008EB84010C98C860BDE8AC
:101C1000F09F00009020002074200000024A02F58E
:101C2000826203C2704700009020002070B5064613
:101C30000020FFF76BFD040008D1FFF763FD0546A8
:101C4000FFF7A6FE32462946FFF73EFF204670BD4D
:101C50004058002800D00120704708B500224250AB
:101C60004058009008BDD0F80403084000D001207F
:101C700070474058002800D00120704708B5002266
:101C800042504058009008BD70B502464FF0FF30FA
:101C90001168D1F80C35D1F81465D1F80855D1F890
:101CA0001045C1F80C05C1F814051168C1F8080504
:101CB000C1F810051846FFF7EBFC3046FFF7E8FCCB
:101CC000601C02D02046FFF7E3FC681C04D02846C5
:101CD000BDE87040FFF7DCBC70BD000030B50E4BB6
:101CE0001A785C78224307D102225A704CF6FE2201
:101CF0009A80DA8000229A7000240AE09D886A1C8B
:101D00009A806D1E20F8245000EB8405641C6A80C4
:101D1000A4B28C42F2D330BD0000002070B505465D
:101D2000C87D0C4600284FF4847128460AD0FFF77E
:101D300094FFD5F81805627EE1688854607E401CE7
:101D4000607670BDFFF789FFD5F8180570BD1FB527
:101D500001238DF800308DF808100192D0E90012AF
:101D6000684690471FBD00000148FFF733BC0000E4
:101D70001000002070B50D460A46014601240648B1
:101D8000FEF75AFBEAB204490448FFF79FFB00B193
:101D90000024204670BD0000901F0020100000208D
:101DA00010B5144602004FF001000AD00846126830
:101DB00005A1FEF77FFD01462046BDE81040FFF774
:101DC0004BB80021216010BD5B253038645D0000F8
:101DD00070B50C4605464FF48E71FFF73EFFA18AA1
:101DE000A068415CA08A401CA082C5F81C1570BD8B
:101DF0001FB500228DF800208DF808108168019130
:101E00008275D0E90012684690471FBD007801280E
:101E100001D10149887070470C0000202DE9FF476F
:101E20000C4605464FF40071FFF71DFF01274FF4E4
:101E30000178002618B34FF4927949462846FFF7F7
:101E400007FFE0B149462846FFF707FFC5F80883BA
:101E5000A07E00B96F6002208DF80000D5F88004E4
:101E6000C5F880040390E07D8DF80800E0680190DB
:101E7000E6752676D4E900126846904727E00421EB
:101E80002846FFF7F0FE10B34FF484712846FFF7A1
:101E9000DFFEE0B121462846FFF740FFE07D617E8E
:101EA000884214D1207E38B1617EE268E0752069F5
:101EB000E0602676667607E0A07E00B96F60C5F820
:101EC0000883E675617EE2682046FFF740FF4FF425
:101ED0008E7841462846FFF7BBFE88B1A08AA17DD7
:101EE000884204D221462846FFF772FF08E04146A7
:101EF0002846FFF7B2FEA17D11B12046FFF778FF1B
:101F00004FF4A27841462846FFF7A2FE002812D0DF
:101F100041462846FFF7A1FEA07E00B12F60E07D7C
:101F2000002808D0E675617EE26804B02046BDE86E
:101F3000F047FFF70CBFBDE8FF872DE9FF410C46D6
:101F40004FF4927705463946FFF793FE0026C0B15D
:101F500039462846FFF792FE02208DF80000D5F89A
:101F60008004C5F880040390D5F83C058DF808007E
:101F7000E0680190E6752676D4E90012684690473D
:101F800024E04FF4887739462846FFF772FEE8B11F
:101F900039462846FFF772FED5F83C05C1B2E07D10
:101FA000884213D1207E60B1E268D5F8000220F0AB
:101FB0002000C5F80002207EE0752069E0602676EA
:101FC00001E0E675E2682046FFF7C1FE4FF4A27714
:101FD00039462846FFF74DFE68B139462846FFF7D7
:101FE0004DFEE07D38B1E675D5F83C05E268C1B23A
:101FF0002046FFF7ACFE4FF4907631462846FFF7B7
:1020000038FE00280FD031462846FFF737FEA07D66
:10201000002808D0D5F84C0504B0C1B22046BDE870
:10202000F041FFF7E5BEBDE8FF8100001F1EFF1D68
:102030001C0600000001010000000020D00000008C
:102040001F1EFF1D1C0600000001010000000020F3
:10205000D0000000FFFFFFFFFFFFFFFFFFFFFFFFBC
:10206000FFFFFFFF00000000000000000000D6019D
:10207000060100002900000001000000010000002E
:10208000010000000100000001000000010000004C
:1020900001000000020000004F766572666C6F77E9
:1020A0000D0A0000C42000000000002020000000F5
:1020B000DC080000E420000020000020884400002C
:1020C000EC0800000000000000000000000000001C
:1020D00000000000002000400000000098200000E8
:0420E0000090D00399
:0400000500000401F2
:00000001FF
