:020000040000FA
:10000000D0260020150400001D0400001F0400007D
:10001000210400002304000025040000000000006B
:1000200000000000000000000000000027040000A5
:1000300029040000000000002B0400002D04000033
:100040002F0400002F040000750900002F04000099
:100050002F0400002F040000310500002F040000D1
:100060002F0400002F0400002F0400002F040000C4
:100070002F0400002F0400002F0400002F040000B4
:100080002F040000E10600002F0400002F040000F0
:10009000050700002F0400002F0400002F040000BB
:1000A0002F0400002F0400002F0400002F04000084
:1000B0002F0400002F0400000000000000000000DA
:1000C0002F0400002F0400002F0400002F04000064
:1000D0002F0400002F0400002F0400000000000087
:1000E0000000000000000000000000000000000010
:1000F0000000000000000000000000000000000000
:1001000000000000000000000000000000000000EF
:1001100000000000000000000000000000000000DF
:10040000DFF80CD000F062F800480047211A000025
:10041000D02600200648804706480047FEE7FEE752
:10042000FEE7FEE7FEE7FEE7FEE7FEE7FEE7FEE7A4
:10043000090700000104000040EA01039B0703D004
:1004400009E008C9121F08C0042AFAD203E011F813
:10045000013B00F8013B521EF9D27047421C10F8D4
:10046000011B0029FBD1801A70472DE9F05F05467A
:10047000002092469B4688460646814640241BE063
:10048000284641464746224600F041F853465A4620
:10049000C01A914110D311461846224600F028F8A0
:1004A0002D1A67EB01084F4622460120002100F07B
:1004B0001FF817EB00094E41201EA4F10104DFDCF8
:1004C000484631462A464346BDE8F09F064C074D54
:1004D00006E0E06840F0010394E807009847103414
:1004E000AC42F6D3FFF790FF0C2D00002C2D00003E
:1004F000202A04DB203A00FA02F1002070479140E4
:10050000C2F1200320FA03F3194390407047202AD8
:1005100004DB203A21FA02F00021704721FA02F3AD
:10052000D040C2F1200291400843194670470000B4
:100530002DE9FC5F0025DFF83891A8464FF480765E
:1005400001242F46304601F09BFD38B1D9F8040351
:10055000204203D0304601F089FD2543361D64005A
:100560007F1CB6B2082FEDD34FF4BE74204601F0C5
:1005700087FD38B1204601F079FD3E4845F0004541
:10058000D0F800803C4E15F0FF0F15D00127002455
:100590002F420DD009EB8401D1F81005D1F81015C8
:1005A000C0F3042056F82420C1F3014102B1904762
:1005B0007F00641C082CEBD3002D56DA002001903C
:1005C000401E4CE0701910F8501F90F9000021F007
:1005D000C004401C38D0012000FA04FA1AEA090FBE
:1005E00032D04FEA911B204601F06CF856F82000FB
:1005F000009010B9BBF1030F26D15146BBF1030F98
:1006000002D1019808430190A00000F1A040D0F869
:1006100000071AEA080FC0F3014002D0022802D0F6
:1006200012E0032810D1BBF1030F07D102281AD022
:100630000221204601F00CFD7F1CFFB2009818B18A
:10064000009A5946204690476D1C042DBAD3002FBE
:100650000BD008480068404507D080460198002725
:1006600081463D46AEE70321E3E7BDE8FC9F00007D
:1006700000600040100500501C01002000F01F0227
:10068000012191404009800000F1E020C0F8801273
:10069000704700F01F02012191404009800000F1E5
:1006A000E020C0F80011704700F01F0201219140C6
:1006B0004009800000F1E020C0F8001270474907AF
:1006C000090E002806DA00F00F0000F1E02080F8A3
:1006D000141D704700F1E02080F8001470470000FE
:1006E00007480021C0F84011C0F84411C0F8481173
:1006F000C0F84C11C0F80011C0F8041102F01CB988
:100700000010014002F094B870B58D480023021D1E
:100710000178101D0124062907D115782D0704D171
:100720000578C5F30315032D02D0062904D00FE088
:10073000854E844D75670EE015782D0708D1057834
:10074000C5F30315032D06D0042D04D0052D02D0CA
:10075000062909D010E04FF08055D5F844527B4E61
:10076000C5F34235356002E015782D0704D10578D0
:10077000C5F30315032D02D0062906D011E0744DF0
:100780002E6826F080762E600EE015782D0708D1B1
:100790000578C5F30315032D06D0042D04D0052DCF
:1007A00002D006290AD011E04FF08045C5F80C317F
:1007B000C5F81031654D2D1F2B6002E015782D070F
:1007C00004D10578C5F30315032D02D0062905D001
:1007D0000CE05E4A0321643211600AE015782D07AF
:1007E00004D10578C5F30315032D02D006290DD0D9
:1007F0006AE0584A05211160564978310C60554924
:1008000008310B603F21121D116002E011780907C9
:100810005AD10078C0F30310052855D14E4800681E
:100820004E4908604C48001D0068091D08604A4890
:1008300008300068091D086047480C300068091D31
:100840000860454810300068091D086042481430AF
:100850000068091D08604048183000683F49203191
:1008600008603D481C300068091D08603A48203087
:100870000068091D0860384824300068091D0860B8
:10088000354828300068091D086033482C3000685E
:10089000091D086030483030006830494031086038
:1008A0002D4834300068091D08602B483830006836
:1008B000091D086028483C300068091D086026486A
:1008C00040300068091D086021487438016841F40F
:1008D00070010160BFF34F8FBFF36F8F4FF0102196
:1008E000D1F80002002803DBD1F80402002822DA44
:1008F0001B4A14601B480468002CFCD01524C1F866
:1009000000420568002DFCD0C1F8044201680029AE
:10091000FCD0136001680029FCD0BFF34F8F0C4856
:10092000F0380168104A01F4E06111430160BFF33F
:100930004F8F00BFFDE70E490C48086070BD0000F6
:10094000E00F00F00DF0ADBA00C007403C050040DC
:10095000FCED00E0105600400404001020C50040EB
:1009600004E5014000E401400400FA050090D003D2
:10097000640000200448017F04480029024901D096
:1009800002F0E9B802F058B87401002000200040DD
:100990000FB4084B10B504A902AA039800F01CF884
:1009A000044602A9002000F048FA204610BC5DF879
:1009B00014FB00003B0E000002E008C8121F08C133
:1009C000002AFAD170477047002001E001C1121FD0
:1009D000002AFBD1704700002DE9FF4F8DB00F4674
:1009E0000546002606E025280BD0DDE90F129047CA
:1009F0006D1C761C28780028F5D111B03046BDE872
:100A0000F08F0024A246A1460122EC4900E00443F5
:100A100015F8013F203B02FA03F00842F7D128788D
:100A20002A2810D06FF02F022878A0F13001092970
:100A300014D80AEB8A0102EB410144F0020400EBF6
:100A4000010A6D1CF0E701CF5FEA000A03D544F408
:100A50000054CAF1000A44F002046D1C28782E28C4
:100A600017D115F8010F44F004042A280ED06FF0B6
:100A70002F022878A0F1300109290AD809EB890151
:100A800002EB410100EB01096D1CF2E757F8049BF2
:100A90006D1C28786C280FD006DC4C2817D06828ED
:100AA0000DD06A2814D104E0742810D07A280FD110
:100AB0000DE044F400140AE044F4801401E044F42E
:100AC00040146978814202D104F580146D1C6D1CBC
:100AD0002A786E2A1FD00CDC632A31D004DC002A6D
:100AE0008BD0582A11D1A3E0642A68D0692A0CD18E
:100AF00065E0732A2ED004DC6F2A73D0702A04D1EB
:100B00009BE0752A6FD0782A6ED01046DDE90F126F
:100B10009047761C50E1C4F30250022806D0032807
:100B200009D0042801CF09D0066045E101CFF117B3
:100B3000C0E9006140E101CF06803DE106703BE184
:100B400017F8040B8DF8000000208DF80100EB462B
:100B5000012003E057F804BB4FF0FF3061074FF06E
:100B6000000102D40DE008F10101884649450FDA81
:100B70008045F8DB1BF808100029F4D108E008F1E3
:100B8000010188468142FADB1BF808100029F6D1E2
:100B9000DDE90F23AAEB08008146214600F036F973
:100BA000304400EB080604E0DDE90F121BF8010BEE
:100BB0009047B8F10108F7D221464846F7E00A21EC
:100BC000C4F302534FF0000B0891022B04D001CF65
:100BD000C117032B09D00AE0FF1D27F00707F7E82C
:100BE000020108E032E01FE020E000B2C117042B50
:100BF00001D140B2C117031E71F1000307DA4FF0B3
:100C0000000CD0EB0C006CEB01012D2302E023055E
:100C100004D52B238DF82430012303E0E30701D012
:100C20002023F7E7984658E00A2110E010210EE053
:100C300010204FF0000B08900CE010214FF0000B3B
:100C400044F004044FF00809089103E008214FF034
:100C5000000B0891C4F30253022B04D001CF0021F2
:100C6000032B06D006E0FF1D27F00707F7E8020177
:100C700003E080B2042B00D1C0B24FF0000823077C
:100C80002BD5702A07D0DDF820C08CF0100C5CEA60
:100C90000B0C05D00EE040238DF82430012308E032
:100CA00050EA010306D030238DF824308DF825203A
:100CB00002239846DDF820C08CF0080C5CEA0B0C8F
:100CC0000BD150EA010301D1630706D530238DF81B
:100CD00024304FF00108A9F10109582A04D038A2A4
:100CE0000B9208AA0A920BE03AA2F9E75B46089A2F
:100CF000FFF7BBFB0B9B9B5C0A9A521E0A92137078
:100D000050EA0102F2D10A98ADEB000000F1200B8D
:100D1000600702D524F4803401E04FF00109D94581
:100D200002DDA9EB0B0000E0002000EB0B014144C9
:100D30000890AAEB010AE00306D4DDE90F2321465F
:100D4000504600F063F806444FF0000908E009A996
:100D500011F80900DDE90F12904709F10109761C2D
:100D6000C145F4DBE0030CD5DDE90F2321465046F5
:100D700000F04CF8064404E0DDE90F123020904703
:100D8000761C0899481E08900029F5DC08E00A98AE
:100D90000A990078491C0A91DDE90F129047761CE8
:100DA000BBF10001ABF1010BF1DC21465046DDE95E
:100DB0000F2300F019F806446D1C1BE609280100FA
:100DC00030313233343536373839616263646566C1
:100DD0000000000030313233343536373839414283
:100DE00043444546000000002DE9F041044600253B
:100DF0001E461746880404D405E039462020B04733
:100E00006D1C641EF9D52846BDE8F0812DE9F0413E
:100E1000044600251E469046C80301D5302700E051
:100E20002027880404D505E041463846B0476D1CAC
:100E3000641EF9D52846BDE8F0810A68531C0B6092
:100E400010707047064800684FF40021044A81433F
:100E5000121D1160111D00F4002008607047000091
:100E60000405005070B50024064D06E068680121B5
:100E700010F8340000F098FE641C28788442F5D302
:100E8000002070BD1C000020F8B515460C46064633
:100E9000052A01D20720F8BD00F06CFF18B900F058
:100EA0003BFF0028F7D1104900204E600C70C1E9CB
:100EB00002500E4D08610DE006EBC4006968009118
:100EC00081788DF801100078094A694600F0BEFE6D
:100ED0000028E0D1641EE4B2EED2BDE8F840054A35
:100EE0000021024800F03CB81C000020B42C000097
:100EF00055180000B51700000BA1012001F0B8FA49
:100F000001F010FA01F012FA0028FBD1BFF34F8F65
:100F10000B4801680B4A01F4E06111430160BFF323
:100F20004F8F00BFFDE700004150505F4552524FC8
:100F3000523A4552524F523A466174616C0D0A0062
:100F40000CED00E00400FA050EB500210091CDE99A
:100F500001106A4644F20100FFF7CEFF0EBD00000B
:100F6000074B5B6823B12AB120B10068037C1BB139
:100F70000820704707207047417442610020704785
:100F8000400000202DE9F047074698461446894660
:100F900090074FF0000526D12CB301F0A5FB134EAE
:100FA00006F11000C6F80C800570457080F80290BC
:100FB00044607560357075701420FFF75FFB062183
:100FC0001420FFF77CFB1420FFF763FB0848076041
:100FD00006211120FFF773FB0548001F0068B06071
:100FE0000020BDE8F0870720FBE70000300000206C
:100FF000081501402DE9F843DFF87090D9F8043066
:101000005BB350B3052902D20720BDE8F8834369DA
:101010001BB3437C012B22D00027044600258846C1
:101020001646284600F036F8684601F00DFEC0B1BD
:10103000012101700E4944600968C0E90218C0E945
:1010400004769DF8000089F80100002000F024F8E3
:101050001420FFF729FB2846D7E70820D5E70F46DD
:10106000DBE70425002000F017F8F4E7400000203B
:10107000041501400649496839B130B1416921B1CF
:1010800000210174022101F037BC082070470000E4
:101090004000002000F002B800F008B872B6024824
:1010A0000168491C0160704750000020034908682E
:1010B000401E086000D162B670470000500000205A
:1010C0002DE9F04105460878214F012606FA00F087
:1010D0000C463860086800F0B1FF0021606800F03D
:1010E000A4FF28791B4901EB4010A169007F00286B
:1010F0002868C0F8241519D0607D217D2A6808432E
:10110000C2F86C0518E00021A06800F08EFF207B7B
:1011100086403E60E06800F091FFD4E90212286842
:10112000C0F80825C0F81015BDE8F081607D227D6B
:1011300029681043C1F86C05D4E900122868C0F88A
:101140000C15C0F81425207D0128DCD0ECE7000048
:1011500008050050740100202DE9F04707460024DF
:10116000244802E0641C042C41D250F82420BA42E6
:10117000F8D1042C3BD21F48DFF87C901F4E0C386E
:10118000A9F1140841B301290FD002292FD104EB92
:10119000440030444578002D29D0D8F8101000299B
:1011A00025D02846BDE8F047084704EB4401755CAC
:1011B0000E44717861B1D8F804100F4A01EB810137
:1011C0004900133A8068FFF715FF08B988F80170E5
:1011D000B17809F80410DEE78068FFF74BFF04EBF5
:1011E0004401314419F804008D78A842D3D0BDE8F9
:1011F000F0870000842C000018000020F000002080
:10120000F0B50C490024046009680B4ECB4321461D
:101210005FF0010716F8215007FA05F51D4204D0CA
:10122000056807FA01F215430560491C0429F1D34A
:101230002046F0BD10050050842C000070B500233E
:10124000042810D20D4D00EB4004012A02D10129DF
:101250000CD00022094E00EB4000304461B101295E
:1012600006D0022906D00723184670BD0D30C2B241
:101270002A55F9E74270F7E78270F5E7F0000020A1
:1012800010B50D38072808D80448FFF7B9FF002823
:1012900003D0BDE81040FFF757BE10BD000000208E
:1012A000044A01460020127AD20702D0084600F014
:1012B00067B870470400002070B50C46FFF7F0FFD8
:1012C0000546224602A1032001F0F8F8284670BD29
:1012D0004253503A494E464F3A25730070B50E4678
:1012E0002149054600200A61C1E90165A9071BD50E
:1012F0000024012211462046FFF7A0FF641C042CA5
:1013000002D20028F5D00FE070B972080421174806
:10131000FFF7BAFD40B9FFF7A5FD28B91348144AF5
:1013200000211438FFF71CFEE9070AD0114A4FF4D8
:10133000F01111600F4B00221B1D1A600D4A103274
:10134000116000280FD109480B4A00211C38FFF713
:1013500007FE002807D1BDE8704004480121074A74
:101360001838FFF7FDBD70BD04000020942C00006C
:101370002D16000008050050AD180000450E0000B5
:101380002DE9F84F854EDFF810A24FF4E01CF1680C
:1013900007462CEA010C0091002071680AF1040450
:1013A000251D7F4B4FF400324FF4802B01EB810E53
:1013B0008146182F16D2DFE807F00C17173A4E6057
:1013C0007083868F868FEAA0A0A0A0A0CAD1D8E1A2
:1013D000EAEA009A4FF4F01191432160C5F80090B9
:1013E00086F80090BDE8F88FC4F800C04846C5F8FC
:1013F0000090DAF800C08CF4F01C5FEA8C3C09D550
:1014000022602860022F02D14FF4E16008E04FF41F
:101410007A6005E02A602060022F3CD04FF4C8704B
:101420006422B0FBF2F04143377000225EE0C4F862
:1014300000C04846C5F80090DAF800C08CF4F01CF3
:101440005FEA8C3C04D5226028604FF44870E7E7DF
:101450002A6020601FE0C4F800C04846C5F800902C
:10146000DAF800C08CF4F01C5FEA8C3C02D52260F4
:101470002860CCE72A602060D0E7C4F800C0484666
:10148000C5F80090DAF800C08CF4F01C5FEA8C3CE0
:10149000DED522602860C820C2E7C4F800C04846F4
:1014A000C5F80090DAF800C08CF4F01C5FEA8C3CC0
:1014B00002D52260286001E02A602060377014E0C5
:1014C000C4F800C04DE0DAF800002BEA0002226008
:1014D00000F48020286008E0DAF800002BEA000120
:1014E000216000F480202860714600221868BDE861
:1014F000F84FFFF77FBD21602EE098465868FFF750
:10150000B9FDD7F1110100D040B1F16801F4F0113B
:101510002160C5F80090C6F80C9063E74FF40022F4
:10152000F26001290CD9C82011FB00F16420B1FB45
:10153000F0F1706800224143D8F80400FFF75AFD2B
:10154000F16801F4F0112960C4F800904AE74FF403
:10155000F0112160C5F80090377043E74FF4E011B7
:1015600021604946C5F8009006E04FF4D011216093
:101570004946C5F800905A462A60BCE74FF4C011AE
:1015800021604946C5F800904FF4C022F4E74FF4BB
:10159000F01129604946AEE7040500500400002020
:1015A000782C0000002901DA0020704702681144FD
:1015B00001600120704700002DE9F041461C012523
:1015C0000020FFF767FD1149741CD1E900208F68E6
:1015D000101A3B1A5B1C9C420FD963B10C480D4B8F
:1015E0003A4000681B6801EB820263F39F20D060E1
:1015F0000868401C0860002501E090190860002080
:10160000FFF74AFD2846BDE8F0810000B402002043
:10161000DC2C000060000020034803C8814201D197
:101620000120704700207047B4020020007802219A
:10163000FFF792BD70B50446000E01F0E7F805060D
:10164000200C01F0E3F845EA0045200A01F0DEF83D
:1016500045EA0025204601F0D9F8284370BD000076
:1016600005494FF0FF32082841F8202002D30844F2
:1016700080F84820704700001C010020F0B54FF0B2
:10168000FF3512B10023082601E008230C260C4C7C
:1016900005E000BF54F823707F1C04D05B1CB342EC
:1016A000F8D32846F0BD26185DB286F8305044F8CD
:1016B0002310002AF5D1E11881F84800F1E7000075
:1016C0001C0100200249084490F9300070470000D6
:1016D0001C0100204FF080400022C0F800210121B1
:1016E000C0F80010D0F80031002BFBD0054B19607A
:1016F000C0F80421C0F80810D0F804110029FBD06C
:1017000070470000180500402DE9F05F2648416849
:10171000F1B3DFF898B00E688146DBF800408768C7
:101720008078E11B21F07F45ED1CB0B9DFF88080A7
:101730004FF48030C8F84403C8F804031120FEF7C2
:101740009DFF1120FEF7A5FF4FF0010AC8F800A089
:101750002F2000F0C7F989F802A0B54200D2354623
:10176000124BE8193C3320F07F401860DBF8001082
:101770005A46091B21F07F41001B20F07F40C91C05
:1017800081420FD9106818602F2000F0ABF900E0FB
:1017900004E0BDE8F05F1120FEF786BFBDE8F05F12
:1017A00000F0A2BFBDE8F09F30000020041501400A
:1017B000001001402DE9F04100260125144C22E0E3
:1017C0006068226900EBC607387805FA00F111421B
:1017D00017D08A43226100F095FA02463878E36810
:1017E00005FA00F1194002FA00F3994209D179781B
:1017F000012901D0012100E0002151407A6802B1A5
:101800009047761CF6B220788642D9D3BDE8F081A5
:101810001C0000200E4910B50A784C780023A24223
:1018200012D0521CD2B20A70022A00D10B70084AA0
:101830000B78183252F8232002608868104420F098
:101840007F408860012010BD0360002010BD0000B3
:10185000300000202DE9F041124E07460125BD4021
:101860003068FFF707FC00280DD10F4C2069284293
:1018700007D1384600F046FA0028E06805D0284332
:1018800004E0A8432061BDE8F081A843E06020693E
:1018900028432061A1683068BDE8F0410022FFF7CD
:1018A000A9BB0000B42C00001C0000200348017AF2
:1018B000C90702D00078FFF763BD7047040000201D
:1018C0002DE9F043264CA4F110092278D9F80480C0
:1018D00099F80350404694F801C0D9F8086031E007
:1018E00002EB42036168521C01EBC301A378D2B240
:1018F000934200D100220B78022B02D0032B21D17E
:101900001DE003464F68194603E0B94203D00B4679
:10191000C969B9B1F9E7A9B18B4205D1C06918B954
:10192000104E0125B56000260F68C969D96149B11B
:101930000B683B440B6005E00174C06900E00021C6
:101940000028F9D19445CBD1C9E9010689F80350A3
:10195000404502D00120BDE8F0830020FBE70000F5
:1019600040000020001001402DE9F0412A4F0446BC
:10197000002607F11005D7F804803EE002D020468B
:10198000E4691DE02878696800EB4002401CC0B2A1
:1019900001EBC2012870AA78904200D12E700A781B
:1019A0004868012A2BD1027C4ABB8A684260CA6817
:1019B00082600A69C26049698161F97801B1466053
:1019C0004368BA68DFF854C0991A21F07F41614535
:1019D00002D28268114406E0D11A826821F07F4168
:1019E0008A4202D9511A016000E006604660012176
:1019F00086600174C66100F061FF002CBED12878BA
:101A000069788842BED17968414502D00120BDE89D
:101A1000F0810020FBE7000030000020FFFF7F0086
:101A2000FFF758FE00231A4A03211846FFF7AAFAC7
:101A300008B1FFF789FA002000F076FD08B1FFF742
:101A400083FA144A40F6CD410320FFF747FC08B162
:101A5000FFF77AFA00F0D8FD10480F4C046010A18F
:101A60001220FFF729FC08B1FFF76EFA0025206865
:101A700038B100F07DFE0FA10320226800F01EFDAA
:101A8000256000F053FC0028FBD120BFEFE70000E9
:101A900068000020811200000000002004150040B2
:101AA000507265737320416E7920427574746F6E45
:101AB0000D0A00004150503A494E464F3A5468656D
:101AC00020636F6E74656E7473206F662074686532
:101AD000207061636B616765207761732025750DE8
:101AE0000A00000000283ED01F49204A096800BFB4
:101AF00000BF00BF00BF00BF00BF00BF00BF9142DA
:101B00002FD000BF00BF00BF00BF00BF00BF00BF9D
:101B100000BF00BF00BF00BF00BF00BF00BF00BFCD
:101B200000BF00BF00BF00BF00BF00BF00BF00BFBD
:101B300000BF00BF00BF00BF00BF00BF00BF00BFAD
:101B400000BF00BF00BF00BF00BF00BF00BF00BF9D
:101B500000BF00BF00BF00BF00BF00BF00BF00BF8D
:101B600000BF401EC3D17047640000200024F40071
:101B70004907090E002806DA00F00F0202F1E02200
:101B800082F8141D03E000F1E02282F8001400F056
:101B90001F02012191404009800000F1E020C0F8BF
:101BA0008012C0F8001170472DE9F0478846814641
:101BB00000F0E8FC0124224E0028484618D0FFF728
:101BC00081FD304490F848008009032802D00128A4
:101BD00006D007E01B48006804FA09F4204201D14E
:101BE000022100E003214846BDE8F04700F030BA8A
:101BF00000F0D4FC002820D04846FFF763FD0546DE
:101C0000114F4FF4807007EB850100EB8500D1F890
:101C1000102580B242F00102C1F8102500F026FA2A
:101C2000B8F1000F09D04846FFF74CFD56F82000E8
:101C3000002802D0AC40C7F80443BDE8F08700009C
:101C40001C01002010050050006000402DE9FC41FF
:101C5000DFF8A480044608EB0400002790F9300068
:101C60001346C0170E46401C01D0082740E0F2780A
:101C700019462046FFF702FD0546401C37D0B078D4
:101C800048B1A00000F1A040D0F8001721F00201F7
:101C9000C0F8001707E000217378204600910A463B
:101CA000019100F097F9F078C0B11448317800EB59
:101CB0008500D0F81025124B1A40C0F810254FF4BB
:101CC000F8524FF4403302EA042203EA01410A4386
:101CD000D0F810150A43C0F8102509E008EB0500FC
:101CE000327810F8481F41EA8211017000E00427A1
:101CF0003846BDE8FC8100001C0100200060004067
:101D0000FFE0FCFF03490968C14011F0010000D069
:101D1000012070471005005070B5144D95F854001F
:101D200008B1082070BD0020411E2A18401CC0B216
:101D300082F830102028F8D300242046FFF790FCCA
:101D4000641CE4B20C2CF8D306210846FFF710FF00
:101D50004FF4BE7000F08AF905494FF00040C1F819
:101D60000403012085F85400002070BD1C010020F0
:101D700000600040034890F85400002800D0012083
:101D8000704700001C0100202DE9F0410446007955
:101D90002D4F904607EB40150E46E87E10B1082007
:101DA000BDE8F081707F28772046FFF789F95FEA68
:101DB000080068603169296031D0207996F81C806C
:101DC00007EB40104FF4A276007F0028206814D063
:101DD0004FF4887100F0D0FB4FF49071206800F050
:101DE000CBFB4FF49271206800F0C6FB31462068AF
:101DF00000F0C2FB1549206809E04FF48E7100F035
:101E0000AAFB3146206800F0A6FB11492068C0F803
:101E1000041320684146000B40B2FFF7A9FE207969
:101E200007EB4010007F0028206801D0082100E067
:101E30000421C0F800150020E8752876A875012156
:101E4000E976A876ACE700007401002010030200D8
:101E5000800002002DE9F047054600793E4C0E4611
:101E600004EB4013187F38B14FF40050B0EB164F1D
:101E700002D01020BDE8F087284600F06FF808B1C6
:101E80001120F7E79A7500279E609F8228794FF00E
:101E9000010804EB40143E46207F0028286825D026
:101EA0004FF49079494600F067FB4FF4AC7A514605
:101EB000286800F061FB2868A17DA268C0F844256D
:101EC000C0F848152868C0F808806068F0B949462D
:101ED000286800F04CFB80465146286800F047FB1C
:101EE00058EA0001F3D058BBA7750FE04FF48E7A83
:101EF000514600F030FB2868C0F808802146286869
:101F000000F074FD61684FF4807089B13046B1E72C
:101F10005146286800F01AFB10B9A08A4845F7D14D
:101F2000A08A484505D02146286800F05FFD00E002
:101F30008146A08AA17D8842EAD3A08A484501D182
:101F40000F26D1E75146286800F000FB0028F9D0A1
:101F50002868C0F80C80C7E77401002000790449A4
:101F600001EB4010807D002800D001207047000068
:101F70007401002070B50179144A002502EB411468
:101F80000168237FC1F800556168C9B1017902EB8E
:101F90004111097F0029016801D00D4A01E00C4A76
:101FA0008C3AC1F8082301680122090B49B201F0FB
:101FB0001F039A404909890001F1E021C1F88021FD
:101FC00000F0F8FAE576656070BD0000740100204D
:101FD0001003020030B541EA4201DDE9034541EA60
:101FE0008301800041EA042100F1A04041EA05415B
:101FF000C0F8001730BD30B541EA4201DDE90345C4
:1020000041EA8301800041EA042100F1A04041EA55
:102010000541C0F8001730BD1CB5002100910B46EA
:1020200001220191FFF7E7FF1CBD1CB500220B4602
:10203000009211460192FFF7DEFF1CBD1CB5002186
:1020400000910B46012201911146FFF7D4FF1CBD00
:10205000800000F5E06000F1A040026822F4403208
:102060000260026842EA014101607047034908B515
:102070000844002101600068009008BD0060004035
:1020800002494058012800D00020704700600040FD
:10209000004870470921000030B5184C054689B04A
:1020A000207828B16078854202D1002009B030BD87
:1020B000202213496846FEF7BFF900208DF814006E
:1020C0000620009008200190052003900720029030
:1020D0004FF0EB7006900948001DFFF74BFF0DB164
:1020E000002200E0074A05486946001DFFF74CFE44
:1020F0000028DBD1012020706570D6E75400002055
:10210000BC2C0000292A00002DE9F04FC1B00D00C1
:10211000DDF82CB14D984FF000011C4690460BEBBA
:10212000000A409101D00A2600E0002600F052FB90
:10213000002873D16F46BCB9409840AA3918284688
:1021400000F03CFC002869D04046FEF787F9C22821
:1021500000D9C220054640982A4638444146FEF739
:102160006BF94098284440904FF02009409882191C
:1021700031320DEB02016844002202E000F8019BBD
:10218000521CB242FAD30027544508D300F8019BF1
:1021900000F8019B00F8019B01F8019B26E05C45DB
:1021A00002D24A9A125D03E04C9AA4EB0B03D25C74
:1021B00084460125AB0022FA03F808F00F03092B2F
:1021C00001D9373300E03033C5F101086D1E0CF83A
:1021D0000830EFD20CF10200A2F1200300F8019BBD
:1021E0005E2B00D92E2201F8012B641C7F1C102FBE
:1021F000CAD30D220A700A224A7080F800904098D3
:10220000811943316846409100F0EAFA30B100F09C
:10221000E1FA18B9002040905445A7D341B02046B8
:10222000BDE8F08F2DE9F043C5B000251C4690466F
:1022300089464C9F449500F0CDFAB0BB449804AE5B
:10224000311844AA484600F0B9FB00282ED0072FC9
:1022500022D2DFE807F00412192E3844510040461C
:10226000FEF7FCF8054644982918FF2914D8304495
:102270002A464146FEF7E0F80EE0449822683044D2
:102280004146FEF785FB06E0D4E900234498414629
:102290003044FEF77DFB0546294644A8FFF782F946
:1022A00018B14499B1F5807F33D9002045B0BDE81D
:1022B000F083A0680090D4E900234498414630445C
:1022C000FEF766FBE7E7D4E90201CDE90001D4E9B6
:1022D0000023449841463044FEF75AFBDBE704F103
:1022E000080007C88DE80700D4E900234498414658
:1022F0003044FEF74DFBCEE704F108000FC88DE82F
:102300000F00D4E90023449841463044FEF740FBD7
:10231000C1E704A800F064FAC8E70000004870476D
:10232000252200000120FFF7B7BE00002DE9F04F85
:1023300087B0FFF771F918B1002007B0BDE8F08F42
:10234000454ED6E9014704EA070006EB8000A146A6
:10235000641CC5680CE000BFC5F3891000EB955004
:10236000044404EA070006EB8000A146C568641C2B
:10237000A807F1D005F003004FF0000B022805D0AC
:10238000AA0A01A8C5F38313002153E004EA070059
:1023900006EB800004F1010A0AEA0704C268381B50
:1023A00080004FEA9558001DC5F38913804521D957
:1023B00029490C3138B106EB840400F0FF0CA8EB7E
:1023C00000000C3404E00C46002108F0FF0C084625
:1023D000C0B2CDE90210CDE9004CD6F81444C5F3E3
:1023E000C2005946A047404511D108F103080AEB45
:1023F00098042AE0002106EB84000C300090CDE91F
:1024000001810391C5F3C200D6F81444EAE760F3F2
:102410008F1509EA070006EB8000C56016E000BFD3
:1024200004EA070C06EB8C0C491CDCF80CC040F8E5
:1024300004CB641C9942F3D3C5F3C2000093D6F8D1
:10244000105401AB5946A84700B17460FFF7E4F897
:1024500080F0010071E70000B4020020034AFF236E
:10246000936000231360536000F056B8B40200205C
:102470002DE9F047DFF83C800446002689463046C7
:10248000D8F80870D8F80050FFF796F800280ED05A
:10249000094800213D40406861F3820064F3C500B3
:1024A00066F3891008EB850169F39F20C860BDE8D9
:1024B000F0870000B4020020DC2C00002DE9F0477A
:1024C000DFF84C8005460127924689463846D8F801
:1024D0000860D8F80040FFF76FF8002815D00D48C5
:1024E000002104EA06028068641C61F3820065F33F
:1024F000C50067F3891008EB8202344069F39F201E
:1025000008EB8401D060C1F80CA0BDE8F0870000A2
:10251000B4020020DC2C0000024A02F5826203C2F1
:1025200070470000B402002070B506460020FFF797
:10253000B3FD040008D1FFF7ABFD0546FFF7EEFE43
:1025400032462946FFF78AFF204670BD40580028D2
:1025500000D00120704708B500224250405800903A
:1025600008BDD0F80403084000D00120704740584F
:10257000002800D00120704708B500224250405882
:10258000009008BD0449084490F93000082801DB98
:1025900001207047002070471C01002004490844B6
:1025A00090F93000082801D20120704700207047C0
:1025B0001C01002070B502464FF0FF301168D1F8C1
:1025C0000C35D1F81465D1F80855D1F81045C1F88B
:1025D0000C05C1F814051168C1F80805C1F810050B
:1025E0001846FFF719FD3046FFF716FD601C02D0B4
:1025F0002046FFF711FD681C04D02846BDE8704056
:10260000FFF70ABD70BD000070B5324800240460B9
:1026100030490720091F08602E48001D0460C320B0
:1026200000F0F4F80506C22000F0F0F845EA004595
:10263000C12000F0EBF845EA0025C02000F0E6F8E4
:102640000543244818300560C72000F0DFF8050670
:10265000C62000F0DBF845EA0045C42000F0D6F8BB
:1026600005431C481C3005601B48FEF7E3FF194971
:10267000103108601948FEF7DDFF16491431086073
:1026800014482030046013490120243108601148A7
:10269000083004600F4912480C3108600D480221CF
:1026A000283001600168021D01F00303094930313F
:1026B000022B0AD0006800F00300012804D1FF209B
:1026C000086040F20710106070BD4FF6FF700860A0
:1026D0000448F8E70C15004067452301EFCDAB89AE
:1026E000010104012110010070B5012670044FF0B2
:1026F000E0210025C1F88001084C4010C4F84803CF
:10270000C4F8080366602F20FFF7ECF9A660044CBC
:102710002F20A560FFF7E6F9A57070BD00100140FD
:102720003000002070B50546C87D0C4600284FF4E7
:10273000847128460AD0FFF70EFFD5F81805627E8F
:10274000E1688854607E401C607670BDFFF703FF2F
:10275000D5F8180570BD1FB501238DF800308DF830
:1027600008100192D0E90012684690471FBD000092
:1027700070B5114C0026C4F800610125C4F8005062
:10278000D4F800010028FBD0C4F80C61C4F808504C
:10279000D4F80C010028FBD008A10820FEF78CFD1E
:1027A00008B1FEF7D1FBC4F810612561D4F810011F
:1027B0000028FBD070BD0000001000405468652068
:1027C0007061636B6574207761732073656E740D3F
:1027D0000A0000000148FFF7C1BB000058000020BC
:1027E00070B50D460A46014601240648FDF724FE51
:1027F000EAB204490448FFF72DFB00B1002420464B
:1028000070BD0000B401002058000020014610B542
:102810000020CBB24FEA000123FA01F202F00102DC
:10282000C1F10704A2401043491C0829F4D310BD8C
:102830002DE9F84F204C00256846D4E901B6FEF793
:10284000E9FF8046FFF73CF80746A946B8F1000FBC
:1028500025D00023009ACC46606819E0076801463D
:10286000974202D9BA1A026014E0C1F800C0D1F848
:102870000C80D21BC8693B448A46B8F1000F07D0D0
:10288000F71827F07F47C1E90178CAF81C500D46B8
:102890000028E3D160602846FFF766F804E0284688
:1028A000FFF762F800B917B15846FEF72DFF84F81C
:1028B0000390BDE8F88F0000300000200D4B10B5EC
:1028C000596831B102680C68A24204D8A21A0A60A1
:1028D000C161586010BD0B4603E00B46C969121B6D
:1028E00021B10C689442F8D3A41A0C600260C16153
:1028F000D86110BD30000020F8B5064600240D4612
:102900002046FEF7C7FB684600F09EF968B10570E7
:10291000084946609DF8000048700020FEF7BCFBA7
:102920001420FDF7C1FE2046F8BD04240020FEF768
:10293000B3FBF8E7400000202DE9F0411D4D6C6825
:10294000002C35D01C4800270068A968B846401AFA
:1029500020F07F462068B04215D82246361A074438
:10296000E469107C68B182F81080EB6833B1D2E979
:102970000501984728B1FEF7E7FA02E0D2E9051011
:102980008847002CE6D129786878814206D1401C1E
:10299000C0B26870022801D185F8018005486978C5
:1029A000183040F82170BDE8F0411420FDF77CBEDE
:1029B000BDE8F081300000200415014010B5144638
:1029C00002004FF001000AD00846126805A1FDF789
:1029D000DFFF01462046BDE81040FEF7E3BD0021C1
:1029E000216010BD5B253038645D000070B50C4679
:1029F00005464FF48E71FFF7AEFDA18AA068415CD9
:102A0000A08A401CA082C5F81C1570BD1FB500220D
:102A10008DF800208DF80810816801918275D0E949
:102A20000012684690471FBD0078012801D1014976
:102A300088707047540000202DE9FF470C4605467A
:102A40004FF40071FFF78DFD01274FF40178002648
:102A500018B34FF4927949462846FFF777FDE0B165
:102A600049462846FFF777FDC5F80883A07E00B9E0
:102A70006F6002208DF80000D5F88004C5F880044E
:102A80000390E07D8DF80800E0680190E6752676F9
:102A9000D4E900126846904727E004212846FFF752
:102AA00060FD10B34FF484712846FFF74FFDE0B18D
:102AB00021462846FFF736FEE07D617E884214D12C
:102AC000207E38B1617EE268E0752069E06026769C
:102AD000667607E0A07E00B96F60C5F80883E675EA
:102AE000617EE2682046FFF736FE4FF48E7841465D
:102AF0002846FFF72BFD88B1A08AA17D884204D229
:102B000021462846FFF772FF08E041462846FFF7B6
:102B100022FDA17D11B12046FFF778FF4FF4A27886
:102B200041462846FFF712FD002812D041462846AC
:102B3000FFF711FDA07E00B12F60E07D002808D0D6
:102B4000E675617EE26804B02046BDE8F047FFF715
:102B500002BEBDE8FF872DE9FF410C464FF4927796
:102B600005463946FFF703FD0026C0B13946284621
:102B7000FFF702FD02208DF80000D5F88004C5F8AB
:102B800080040390D5F83C058DF80800E0680190BA
:102B9000E6752676D4E900126846904724E04FF4A3
:102BA000887739462846FFF7E2FCE8B139462846DF
:102BB000FFF7E2FCD5F83C05C1B2E07D884213D1B5
:102BC000207E60B1E268D5F8000220F02000C5F850
:102BD0000002207EE0752069E060267601E0E6755F
:102BE000E2682046FFF7B7FD4FF4A2773946284642
:102BF000FFF7BDFC68B139462846FFF7BDFCE07D14
:102C000038B1E675D5F83C05E268C1B22046FFF759
:102C1000A2FD4FF4907631462846FFF7A8FC002825
:102C20000FD031462846FFF7A7FCA07D002808D02A
:102C3000D5F84C0504B0C1B22046BDE8F041FFF71D
:102C4000E5BEBDE8FF8100000A4A10B553789478CC
:102C5000591CC9B28C4200D1002114788C4201D198
:102C6000002010BD0170506803EB430100EBC10070
:102C700010BD000040000020B0000020D000002067
:102C8000FC0000200D0000000E0000000F000000FE
:102C9000100000000D000300591100000E00030099
:102CA000591100000F00030059110000100003002B
:102CB000591100009401002003000000FFFFFFFFF6
:102CC000FFFFFFFFFFFFFFFFFFFFFFFF0000000010
:102CD000000000000000D6010601000029000000ED
:102CE00001000000010000000100000001000000E0
:102CF00001000000010000000100000002000000CF
:102D00004F766572666C6F770D0A00002C2D0000FF
:102D10000000002068000000B8090000942D0000A9
:102D20006800002068260000C809000000000000BC
:102D30000000000000000000000000000000000093
:102D40000000000000000000000000000000000083
:102D50000000000000000000000000000000000073
:102D60000000000000000000000000000000000063
:102D70000000000000000000000000000000000053
:102D8000000000000020004000000000002D0000B6
:042D90000090D003DC
:0400000500000401F2
:00000001FF
