:020000040000FA
:1000000050210020150400001D0400001F04000002
:10001000210400002304000025040000000000006B
:1000200000000000000000000000000027040000A5
:1000300029040000000000002B0400002D04000033
:100040002F0400002F0400002F0400002F040000E4
:100050002F0400002F0400002F0400002F040000D4
:100060002F0400002F0400002F0400002F040000C4
:100070002F0400002F0400002F0400002F040000B4
:100080002F0400002F0400002F0400002F040000A4
:100090002F0400002F0400002F0400002F04000094
:1000A0002F0400002F0400002F0400002F04000084
:1000B0002F0400002F0400000000000000000000DA
:1000C0002F0400002F0400002F0400002F04000064
:1000D0002F0400002F0400002F0400000000000087
:1000E0000000000000000000000000000000000010
:1000F0000000000000000000000000000000000000
:1001000000000000000000000000000000000000EF
:1001100000000000000000000000000000000000DF
:10040000DFF80CD000F04AF8004800472D0B000040
:10041000502100200648804706480047FEE7FEE7D7
:10042000FEE7FEE7FEE7FEE7FEE7FEE7FEE7FEE7A4
:10043000D90400000104000040EA01039B0703D037
:1004400009E008C9121F08C0042AFAD203E011F813
:10045000013B00F8013B521EF9D27047D2B201E0D5
:1004600000F8012B491EFBD270470022F6E710B5B9
:1004700013460A4604461946FFF7F0FF204610BD12
:1004800030B504460020034600E05B1C934203D2D3
:10049000E05CCD5C401BF8D030BD0000064C074D41
:1004A00006E0E06840F0010394E807009847103444
:1004B000AC42F6D3FFF7A8FF080F0000280F00009A
:1004C00000F01F02012191404009800000F1E0206E
:1004D000C0F880127047000070B58D480023021DDF
:1004E0000178101D0124062907D115782D0704D1A4
:1004F0000578C5F30315032D02D0062904D00FE0BB
:10050000854E844D75670EE015782D0708D1057866
:10051000C5F30315032D06D0042D04D0052D02D0FC
:10052000062909D010E04FF08055D5F844527B4E93
:10053000C5F34235356002E015782D0704D1057802
:10054000C5F30315032D02D0062906D011E0744D22
:100550002E6826F080762E600EE015782D0708D1E3
:100560000578C5F30315032D06D0042D04D0052D01
:1005700002D006290AD011E04FF08045C5F80C31B1
:10058000C5F81031654D2D1F2B6002E015782D0741
:1005900004D10578C5F30315032D02D0062905D033
:1005A0000CE05E4A0321643211600AE015782D07E1
:1005B00004D10578C5F30315032D02D006290DD00B
:1005C0006AE0584A05211160564978310C60554956
:1005D00008310B603F21121D116002E011780907FC
:1005E0005AD10078C0F30310052855D14E48006851
:1005F0004E4908604C48001D0068091D08604A48C3
:1006000008300068091D086047480C300068091D63
:100610000860454810300068091D086042481430E1
:100620000068091D08604048183000683F492031C3
:1006300008603D481C300068091D08603A482030B9
:100640000068091D0860384824300068091D0860EA
:10065000354828300068091D086033482C30006890
:10066000091D08603048303000683049403108606A
:100670002D4834300068091D08602B483830006868
:10068000091D086028483C300068091D086026489C
:1006900040300068091D086021487438016841F441
:1006A00070010160BFF34F8FBFF36F8F4FF01021C8
:1006B000D1F80002002803DBD1F80402002822DA76
:1006C0001B4A14601B480468002CFCD01524C1F898
:1006D00000420568002DFCD0C1F8044201680029E1
:1006E000FCD0136001680029FCD0BFF34F8F0C4889
:1006F000F0380168104A01F4E06111430160BFF372
:100700004F8F00BFFDE70E490C48086070BD000028
:10071000E00F00F00DF0ADBA00C007403C0500400E
:10072000FCED00E0105600400404001020C500401D
:1007300004E5014000E401400400FA050090D00304
:100740004400002002E008C8121F08C1002AFAD1A4
:1007500070477047002001E001C1121F002AFBD141
:1007600070470000114810B50178427801F00F0180
:1007700002290ED8FF2A0CD821B101290BD055230C
:10078000002110E00A49801CFFF77AFE08B9012019
:1007900010BD002010BD0F23F2E74418A4789C423E
:1007A000F7D1491CC9B29142F7D3F0E748000020C5
:1007B000080E00002DE9F0415C4C0E46174614F877
:1007C000381F02F03F0201F0C00111434AC4012565
:1007D00004F83B5C4FF0000824F8388C14F8442DE2
:1007E00042B148B1032811D0012A18D0A5810220B6
:1007F000BDE8F0810520FBE700F034F9012E02D0BE
:10080000C4F8388070E0B801A0636DE0012AEDD033
:10081000608940F40040A08100F024F964E05A1C93
:1008200004D0272E02D9A5810120E1E7A4F80A808F
:10083000012802D002280AD056E040F201113C48BB
:10084000FFF713FE012000F02DFA04206BE0581C86
:1008500004D0FF2902D9A5810320C9E7344803F059
:100860000F02DFF8D08002704170B3F1FF3F1ED05D
:100870002BB1012B09D0022B09D0A5812EE00A460D
:100880002D49801CFFF7D8FD05E00F2200E055221E
:10089000801CFFF7E3FD002000F004FAA06BC0000D
:1008A0005030B0F5BC7F21D840F271202CE03046AA
:1008B00037B1012F04D0022F0DD0032F14D10FE038
:1008C000002000F0EFF900F03BF8C8F80052C8F83B
:1008D0000050032027E000F0B3F803E0042087E78E
:1008E00000F09EF80028F9D0002081E7B0F57A7F6B
:1008F00002D840F2E24007E0B0F5CB6F02D840F2F8
:10090000537001E040F6C410A169C1F840050B49DD
:10091000A06900F5A0700860091DC1F800800748B3
:100920000C38056002202070DEE700000000002087
:100930004800002000100040080E000010F50140A3
:1009400002494FF4007008607047000050160040E4
:10095000034900234A7A4B72898901601046704727
:10096000000000204AB1012A0BD0022A0DD0032A30
:100970000FD0042A11D0002070470B4A02600820D3
:100980000EE00A4A026009200AE0094A02600A20D1
:1009900006E0084A02601A2002E0074A02601B20B3
:1009A0000870012070470000008000400090004067
:1009B00000A0004000A0014000B0014010B500F0D0
:1009C000BFF910B900F01EF908B1042010BD0648A7
:1009D000002101224172027081630448016841F0E4
:1009E00010010160002010BD0000002010ED00E0AB
:1009F00078B104280DD0D8280BD0EC2809D0F028E5
:100A000007D0F42805D0F82803D0FC2801D003280B
:100A100001D1032901D9042070470020704700004C
:100A200006490978012901D9002070470349024687
:100A3000491C01F11700FFF795BF000000000020DE
:100A400040B210F0300F01D040F0C000044940B275
:100A50000A78012A01D900207047486101207047B7
:100A60000000002010B500F013F8074801240460CE
:100A70000549002008310860091D086000F042F9AE
:100A80000248047010BD000008F50140000000207D
:100A9000704700002DE9F0471F48016841F0100140
:100AA00001601E4D0127DFF878801E4C40F20119CD
:100AB000002600BFD5F80C01B0B1C5F80C610120CB
:100AC000FFF7FEFC207804280ED16F60D8F80000F4
:100AD000012805D1FFF746FE10B16089401C6081F6
:100AE00049461148FFF7C1FCA069D0F8401111B187
:100AF000C0F84061DEE7D0F844010028DAD0A069F0
:100B0000C0F8446194F90100FFF7DAFC2069401C49
:100B10002061BDE8F087000010ED00E0001000400B
:100B20000014004000000020480000202DE9F84F8C
:100B300000263746344600F033F9FFF73FFF4FF009
:100B4000FF3910B14846BDE8F88FDFF88CA04FF0B0
:100B50000008224DFFF79EFFD5F808110029F9D0B3
:100B6000C5F808811C49091F0968C9B237B106F1E7
:100B70001502904204D90C020646EBE70127FAE77A
:100B80000C430027A00B04F00303C4F30521C4F3B6
:100B90008502032B00D14B46FFF70CFE6846FFF79A
:100BA000D7FE0028D6D0009A5146C2F30720CAF8D3
:100BB000000000BFD5F81C010128FBD14046C5F854
:100BC0001C81D2B2C1F80020D5F81C110129FBD13B
:100BD000C5F81C01BEE700001C25004000200040B5
:100BE00030B541EA4201DDE9034541EA8301800075
:100BF00041EA042100F1A04041EA0541C0F8001794
:100C000030BD000010B5254C217A6069FFF7F0FE79
:100C100008B1042010BD00F075F821496069086032
:100C2000091D207A08601E481830016821F0FF0174
:100C300001600268A16A42EA116202600802184972
:100C40001031086016490120243108600020091F76
:100C50000860E079617940EA012011492831086093
:100C60002079E178000440EA0120A17808430C498A
:100C70000831086094F8240094F82010400640EAF7
:100C80000160A18B40EA0140A17940EA01200449BA
:100C900040F0FF000C310860002010BD0000002073
:100CA0000C15004010B50446FFF7F2FE1149124A38
:100CB000C86A1060121D086B1060086C022202EBFB
:100CC00040000D4A303A1060121F0C4810600C4A68
:100CD0000020C2F800010323C2F8003224B1C2F898
:100CE0000C010120506010BD486903492C3908608F
:100CF00010BD000000000020381500404800002012
:100D0000001000400B49032008600B490020C1F887
:100D10000002C1F810010122C1F81020D1F8102101
:100D2000002AFBD0C1F810014860086003494881DF
:100D30007047000008F5014000100040000000204E
:100D400010B54FF080400021C0F800110122026070
:100D5000D0F80031002BFBD0104B98694260C26084
:100D6000C0F80415C0F84011C0F84411C0F848118B
:100D7000C0F84C114FF48034C0F80443C0F800228E
:100D80000424C0F810455C6BC0F840454FF48274F1
:100D9000C0F8444502600020196110BD0000002029
:100DA0001CB500240122062000942346114601941C
:100DB000FFF716FF002208200094234611460194F5
:100DC000FFF70EFF0D49062008600C490820083186
:100DD00008600A490A48183108600A48C0F8084102
:100DE000C0F81C41C0F82441044A04210C3A1160A7
:100DF000C0F804430121816001601CBD0C25004046
:100E000000A04E0000200040FFC1FBE84C90728B18
:100E1000E7B3518963AB232302841872AA612F3B85
:100E200051A8E53749FBC9CA0C18532CFD45E39A74
:100E3000E6F15DB0B61BB4BE2A50EAE90E9C4B5EEB
:100E40005724CCA1B759B887FFE07D742648B9C5AF
:100E5000F3D9A8C4B1D5911101420C39D5B0979DF1
:100E600028D4F29BA4FD6465068C2996FEA2714DE0
:100E7000F3F82E58DB0D5A5F1528F57407CE25AF11
:100E80002B12E6D0DB2CDCC37FF03E3A13A4DCE26D
:100E9000F96C54E2D8EAC8880021869C6AD8CB4E07
:100EA000146AF94DD27EB23203C6144B7FD1B8A674
:100EB000797C17ACED06ADAF0A947ABA03E792D706
:100EC000150973E86D16EEE13F781F9D09526EF12A
:100ED0007C362A716C7564448010434E35EC65276E
:100EE0000AB5FC26693F599901638AA5BF685CD39E
:100EF0003CBE0BD67683D657054A3DDD8173C9EBE0
:100F00008A8439F4360BF700280F00000000002017
:100F10004800000044070000700F00004800002057
:100F20000821000054070000000808010001000328
:100F300003000000000000000000000000000000AE
:100F400000800040030000000000000000000000DE
:100F5000294176715B06000055555500C409000013
:100F60000000000000000000000000000090D0031E
:0400000500000401F2
:00000001FF
