:020000040000FA
:1000000068440020D5040000DD040000DF04000087
:10001000E1040000E3040000E5040000000000002B
:10002000000000000000000000000000E7040000E5
:10003000E904000000000000EB040000ED040000F3
:10004000EF040000EF040000891B0000EF04000033
:10005000EF040000EF040000EF040000EF040000D4
:10006000EF040000EF040000EF040000EF040000C4
:10007000EF040000EF040000EF040000EF040000B4
:10008000EF040000EF040000EF040000EF040000A4
:10009000EF040000EF040000EF040000EF04000094
:1000A000EF040000EF040000EF040000EF04000084
:1000B000EF040000EF04000000000000000000005A
:1000C000EF040000EF040000EF040000EF04000064
:1000D000EF040000EF040000EF0400000000000047
:1000E0000000000000000000000000000000000010
:1000F0000000000000000000000000000000000000
:1001000000000000000000000000000000000000EF
:1001100000000000000000000000000000000000DF
:100400004B1C012B98BF70472DE9F003911C9B08F2
:10041000B1F80480B1F802900A8831F802CC804427
:10042000814402448444D9F80070D8F8006015680B
:10043000DCF80040C9F80060C8F80070CCF8005043
:100440001460D9F80470D8F804605568DCF80440EA
:10045000C9F80460C8F80470CCF80450546008313E
:100460005B1ED5D1BDE8F00370474B1C012B98BF34
:1004700070472DE9F003911C9B08B1F80480B1F896
:1004800002900A8831F802CC00EB580800EB5909B9
:1004900000EB520200EB5C0CD9F80070D8F8006059
:1004A0001568DCF80040C9F80060C8F80070CCF8A6
:1004B0000050146008315B1EDFD1BDE8F0037047C7
:1004C000DFF80CD001F04CF900480047712C000017
:1004D000684400200648804706480047FEE7FEE7DC
:1004E000FEE7FEE7FEE7FEE7FEE7FEE7FEE7FEE7E4
:1004F0001D190000C10400009FED3D0A5FEA920C47
:1005000057D000BFD0ED000A90ED011A0B1D60EE30
:10051000A00A083041EE010AF5EEC00AF1EE10FA29
:10052000A6BFB1EEE01A81ED001A81ED000AD0ED10
:10053000000A90ED011A191D60EEA00A083041EE84
:10054000010AF5EEC00AF1EE10FAA6BFB1EEE01A0C
:1005500083ED001A83ED000AD0ED000A90ED011A38
:100560000B1D60EEA00A083041EE010AF5EEC00A4C
:10057000F1EE10FAA6BFB1EEE01A81ED001A81ED9E
:10058000000A90ED001AD0ED010A191D21EE011AA2
:10059000083000EEA01AB5EEC01AF1EE10FAA6BFB0
:1005A000F1EEC10AC3ED000A83ED000ABCF1010CB3
:1005B000A8D112F0030208BF704700BFD0ED000AB7
:1005C00090ED011A0B4660EEA00A091D083041EEBD
:1005D000010AF5EEC00AF1EE10FAA6BFB1EEE01A7C
:1005E00083ED001A83ED000A521EE7D17047000028
:1005F000000000002DE9F04106462DED028B8C46EF
:100600000088736801EB80044508274601EB8500EC
:1006100004EB85025FEA95087DD000BFD1ED003A7A
:10062000D4ED001A91ED012A94ED013A73EEA16A1E
:1006300091ED024A91ED031AD4ED022AD4ED035A4A
:1006400090ED008A90ED017A90ED020A90ED036A38
:1006500092ED005AD2ED014AD2ED027AD2ED030AB0
:10066000C1ED006A72EE036A73EEE13A74EEC71AE6
:10067000C1ED016A74EE226A74EE622A37EEC04A56
:10068000C1ED026A71EE256AC1ED036A72EE436A3A
:1006900031EE652A38EE051A35EE483A80ED001A3B
:1006A00037EE241A80ED011A30EE271A80ED021A77
:1006B00036EE201A80ED031A30EEC61A93ED000ACA
:1006C000D3ED010A63EE804A26EEA05A66EE805A08
:1006D00063EEA03A74EE854A75EEE33AC4ED004A43
:1006E00063EE204AC4ED013A61EE803A61EEA00A61
:1006F00023EE000A74EEE31A30EE800AC2ED001A0F
:1007000082ED010A93ED020AD3ED030A62EE803A0C
:1007100022EE203A00E024E062EEA01A22EE002A47
:1007200073EE832A1030103172EE611AC4ED022A82
:1007300024EE202AC4ED031A61EE001A61EE200AAD
:1007400024EE000A103332EE611A103430EE800AC3
:1007500082ED021A82ED030A1032B8F101087FF42B
:100760005DAF294602236046726800F041FB726863
:100770002946BDEC028B3846BDE8F041022300F06B
:1007800037BB2DE9F34F2DED048B87B00B98008814
:10079000470801EB870000EB870606EB8705CDE9EC
:1007A0000056DDF82C80A5F1040C0CEB8703CDE995
:1007B00002014FEA5709D8F804800427CDE90497CD
:1007C000D1ED000A96ED000A90ED011A95ED013A7F
:1007D00070EE802A70EEC03AD1ED010A96ED010A62
:1007E000041F321F30EE802A70EEC01A31EE230A49
:1007F000D0ED000A32EE415A33EEC11A30EE434AD0
:1008000071EEE04A95ED000A70EEA11A35EE435AFA
:1008100074EE805A72EEE04A70EEA20A71EEC01ACF
:1008200031EE031A74EEC04A30EE800A062708F152
:10083000080A81ED000A90ED010AD5ED010A08F1E0
:10084000100B30EE020A08F1180830EE200A81ED94
:10085000010A80ED004AC0ED015AC6ED004A86ED5E
:10086000015A85ED001AC5ED011ADDF81090083027
:10087000083108350836A9F102095FEA590900F084
:10088000078100BFD1ED000A96ED000AD0ED011AF4
:10089000D5ED014A30EE802A30EEC05AD1ED010A82
:1008A00096ED010A70EE802A30EEC01A31EE850A0C
:1008B000D5ED000A30EE644A90ED000A31EE403A80
:1008C00030EE011A73EE205A32EE403A30EE020A50
:1008D00031EE601A73EE603A30EE200A32EEE13A01
:1008E00075EE611A81ED000A90ED010AD5ED010A5D
:1008F00033EE643A30EE220A71EEA41A30EE200A8A
:1009000081ED010AD4ED002ADCED004A54ED010A24
:100910001CED010A32EEA47A32EEE49A72EEE42A79
:1009200052ED018A70EE807A30EEC02A72EEE82A2B
:10093000D2ED000A93ED000A13ED018A30EEC05AA1
:1009400072EE886A77EEE82A35EE026A32EEC85A0D
:1009500077EE602A72EEC04A70EEC02A70EE870A07
:1009600072EEC22A30EE800A38EE682A84ED000A60
:1009700012ED010A53ED010A32EE492A30EE270A40
:1009800030EE200A04ED010A9AED000ADAED010AC0
:1009900064EE007A25EEA07A65EE805A24EE204AB5
:1009A00037EE877A35EEC44A80ED007A80ED014A51
:1009B00026EEA04A66EE005A66EE200A26EE800A6F
:1009C000083034EE654A083130EE800A82ED004A84
:1009D000083C02ED010A9BED000ADBED010ADDF89F
:1009E00014E023EE804A63EE205A23EE003A63EED1
:1009F000A03A083A34EE254A0BEB8E0B33EE633AFD
:100A000086ED004A0AF1080A86ED013AB1EE643A31
:100A1000083663EE003A25EE203A25EE000A64EE31
:100A2000A00A33EEC33A30EEC00A8CED003A0CED6A
:100A3000010A98ED000AD8ED010A08EB870861EE7B
:100A4000803A21EE203A21EE001A61EEA01AACF1B4
:100A5000080C33EE833A31EE611A85ED003A62EE0E
:100A6000801A85ED011A22EE201A62EEA00A22EE0B
:100A7000000A083531EE611A30EE800A83ED001A63
:100A800003ED010A083BB9F101097FF4FBAE00BF99
:100A9000D1ED000A96ED000A91ED011AD0ED015A50
:100AA00030EE802A70EEC00A96ED010A95ED015AEB
:100AB000042371EE001A71EE404A35EEA00A90ED63
:100AC000001A31EEE54A70EEE50A30EE453A95ED52
:100AD000000A34EE454A30EE855A74EEC12A72EEB1
:100AE000413A71EE240A31EE021A72EE802A73EE58
:100AF000C03A70EEC00A31EE000A81ED000A90EDB6
:100B0000010A95ED011A30EE210A30EE010A81ED5D
:100B1000010A9AED000A9AED011A63EE001A22EE1C
:100B2000812A22EE800A23EE011A71EE821A30EE3B
:100B3000410AC0ED001A80ED010A9BED000A9BED11
:100B4000011A63EE801A24EE012A24EE000A23EE35
:100B5000811A71EE821A30EE410AC6ED001A86ED56
:100B6000010A98ED010A98ED001A60EE801A25EE50
:100B7000012A60EE810A25EE000A32EE211A30EEDB
:100B8000C00A85ED001A85ED010A0B984268DDE97F
:100B9000030100F02DF90B98042304994268029890
:100BA00000F026F90B98042304994268019800F09C
:100BB0001FF90B98049904234268009807B0BDEC14
:100BC000048B02B0BDE8F04F00F012B92DE9F041FE
:100BD0000488984617460D460646012A20D1281D4E
:100BE000F4B1A0F1080114F0010F06D091ED020A52
:100BF000B1EE400A81ED020A08315FEA540C0FD0D1
:100C000091ED020AB1EE400A81ED020A91ED040A6B
:100C1000B1EE400A81ED040A1031BCF1010CEFD1B4
:100C2000B4F5807F1BD008DC102C13D0202C16D0FC
:100C3000402C19D0802C0DD01CE0B4F5007F13D0CF
:100C4000B4F5806F06D0B4F5006F08D0B4F5805FBE
:100C50000AD00FE029463046FFF7CCFC0AE02946CF
:100C60003046FFF78EFD05E02146012328467268D5
:100C700000F0BEF8B8F1000F04D0B1892846B26880
:100C8000FFF7BEFB012F18BFBDE8F08100EE104A50
:100C9000B7EE001A002CF8EE400A81EE200A08BFD9
:100CA000BDE8F081A5F1080014F0010F0ED0D0EDE1
:100CB000020A60EE800AC0ED020AD0ED030AF1EEEE
:100CC000600A60EE800AC0ED030A0830610808BFC0
:100CD000BDE8F081D0ED020A60EE800AC0ED020AA4
:100CE000D0ED030AF1EE600A60EE800AC0ED030A5F
:100CF000D0ED040A60EE800AC0ED040AD0ED050ACA
:100D0000F1EE600A60EE800AC0ED050A1030491E5F
:100D1000E0D1BDE8F081000070B44FF0000CB0EC01
:100D2000010A4E1E6446B50831D000BFD0ED000A5E
:100D300090ED011A0830B4EEE00AF1EE10FA3CBF73
:100D4000B0EE600A0CF10104F0EC010AB4EEC10A45
:100D5000F1EE10FA3CBFB0EE410A0CF10204B0EC27
:100D6000011AB4EEE00AF1EE10FA3CBFB0EE600AF0
:100D70000CF10304B4EEC10AF1EE10FA3CBFB0EE80
:100D8000410A0CF104046D1E0CF1040CCED106F0E6
:100D9000030C5FEA0C0617D0B6F1004F19D2002EF3
:100DA000C8BF002510DD00BFD0ED000AF4EEC00A78
:100DB000F1EE10FA04DD4C19B0EE600AA4EB0C045D
:100DC000001D6D1C761EEFD182ED000A1C6070BC08
:100DD0007047F0EC010AB4EEE00AF1EE10FA3CBF05
:100DE000B0EE600AA1EB0C04BCF1010CF1D1EBE711
:100DF0002DE9FF4F2DED108B82B09FEDFEFA0B46D3
:100E00001C46DB084FF0000C0CEB030505EB030858
:100E100008EB030909EB030606EB030A00EBCC071A
:100E200000EBC60697ED001AD6ED000A0AEB030B9D
:100E300000EBC50500EBCA0A31EE200A71EE601A1C
:100E400095ED002ADAED000A0BEB030E00EBC80863
:100E500032EE201A00EBCB0B32EE602AD8ED002ADE
:100E6000DBED000A00EBC90900EBCE0E99ED003A6C
:100E70009EED004A72EEA03A72EEE02A73EE040A8A
:100E800033EE443A70EE636A70EE233A31EE600A54
:100E900071EE200A33EEA01A73EEE00A87ED001A15
:100EA000C6ED000A97ED011AD6ED010AD5ED013A1B
:100EB00098ED014A31EE206A71EE600A9AED011A4E
:100EC00099ED015A73EE814A73EEC13A9BED011A16
:100ED00034EE017A34EE411A9EED014A75EE045A61
:100EE00035EE444A36EE475A36EE076A34EEE57A76
:100EF00074EEA54A76EE245A76EE644AC7ED015A9E
:100F0000C6ED014A76EE874AC8ED004A76EEC74A3A
:100F1000CBED004A75EE404A35EE000AC8ED014AB5
:100F20008BED010A32EE430A32EE032A20EE0F0A5D
:100F300062EE0F4A33EEC42AA4448C4522EE0F3AE7
:100F400033EE842A30EEC34A62EE0F3A30EE833A33
:100F500031EEC02A31EE800A71EE630A31EE231AB7
:100F600072EEE41A72EEA42A70EE013A30EE410AF3
:100F7000C5ED003A8EED000A32EE200A8AED000A35
:100F800032EE600A89ED000A33EE620A85ED010A4D
:100F900033EE220A8EED010A34EE610A8AED010A6F
:100FA00034EE210A89ED010AFFF42EAF082B3FBF72
:100FB00002B0BDEC108B04B0BDE8F08F4FF0000C18
:100FC000CDF804C04FF0010CCDF800C0DDF804C02E
:100FD000159DAC444FEA8C0505EB0C07CDF804C019
:100FE00007EB0C094FEA4C0808EB0C0609EB0C0A5E
:100FF00002EBCC0C02EBC80802EBC60602EBC505FF
:1010000002EBC70702EBC90902EBCA0A9CED00DA42
:101010009CED018AD8ED00CA96ED00CAD5ED00BA64
:1010200097ED00BAD9ED00AADAED008AD8ED017A81
:1010300096ED01AA95ED017AD7ED016A99ED016A65
:10104000DAED019ADDF800C00CEB0307FD1805EBA3
:10105000030A0AEB030808EB030606EB030B00EB9D
:10106000CC0900EBC808D9ED000A98ED000A00EBA6
:10107000C70700EBC606D7ED001A96ED001A70EE12
:10108000803A0BEB030E70EEC00A31EE810A00EBE2
:10109000C50500EBCB0B31EEC11AD5ED001A9BED67
:1010A000002A00EBCA0A00EBCE0E31EE824A71EE46
:1010B000C21A9AED002ADEED002A32EE223A32EE12
:1010C000622A73EEC42A73EE843A30EE435A30EE4D
:1010D000030A33EE803A73EEC0DA89ED003A99EDF7
:1010E000010A98ED013AD7ED013A95ED014A70EE0B
:1010F00003EA30EE433A96ED010A9AED01EADEED9D
:10110000014A33EE809A73EEC03A9BED010A74EE09
:10111000005A34EE404A3EEE240A7EEE644A3EEE29
:10112000E5EA7EEEA55A79EE40EA39EE009A32EE13
:10113000AE0A72EEEE2A75EE89EA35EEC99A7EEEB7
:10114000455AC9ED01EA3EEE055A2BEEADEA67EECF
:1011500009EA2BEE899A67EE2DDA3EEE2EEA39EE99
:101160006D9A88ED00EA67EEA5DA88ED019A2CEE1B
:10117000809A6CEEA55A27EE800A39EE2D9A35EE4C
:10118000C00A85ED009A66EE055A85ED010A2AEE41
:10119000A20A2AEE855A66EE222A30EE250A8BED47
:1011A000000A35EE620A73EEA42A8BED010A31EED5
:1011B000420A31EE021A33EEE42A62EE8F3A20EE52
:1011C0000F0A21EE0F1A22EE0F2A70EEC02A30EE1F
:1011D000800A71EEC10A71EE811A33EE421A33EEC3
:1011E000022A34EE633A34EE234A70EE043A30EECB
:1011F000444A01E0F304353F72EE834A72EEC32A9B
:1012000032EE613A32EE210A71EE601A71EE200A76
:101210002DEE232A28EE031A2DEE033A68EE233A28
:10122000A44432EE011A28EE842A8C4587ED001A78
:1012300033EE631A29EE843A87ED011A29EE801AFB
:1012400028EE800A32EE011A30EE430A26EEA42A76
:101250008EED001A8EED010A2BEE240A26EEA11A5D
:101260006BEE211A30EE010A2CEE221A86ED000AEE
:1012700031EEC20A6AEE221A86ED010A2AEE200A2F
:101280006CEE200A31EE000A8AED000A30EEE10A27
:101290008AED010AFFF4D8AEDDF800C00CF1010CB4
:1012A000CDF800C063453FF691AEDDF854C04FF66F
:1012B000FF7404EACC0CCDF854C0072B3FF6A0AD68
:1012C00002B0BDEC108B04B0BDE8F08F0649074AB0
:1012D0000868504343F239021044086040087047E0
:1012E0000149086070470000180000206D4EC6419B
:1012F00040EA01039B0703D009E008C9121F08C098
:10130000042AFAD203E011F8013B00F8013B521E17
:10131000F9D27047421C10F8011B0029FBD1801A3A
:10132000704700F0004230F000400AD0C10D01F5D6
:101330006071C0F3160042EA0151C2084007114330
:10134000704700200146704701F0004330B421F09F
:10135000004150EA010206D00A0DA2F56072C1F305
:101360001301002A02DC30BC00207047440F44EA1D
:10137000C104C100E01830BC00EBC25000F031B82D
:101380002DE9F05F0546002092469B4688460646BA
:10139000814640241BE0284641464746224600F04D
:1013A00000FA53465A46C01A914110D311461846C6
:1013B000224600F0E7F92D1A67EB01084F46224656
:1013C0000120002100F0DEF917EB00094E41201E3C
:1013D000A4F10104DFDC484631462A464346BDE815
:1013E000F09F0029A8BF7047401C490008BF20F0AB
:1013F0000100704710B4B0FA80FC00FA0CF050EA1B
:10140000010404BF10BC704749B1CCF1200421FA9B
:1014100004F411FA0CF118BF012121430843A3EB96
:101420000C01CB1D4FEA00614FEA102042BF0020A3
:1014300010BC704700EBC35010440029A4BF10BC7F
:101440007047401C490008BF20F0010010BC7047E5
:101450002DE9FE4F804681EA0300C00F0C46009044
:1014600021F0004123F00045B8EB0200A94105D26C
:101470004046214690461C460B46024623F000405B
:10148000104347D0270DC7F30A00C3F30A51029057
:10149000401A019040286BDAC3F3130040F4801B1C
:1014A0000098924620B10023D2EB030A63EB0B0BAA
:1014B00001985946C0F14002504600F063F90646D3
:1014C0000D4650465946019A00F07BF910EB080092
:1014D0006141002487EA115284EAE7731A4340D03D
:1014E000009A62B3019A012A4FEA075215DC001BE9
:1014F00061EB02014FF0004202EA0752CDE90042DF
:10150000001C41F5801132462B4600F07BF903B0F8
:10151000BDE8F08F40462146F9E7001B61EB020170
:10152000001C41F5801300185B412018A2F500173C
:1015300047EB030140EAD570B6196D4111E06D0823
:101540004FEA360645EAC0754FEA0752001B61EBC9
:101550000201001C41F5801149084FEA30000019D2
:10156000514132462B4603B0BDE8F04F00F03BB985
:101570000098012240000023D0EB020263EBE073ED
:10158000009821464FEAE074B8EB000061EB0401DB
:10159000E9E783F000435BE781F0004158E72DE97C
:1015A000FE4F81EA030404F0004421F0004100945E
:1015B0004FF0000B23F0004350EA01045ED052EAE2
:1015C00003045BD0C3F30A54C1F30A552C44A4F2BC
:1015D000F3340194A0FB0254C1F3130141F48011D0
:1015E000C3F3130343F4801301FB024400FB034ED7
:1015F000840A970A44EA815447EA8357A4FB0768A0
:1016000002958D0A05FB07854FEA932C04FB0C54C9
:101610002705029D4FEA065847EA1637B5EB08053D
:101620006EEB070C870E920E47EA811742EA83128F
:10163000A7FB0201B6EB0B0164EB00042B0D43EAA0
:101640000C335E1844EB1C50DA465146E7FB0201AE
:10165000C5F313044FEA0B3343EA14534FEA043241
:10166000019C43EA0603A4F10C040294009CCDE91A
:1016700000B400F0C7F803B0BDE8F08F00200146C9
:10168000F9E72DE9F04D81EA030404F0004B21F065
:10169000004514464FF0000A23F0004150EA0502CD
:1016A00020D054EA01021DD0C5F30A570246C5F303
:1016B0001303C1F31300C1F30A5640F4801543F439
:1016C0008013A7EB0608101BD64608F2FD3873EB13
:1016D000050002D308F1010801E092185B41B8F15E
:1016E000000F03DA00200146BDE8F08D00204FF422
:1016F0008011064684460EE0171B73EB050705D3E1
:10170000121B63EB050306434CEA010C49084FEA40
:10171000300092185B4150EA0107EDD152EA030014
:1017200012D082EA040083EA0501084305D0101BA9
:10173000AB4106D20122002306E000224FF0004315
:1017400002E06FF0010253101AEB06004CEB085157
:1017500010EB0A0041EB0B01BDE8F04D00F043B87F
:10176000064C074D06E0E06840F0010394E80700EE
:1017700098471034AC42F6D3FEF7A6FE083C0000B2
:10178000283C0000202A04DB203A00FA02F1002065
:1017900070479140C2F1200320FA03F319439040AF
:1017A0007047202A04DB203A21FA02F0002170471A
:1017B00021FA02F3D040C2F12002914008431946B9
:1017C0007047202A06DBCB17203A41FA02F043EAA1
:1017D000E07306E041FA02F3D040C2F120029140EA
:1017E00008431946704710B5141E73F1000408DA57
:1017F000401C41F1000192185B411A4301D120F0D5
:10180000010010BD2DE9F04D92469B4611B1B1FA91
:1018100081F202E0B0FA80F220329046FFF7B2FF88
:1018200004460F4640EA0A0041EA0B0153465A4675
:10183000084313D0114653EA010019D0C8F1400201
:101840005046FFF7AEFF05460E4650465946424603
:10185000FFF798FF084305D0012004E020463946F1
:10186000BDE8F08D0020054346EAE0762C4337437F
:101870000A986305E40AA0EB08000022FD0A44EA86
:1018800047540A3002D500200146E9E70105101946
:101890006941DDE9084500196941BDE8F04DA2E75D
:1018A0000EB5C10F80EAE0700844CA07002140F27B
:1018B00033438DE80E000A460B46FFF7A3FF03B043
:1018C00000BD0EB540F2334102910021CDE9001177
:1018D0000A460B46FFF796FF03B000BD70B5C1F393
:1018E0000A5201F000450024C1F3130140F2FF3316
:1018F00041F480119A4201DA002070BD40F2334376
:101900009A42A2F2334203DC5242FFF74AFF00E060
:1019100090402C43F1D0404270BD000070B58D481E
:101920000023021D0178101D0124062907D1157816
:101930002D0704D10578C5F30315032D02D0062920
:1019400004D00FE0854E844D75670EE015782D07A5
:1019500008D10578C5F30315032D06D0042D04D056
:10196000052D02D0062909D010E04FF08055D5F89A
:1019700044527B4EC5F34235356002E015782D07A1
:1019800004D10578C5F30315032D02D0062906D02E
:1019900011E0744D2E6826F080762E600EE01578EA
:1019A0002D0708D10578C5F30315032D06D0042DA6
:1019B00004D0052D02D006290AD011E04FF0804551
:1019C000C5F80C31C5F81031654D2D1F2B6002E0B4
:1019D00015782D0704D10578C5F30315032D02D022
:1019E000062905D00CE05E4A0321643211600AE04A
:1019F00015782D0704D10578C5F30315032D02D002
:101A000006290DD06AE0584A0521116056497831FF
:101A10000C60554908310B603F21121D116002E036
:101A2000117809075AD10078C0F30310052855D161
:101A30004E4800684E4908604C48001D0068091D6A
:101A400008604A4808300068091D086047480C30A3
:101A50000068091D0860454810300068091D0860CD
:101A6000424814300068091D08604048183000687A
:101A70003F49203108603D481C300068091D08605E
:101A80003A4820300068091D086038482430006852
:101A9000091D0860354828300068091D0860334872
:101AA0002C300068091D086030483030006830492B
:101AB000403108602D4834300068091D08602B480B
:101AC00038300068091D086028483C300068091D4E
:101AD0000860264840300068091D086021487438B5
:101AE000016841F470010160BFF34F8FBFF36F8F46
:101AF0004FF01021D1F80002002803DBD1F80402D6
:101B0000002822DA1B4A14601B480468002CFCD011
:101B10001524C1F800420568002DFCD0C1F804422C
:101B200001680029FCD0136001680029FCD0BFF3D4
:101B30004F8F0C48F0380168104A01F4E0611143FE
:101B40000160BFF34F8F00BFFDE70E490C480860EE
:101B500070BD0000E00F00F00DF0ADBA00C007400E
:101B60003C050040FCED00E010560040040400106D
:101B700020C5004004E5014000E401400400FA05EE
:101B80000090D003140000200448017F044800297D
:101B9000024901D001F0B9BD01F028BD28030020A1
:101BA000002000400FB4084B10B504A902AA039806
:101BB00000F0B4FC044602A9002000F0E0FE20463C
:101BC00010BC5DF814FB00007F29000003B40198ED
:101BD0004100009850EAC12018BF04204A0D18BFE8
:101BE00040F0010040F2FF72B2EB515F08BF40F0DD
:101BF0000200012808BF052002B070470000000065
:101C000010B52F499FED2C1B2DED020B84B00598CC
:101C100020F000408842DCBF00209DED040B32DD47
:101C20002849884209D1049840B94FF0010000F0DA
:101C30006FFC00F03DFC06B010BD05DB9DED040B14
:101C400000F02AFC06B010BD68469DED040B00F0C4
:101C50003BF810F0030011D0012818D09DED021BB5
:101C60009DED000B02281AD000F04AFA51EC100B3F
:101C700081F0004106B041EC100B10BD9DED021B40
:101C80009DED000B012000F06FFB06B010BD9DED37
:101C9000021B9DED000B00F033FA06B010BD0120D1
:101CA00000F062FB51EC100B81F0004106B041ECFA
:101CB000100B10BD0000000000000000000000003C
:101CC000FB21E93F0000F07F2DE9F14F04462DEDA7
:101CD000020B2DED088B8AB09FEDE70B80ED020B18
:101CE000139EE74826F0004585420ADC9DED120B65
:101CF000002084ED000B0AB0BDEC088B03B0BDE8FA
:101D0000F08FE0489FEDE0AB9FEDE1BBA84247DDDF
:101D1000E14F9FEDE39B9FEDE48B9DED120B53ECA8
:101D20001A2B51EC100B002E1CDDFFF732FC41EC9E
:101D3000100BBD4208D053EC1B2B51EC100BFFF7DE
:101D400028FCC4E900010BE053EC192B51EC100BFB
:101D5000FFF71FFC53EC182BFFF71BFCC4E9000135
:101D60000120C8E7FFF774FB41EC100BBD4208D01F
:101D700053EC1B2B51EC100BFFF76AFBC4E900017D
:101D80000BE053EC192B51EC100BFFF761FB53ECFC
:101D9000182BFFF75DFBC4E900014FF0FF30AAE705
:101DA000C348A84279DB9DED120B51EC100B00F0FB
:101DB000D9FE41EC180B9FEDC00B53EC102BFFF735
:101DC000EEFB9FEDBF1B53EC112BFFF741FBFFF721
:101DD00085FD0746FFF764FD41EC190B53EC1A2B08
:101DE000FFF7DDFB53EC182BFFF7D6FB41EC180B8C
:101DF00053EC1B2B51EC190BFFF7D1FBDFF8C8A2FA
:101E000041EC100B4FEA15580125FA4453EC102B06
:101E100051EC180BFFF7BDFB032DC4E900013DD0C9
:101E2000C1F30A5005EB4511A8EB000011398142BE
:101E300034DA0AEB051BB0EE48AA9BED000BF0EE7E
:101E400068AA53EC102B51EC190BFFF7A8FB41ECDF
:101E50001B0B51EC1A0B53EC1B2BFFF79AFB41ECBD
:101E6000180B51EC1A0B53EC182BFFF792FB53ECA9
:101E70001B2BFFF78EFB9BED020B41EC1A0B53EC77
:101E8000102B51EC190BFFF78AFB53EC1A2BFFF7C1
:101E900080FB41EC100B6D1CB8E70EE0002EA8BFD4
:101EA0003846BFF628AF94ED000B51EC100B81F0D3
:101EB0000041C4E9000178421DE7C6F3130040F475
:101EC000801EC6F30A50A0F2F530471100F01F053E
:101ED000C5F12000DDF848B008900020069007907A
:101EE0000520EC467949002D07EB0002794408BF34
:101EF00051F8221009D051F8223001EB8201AB4099
:101F00004A68089922FA01F11943A1FB0E26A1FBA8
:101F10000B131A449A4234BF0123002303EB060833
:101F20000CEB8003D3E901A60E448E4234BF01219D
:101F3000002192448A4411B1924502D903E09245AE
:101F400001D2012100E00021C3E901A641444CF87F
:101F50002010011EA0F10100C4DC029800F1005025
:101F6000850F0298DDE903678000DDF81480FFF734
:101F700097FC41EC1A0B3046FFF7A3FC9FED541B76
:101F800053EC112BFFF70BFB41EC1B0B3846FFF713
:101F900098FC9FED511B53EC112BFFF700FB41EC1C
:101FA000180B4046FFF78DFC9FED4D1B53EC112B9A
:101FB000FFF7F5FA41EC190B51EC180B53EC192B08
:101FC000FFF746FA53EC1B2BFFF742FA53EC1A2BA0
:101FD000FFF73EFACDE90801002008909DED080BBF
:101FE00053EC1A2B51EC100BFFF7D3FA53EC1B2BCD
:101FF000FFF7CFFA53EC182BFFF7CBFA53EC192B62
:10200000FFF7CAFA9FED381B53EC112BFFF7C7FA05
:102010009FED370B41EC180B53EC102B9DED080B8B
:1020200051EC100BFFF7BBFA53EC182BFFF710FA2B
:102030009FED310B41EC180B53EC102B9DED080B71
:1020400051EC100BFFF7ABFA53EC182BFFF700FA2B
:1020500041EC100B139810F0004F06D06D4251EC7C
:10206000100B81F0004141EC100B284684ED000B71
:1020700041E6000000000000000000000000000039
:10208000FB21E93F7CD9024000004054FB21F93F8D
:102090003163621A61B4D03DFB21F93F00000000BA
:1020A0000000601A61B4D03D7370032E8A19A33BFF
:1020B000FB2139410000000083C8C96D305FE43F57
:1020C000000000000000E03FC21C0000101C0000E7
:1020D000000000000000103E000000000000103C66
:1020E000000000000000103A182D4454FB21F93D77
:1020F0003326A611460B113C00000054FB21F93D8C
:1021000010B52DED040B2DED088B82B0B0EE419A89
:10211000F0EE619A0B9820F000449FED4BABB4F1C8
:10212000795F11DA9DED0A0B51EC100BFFF7D6FB2E
:10213000002801BFB0EE4A0AF0EE6A0A02B0BDEC18
:10214000088B04BF04B010BD9DED0A0B53EC102B9F
:1021500051EC100BFFF723FA41EC180B3C48062119
:10216000B0EE480AF0EE680A784400F081F853ECCB
:10217000182B51EC100BFFF712FA9DED0A0B41ECF6
:102180001B0B53EC192B51EC100BFFF708FA41EC29
:10219000190B53EC1B2B51EC180BFFF700FA53EC07
:1021A000192BFFF7F6F99FED2C0B41EC190B53ECB3
:1021B000102B51EC180BFFF7F2F941EC100B2848EB
:1021C000844210DA53EC192B51EC100BFFF7E1F9B4
:1021D00053EC1A2BFFF7E0F941EC100B02B0BDEC09
:1021E000088B04B010BD1F48A042BCBF9FED1E1B52
:1021F0008DED001B06DBA4F500100190002000907F
:102200009DED001B51EC100B53EC112BFFF7C1F9A6
:102210009DED000B41EC180B53EC102B51EC1A0BFD
:10222000FFF7B7F941EC1A0B53EC192B51EC180BD3
:10223000FFF7AFF953EC1A2BFFF7AEF941EC100B97
:10224000CCE7000000000000000000000000F03FAC
:102250003419000000000000000000000000E03F12
:102260003333D33F0000E93F000000000000D23FBD
:1022700070B504462DED028B4D1E00EBC500B0EE8F
:10228000408AF0EE608A90ED000B35F0060017D022
:1022900053EC182B51EC100BFFF781F941EC100BAC
:1022A0006D1E04EBC50090ED001B51EC100B53ECC0
:1022B000112BFFF7CDF841EC100B35F00600E7D1FC
:1022C000022D36D0042D1CD0062D1CBFBDEC028B78
:1022D00070BD53EC182B51EC100BFFF760F994ED27
:1022E0000A1B53EC112BFFF7B3F853EC182BFFF735
:1022F00056F994ED081B53EC112BFFF7A9F841ECAC
:10230000100B53EC182B51EC100BFFF748F994ED20
:10231000061B53EC112BFFF79BF853EC182BFFF720
:102320003EF994ED040B53EC102BFFF791F841ECC0
:10233000100B53EC182B51EC100BFFF730F994ED08
:10234000021B53EC112BFFF783F853EC182BFFF70C
:1023500026F994ED001B53EC112BFFF779F8BDEC37
:10236000028B41EC100B70BD31B504462DED040B12
:102370002DED0A8BB0EE41BAF0EE61BA0B989DEDEF
:102380000A0B20F00040B0F1795F0DDA51EC100B30
:10239000FFF71CFC042808BF00F09AF89DED0A0B1B
:1023A000BDEC0A8B05B030BD53EC102B51EC100B7B
:1023B000FFF7F5F841EC180B9DED0A0B53EC182BC9
:1023C00051EC100BFFF7EBF841EC190B2C48B0EE79
:1023D000480AF0EE680A05217844FFF749FF9FEDAF
:1023E0002ACBB0EE40AAF0EE60AA9CB353EC1C2BB3
:1023F00051EC190BFFF7D3F841EC1C0B53EC1A2BE3
:1024000051EC190BFFF7CBF89FED210B41EC190BA9
:1024100053EC102B51EC1B0BFFF7C1F853EC192BAD
:10242000FFF7B7F853EC182BFFF7B9F853EC1B2B59
:10243000FFF7AFF853EC1C2BFFF7ABF89DED0A1B31
:1024400053EC112BFFF7A8F8BDEC0A8B05B041EC5B
:10245000100B30BDFFE753EC1A2B51EC180BFFF7B4
:102460009EF853EC1C2BFEF7F3FF53EC192BFFF7F0
:1024700096F89DED0A1B53EC112BFEF7E9FFE3E7FD
:10248000BC17000000000000495555555555C5BF03
:10249000000000000000E03F10B553EC102B51ECA1
:1024A000100BFEF7D5FF41EC100B10BD0000000033
:1024B0009FED050B10B553EC102B51EC100BFFF7F3
:1024C000E0F841EC100B10BD00000000000000001F
:1024D0009FED050B10B553EC102B51EC100BFFF7D3
:1024E0005EF841EC100B10BD000000000000001071
:1024F00002E008C8121F08C1002AFAD170477047CD
:10250000002001E001C1121F002AFBD1704700002A
:102510000149086070470000240000202DE9FF4FAA
:102520008DB00F460546002606E025280BD0DDE9D4
:102530000F1290476D1C761C28780028F5D111B039
:102540003046BDE8F08F0024A246A1460122EC49A6
:1025500000E0044315F8013F203B02FA03F0084273
:10256000F7D128782A2810D06FF02F022878A0F110
:102570003001092914D80AEB8A0102EB410144F029
:10258000020400EB010A6D1CF0E701CF5FEA000ACC
:1025900003D544F40054CAF1000A44F002046D1C4F
:1025A00028782E2817D115F8010F44F004042A28A2
:1025B0000ED06FF02F022878A0F1300109290AD837
:1025C00009EB890102EB410100EB01096D1CF2E707
:1025D00057F8049B6D1C28786C280FD006DC4C281B
:1025E00017D068280DD06A2814D104E0742810D0C0
:1025F0007A280FD10DE044F400140AE044F480146A
:1026000001E044F440146978814202D104F5801459
:102610006D1C6D1C2A786E2A1FD00CDC632A31D009
:1026200004DC002A8BD0582A11D1A3E0642A68D098
:10263000692A0CD165E0732A2ED004DC6F2A73D08E
:10264000702A04D19BE0752A6FD0782A6ED010468C
:10265000DDE90F129047761C50E1C4F302500228C6
:1026600006D0032809D0042801CF09D0066045E12F
:1026700001CFF117C0E9006140E101CF06803DE1E3
:1026800006703BE117F8040B8DF8000000208DF870
:102690000100EB46012003E057F804BB4FF0FF3088
:1026A00061074FF0000102D40DE008F101018846F6
:1026B00049450FDA8045F8DB1BF808100029F4D1F2
:1026C00008E008F1010188468142FADB1BF8081096
:1026D0000029F6D1DDE90F23AAEB08008146214647
:1026E00000F036F9304400EB080604E0DDE90F1293
:1026F0001BF8010B9047B8F10108F7D22146484674
:10270000F7E00A21C4F302534FF0000B0891022BAB
:1027100004D001CFC117032B09D00AE0FF1D27F019
:102720000707F7E8020108E032E01FE020E000B20E
:10273000C117042B01D140B2C117031E71F1000370
:1027400007DA4FF0000CD0EB0C006CEB01012D23ED
:1027500002E0230504D52B238DF82430012303E068
:10276000E30701D02023F7E7984658E00A2110E05C
:1027700010210EE010204FF0000B08900CE010210B
:102780004FF0000B44F004044FF00809089103E0F7
:1027900008214FF0000B0891C4F30253022B04D020
:1027A00001CF0021032B06D006E0FF1D27F007070D
:1027B000F7E8020103E080B2042B00D1C0B24FF071
:1027C000000823072BD5702A07D0DDF820C08CF035
:1027D000100C5CEA0B0C05D00EE040238DF8243081
:1027E000012308E050EA010306D030238DF824309D
:1027F0008DF8252002239846DDF820C08CF0080CC7
:102800005CEA0B0C0BD150EA010301D1630706D53A
:1028100030238DF824304FF00108A9F10109582A1E
:1028200004D038A20B9208AA0A920BE03AA2F9E768
:102830005B46089AFEF7A4FD0B9B9B5C0A9A521E0E
:102840000A92137050EA0102F2D10A98ADEB00002F
:1028500000F1200B600702D524F4803401E04FF032
:102860000109D94502DDA9EB0B0000E0002000EBD7
:102870000B0141440890AAEB010AE00306D4DDE90C
:102880000F232146504600F063F806444FF000093C
:1028900008E009A911F80900DDE90F12904709F1D4
:1028A0000109761CC145F4DBE0030CD5DDE90F23FB
:1028B0002146504600F04CF8064404E0DDE90F12D2
:1028C00030209047761C0899481E08900029F5DCB6
:1028D00008E00A980A990078491C0A91DDE90F126C
:1028E0009047761CBBF10001ABF1010BF1DC2146F6
:1028F0005046DDE90F2300F019F806446D1C1BE675
:1029000009280100303132333435363738396162C5
:102910006364656600000000303132333435363789
:102920003839414243444546000000002DE9F0415A
:10293000044600251E461746880404D405E039469F
:102940002020B0476D1C641EF9D52846BDE8F081F3
:102950002DE9F041044600251E469046C80301D5E6
:10296000302700E02027880404D505E0414638469A
:10297000B0476D1C641EF9D52846BDE8F0810A6891
:10298000531C0B601070704708A1012000F03EFD41
:10299000BFF34F8F0B4801680B4A01F4E06111430C
:1029A0000160BFF34F8F00BFFDE700004150505F53
:1029B0004552524F523A4552524F523A4661746113
:1029C0006C0D0A000CED00E00400FA050EB50021C4
:1029D0000091CDE901106A4644F20100FFF7D4FFEF
:1029E0000EBD00002DE9F04105460878214F012673
:1029F00006FA00F00C463860086800F0A6FB0021DB
:102A0000606800F099FB28791B4901EB4010A1692F
:102A1000007F00282868C0F8241519D0607D217D2A
:102A20002A680843C2F86C0518E00021A06800F08D
:102A300083FB207B86403E60E06800F086FBD4E9A3
:102A400002122868C0F80825C0F81015BDE8F0810A
:102A5000607D227D29681043C1F86C05D4E900121D
:102A60002868C0F80C15C0F81425207D0128DCD09A
:102A7000ECE700000805005028030020002901DAD7
:102A80000020704702681144016001207047000077
:102A90002DE9FC41054616460C46481C00F074F929
:102AA000074601AB6A4621462846FEF735F9350050
:102AB0004FF000082FD0681E00EE100A00207C2284
:102AC000F8EE400A00EE106A21492023B8EE401AC1
:102AD00080EE810ADDED000A20EE800A0DE000BFE5
:102AE00001EB800CDCED000AF4EEC00AF1EE10FA06
:102AF00001DD3A5400E03B54401CA042F0D307F8FB
:102B00000480384600F0ADFC024612A1032000F01C
:102B100081FC6D1ECFD1601C00F036F90546002007
:102B20002D2101E02954401CA042FBD305F804806C
:102B3000284600F096FC024606A1032000F06AFC3D
:102B4000284600F06DF8384600F06AF8BDE8FC81D0
:102B5000280200204150503A494E464F3A25730D05
:102B60000A00000082B0CDE9000121F00040019090
:102B70009DED000B02B051EC100B70472DE9F041B8
:102B800017462DED028BB0EE608AF0EE408A80464B
:102B900002293BD300244D1E36E09FED1E0A68EE4D
:102BA000000A00EE104AB8EE400A60EE800A80EE9D
:102BB000A80A10EE100AFEF7B4FB41EC100BFFF769
:102BC0001FF851EC100BFEF7BFFBA2B208EB820618
:102BD0003060A7B1FEF77AFB642190FBF1F201FBB4
:102BE000120000EE100A9FED0C1AB8EEC00AC0EEFB
:102BF000010A96ED000A20EE800A86ED000A9FED9C
:102C0000070AA41C86ED010AAC42C6D3BDEC028BB8
:102C1000BDE8F081DB0FC9400000C84200000000A1
:102C200010B5002821D0114B0022001F196803E0C5
:102C3000814203D80A4649680029F9D152B1136884
:102C4000841A9C4204D1006818441060104602E0C7
:102C5000506000E0186039B102680B1A934203D14A
:102C60000B681A4402604968416010BD1C000020D6
:102C700000242DED048B204600F0E2FB08B1FFF7A5
:102C8000A5FE2C49032000F0C1FBDFED2B8A9FED50
:102C90002B9ADFF8AC90DFF8AC80DFF8ACB04FF0E7
:102CA000400A00BF84F00104FEF710FBB0FBF8F20D
:102CB00008FB120000EE100A22468021B8EE400AFE
:102CC000224880EE288AB0EE490AF0EE480AFFF763
:102CD00055FF1E4D1E4805F50077402699F8043033
:102CE00099F800202946FDF771FF324639462846FB
:102CF000FDF702FC0CB117A300E017A3BCEEC80A55
:102D000016A110EE100A82B2032000F08AFB1422F2
:102D100040211C48FFF7BCFEF1EE100ACBF880A260
:102D200020F09F00E1EE100AF1EE100A404600F09C
:102D300061F8B7E7C03B00000000C84200442C47E0
:102D40000000002040420F0004E000E028000020C6
:102D50001C380000796573006E6F00004150503AD6
:102D6000494E464F3A496E7075743A2073696E65E4
:102D7000202575487A2C206E6F6973653A2025737B
:102D80002E0D0A0028020020F0B50B30154D20F062
:102D900007010024144A0FE003688B420BD38B42D7
:102DA00005D95E1A43184768C3E9006700E0436825
:102DB000136002C004E0021D10680028ECD1204618
:102DC000002802D1286808B10020F0BD064A074853
:102DD0001060074A121A22F00702C0E900240120FD
:102DE0002860D7E7200000201C0000206C04002091
:102DF0006824002000283ED01F49204A096800BFEF
:102E000000BF00BF00BF00BF00BF00BF00BF9142B6
:102E10002FD000BF00BF00BF00BF00BF00BF00BF7A
:102E200000BF00BF00BF00BF00BF00BF00BF00BFAA
:102E300000BF00BF00BF00BF00BF00BF00BF00BF9A
:102E400000BF00BF00BF00BF00BF00BF00BF00BF8A
:102E500000BF00BF00BF00BF00BF00BF00BF00BF7A
:102E600000BF00BF00BF00BF00BF00BF00BF00BF6A
:102E700000BF401EC3D17047140000200024F4009E
:102E80004907090E002806DA00F00F0202F1E022DD
:102E900082F8141D03E000F1E02282F8001400F033
:102EA0001F02012191404009800000F1E020C0F89C
:102EB0008012C0F8001170472DE9F04104460079F6
:102EC0002D4F904607EB40150E46E87E10B10820C6
:102ED000BDE8F081707F28772046FFF783FD5FEA29
:102EE000080068603169296031D0207996F81C802B
:102EF00007EB40104FF4A276007F0028206814D022
:102F00004FF4887100F0C4FA4FF49071206800F01B
:102F1000BFFA4FF49271206800F0BAFA3146206887
:102F200000F0B6FA1549206809E04FF48E7100F000
:102F30009EFA3146206800F09AFA11492068C0F8DC
:102F4000041320684146000B40B2FFF799FF207937
:102F500007EB4010007F0028206801D0082100E026
:102F60000421C0F800150020E8752876A875012115
:102F7000E976A876ACE700002803002010030200E1
:102F8000800002002DE9F047054600793E4C0E46D0
:102F900004EB4013187F38B14FF40050B0EB164FDC
:102FA00002D01020BDE8F087284600F06FF808B185
:102FB0001120F7E79A7500279E609F8228794FF0CD
:102FC000010804EB40143E46207F0028286825D0E5
:102FD0004FF49079494600F05BFA4FF4AC7A5146D1
:102FE000286800F055FA2868A17DA268C0F8442539
:102FF000C0F848152868C0F808806068F0B94946EC
:10300000286800F040FA80465146286800F03BFAF4
:1030100058EA0001F3D058BBA7750FE04FF48E7A41
:10302000514600F024FA2868C0F808802146286834
:1030300000F0B6FA61684FF4807089B13046B1E7AC
:103040005146286800F00EFA10B9A08A4845F7D119
:10305000A08A484505D02146286800F0A1FA00E082
:103060008146A08AA17D8842EAD3A08A484501D141
:103070000F26D1E75146286800F0F4F90028F9D06E
:103080002868C0F80C80C7E72803002000790449AD
:1030900001EB4010807D002800D001207047000027
:1030A0002803002070B50179144A002502EB411471
:1030B0000168237FC1F800556168C9B1017902EB4D
:1030C0004111097F0029016801D00D4A01E00C4A35
:1030D0008C3AC1F8082301680122090B49B201F0BA
:1030E0001F039A404909890001F1E021C1F88021BC
:1030F00000F0D4F9E576656070BD0000280300207B
:103100001003020030B541EA4201DDE9034541EA1E
:103110008301800041EA042100F1A04041EA054119
:10312000C0F8001730BD1CB5002100910B460122EC
:103130000191FFF7E7FF1CBD1CB500220B46009272
:1031400011460192FFF7DEFF1CBD1CB50021009166
:103150000B46012201911146FFF7D4FF1CBD000070
:1031600000487047D931000030B5184C054689B089
:10317000207828B16078854202D1002009B030BDA6
:10318000202213496846FEF7B3F800208DF814009A
:10319000062000900820019005200390072002904F
:1031A0004FF0EB7006900948001DFFF77BFF0DB153
:1031B000002200E0074A05486946001DFFF77CFE33
:1031C0000028DBD1012020706570D6E708000020C0
:1031D000FC370000DD3500002DE9F04FC1B00D00D7
:1031E000DDF82CB14D984FF000011C4690460BEBDA
:1031F000000A409101D00A2600E0002600F09CF968
:10320000002873D16F46BCB9409840AA39182846A7
:1032100000F0AEF9002869D04046FEF77BF8C228DE
:1032200000D9C220054640982A4638444146FEF758
:103230005FF84098284440904FF020094098821948
:1032400031320DEB02016844002202E000F8019BDC
:10325000521CB242FAD30027544508D300F8019B10
:1032600000F8019B00F8019B01F8019B26E05C45FA
:1032700002D24A9A125D03E04C9AA4EB0B03D25C93
:1032800084460125AB0022FA03F808F00F03092B4E
:1032900001D9373300E03033C5F101086D1E0CF859
:1032A0000830EFD20CF10200A2F1200300F8019BDC
:1032B0005E2B00D92E2201F8012B641C7F1C102FDD
:1032C000CAD30D220A700A224A7080F800904098F2
:1032D000811943316846409100F034F930B100F073
:1032E0002BF918B9002040905445A7D341B020468F
:1032F000BDE8F08F2DE9F043C5B000251C4690468F
:1033000089464C9F449500F017F9B0BB449804AE31
:10331000311844AA484600F02BF900282ED0072F78
:1033200022D2DFE807F00412192E3844510040463B
:10333000FDF7F0FF054644982918FF2914D83044BA
:103340002A464146FDF7D4FF0EE0449822683044F7
:103350004146FEF727FC06E0D4E9002344984146A5
:103360003044FEF71FFC0546294644A8FFF786FBBC
:1033700018B14499B1F5807F33D9002045B0BDE83C
:10338000F083A0680090D4E900234498414630447B
:10339000FEF708FCE7E7D4E90201CDE90001D4E932
:1033A0000023449841463044FEF7FCFBDBE704F180
:1033B000080007C88DE80700D4E900234498414677
:1033C0003044FEF7EFFBCEE704F108000FC88DE8AC
:1033D0000F00D4E90023449841463044FEF7E2FB55
:1033E000C1E704A800F0AEF8C8E700000048704745
:1033F000F532000038B50D460093034B00215C699F
:1034000013462A46A04738BD4804002000231A4628
:10341000FFF7F0BF08B5012300926A46FFF7EAFF05
:1034200008BD1CB5CDE9002302236A46FFF7E2FF81
:103430001CBD0000014AC2E9050170474804002094
:1034400070B50120FFF790FE040008D1FFF7CEFF12
:103450000546FFF785FE01462846FFF7EBFF2046AD
:1034600070BD70474058002800D00120704708B553
:10347000002242504058009008BDD0F80403084094
:1034800000D0012070474058002800D0012070472C
:1034900008B5002242504058009008BD70B5024661
:1034A0004FF0FF301168D1F80C35D1F81465D1F820
:1034B0000855D1F81045C1F80C05C1F8140511687C
:1034C000C1F80805C1F810051846FFF72CFE304674
:1034D000FFF729FE601C02D02046FFF724FE681C7F
:1034E00004D02846BDE87040FFF71DBE70BD70B522
:1034F0000546C87D0C4600284FF4847128460AD042
:10350000FFF7B5FFD5F81805627EE1688854607E44
:10351000401C607670BDFFF7AAFFD5F8180570BD96
:103520001FB501238DF800308DF808100192D0E905
:103530000012684690471FBD0148FFF7A7BD000075
:103540000C00002070B50D460A46014601240648CD
:10355000FDF7CEFEEAB204490448FFF713FD00B1BF
:103560000024204670BD0000480300200C0000200D
:1035700010B5144602004FF001000AD00846126848
:1035800005A1FEF70FFB01462046BDE81040FFF7FE
:1035900075BA0021216010BD5B253038645D0000E4
:1035A00070B50C4605464FF48E71FFF760FFA18A97
:1035B000A068415CA08A401CA082C5F81C1570BDA3
:1035C0001FB500228DF800208DF808108168019148
:1035D0008275D0E90012684690471FBD0078012827
:1035E00001D1014988707047080000202DE9FF478C
:1035F0000C4605464FF40071FFF73FFF01274FF4DB
:103600000178002618B34FF4927949462846FFF70F
:1036100029FFE0B149462846FFF729FFC5F808838E
:10362000A07E00B96F6002208DF80000D5F88004FC
:10363000C5F880040390E07D8DF80800E0680190F3
:10364000E6752676D4E900126846904727E0042103
:103650002846FFF712FF10B34FF484712846FFF796
:1036600001FFE0B121462846FFF741FFE07D617E82
:10367000884214D1207E38B1617EE268E07520690D
:10368000E0602676667607E0A07E00B96F60C5F838
:103690000883E675617EE2682046FFF741FF4FF43C
:1036A0008E7841462846FFF7DDFE88B1A08AA17DCD
:1036B000884204D221462846FFF772FF08E04146BF
:1036C0002846FFF7D4FEA17D11B12046FFF778FF11
:1036D0004FF4A27841462846FFF7C4FE002812D0D6
:1036E00041462846FFF7C3FEA07E00B12F60E07D73
:1036F000002808D0E675617EE26804B02046BDE887
:10370000F047FFF70DBFBDE8FF872DE9FF410C46ED
:103710004FF4927705463946FFF7B5FE0026C0B153
:1037200039462846FFF7B4FE02208DF80000D5F890
:103730008004C5F880040390D5F83C058DF8080096
:10374000E0680190E6752676D4E900126846904755
:1037500024E04FF4887739462846FFF794FEE8B115
:1037600039462846FFF794FED5F83C05C1B2E07D06
:10377000884213D1207E60B1E268D5F8000220F0C3
:103780002000C5F80002207EE0752069E060267602
:1037900001E0E675E2682046FFF7C2FE4FF4A2772B
:1037A00039462846FFF76FFE68B139462846FFF7CD
:1037B0006FFEE07D38B1E675D5F83C05E268C1B230
:1037C0002046FFF7ADFE4FF4907631462846FFF7CE
:1037D0005AFE00280FD031462846FFF759FEA07D3B
:1037E000002808D0D5F84C0504B0C1B22046BDE889
:1037F000F041FFF7E5BEBDE8FF810000FFFFFFFFDE
:10380000FFFFFFFFFFFFFFFFFFFFFFFF00000000C4
:10381000000000000000D60106010000400000008A
:103820002C3800002C3A0000380000000000803FD7
:10383000000000006DC47E3F36BDC83DBE147B3F16
:10384000C2C5473E0BFA743F31A0943E5E836C3F85
:1038500015EFC33E98C5613FEA5AF13E31DB543F54
:10386000DA390E3F03E4453F9967223FF304353FC1
:10387000F304353F9967223F03E4453FDA390E3FB1
:1038800031DB543FEA5AF13E98C5613F15EFC33E24
:103890005E836C3F31A0943E0BFA743FC2C5473E35
:1038A000BE147B3F36BDC83D6DC47E3F00000000A6
:1038B0000000803F36BDC8BD6DC47E3FC2C547BE57
:1038C000BE147B3F31A094BE0BFA743F15EFC3BE0C
:1038D0005E836C3FEA5AF1BE98C5613FDA390EBF8C
:1038E00031DB543F996722BF03E4453FF30435BF02
:1038F000F304353F03E445BF9967223F31DB54BFF2
:10390000DA390E3F98C561BFEA5AF13E5E836CBF5B
:1039100015EFC33E0BFA74BF31A0943EBE147BBFBB
:10392000C2C5473E6DC47EBF36BDC83D000080BFE6
:10393000000000006DC47EBF36BDC8BDBE147BBF95
:10394000C2C547BE0BFA74BF31A094BE5E836CBF84
:1039500015EFC3BE98C561BFEA5AF1BE31DB54BF53
:10396000DA390EBF03E445BF996722BFF30435BFC0
:10397000F30435BF996722BF03E445BFDA390EBFB0
:1039800031DB54BFEA5AF1BE98C561BF15EFC3BE23
:103990005E836CBF31A094BE0BFA74BFC2C547BE34
:1039A000BE147BBF36BDC8BD6DC47EBF00000080A5
:1039B000000080BF36BDC83D6DC47EBFC2C5473E56
:1039C000BE147BBF31A0943E0BFA74BF15EFC33E0B
:1039D0005E836CBFEA5AF13E98C561BFDA390E3F8B
:1039E00031DB54BF9967223F03E445BFF304353F01
:1039F000F30435BF03E4453F996722BF31DB543FF1
:103A0000DA390EBF98C5613FEA5AF1BE5E836C3F5A
:103A100015EFC3BE0BFA743F31A094BEBE147B3FBA
:103A2000C2C547BE6DC47E3F36BDC8BD080040005C
:103A3000100080001800C000200000012800400194
:103A4000300080013800C001500088005800C800D4
:103A50006000080168004801700088017800C80112
:103A60009800D000A0001001A8005001B000900103
:103A7000B800D001E0001801E8005801F0009801FA
:103A8000F800D801280160013001A0013801E001EF
:103A90007001A8017801E801B801F0010000000000
:103AA0004C5555555555A53F7751C1166CC156BF5C
:103AB0009015CB19A001FA3EAD529C804F7E92BE6C
:103AC000C4B1B4BD9EEE213ED43888BEE9FAA8BD8B
:103AD00000004054FB21F93F3163621A61B4D03DCC
:103AE0000000601A61B4D03D7370032E8A19A33BA5
:103AF0000000002E8A19A33BC14920259A837B39F7
:103B000000000000000000006E83F9A22915444E59
:103B1000D15727FCC0DD34F5999562DB4190433CD9
:103B2000AB6351FE61C5BBDE3A6E24B7E0D24D42B5
:103B3000EA2E49061C92D1091CEB1DFE3EA729B1B5
:103B4000F53582E88444BB2E26709CE9417E5FB443
:103B500039D69139F43953838B5F849C3B28F9BD66
:103B6000FF97F81F0F9805DE8B112FEF1F6D0A5A74
:103B7000CF7E366DB709CB27663F464F2DEA5F9E55
:103B8000C7BA27757BF1E5EBF739073DEA92528A10
:103B9000B15FFB6B085D8D1FA6F810111111813FFD
:103BA000D561C119A0012ABF7DFEB157E31DC73EF3
:103BB000EB9C2B8AE6E55ABE7CD5CF5A3AD9E53D37
:103BC0004150503A494E464F3A54686973206973E0
:103BD00020465055207573616765206578616D706A
:103BE0006C652077697468204646542063616C6375
:103BF000756C6174696F6E20616E642064726177A8
:103C0000696E672E0A000000283C000000000020BA
:103C100028000000F0240000503C00002800002094
:103C200040440000002500000000000001000000EA
:103C30000000000000200040000000000090D003C1
:103C40000000000000000000000000000000000074
:04000005000004C132
:00000001FF
