:020000040000FA
:1000000080250020150400001D0400001F040000CE
:10001000210400002304000025040000000000006B
:1000200000000000000000000000000027040000A5
:1000300029040000000000002B0400002D04000033
:100040002F0400002F040000D90700002F04000037
:100050002F0400002F0400002F0400002F040000D4
:100060009D070000B1070000C50700002F04000035
:100070002F0400002F0400002F0400002F040000B4
:100080002F0400002F0400002F0400002F040000A4
:100090002F0400002F0400002F0400002F04000094
:1000A0002F0400002F0400002F0400002F04000084
:1000B0002F0400002F0400000000000000000000DA
:1000C0002F0400002F0400002F0400002F04000064
:1000D0002F0400002F0400002F0400000000000087
:1000E0000000000000000000000000000000000010
:1000F0000000000000000000000000000000000000
:1001000000000000000000000000000000000000EF
:1001100000000000000000000000000000000000DF
:10040000DFF80CD000F062F800480047C50E00008D
:10041000802500200648804706480047FEE7FEE7A3
:10042000FEE7FEE7FEE7FEE7FEE7FEE7FEE7FEE7A4
:10043000310500000104000040EA01039B0703D0DE
:1004400009E008C9121F08C0042AFAD203E011F813
:10045000013B00F8013B521EF9D27047421C10F8D4
:10046000011B0029FBD1801A70472DE9F05F05467A
:10047000002092469B4688460646814640241BE063
:10048000284641464746224600F041F853465A4620
:10049000C01A914110D311461846224600F028F8A0
:1004A0002D1A67EB01084F4622460120002100F07B
:1004B0001FF817EB00094E41201EA4F10104DFDCF8
:1004C000484631462A464346BDE8F09F064C074D54
:1004D00006E0E06840F0010394E807009847103414
:1004E000AC42F6D3FFF790FF981E0000B81E000044
:1004F000202A04DB203A00FA02F1002070479140E4
:10050000C2F1200320FA03F3194390407047202AD8
:1005100004DB203A21FA02F00021704721FA02F3AD
:10052000D040C2F1200291400843194670470000B4
:1005300070B58D480023021D0178101D0124062985
:1005400007D115782D0704D10578C5F30315032DC0
:1005500002D0062904D00FE0854E844D75670EE069
:1005600015782D0708D10578C5F30315032D06D09E
:10057000042D04D0052D02D0062909D010E04FF03B
:100580008055D5F844527B4EC5F34235356002E0C4
:1005900015782D0704D10578C5F30315032D02D076
:1005A000062906D011E0744D2E6826F080762E6064
:1005B0000EE015782D0708D10578C5F30315032D36
:1005C00006D0042D04D0052D02D006290AD011E052
:1005D0004FF08045C5F80C31C5F81031654D2D1F21
:1005E0002B6002E015782D0704D10578C5F30315BB
:1005F000032D02D0062905D00CE05E4A03216432A7
:1006000011600AE015782D0704D10578C5F30315AC
:10061000032D02D006290DD06AE0584A0521116049
:10062000564978310C60554908310B603F21121D45
:10063000116002E0117809075AD10078C0F3031065
:10064000052855D14E4800684E4908604C48001DA9
:100650000068091D08604A4808300068091D0860E4
:1006600047480C300068091D086045481030006894
:10067000091D0860424814300068091D08604048A0
:10068000183000683F49203108603D481C30006840
:10069000091D08603A4820300068091D0860384884
:1006A00024300068091D0860354828300068091D9D
:1006B000086033482C300068091D0860304830302D
:1006C00000683049403108602D4834300068091D09
:1006D00008602B4838300068091D086028483C3005
:1006E0000068091D0860264840300068091D086040
:1006F00021487438016841F470010160BFF34F8FE5
:10070000BFF36F8F4FF01021D1F80002002803DBF8
:10071000D1F80402002822DA1B4A14601B4804683E
:10072000002CFCD01524C1F800420568002DFCD037
:10073000C1F8044201680029FCD013600168002957
:10074000FCD0BFF34F8F0C48F0380168104A01F419
:10075000E06111430160BFF34F8F00BFFDE70E4919
:100760000C48086070BD0000E00F00F00DF0ADBA5D
:1007700000C007403C050040FCED00E01056004082
:100780000404001020C5004004E5014000E40140DD
:100790000400FA050090D003200000200422024942
:1007A000024800F05BBB00002400002000800040F5
:1007B00004220249024800F051BB00003000002032
:1007C0000090004004220249024800F047BB0000AC
:1007D0003C00002000A000400448017F044800299C
:1007E000024901D001F09FBA01F00EBA4800002082
:1007F000002000400FB4084B10B504A902AA0398CA
:1008000000F01CF8044602A9002000F048FA204637
:1008100010BC5DF814FB00009F0C000002E008C84B
:10082000121F08C1002AFAD170477047002001E06A
:1008300001C1121F002AFBD1704700002DE9FF4FB4
:100840008DB00F460546002606E025280BD0DDE9D1
:100850000F1290476D1C761C28780028F5D111B036
:100860003046BDE8F08F0024A246A1460122EC49A3
:1008700000E0044315F8013F203B02FA03F0084270
:10088000F7D128782A2810D06FF02F022878A0F10D
:100890003001092914D80AEB8A0102EB410144F026
:1008A000020400EB010A6D1CF0E701CF5FEA000AC9
:1008B00003D544F40054CAF1000A44F002046D1C4C
:1008C00028782E2817D115F8010F44F004042A289F
:1008D0000ED06FF02F022878A0F1300109290AD834
:1008E00009EB890102EB410100EB01096D1CF2E704
:1008F00057F8049B6D1C28786C280FD006DC4C2818
:1009000017D068280DD06A2814D104E0742810D0BC
:100910007A280FD10DE044F400140AE044F4801466
:1009200001E044F440146978814202D104F5801456
:100930006D1C6D1C2A786E2A1FD00CDC632A31D006
:1009400004DC002A8BD0582A11D1A3E0642A68D095
:10095000692A0CD165E0732A2ED004DC6F2A73D08B
:10096000702A04D19BE0752A6FD0782A6ED0104689
:10097000DDE90F129047761C50E1C4F302500228C3
:1009800006D0032809D0042801CF09D0066045E12C
:1009900001CFF117C0E9006140E101CF06803DE1E0
:1009A00006703BE117F8040B8DF8000000208DF86D
:1009B0000100EB46012003E057F804BB4FF0FF3085
:1009C00061074FF0000102D40DE008F101018846F3
:1009D00049450FDA8045F8DB1BF808100029F4D1EF
:1009E00008E008F1010188468142FADB1BF8081093
:1009F0000029F6D1DDE90F23AAEB08008146214644
:100A000000F036F9304400EB080604E0DDE90F128F
:100A10001BF8010B9047B8F10108F7D22146484670
:100A2000F7E00A21C4F302534FF0000B0891022BA8
:100A300004D001CFC117032B09D00AE0FF1D27F016
:100A40000707F7E8020108E032E01FE020E000B20B
:100A5000C117042B01D140B2C117031E71F100036D
:100A600007DA4FF0000CD0EB0C006CEB01012D23EA
:100A700002E0230504D52B238DF82430012303E065
:100A8000E30701D02023F7E7984658E00A2110E059
:100A900010210EE010204FF0000B08900CE0102108
:100AA0004FF0000B44F004044FF00809089103E0F4
:100AB00008214FF0000B0891C4F30253022B04D01D
:100AC00001CF0021032B06D006E0FF1D27F007070A
:100AD000F7E8020103E080B2042B00D1C0B24FF06E
:100AE000000823072BD5702A07D0DDF820C08CF032
:100AF000100C5CEA0B0C05D00EE040238DF824307E
:100B0000012308E050EA010306D030238DF8243099
:100B10008DF8252002239846DDF820C08CF0080CC3
:100B20005CEA0B0C0BD150EA010301D1630706D537
:100B300030238DF824304FF00108A9F10109582A1B
:100B400004D038A20B9208AA0A920BE03AA2F9E765
:100B50005B46089AFFF789FC0B9B9B5C0A9A521E26
:100B60000A92137050EA0102F2D10A98ADEB00002C
:100B700000F1200B600702D524F4803401E04FF02F
:100B80000109D94502DDA9EB0B0000E0002000EBD4
:100B90000B0141440890AAEB010AE00306D4DDE909
:100BA0000F232146504600F063F806444FF0000939
:100BB00008E009A911F80900DDE90F12904709F1D1
:100BC0000109761CC145F4DBE0030CD5DDE90F23F8
:100BD0002146504600F04CF8064404E0DDE90F12CF
:100BE00030209047761C0899481E08900029F5DCB3
:100BF00008E00A980A990078491C0A91DDE90F1269
:100C00009047761CBBF10001ABF1010BF1DC2146F2
:100C10005046DDE90F2300F019F806446D1C1BE671
:100C200009280100303132333435363738396162C2
:100C30006364656600000000303132333435363786
:100C40003839414243444546000000002DE9F04157
:100C5000044600251E461746880404D405E039469C
:100C60002020B0476D1C641EF9D52846BDE8F081F0
:100C70002DE9F041044600251E469046C80301D5E3
:100C8000302700E02027880404D505E04146384697
:100C9000B0476D1C641EF9D52846BDE8F0810A688E
:100CA000531C0B60107070470BA1012000F034FE44
:100CB00000F08CFD00F08EFD0028FBD1BFF34F8FBC
:100CC0000B4801680B4A01F4E06111430160BFF376
:100CD0004F8F00BFFDE700004150505F4552524F1B
:100CE000523A4552524F523A466174616C0D0A00B5
:100CF0000CED00E00400FA050EB500210091CDE9ED
:100D000001106A4644F20100FFF7CEFF0EBD00F06D
:100D100003B800F009B8000072B602480168491C27
:100D2000016070470C00002003490868401E0860FD
:100D300000D162B6704700000C0000202DE9F041A0
:100D400005460878214F012606FA00F00C46386067
:100D5000086800F0E6FB0021606800F0D9FB287904
:100D60001B4901EB4010A169007F00282868C0F8EA
:100D7000241519D0607D217D2A680843C2F86C05CE
:100D800018E00021A06800F0C3FB207B86403E6095
:100D9000E06800F0C6FBD4E902122868C0F8082514
:100DA000C0F81015BDE8F081607D227D29681043F0
:100DB000C1F86C05D4E900122868C0F80C15C0F819
:100DC0001425207D0128DCD0ECE700000805005048
:100DD00048000020002901DA002070470268114411
:100DE00001600120704700002DE9F041461C0125FB
:100DF0000020FFF78CFF1149741CD1E900208F6897
:100E0000101A3B1A5B1C9C420FD963B10C480D4B66
:100E10003A4000681B6801EB820263F39F20D060B8
:100E20000868401C0860002501E090190860002057
:100E3000FFF76FFF2846BDE8F08100006801002041
:100E4000681E00001C000020034803C8814201D135
:100E50000120704700207047680100202DE9F84309
:100E600000251646884604462F4614E04FF4A0702D
:100E700000EB85004FF480312258A9404AB1D4F8E4
:100E800004230A4205D0275021580091D8E90021B7
:100E900090476D1CEDB2B542E8D3BDE8F883000081
:100EA0000121814003484068014201D00120704780
:100EB000002070470400002001218140080300D079
:100EC000012070470EB5374C0125374AD4E9060199
:100ED000CDE900018DF801506946204600F090F9F7
:100EE00008B1FFF709FFD4E90801CDE901012D4858
:100EF00009268DF804602C4A01A9083000F080F919
:100F000008B1FFF7F9FE0027264801234FF6FF72CC
:100F100039460830009700F059F9D4E90A01CDE9C3
:100F2000010120488DF804601F4A01A9103000F02B
:100F300067F908B1FFF7E0FE1A48012347F6FF7290
:100F400000211030009700F041F900F099FD0020D9
:100F500000F03EFD08B1FFF7CFFE4FF080408567FF
:100F6000104800F025F90F48083000F021F90D482D
:100F7000103000F01DF90D4C00210A4800F0F8F87F
:100F800002460BA1032000F0EDFC064800F033F907
:100F9000204600F01DF800BF00F01CFC0028FBD12B
:100FA000EAE70000181E0000891B0000A08601006F
:100FB0004150503A494E464F3A43757272656E74CD
:100FC00020636F756E743A2025640D0A00000000DE
:100FD00000283ED01F49204A096800BF00BF00BF5B
:100FE00000BF00BF00BF00BF00BF91422FD000BFB5
:100FF00000BF00BF00BF00BF00BF00BF00BF00BFF9
:1010000000BF00BF00BF00BF00BF00BF00BF00BFE8
:1010100000BF00BF00BF00BF00BF00BF00BF00BFD8
:1010200000BF00BF00BF00BF00BF00BF00BF00BFC8
:1010300000BF00BF00BF00BF00BF00BF00BF00BFB8
:1010400000BF00BF00BF00BF00BF00BF00BF401E09
:10105000C3D17047200000200024F4004907090E86
:10106000002806DA00F00F0202F1E02282F8141DD7
:1010700003E000F1E02282F8001400F01F020121D9
:1010800091404009800000F1E020C0F88012C0F8D3
:10109000001170472DE9F0470427144E81460024C3
:1010A0004FF001080020FFF732FE08FA04F5354240
:1010B00003D02046FFF7F4FE58B10020FFF729FEC9
:1010C00027B104F10104AE43E4B2EBD13846BDE8E8
:1010D000F087074908FA04F000274A68104348607F
:1010E00089F800403846FFF714FEEFE7FFFF0F00D6
:1010F0000400002070B514460D00064610D07CB1E7
:10110000FFF7DAFE70B13046FFF7CAFE60B107485C
:1011100000EBC600C0F81055C0F81445002070BDA3
:101120000E2070BD072070BD082070BD00F001408A
:1011300070B504460125A540FFF7BEFE18B1204654
:10114000FFF7AEFE18B103480560002070BD08200F
:1011500070BD000004F501400448017809B1852004
:10116000704701210170002070470000040000203A
:1011700010B5402202EB81020368D2B201249C50D8
:1011800000684FF4A86202EB8101405810BD30B5F1
:101190004FF4803405688C4013B1C5F8044301E076
:1011A000C5F80843006800EB8100C0F8402530BD59
:1011B000016801220A600079034A00EB400002EB5B
:1011C000800002210172704724000020F0B40468FE
:1011D000049E40F20115D4F800728D40AF43C4F86C
:1011E00000720468D4F800521D43C4F8005233461C
:1011F000F0BCFFF7CCBF00680121816070470000A0
:10120000F8B504460D460079204900EB400001EB9B
:101210008006307A08B10820F8BD3AB132606868BB
:101220007060002003464FF4A07709E00720F8BD66
:10123000226807EB800153505158401CC0B2009106
:1012400061798142F4D82068E978000B40B2FFF759
:1012500005FF20686978D0F8042561F30102C0F821
:1012600004252068A978D0F8082561F30102C0F8A8
:10127000082520682978D0F8102561F30302C0F80A
:101280001025012030720020F8BD0000240000204D
:101290002DE9F041044600792D4F904607EB4015AB
:1012A0000E46E87E10B10820BDE8F081707F2877F7
:1012B0002046FFF743FD5FEA080068603169296056
:1012C00031D0207996F81C8007EB40104FF4A276BD
:1012D000007F0028206814D04FF4887100F0A0FB34
:1012E0004FF49071206800F09BFB4FF492712068DE
:1012F00000F096FB3146206800F092FB154920680B
:1013000009E04FF48E7100F07AFB3146206800F05E
:1013100076FB11492068C0F8041320684146000B91
:1013200040B2FFF79BFE207907EB4010007F0028BA
:10133000206801D0082100E00421C0F80015002039
:10134000E8752876A8750121E976A876ACE7000053
:101350004800002010030200800002002DE9F04741
:10136000054600793E4C0E4604EB4013187F38B119
:101370004FF40050B0EB164F02D01020BDE8F087BC
:10138000284600F06FF808B11120F7E79A7500279A
:101390009E609F8228794FF0010804EB40143E467E
:1013A000207F0028286825D04FF49079494600F026
:1013B00037FB4FF4AC7A5146286800F031FB2868BF
:1013C000A17DA268C0F84425C0F848152868C0F877
:1013D00008806068F0B94946286800F01CFB804628
:1013E0005146286800F017FB58EA0001F3D058BBBB
:1013F000A7750FE04FF48E7A514600F000FB286885
:10140000C0F808802146286800F0D8FB61684FF4D6
:10141000807089B13046B1E75146286800F0EAFA99
:1014200010B9A08A4845F7D1A08A484505D0214681
:10143000286800F0C3FB00E08146A08AA17D8842B5
:10144000EAD3A08A484501D10F26D1E75146286842
:1014500000F0D0FA0028F9D02868C0F80C80C7E75F
:10146000480000200079044901EB4010807D0028ED
:1014700000D00120704700004800002070B50179BD
:10148000144A002502EB41140168237FC1F800557E
:101490006168C9B1017902EB4111097F0029016836
:1014A00001D00D4A01E00C4A8C3AC1F808230168CA
:1014B0000122090B49B201F01F039A404909890032
:1014C00001F1E021C1F8802100F0B0FAE576656015
:1014D00070BD0000480000201003020030B541EA52
:1014E0004201DDE9034541EA8301800041EA04212C
:1014F00000F1A04041EA0541C0F8001730BD1CB51D
:10150000002100910B4601220191FFF7E7FF1CBD6E
:101510001CB500220B46009211460192FFF7DEFF38
:101520001CBD1CB5002100910B4601220191114602
:10153000FFF7D4FF1CBD000000487047B115000044
:1015400030B5184C054689B0207828B160788542BE
:1015500002D1002009B030BD202213496846FEF7B1
:101560006BFF00208DF814000620009008200190E9
:1015700005200390072002904FF0EB700690094879
:10158000001DFFF77BFF0DB1002200E0074A054870
:101590006946001DFFF77CFE0028DBD1012020708A
:1015A0006570D6E710000020481E0000F91B0000FF
:1015B0002DE9F04FC1B00D00DDF82CB14D984FF082
:1015C00000011C4690460BEB000A409101D00A2610
:1015D00000E0002600F0BCFA002873D16F46BCB9C9
:1015E000409840AA3918284600F0D0FA002869D05F
:1015F0004046FEF733FFC22800D9C2200546409876
:101600002A4638444146FEF717FF40982844409048
:101610004FF020094098821931320DEB02016844E5
:10162000002202E000F8019B521CB242FAD30027CC
:10163000544508D300F8019B00F8019B00F8019B7A
:1016400001F8019B26E05C4502D24A9A125D03E054
:101650004C9AA4EB0B03D25C84460125AB0022FA22
:1016600003F808F00F03092B01D9373300E03033BA
:10167000C5F101086D1E0CF80830EFD20CF1020024
:10168000A2F1200300F8019B5E2B00D92E2201F865
:10169000012B641C7F1C102FCAD30D220A700A2252
:1016A0004A7080F800904098811943316846409113
:1016B00000F054FA30B100F04BFA18B90020409015
:1016C0005445A7D341B02046BDE8F08F2DE9F04343
:1016D000C5B000251C46904689464C9F449500F0B5
:1016E00037FAB0BB449804AE311844AA484600F01B
:1016F0004DFA00282ED0072F22D2DFE807F004127F
:10170000192E384451004046FEF7A8FE054644987D
:101710002918FF2914D830442A464146FEF78CFE8A
:101720000EE04498226830444146FFF763F806E033
:10173000D4E90023449841463044FFF75BF805465E
:10174000294644A8FFF746FB18B14499B1F5807FBC
:1017500033D9002045B0BDE8F083A0680090D4E9FB
:101760000023449841463044FFF744F8E7E7D4E9C2
:101770000201CDE90001D4E90023449841463044F8
:10178000FFF738F8DBE704F1080007C88DE8070029
:10179000D4E90023449841463044FFF72BF8CEE7C4
:1017A00004F108000FC88DE80F00D4E90023449825
:1017B00041463044FFF71EF8C1E704A800F0CEF917
:1017C000C8E7000000487047CD1600000120FFF771
:1017D000B7BE00002DE9F04F87B0FFF735FB18B119
:1017E000002007B0BDE8F08F454ED6E9014704EA76
:1017F000070006EB8000A146641CC5680CE000BF32
:10180000C5F3891000EB9550044404EA070006EB89
:101810008000A146C568641CA807F1D005F003004C
:101820004FF0000B022805D0AA0A01A8C5F38313C4
:10183000002153E004EA070006EB800004F1010AEE
:101840000AEA0704C268381B80004FEA9558001D59
:10185000C5F38913804521D929490C3138B106EBEC
:10186000840400F0FF0CA8EB00000C3404E00C46EC
:10187000002108F0FF0C0846C0B2CDE90210CDE906
:10188000004CD6F81444C5F3C2005946A047404561
:1018900011D108F103080AEB98042AE0002106EBB5
:1018A00084000C300090CDE901810391C5F3C200A2
:1018B000D6F81444EAE760F38F1509EA070006EB4F
:1018C0008000C56016E000BF04EA070C06EB8C0C34
:1018D000491CDCF80CC040F804CB641C9942F3D3DB
:1018E000C5F3C2000093D6F8105401AB5946A8477F
:1018F00000B17460FFF7A8FA80F0010071E7000002
:1019000068010020034AFF239360002313605360A3
:1019100000F056B8680100202DE9F047DFF83C8060
:101920000446002689463046D8F80870D8F800509A
:10193000FFF75AFA00280ED0094800213D404068C0
:1019400061F3820064F3C50066F3891008EB85013A
:1019500069F39F20C860BDE8F0870000680100209F
:10196000681E00002DE9F047DFF84C80054601278E
:10197000924689463846D8F80860D8F80040FFF704
:1019800033FA002815D00D48002104EA06028068C9
:10199000641C61F3820065F3C50067F3891008EBEE
:1019A0008202344069F39F2008EB8401D060C1F8C3
:1019B0000CA0BDE8F087000068010020681E000050
:1019C000024A02F5826203C27047000068010020EB
:1019D00070B506460020FFF7B3FD040008D1FFF7FD
:1019E000ABFD0546FFF7EEFE32462946FFF78AFFBC
:1019F000204670BD4058002800D00120704708B52F
:101A0000002242504058009008BDD0F8040308401E
:101A100000D0012070474058002800D001207047B6
:101A200008B5002242504058009008BD70B50246EB
:101A30004FF0FF301168D1F80C35D1F81465D1F8AA
:101A40000855D1F81045C1F80C05C1F81405116806
:101A5000C1F80805C1F810051846FFF750FD3046DB
:101A6000FFF74DFD601C02D02046FFF748FD681CC3
:101A700004D02846BDE87040FFF741BD70BD0000AE
:101A800070B5FFF769FB08B1FFF736F91B48FFF7A0
:101A900001FB08B1FFF730F9194D184C05F10800AA
:101AA0002A680168207801F5A071121DFFF722FB5A
:101AB00008B1FFF721F91148401CFFF7EBFA08B114
:101AC000FFF71AF90E482A6810300168607801F5AE
:101AD000A071FFF70FFB08B1FFF70EF92078FFF7B1
:101AE00027FB08B1FFF708F96078FFF721FB002812
:101AF00003D0BDE87040FFF7FFB870BD00000020C4
:101B0000181E000070B50546C87D0C4600284FF42D
:101B1000847128460AD0FFF772FFD5F81805627E57
:101B2000E1688854607E401C607670BDFFF767FFF7
:101B3000D5F8180570BD1FB501238DF800308DF85C
:101B400008100192D0E90012684690471FBD0000BE
:101B50000148FFF787BC00001400002070B50D4657
:101B60000A46014601240648FEF766FCEAB204492B
:101B70000448FFF7F3FB00B10024204670BD0000CD
:101B800068000020140000207047000010B51446C3
:101B900002004FF001000AD00846126805A1FEF7C6
:101BA00029FE01462046BDE81040FFF713B9002189
:101BB000216010BD5B253038645D000070B50C46B7
:101BC00005464FF48E71FFF71AFFA18AA068415CA9
:101BD000A08A401CA082C5F81C1570BD1FB500224C
:101BE0008DF800208DF80810816801918275D0E988
:101BF0000012684690471FBD0078012801D10149B5
:101C000088707047100000202DE9FF470C460546FC
:101C10004FF40071FFF7F9FE01274FF40178002619
:101C200018B34FF4927949462846FFF7E3FEE0B136
:101C300049462846FFF7E3FEC5F80883A07E00B9B1
:101C40006F6002208DF80000D5F88004C5F880048C
:101C50000390E07D8DF80800E0680190E675267637
:101C6000D4E900126846904727E004212846FFF790
:101C7000CCFE10B34FF484712846FFF7BBFEE0B1F1
:101C800021462846FFF73EFFE07D617E884214D161
:101C9000207E38B1617EE268E0752069E0602676DA
:101CA000667607E0A07E00B96F60C5F80883E67528
:101CB000617EE2682046FFF73EFF4FF48E78414692
:101CC0002846FFF797FE88B1A08AA17D884204D2FA
:101CD00021462846FFF772FF08E041462846FFF7F5
:101CE0008EFEA17D11B12046FFF778FF4FF4A27858
:101CF00041462846FFF77EFE002812D0414628467E
:101D0000FFF77DFEA07E00B12F60E07D002808D0A7
:101D1000E675617EE26804B02046BDE8F047FFF753
:101D20000ABFBDE8FF872DE9FF410C464FF49277CB
:101D300005463946FFF76FFE0026C0B139462846F2
:101D4000FFF76EFE02208DF80000D5F88004C5F87C
:101D500080040390D5F83C058DF80800E0680190F8
:101D6000E6752676D4E900126846904724E04FF4E1
:101D7000887739462846FFF74EFEE8B139462846AF
:101D8000FFF74EFED5F83C05C1B2E07D884213D185
:101D9000207E60B1E268D5F8000220F02000C5F88E
:101DA0000002207EE0752069E060267601E0E6759D
:101DB000E2682046FFF7BFFE4FF4A2773946284677
:101DC000FFF729FE68B139462846FFF729FEE07D76
:101DD00038B1E675D5F83C05E268C1B22046FFF798
:101DE000AAFE4FF4907631462846FFF714FE0028ED
:101DF0000FD031462846FFF713FEA07D002808D0FB
:101E0000D5F84C0504B0C1B22046BDE8F041FFF75B
:101E1000E5BEBDE8FF810000008000400004000036
:101E2000009000400104000000A0004002040000F7
:101E30000000000600000000000000060000000096
:101E40000000000600000000FFFFFFFFFFFFFFFF94
:101E5000FFFFFFFFFFFFFFFF00000000000000008A
:101E60000000D6010601000029000000010000006A
:101E7000010000000100000001000000010000005E
:101E80000100000001000000020000004F766572B2
:101E9000666C6F770D0A0000B81E0000000000207D
:101EA000240000001C080000DC1E000024000020AC
:101EB0005C2500002C08000000000000000000006D
:101EC00000000000000000000000000000200040B2
:0C1ED000000000008C1E00000090D003F9
:0400000500000401F2
:00000001FF
