:020000040000FA
:1000000080250020150400001D0400001F040000CE
:10001000210400002304000025040000000000006B
:1000200000000000000000000000000027040000A5
:1000300029040000000000002B0400002D04000033
:100040002F0400002F0400000108000085050000B7
:100050002F0400002F0400002F0400002F040000D4
:100060002F0400002F0400002F0400002F040000C4
:100070002F0400002F0400002F0400002F040000B4
:100080002F0400002F0400002F0400002F040000A4
:100090002F0400002F0400002F0400002F04000094
:1000A0002F0400002F0400002F0400002F04000084
:1000B0002F0400002F0400000000000000000000DA
:1000C0002F0400002F0400002F0400002F04000064
:1000D0002F0400002F0400002F0400000000000087
:1000E0000000000000000000000000000000000010
:1000F0000000000000000000000000000000000000
:1001000000000000000000000000000000000000EF
:1001100000000000000000000000000000000000DF
:10040000DFF80CD000F062F800480047D50F00007C
:10041000802500200648804706480047FEE7FEE7A3
:10042000FEE7FEE7FEE7FEE7FEE7FEE7FEE7FEE7A4
:10043000950500000104000040EA01039B0703D07A
:1004400009E008C9121F08C0042AFAD203E011F813
:10045000013B00F8013B521EF9D27047421C10F8D4
:10046000011B0029FBD1801A70472DE9F05F05467A
:10047000002092469B4688460646814640241BE063
:10048000284641464746224600F041F853465A4620
:10049000C01A914110D311461846224600F028F8A0
:1004A0002D1A67EB01084F4622460120002100F07B
:1004B0001FF817EB00094E41201EA4F10104DFDCF8
:1004C000484631462A464346BDE8F09F064C074D54
:1004D00006E0E06840F0010394E807009847103414
:1004E000AC42F6D3FFF790FFD0210000F0210000CE
:1004F000202A04DB203A00FA02F1002070479140E4
:10050000C2F1200320FA03F3194390407047202AD8
:1005100004DB203A21FA02F00021704721FA02F3AD
:10052000D040C2F1200291400843194670470000B4
:100530007CB511A0002500680223CDE9005001AA76
:1005400048210E4800F09CFE08B100F0E9FB0C4C7D
:1005500020780028FCD08DF804502570012301AAD2
:1005600048210648009500F08BFE08B100F0D8FB4A
:1005700020780028FCD07CBD010000005C21000038
:10058000000000200149024800F07CBC1C00002053
:100590000030004070B58D480023021D0178101D09
:1005A0000124062907D115782D0704D10578C5F354
:1005B0000315032D02D0062904D00FE0854E844D8B
:1005C00075670EE015782D0708D10578C5F303157A
:1005D000032D06D0042D04D0052D02D0062909D004
:1005E00010E04FF08055D5F844527B4EC5F34235AC
:1005F000356002E015782D0704D10578C5F30315A1
:10060000032D02D0062906D011E0744D2E6826F085
:1006100080762E600EE015782D0708D10578C5F399
:100620000315032D06D0042D04D0052D02D0062974
:100630000AD011E04FF08045C5F80C31C5F81031F3
:10064000654D2D1F2B6002E015782D0704D105782C
:10065000C5F30315032D02D0062905D00CE05E4A30
:100660000321643211600AE015782D0704D1057862
:10067000C5F30315032D02D006290DD06AE0584AB0
:1006800005211160564978310C60554908310B60DD
:100690003F21121D116002E0117809075AD100783C
:1006A000C0F30310052855D14E4800684E49086034
:1006B0004C48001D0068091D08604A480830006861
:1006C000091D086047480C300068091D086045484E
:1006D00010300068091D0860424814300068091D88
:1006E00008604048183000683F49203108603D48A4
:1006F0001C300068091D08603A4820300068091D58
:100700000860384824300068091D086035482830E2
:100710000068091D086033482C300068091D086016
:100720003048303000683049403108602D4834305E
:100730000068091D08602B4838300068091D0860F2
:1007400028483C300068091D086026484030006891
:10075000091D086021487438016841F47001016086
:10076000BFF34F8FBFF36F8F4FF01021D1F800020E
:10077000002803DBD1F80402002822DA1B4A1460A7
:100780001B480468002CFCD01524C1F80042056801
:10079000002DFCD0C1F8044201680029FCD0136090
:1007A00001680029FCD0BFF34F8F0C48F038016876
:1007B000104A01F4E06111430160BFF34F8F00BFA5
:1007C000FDE70E490C48086070BD0000E00F00F026
:1007D0000DF0ADBA00C007403C050040FCED00E064
:1007E000105600400404001020C5004004E50140FC
:1007F00000E401400400FA050090D0031800002036
:100800000448017F04480029024901D001F02DBCB1
:1008100001F09CBB44000020002000400FB4084BB6
:1008200010B504A902AA039800F01CF8044602A916
:10083000002000F048FA204610BC5DF814FB0000D0
:10084000C70C000002E008C8121F08C1002AFAD134
:1008500070477047002001E001C1121F002AFBD140
:10086000704700002DE9FF4F8DB00F46054600266A
:1008700006E025280BD0DDE90F1290476D1C761C91
:1008800028780028F5D111B03046BDE8F08F00245B
:10089000A246A1460122EC4900E0044315F8013FBD
:1008A000203B02FA03F00842F7D128782A2810D01A
:1008B0006FF02F022878A0F13001092914D80AEB33
:1008C0008A0102EB410144F0020400EB010A6D1CB5
:1008D000F0E701CF5FEA000A03D544F40054CAF1FF
:1008E000000A44F002046D1C28782E2817D115F850
:1008F000010F44F004042A280ED06FF02F0228784C
:10090000A0F1300109290AD809EB890102EB410164
:1009100000EB01096D1CF2E757F8049B6D1C287869
:100920006C280FD006DC4C2817D068280DD06A2818
:1009300014D104E0742810D07A280FD10DE044F4CB
:1009400000140AE044F4801401E044F4401469788F
:10095000814202D104F580146D1C6D1C2A786E2A28
:100960001FD00CDC632A31D004DC002A8BD0582A3B
:1009700011D1A3E0642A68D0692A0CD165E0732AFA
:100980002ED004DC6F2A73D0702A04D19BE0752A24
:100990006FD0782A6ED01046DDE90F129047761C92
:1009A00050E1C4F30250022806D0032809D00428DD
:1009B00001CF09D0066045E101CFF117C0E9006120
:1009C00040E101CF06803DE106703BE117F8040BE2
:1009D0008DF8000000208DF80100EB46012003E0B7
:1009E00057F804BB4FF0FF3061074FF0000102D40D
:1009F0000DE008F10101884649450FDA8045F8DB32
:100A00001BF808100029F4D108E008F1010188461C
:100A10008142FADB1BF808100029F6D1DDE90F232B
:100A2000AAEB08008146214600F036F9304400EB7D
:100A3000080604E0DDE90F121BF8010B9047B8F13E
:100A40000108F7D221464846F7E00A21C4F30253D1
:100A50004FF0000B0891022B04D001CFC117032BDC
:100A600009D00AE0FF1D27F00707F7E8020108E0B8
:100A700032E01FE020E000B2C117042B01D140B2E8
:100A8000C117031E71F1000307DA4FF0000CD0EB21
:100A90000C006CEB01012D2302E0230504D52B2370
:100AA0008DF82430012303E0E30701D02023F7E78A
:100AB000984658E00A2110E010210EE010204FF077
:100AC000000B08900CE010214FF0000B44F00404E0
:100AD0004FF00809089103E008214FF0000B08913E
:100AE000C4F30253022B04D001CF0021032B06D004
:100AF00006E0FF1D27F00707F7E8020103E080B2D8
:100B0000042B00D1C0B24FF0000823072BD5702A68
:100B100007D0DDF820C08CF0100C5CEA0B0C05D07F
:100B20000EE040238DF82430012308E050EA010351
:100B300006D030238DF824308DF8252002239846E6
:100B4000DDF820C08CF0080C5CEA0B0C0BD150EAED
:100B5000010301D1630706D530238DF824304FF00F
:100B60000108A9F10109582A04D038A20B9208AA59
:100B70000A920BE03AA2F9E75B46089AFFF775FC88
:100B80000B9B9B5C0A9A521E0A92137050EA010258
:100B9000F2D10A98ADEB000000F1200B600702D5FE
:100BA00024F4803401E04FF00109D94502DDA9EBBE
:100BB0000B0000E0002000EB0B0141440890AAEB81
:100BC000010AE00306D4DDE90F232146504600F078
:100BD00063F806444FF0000908E009A911F809007C
:100BE000DDE90F12904709F10109761CC145F4DBDC
:100BF000E0030CD5DDE90F232146504600F04CF808
:100C0000064404E0DDE90F1230209047761C089975
:100C1000481E08900029F5DC08E00A980A99007837
:100C2000491C0A91DDE90F129047761CBBF10001C7
:100C3000ABF1010BF1DC21465046DDE90F2300F05A
:100C400019F806446D1C1BE60928010030313233C7
:100C500034353637383961626364656600000000F8
:100C600030313233343536373839414243444546E2
:100C7000000000002DE9F041044600251E461746FD
:100C8000880404D405E039462020B0476D1C641E5A
:100C9000F9D52846BDE8F0812DE9F041044600254C
:100CA0001E469046C80301D5302700E0202788045F
:100CB00004D505E041463846B0476D1C641EF9D5A1
:100CC0002846BDE8F0810A68531C0B60107070471D
:100CD0000BA1012000F044FE00F09CFD00F09EFD01
:100CE0000028FBD1BFF34F8F0B4801680B4A01F47A
:100CF000E06111430160BFF34F8F00BFFDE70000CB
:100D00004150505F4552524F523A4552524F523A1B
:100D1000466174616C0D0A000CED00E00400FA05F8
:100D20000EB500210091CDE901106A4644F20100A0
:100D3000FFF7CEFF0EBD00F003B800F009B80000C9
:100D400072B602480168491C016070470400002027
:100D500003490868401E086000D162B67047000071
:100D6000040000202DE9F04105460878214F0126B6
:100D700006FA00F00C463860086800F0EEFB00212F
:100D8000606800F0E1FB28791B4901EB4010A16984
:100D9000007F00282868C0F8241519D0607D217DC7
:100DA0002A680843C2F86C0518E00021A06800F02A
:100DB000CBFB207B86403E60E06800F0CEFBD4E9B0
:100DC00002122868C0F80825C0F81015BDE8F081A7
:100DD000607D227D29681043C1F86C05D4E90012BA
:100DE0002868C0F80C15C0F81425207D0128DCD037
:100DF000ECE700000805005044000020002901DA5B
:100E00000020704702681144016001207047000013
:100E10002DE9F041461C01250020FFF78CFF114908
:100E2000741CD1E900208F68101A3B1A5B1C9C428D
:100E30000FD963B10C480D4B3A4000681B6801EBB9
:100E4000820263F39F20D0600868401C0860002580
:100E500001E0901908600020FFF76FFF2846BDE809
:100E6000F081000064010020A02100001400002097
:100E7000034803C8814201D1012070470020704718
:100E8000640100202DE9FF470D464FF49277044698
:100E9000394600F0D3FD4FF002094FF001084FF43E
:100EA000827640B13946204600F0CDFD31462046DD
:100EB00000F0C4FDB0B3B2463146204600F0BEFD9E
:100EC0004FF0FF36002770B35146204600F0BBFDBF
:100ED00005F10C0001AB07C883E8070095F8230073
:100EE00078B1287B01282DD0D4F84C05C0B28DF8FC
:100EF0000600287B022828D0D4F84C05C0B28DF813
:100F000007004FF4B071204600F09DFD4FF4AE7124
:100F1000204600F098FD95F8250080B395F8230051
:100F200068BB3CE000E013E0A868C4F80803C5F81B
:100F30000890A868C4F80403C4F82080C4F814809A
:100F4000BDE8FF87D4F83C05D0E7D4F83C05D5E7E9
:100F50004FF4A471204600F076FD287B80B14FF459
:100F60000070C4F80002801CA860C4F80863A86878
:100F7000C4F80403C4F80880C4F82080E0E708E05F
:100F800005F10C0001AB07C883E8070095F82500C0
:100F900028B90020C4F80002AF60C4F80863D4F890
:100FA000C404C4F8C404810702D58DF8008006E0AB
:100FB000400702D58DF8009001E08DF8007095F89B
:100FC000250008B985F82470D5E9002168469047C6
:100FD000B6E70000002000F01FFD08B1FFF7A0FEFB
:100FE00010A1032000F0BCFC00F052FEFFF7A0FAB5
:100FF000144D154C0026284600F02AF820BF207812
:101000000028FBD02670104A0123521C48210F48AB
:1010100000F024F908B1FFF783FE00F0FFFB002881
:10102000FBD1E8E74150503A494E464F3A0D0A5439
:1010300057492073656E736F72206578616D706CAF
:10104000650D0A0020A10700000000205C210000BF
:1010500000283ED01F49204A096800BF00BF00BFDA
:1010600000BF00BF00BF00BF00BF91422FD000BF34
:1010700000BF00BF00BF00BF00BF00BF00BF00BF78
:1010800000BF00BF00BF00BF00BF00BF00BF00BF68
:1010900000BF00BF00BF00BF00BF00BF00BF00BF58
:1010A00000BF00BF00BF00BF00BF00BF00BF00BF48
:1010B00000BF00BF00BF00BF00BF00BF00BF00BF38
:1010C00000BF00BF00BF00BF00BF00BF00BF401E89
:1010D000C3D17047180000200024F40000283ED03F
:1010E0001F49204A096800BF00BF00BF00BF00BF02
:1010F00000BF00BF00BF91422FD000BF00BF00BFA4
:1011000000BF00BF00BF00BF00BF00BF00BF00BFE7
:1011100000BF00BF00BF00BF00BF00BF00BF00BFD7
:1011200000BF00BF00BF00BF00BF00BF00BF00BFC7
:1011300000BF00BF00BF00BF00BF00BF00BF00BFB7
:1011400000BF00BF00BF00BF00BF00BF00BF00BFA7
:1011500000BF00BF00BF00BF00BF401EC3D170472B
:10116000180000200024F4004907090E002806DAC0
:1011700000F00F0202F1E02282F8141D03E000F1FA
:10118000E02282F8001400F01F0201219140400982
:10119000800000F1E020C0F88012C0F80011704714
:1011A0000121B1EB507F01D1012070470020704731
:1011B0000179064A01EB8101006802EBC1010622B8
:1011C000C0F80025022081F8220070471C00002092
:1011D00070B506460D4600791F4900EB800001EB13
:1011E000C00494F8220008B1082070BD0020C4E9B2
:1011F0000023A06084F8250084F82400A87B84F8EC
:101200002700687B10B1284600F0C2FC296840F234
:101210000C60890001F1A041C1F8000769688900EC
:1012200001F1A041C1F80007D5E900123068C0F80B
:101230000815C0F80C25A968C0F82415206828B145
:101240003068297B000B40B2FFF78EFF012084F845
:101250002200002070BD00001C0000203EB5074D9C
:101260002C68AD6800948DF80110019202958DF8FC
:1012700002300022694600F015F83EBD74210000DE
:101280003EB500250095069C8DF8011002958DF85D
:10129000023001920CB1202200E00022694600F0E9
:1012A00001F83EBD30B40379064C03EB830304EB35
:1012B000C304006813460A460146204630BC00F0CD
:1012C000FFBC00001C0000202DE9F041044600791D
:1012D0002D4F904607EB40150E46E87E10B10820D2
:1012E000BDE8F081707F28772046FFF73BFD5FEA7D
:1012F000080068603169296031D0207996F81C8037
:1013000007EB40104FF4A276007F0028206814D02D
:101310004FF4887100F0B3FB4FF49071206800F037
:10132000AEFB4FF49271206800F0A9FB31462068B3
:1013300000F0A5FB1549206809E04FF48E7100F01C
:101340008DFB3146206800F089FB11492068C0F808
:10135000041320684146000B40B2FFF705FF2079D7
:1013600007EB4010007F0028206801D0082100E032
:101370000421C0F800150020E8752876A875012121
:10138000E976A876ACE700004400002010030200D4
:10139000800002002DE9F047054600793E4C0E46DC
:1013A00004EB4013187F38B14FF40050B0EB164FE8
:1013B00002D01020BDE8F087284600F06FF808B191
:1013C0001120F7E79A7500279E609F8228794FF0D9
:1013D000010804EB40143E46207F0028286825D0F1
:1013E0004FF49079494600F04AFB4FF4AC7A5146ED
:1013F000286800F044FB2868A17DA268C0F8442555
:10140000C0F848152868C0F808806068F0B94946F7
:10141000286800F02FFB80465146286800F02AFB20
:1014200058EA0001F3D058BBA7750FE04FF48E7A4D
:10143000514600F013FB2868C0F808802146286850
:1014400000F05EFD61684FF4807089B13046B1E70D
:101450005146286800F0FDFA10B9A08A4845F7D136
:10146000A08A484505D02146286800F049FD00E0E3
:101470008146A08AA17D8842EAD3A08A484501D14D
:101480000F26D1E75146286800F0E3FA0028F9D08A
:101490002868C0F80C80C7E74400002000790449A0
:1014A00001EB4010807D002800D001207047000033
:1014B0004400002070B50179144A002502EB411464
:1014C0000168237FC1F800556168C9B1017902EB59
:1014D0004111097F0029016801D00D4A01E00C4A41
:1014E0008C3AC1F8082301680122090B49B201F0C6
:1014F0001F039A404909890001F1E021C1F88021C8
:1015000000F0C3FAE576656070BD0000440000207D
:101510001003020030B541EA4201DDE9034541EA2A
:101520008301800041EA042100F1A04041EA054125
:10153000C0F8001730BD1CB5002100910B460122F8
:101540000191FFF7E7FF1CBD1CB500220B4600927E
:1015500011460192FFF7DEFF1CBD1CB50021009172
:101560000B46012201911146FFF7D4FF1CBD00007C
:1015700001218140014801607047000008050050CA
:1015800000487047F915000030B5184C054689B081
:10159000207828B16078854202D1002009B030BDA2
:1015A000202213496846FEF747FF00208DF81400FB
:1015B000062000900820019005200390072002904B
:1015C0004FF0EB7006900948001DFFF773FF0DB157
:1015D000002200E0074A05486946001DFFF774FE37
:1015E0000028DBD1012020706570D6E708000020BC
:1015F000802100003D1F00002DE9F04FC1B00D001B
:10160000DDF82CB14D984FF000011C4690460BEBD5
:10161000000A409101D00A2600E0002600F084FA7A
:10162000002873D16F46BCB9409840AA39182846A3
:1016300000F096FA002869D04046FEF70FFFC22856
:1016400000D9C220054640982A4638444146FEF754
:10165000F3FE4098284440904FF0200940988219AA
:1016600031320DEB02016844002202E000F8019BD8
:10167000521CB242FAD30027544508D300F8019B0C
:1016800000F8019B00F8019B01F8019B26E05C45F6
:1016900002D24A9A125D03E04C9AA4EB0B03D25C8F
:1016A00084460125AB0022FA03F808F00F03092B4A
:1016B00001D9373300E03033C5F101086D1E0CF855
:1016C0000830EFD20CF10200A2F1200300F8019BD8
:1016D0005E2B00D92E2201F8012B641C7F1C102FD9
:1016E000CAD30D220A700A224A7080F800904098EE
:1016F000811943316846409100F01CFA30B100F086
:1017000013FA18B9002040905445A7D341B02046A1
:10171000BDE8F08F2DE9F043C5B000251C4690468A
:1017200089464C9F449500F0FFF9B0BB449804AE45
:10173000311844AA484600F013FA00282ED0072F8B
:1017400022D2DFE807F00412192E38445100404637
:10175000FEF784FE054644982918FF2914D8304422
:101760002A464146FEF768FE0EE04498226830445F
:101770004146FFF753F806E0D4E900234498414678
:101780003044FFF74BF80546294644A8FFF736FBDF
:1017900018B14499B1F5807F33D9002045B0BDE838
:1017A000F083A0680090D4E9002344984146304477
:1017B000FFF734F8E7E7D4E90201CDE90001D4E905
:1017C0000023449841463044FFF728F8DBE704F152
:1017D000080007C88DE80700D4E900234498414673
:1017E0003044FFF71BF8CEE704F108000FC88DE87E
:1017F0000F00D4E90023449841463044FFF70EF827
:10180000C1E704A800F096F9C8E700000048704757
:10181000151700000120FFF7B7BE00002DE9F04FBB
:1018200087B0FFF725FB18B1002007B0BDE8F08FA7
:10183000454ED6E9014704EA070006EB8000A146C1
:10184000641CC5680CE000BFC5F3891000EB95501F
:10185000044404EA070006EB8000A146C568641C46
:10186000A807F1D005F003004FF0000B022805D0C7
:10187000AA0A01A8C5F38313002153E004EA070074
:1018800006EB800004F1010A0AEA0704C268381B6B
:1018900080004FEA9558001DC5F38913804521D972
:1018A00029490C3138B106EB840400F0FF0CA8EB99
:1018B00000000C3404E00C46002108F0FF0C084640
:1018C000C0B2CDE90210CDE9004CD6F81444C5F3FE
:1018D000C2005946A047404511D108F103080AEB60
:1018E00098042AE0002106EB84000C300090CDE93A
:1018F00001810391C5F3C200D6F81444EAE760F30E
:101900008F1509EA070006EB8000C56016E000BFEE
:1019100004EA070C06EB8C0C491CDCF80CC040F800
:1019200004CB641C9942F3D3C5F3C2000093D6F8EC
:10193000105401AB5946A84700B17460FFF798FAFC
:1019400080F0010071E7000064010020034AFF23DA
:10195000936000231360536000F056B864010020C8
:101960002DE9F047DFF83C800446002689463046E2
:10197000D8F80870D8F80050FFF74AFA00280ED0BF
:10198000094800213D40406861F3820064F3C500CE
:1019900066F3891008EB850169F39F20C860BDE8F4
:1019A000F087000064010020A02100002DE9F0472D
:1019B000DFF84C8005460127924689463846D8F81C
:1019C0000860D8F80040FFF723FA002815D00D482A
:1019D000002104EA06028068641C61F3820065F35A
:1019E000C50067F3891008EB8202344069F39F2039
:1019F00008EB8401D060C1F80CA0BDE8F0870000BE
:101A000064010020A0210000024A02F5826203C2A4
:101A1000704700006401002070B506460020FFF703
:101A2000B3FD040008D1FFF7ABFD0546FFF7EEFE5E
:101A300032462946FFF78AFF204670BD40580028ED
:101A400000D00120704708B5002242504058009055
:101A500008BD4058002800D00120704708B500227A
:101A600042504058009008BDD0F80403084000D010
:101A7000012070474058002800D00120704708B569
:101A8000002242504058009008BD70B502464FF009
:101A9000FF301168D1F80C35D1F81465D1F808552C
:101AA000D1F81045C1F80C05C1F814051168C1F84A
:101AB0000805C1F810051846FFF73DFD3046FFF751
:101AC0003AFD601C02D02046FFF735FD681C04D0AB
:101AD0002846BDE87040FFF72EBD70BD70B50546C5
:101AE000C87D0C4600284FF4847128460AD0FFF7C1
:101AF000B5FFD5F81805627EE1688854607E401C09
:101B0000607670BDFFF7AAFFD5F8180570BD1FB548
:101B100001238DF800308DF808100192D0E90012F1
:101B2000684690471FBD00000148FFF7B7BC0000A2
:101B30000C00002070B50D460A46014601240648F7
:101B4000FEF77AFCEAB204490448FFF723FC00B12F
:101B50000024204670BD0000640000200C0000201E
:101B600010B5144602004FF001000AD00846126872
:101B700005A1FEF753FE01462046BDE81040FFF7E1
:101B80003DB90021216010BD5B253038645D000047
:101B90002DE9F041044640F20C602168890001F112
:101BA000A041C1F800076168890001F1A041C1F8B6
:101BB00000072068FFF7DCFC6068FFF7D9FC2168AC
:101BC00040F20D60890001F1A041C1F80007616891
:101BD000890001F1A041C1F800070420FFF77EFA57
:101BE000DFF8588000250126A8F104072079D8F8ED
:101BF0000010C14011F0010F02D0002D1BD00FE0EA
:101C0000207806FA00F038600420FFF767FA2068B1
:101C1000FFF7AEFC0420FFF761FA6D1C092DE5DB30
:101C2000207986403E600420FFF758FA6068BDE8DE
:101C3000F041FFF79DBCBDE8F081000010050050A9
:101C400010B5017800290AD10079054C012804D18A
:101C5000627804A10320FFF7A9FE0120207010BDC7
:101C6000000000204150503A494E464F3A54656DAD
:101C700070657261747572653A2025642043656CE5
:101C80007369757320646567726565732E0D0A004C
:101C90001FB5094B0FCB8DE80F0007480023074AFB
:101CA00069460838FFF794FA08B1FFF739F8024897
:101CB0000838FFF77DFA1FBD64210000411C0000B9
:101CC0002DE9F05F06461F4615460C464FF0000A08
:101CD0004FF0080B4FF482795068FFF761FA002843
:101CE0007ED04FF0FF30C4F8080396F8240028B1E6
:101CF000B068C4F804031120BDE8F09F780703D44E
:101D0000F80601D4012000E0002086F8240095E8C0
:101D1000070006F10C0383E80700C7F3001086F8FC
:101D200025006878C4F888054FF482712046FFF7D3
:101D30008AFE4FF492712046FFF785FEF8074FF0B8
:101D4000010800D04046C4F85005B80701D5404608
:101D500000E00020C4F84005287800286CD0012855
:101D60007DD002284ED0032814D04FF0070A380740
:101D700004D42878032801D044F80B803068002868
:101D80006ED0780702D54FF40070B060B068C4F828
:101D90000403B0E0A868FFF703FA08B34FF48070BB
:101DA000C4F80002A8786968C4F84415C4F8480566
:101DB0004FF4A8712046FFF746FE4FF4B07120465D
:101DC000FFF741FE4FF4A4712046FFF73CFEC4F834
:101DD0002080C4F8088000BF4FF4A871204600E0BE
:101DE00028E0FFF72BFE0028F6D04FF4A87120461C
:101DF000FFF729FEE978A868C4F84405C4F8481537
:101E00003E4815E0A8786968C4F84415C4F8480548
:101E1000A868FFF7C5F968B1E878A968C4F834156F
:101E2000C4F838054FF48450C4F8000240F2022090
:101E3000B0609CE710205FE7A8786968C4F8441593
:101E4000C4F84805B8060FD54FF48070C4F80002F6
:101E50002A48B0604FF4A4794946204601E00CE0DE
:101E60001BE0FFF7F0FD05E04FF40070C4F800023E
:101E7000801CB060C4F8208079E7A8786968C4F84D
:101E80003415C4F838054FF48050C4F8000240F20D
:101E90000220B0604FF0000BECE745464FF482772C
:101EA0004FF492780BE041462046FFF7C7FD30B172
:101EB00041462046FFF7C7FD25626561B9464946A0
:101EC0002046FFF7BBFD0028EDD0D4F8C404C4F8C9
:101ED000C404002186F8241068B10321C20701D090
:101EE0004FF40241820701D548F20121400701D594
:101EF00048F202218A465046FEE600000002040035
:101F000070B50C4605464FF48E71FFF7A7FDA18A08
:101F1000A068415CA08A401CA082C5F81C1570BD59
:101F20001FB500228DF800208DF8081081680191FE
:101F30008275D0E90012684690471FBD00780128DD
:101F400001D1014988707047080000202DE9FF4742
:101F50000C4605464FF40071FFF786FD01274FF44C
:101F60000178002618B34FF4927949462846FFF7C6
:101F700070FDE0B149462846FFF770FDC5F80883BB
:101F8000A07E00B96F6002208DF80000D5F88004B3
:101F9000C5F880040390E07D8DF80800E0680190AA
:101FA000E6752676D4E900126846904727E00421BA
:101FB0002846FFF759FD10B34FF484712846FFF708
:101FC00048FDE0B121462846FFF788FDE07D617EAF
:101FD000884214D1207E38B1617EE268E0752069C4
:101FE000E0602676667607E0A07E00B96F60C5F8EF
:101FF0000883E675617EE2682046FFF788FD4FF4AE
:102000008E7841462846FFF724FD88B1A08AA17D3D
:10201000884204D221462846FFF772FF08E0414675
:102020002846FFF71BFDA17D11B12046FFF778FF81
:102030004FF4A27841462846FFF70BFD002812D046
:1020400041462846FFF70AFDA07E00B12F60E07DE3
:10205000002808D0E675617EE26804B02046BDE83D
:10206000F047FFF754BDBDE8FF872DE9FF410C465F
:102070004FF4927705463946FFF7FCFC0026C0B1C5
:1020800039462846FFF7FBFC02208DF80000D5F802
:102090008004C5F880040390D5F83C058DF808004D
:1020A000E0680190E6752676D4E90012684690470C
:1020B00024E04FF4887739462846FFF7DBFCE8B187
:1020C00039462846FFF7DBFCD5F83C05C1B2E07D78
:1020D000884213D1207E60B1E268D5F8000220F07A
:1020E0002000C5F80002207EE0752069E0602676B9
:1020F00001E0E675E2682046FFF709FD4FF4A2779C
:1021000039462846FFF7B6FC68B139462846FFF73E
:10211000B6FCE07D38B1E675D5F83C05E268C1B2A1
:102120002046FFF7F4FC4FF4907631462846FFF73F
:10213000A1FC00280FD031462846FFF7A0FCA07D67
:10214000002808D0D5F84C0504B0C1B22046BDE83F
:10215000F041FFF7E5BEBDE8FF8100000030004020
:10216000000100001B0000001A00000000009801A0
:10217000020000000100000000000000000000005C
:10218000FFFFFFFFFFFFFFFFFFFFFFFFFFFFFFFF5F
:1021900000000000000000000000D6010601000061
:1021A0002900000001000000010000000100000003
:1021B000010000000100000001000000010000001B
:1021C000020000004F766572666C6F770D0A0000A2
:1021D000F0210000000000201C0000004408000066
:1021E0000C2200001C0000206425000054080000A0
:1021F000000000000000000000000000002000407F
:0C22000000000000C42100000090D0038A
:0400000500000401F2
:00000001FF
