:020000040000FA
:10000000482A0020150400001D0400001F04000001
:10001000210400002304000025040000000000006B
:1000200000000000000000000000000027040000A5
:1000300029040000000000002B0400002D04000033
:100040002F0400000D080000ED0D00002F0400003B
:100050002F0400002F040000710500002F04000091
:10006000890D00002F0400002F0400002F04000061
:100070002F0400002F0400002F0400002F040000B4
:100080002F040000150A00002F0400002F040000B8
:10009000390A00003D0A00002F0400002F04000070
:1000A0002F0400002F0400002F0400002F04000084
:1000B0002F0400002F0400000000000000000000DA
:1000C0002F0400002F0400002F0400002F04000064
:1000D0002F0400002F0400002F0400000000000087
:1000E0000000000000000000000000000000000010
:1000F0000000000000000000000000000000000000
:1001000000000000000000000000000000000000EF
:1001100000000000000000000000000000000000DF
:10040000DFF80CD000F082F800480047FD3700000C
:10041000482A00200648804706480047FEE7FEE7D6
:10042000FEE7FEE7FEE7FEE7FEE7FEE7FEE7FEE7A4
:100430001D0B00000104000040EA01039B0703D0EC
:1004400009E008C9121F08C0042AFAD203E011F813
:10045000013B00F8013B521EF9D27047D2B201E0D5
:1004600000F8012B491EFBD270470022F6E710B5B9
:1004700013460A4604461946FFF7F0FF204610BD12
:10048000421C10F8011B0029FBD1801A704730B5BF
:1004900004460020034600E05B1C934203D2E05C6C
:1004A000CD5C401BF8D030BD2DE9F05F0546002043
:1004B00092469B4688460646814640241BE02846D5
:1004C00041464746224600F042F853465A46C01A73
:1004D000914110D311461846224600F029F82D1AF2
:1004E00067EB01084F4622460120002100F020F86A
:1004F00017EB00094E41201EA4F10104DFDC484641
:1005000031462A464346BDE8F09F0000064C074DA1
:1005100006E0E06840F0010394E8070098471034D3
:10052000AC42F6D3FFF770FFE06E0000006F0000F2
:10053000202A04DB203A00FA02F1002070479140A3
:10054000C2F1200320FA03F3194390407047202A98
:1005500004DB203A21FA02F00021704721FA02F36D
:10056000D040C2F120029140084319467047000074
:100570002DE9FC5F0025DFF83891A8464FF480761E
:1005800001242F46304603F0D9FF38B1D9F80403CF
:10059000204203D0304603F0C7FF2543361D6400D8
:1005A0007F1CB6B2082FEDD34FF4BE74204603F083
:1005B000C5FF38B1204603F0B7FF3E4845F000457F
:1005C000D0F800803C4E15F0FF0F15D00127002415
:1005D0002F420DD009EB8401D1F81005D1F8101588
:1005E000C0F3042056F82420C1F3014102B1904722
:1005F0007F00641C082CEBD3002D56DA00200190FC
:10060000401E4CE0701910F8501F90F9000021F0C6
:10061000C004401C38D0012000FA04FA1AEA090F7D
:1006200032D04FEA911B204602F070F856F82000B5
:10063000009010B9BBF1030F26D15146BBF1030F57
:1006400002D1019808430190A00000F1A040D0F829
:1006500000071AEA080FC0F3014002D0022802D0B6
:1006600012E0032810D1BBF1030F07D102281AD0E2
:100670000221204603F049FF7F1CFFB2009818B109
:10068000009A5946204690476D1C042DBAD3002F7E
:100690000BD008480068404507D0804601980027E5
:1006A00081463D46AEE70321E3E7BDE8FC9F00003D
:1006B0000060004010050050B800002003F0EEB9C3
:1006C0002DE9F74F354D4FF4803917468046002409
:1006D000C5F80893324EB07800281CBF3148FFF7A8
:1006E000EDFFB8F1000F04BF2F48FFF7E7FF706878
:1006F00000281CBF2D48FFF7E1FFC6F80480DFF893
:10070000B0B038004FF0000A4FF00107ABF1040819
:100710002FD0012808BFD8F8004006D0022813BF08
:10072000244825480468FFF7C9FFB770C5F840A101
:100730000198204480B2C8F80000D8F800806F64A7
:10074000DBF80060D5F8400100281CBF1B48FFF70C
:10075000B5FF444514D8A64228BFB04598BF1848F5
:1007600002D800BFFFF7AAFFC5F8049303B0BDE8A5
:10077000F08F6F64DBF800402F64C5F840A1D4E728
:1007800046452CBF00200120B44294BF0121002126
:10079000884208BF0B48E7D1E4E700000080004032
:1007A000940000207300040075000400760004002B
:1007B0004485004089000400488500409B000400F7
:1007C000B0000400C900040000F01F0201219140A4
:1007D0004009800000F1E020C0F88012704700F06E
:1007E0001F02012191404009800000F1E020C0F883
:1007F0000011704700F01F02012191404009800064
:1008000000F1E020C0F80012704700002DE9F05F11
:10081000734C20696778401C2061607D00281CBFF4
:100820007048FFF74BFF2046217800256E4C6F4E35
:100830004FF003094FF002084FF0FF3A4FF0010B61
:10084000032946D1D4F80C11002942D0012F06D03B
:10085000022F37D0BDE8F05F6548FFF72FBF07468E
:10086000006903281CBF6348FFF728FF87F8008052
:10087000B869401CB861C4F80052C4F808A34FF02E
:10088000E020C0F88082C4F80C51C4F80051C4F8CC
:100890001051C4F8045187F801907D603D753068AF
:1008A000017D51B154490968B975C4F81C51C4F8A7
:1008B00018B0524A4FF480611160C068002842D1DC
:1008C000BDE8F09F006901281CBF4D48FFF7F6FE08
:1008D00076E0032F7FD00821012F37D0022F6FD071
:1008E0004278484B002703EB0212137B002B1EBFFC
:1008F000D4F80C31002B0127927A0270C4F8005210
:10090000032A61D0C4F808A34FF0E021C1F8808227
:10091000C4F80C5180F80190C4F80051C4F810518B
:10092000C4F804514560057530680069002818BF97
:100930008047002F08BFBDE8F09F3068806800281E
:1009400008BFBDE8F09FBDE8F05F00470269012ADB
:1009500020D0022A18BFBDE8F09FC4F80C51C4F89B
:100960001051C4F80051C4F800526FF00102C4F8ED
:100970000823C4F8041380F80090456005753068BA
:100980000069002818BF8047306880680028DAD1E5
:10099000BDE8F09FC4F80051C4F80451C4F808A39E
:1009A000C4F804B33168097D19B1174A4FF4806166
:1009B00011601649C0680860BDE8F09F0BE0FFE7D2
:1009C000BDE8F05F05F006B86FF00802C4F8082330
:1009D000C4F80413A0E7BDE8F05F0D48FFF76EBE52
:1009E0003407002090010A00001000409C00002005
:1009F000A9010A009F010A004815004008F50140BE
:100A0000A4010A00A46E000004F501400415004092
:100A1000D6010A0007480021C0F84011C0F844116F
:100A2000C0F84811C0F84C11C0F80011C0F804110A
:100A300005F0E4BF0010014005F07CBF2DE9F04156
:100A4000012080F31088344DD5F884000027002859
:100A50005DD0D5F8800000EB400005EB8000017907
:100A600061F30704417961F30F24817961F317443D
:100A7000C17961F31F6481688289C08962F30F06BE
:100A800060F31F46D5F88400401EC5F88400D5F8F1
:100A90008000401CC5F88000D5F880000A2833D2B9
:100AA000002080F310882B683246204698470120AA
:100AB00080F31088D5F8840048B3D5F8800000EBA7
:100AC000400005EB8000017961F30704417961F38F
:100AD0000F24817961F31744C17961F31F64816840
:100AE0008289C08962F30F0660F31F46D5F884003F
:100AF000401EC5F88400D5F88000401CC5F8800071
:100B0000D5F880000A28CBD3C5F88070C8E700204C
:100B100080F31088BDE8F0815807002070B58D483B
:100B20000023021D0178101D0124062907D1157824
:100B30002D0704D10578C5F30315032D02D006292E
:100B400004D00FE0854E844D75670EE015782D07B3
:100B500008D10578C5F30315032D06D0042D04D064
:100B6000052D02D0062909D010E04FF08055D5F8A8
:100B700044527B4EC5F34235356002E015782D07AF
:100B800004D10578C5F30315032D02D0062906D03C
:100B900011E0744D2E6826F080762E600EE01578F8
:100BA0002D0708D10578C5F30315032D06D0042DB4
:100BB00004D0052D02D006290AD011E04FF080455F
:100BC000C5F80C31C5F81031654D2D1F2B6002E0C2
:100BD00015782D0704D10578C5F30315032D02D030
:100BE000062905D00CE05E4A0321643211600AE058
:100BF00015782D0704D10578C5F30315032D02D010
:100C000006290DD06AE0584A05211160564978310D
:100C10000C60554908310B603F21121D116002E044
:100C2000117809075AD10078C0F30310052855D16F
:100C30004E4800684E4908604C48001D0068091D78
:100C400008604A4808300068091D086047480C30B1
:100C50000068091D0860454810300068091D0860DB
:100C6000424814300068091D086040481830006888
:100C70003F49203108603D481C300068091D08606C
:100C80003A4820300068091D086038482430006860
:100C9000091D0860354828300068091D0860334880
:100CA0002C300068091D0860304830300068304939
:100CB000403108602D4834300068091D08602B4819
:100CC00038300068091D086028483C300068091D5C
:100CD0000860264840300068091D086021487438C3
:100CE000016841F470010160BFF34F8FBFF36F8F54
:100CF0004FF01021D1F80002002803DBD1F80402E4
:100D0000002822DA1B4A14601B480468002CFCD01F
:100D10001524C1F800420568002DFCD0C1F804423A
:100D200001680029FCD0136001680029FCD0BFF3E2
:100D30004F8F0C48F0380168104A01F4E06111430C
:100D40000160BFF34F8F00BFFDE70E490C480860FC
:100D500070BD0000E00F00F00DF0ADBA00C007401C
:100D60003C050040FCED00E010560040040400107B
:100D700020C5004004E5014000E401400400FA05FC
:100D80000090D0035C00002070B5144E4FF480300A
:100D9000C6F808030025C6F84051114C60680028C9
:100DA00004BF1048FFF78AFCA570626801236560E4
:100DB00073640D480168001F00681430B1F5804F5E
:100DC00004D2B0F5404F88BF637004D881422CBF75
:100DD000012000206070BDE8704010470080004096
:100DE00094000020EC000400448500400448017F8A
:100DF00004480029024901D005F00FBF05F07EBE6E
:100E000010010020002000400FB4084B10B504A9C9
:100E100002AA039801F0F4F8044602A9002000F0A9
:100E20003FF8204610BC5DF814FB0000A10E000046
:100E300002E008C8121F08C1002AFAD170477047A3
:100E4000002001E001C1121F002AFBD170472DE9EB
:100E5000F041044600251E461746880404D405E0E8
:100E600039462020B0476D1C641EF9D52846BDE8E0
:100E7000F0812DE9F041044600251E469046C80346
:100E800001D5302700E02027880404D505E041463D
:100E90003846B0476D1C641EF9D52846BDE8F08180
:100EA0000A68531C0B601070704700000BA10120F2
:100EB00005F01AF905F072F805F074F80028FBD176
:100EC000BFF34F8F0B4801680B4A01F4E0611143F7
:100ED0000160BFF34F8F00BFFDE700004150505F3E
:100EE0004552524F523A4552524F523A46617461FE
:100EF0006C0D0A000CED00E00400FA050EB50021AF
:100F00000091CDE901106A4644F20100FFF7CEFFDF
:100F10000EBD00F003B800F009B8000072B6024838
:100F20000168491C016070472C00002003490868D3
:100F3000401E086000D162B6704700002C000020FF
:100F40002DE9F04105460878214F012606FA00F008
:100F50000C463860086803F0CEFA0021606803F0A0
:100F6000C1FA28791B4901EB4010A169007F0028D4
:100F70002868C0F8241519D0607D217D2A680843AF
:100F8000C2F86C0518E00021A06803F0ABFA207BE2
:100F900086403E60E06803F0AEFAD4E902122868A9
:100FA000C0F80825C0F81015BDE8F081607D227DED
:100FB00029681043C1F86C05D4E900122868C0F80C
:100FC0000C15C0F81425207D0128DCD0ECE70000CA
:100FD000080500501001002002490520087001F0AA
:100FE000DBBA000080000020002901DA00207047F1
:100FF00002681144016001207047704703F042BE4F
:10100000FFFFFFFFFFFFFFFFFFFFFFFFFFFFFFFFF0
:10101000FFFFFFFFFFFFFFFFFFFFFFFFFFFFFFFFE0
:10102000FFFFFFFFFFFFFFFFFFFFFFFFFFFFFFFFD0
:10103000FFFFFFFFFFFFFFFFFFFFFFFFFFFFFFFFC0
:102000002DE9FF4F8DB00F460546002606E0252836
:102010000BD0DDE90F1290476D1C761C2878002844
:10202000F5D111B03046BDE8F08F0024A246A1469C
:102030000122EC4900E0044315F8013F203B02FA7D
:1020400003F00842F7D128782A2810D06FF02F0229
:102050002878A0F13001092914D80AEB8A0102EB93
:10206000410144F0020400EB010A6D1CF0E701CFCE
:102070005FEA000A03D544F40054CAF1000A44F0B0
:1020800002046D1C28782E2817D115F8010F44F092
:1020900004042A280ED06FF02F022878A0F1300116
:1020A00009290AD809EB890102EB410100EB01097A
:1020B0006D1CF2E757F8049B6D1C28786C280FD034
:1020C00006DC4C2817D068280DD06A2814D104E00B
:1020D000742810D07A280FD10DE044F400140AE0DF
:1020E00044F4801401E044F440146978814202D140
:1020F00004F580146D1C6D1C2A786E2A1FD00CDC30
:10210000632A31D004DC002A8BD0582A11D1A3E0F5
:10211000642A68D0692A0CD165E0732A2ED004DCC9
:102120006F2A73D0702A04D19BE0752A6FD0782A69
:102130006ED01046DDE90F129047761C50E1C4F3D3
:102140000250022806D0032809D0042801CF09D064
:10215000066045E101CFF117C0E9006140E101CF20
:1021600006803DE106703BE117F8040B8DF8000096
:1021700000208DF80100EB46012003E057F804BB76
:102180004FF0FF3061074FF0000102D40DE008F17D
:102190000101884649450FDA8045F8DB1BF8081035
:1021A0000029F4D108E008F1010188468142FADBF8
:1021B0001BF808100029F6D1DDE90F23AAEB08006F
:1021C00081462146FEF755FE304400EB080604E048
:1021D000DDE90F121BF8010B9047B8F10108F7D2A7
:1021E00021464846F7E00A21C4F302534FF0000BA2
:1021F0000891022B04D001CFC117032B09D00AE0AC
:10220000FF1D27F00707F7E8020108E032E01FE0B2
:1022100020E000B2C117042B01D140B2C117031E48
:1022200071F1000307DA4FF0000CD0EB0C006CEBFF
:1022300001012D2302E0230504D52B238DF8243042
:10224000012303E0E30701D02023F7E7984658E095
:102250000A2110E010210EE010204FF0000B089032
:102260000CE010214FF0000B44F004044FF008097B
:10227000089103E008214FF0000B0891C4F30253CA
:10228000022B04D001CF0021032B06D006E0FF1D56
:1022900027F00707F7E8020103E080B2042B00D122
:1022A000C0B24FF0000823072BD5702A07D0DDF805
:1022B00020C08CF0100C5CEA0B0C05D00EE0402323
:1022C0008DF82430012308E050EA010306D03023C2
:1022D0008DF824308DF8252002239846DDF820C0A3
:1022E0008CF0080C5CEA0B0C0BD150EA010301D115
:1022F000630706D530238DF824304FF00108A9F18B
:102300000109582A04D038A20B9208AA0A920BE0BD
:102310003AA2F9E75B46089AFEF7C6F80B9B9B5C6E
:102320000A9A521E0A92137050EA0102F2D10A98D8
:10233000ADEB000000F1200B600702D524F48034DF
:1023400001E04FF00109D94502DDA9EB0B0000E0E7
:10235000002000EB0B0141440890AAEB010AE003C6
:1023600006D4DDE90F2321465046FEF782FD0644E0
:102370004FF0000908E009A911F80900DDE90F1282
:10238000904709F10109761CC145F4DBE0030CD547
:10239000DDE90F2321465046FEF76BFD064404E0BD
:1023A000DDE90F1230209047761C0899481E0890EE
:1023B0000029F5DC08E00A980A990078491C0A917E
:1023C000DDE90F129047761CBBF10001ABF1010B68
:1023D000F1DC21465046DDE90F23FEF738FD0644C7
:1023E0006D1C1BE609280100303132333435363795
:1023F0003839616263646566000000003031323351
:1024000034353637383941424344454600000000F0
:102410002DE9F04151488CB00068514C012802D0A0
:102420005048006828B960680078202898BF0120CB
:1024300000D900204C4F0321002639702660002867
:1024400076D04A48056800684949086003A8CDE984
:1024500000044848026801232946184603F02AFF71
:10246000002839D0012813D0022839D0032818BFFA
:10247000414801D0FEF722F92068002865D00120EC
:1024800060753E482061042038700CB0BDE8F081D2
:10249000039800281CBF3A48FEF710F9284604F0BC
:1024A0006DF8002804BF3748FEF708F94FF002081E
:1024B00078680023807D8DF800808DF801508DF8BC
:1024C0000200ADF808300193ADF80A308DF8033002
:1024D000684603F049FECFE72B48FEF7EFF8CBE75D
:1024E0000398002804BF2948FEF7E8F8284604F0BE
:1024F00045F8002804BF2648FEF7E0F84FF0020C2C
:1025000078680022039B807D8DF800C08DF8015013
:102510008DF802004FF00108ADF808200193ADF8E6
:102520000A208DF80380684603F01EFEA4E7FFE74B
:10253000002300961A4619461846019603F0BAFE83
:10254000042818BF134895D196E703F051F9667532
:10255000266100F021F80CB0BDE8F08100140040C5
:1025600010070020341500408000002008140040AF
:102570002C1500400C140040C8050900D90F0000BC
:10258000B8050900B9050900BD050900C005090025
:10259000C1050900CF05090070B503F029F91E4CEB
:1025A0001E4E0025012025613070A4F150001C4909
:1025B0000069086003F0E6FF08B303F0E3FF0328B7
:1025C00018BF184802D000BFFEF778F8022003F0C9
:1025D000C1FA002003F03EFB03F0D4FF03281CBF28
:1025E0001148FEF76BF8307801281CBF0F48FEF742
:1025F00065F8022030700E48C4E9030570BD03F091
:10260000F1FD0228E2D304F043F86060002808BF1F
:102610000848DBD1D8E70000100700208000002028
:102620003015004080050900880509009205090061
:10263000112400007B05090004280CD2074A126807
:10264000074B13F8203001209840904300D0012020
:102650000870002070470020FAE7000010050050C5
:102660002C6E00001FB501460020890710D50949CE
:102670001EC98DE81E0000216C460C2354F8212051
:10268000920002F1A042C2F80037491C0429F5D398
:1026900004B010BD3C6E00002DE9F041461C012540
:1026A0000020FEF736FC1149741CD1E900208F6828
:1026B000101A3B1A5B1C9C420FD963B10C480D4B9E
:1026C0003A4000681B6801EB820263F39F20D060F0
:1026D0000868401C0860002501E09019086000208F
:1026E000FEF719FC2846BDE8F081000060020020DA
:1026F0006C6E00003C000020034803C8814201D1F9
:102700000120704700207047600200200249084401
:1027100090F9300070470000B80000202DE9F05F0C
:1027200026484168F1B3DFF898B00E688146DBF8BF
:10273000004087688078E11B21F07F45ED1CB0B92F
:10274000DFF880804FF48030C8F84403C8F80403F1
:102750001120FEF739F81120FEF741F84FF0010A79
:10276000C8F800A02F2001F011FA89F802A0B542A4
:1027700000D23546124BE8193C3320F07F401860F8
:10278000DBF800105A46091B21F07F41001B20F0A6
:102790007F40C91C81420FD9106818602F2001F0BA
:1027A000F5F900E004E0BDE8F05F1120FEF722B883
:1027B000BDE8F05F04F05EB8BDE8F09F0C000020BB
:1027C00004150140001001402DE9F043484883B052
:1027D0000068012802D04748006830B94648406880
:1027E0000078202898BF012600D90026434C0125F7
:1027F000606920B901F056FE002808BF656103F04A
:10280000C1FE01281CBF3E48FDF758FF3D4D6868DA
:10281000007D00281CBF3C48FDF750FF02F0E8FF98
:10282000002E04BF03B0BDE8F0830121084603F089
:1028300007FE052845D2DFE800F0034122414100B0
:102840004FF0000903F08EFE0646B4F80C80E789CD
:1028500003F08EFE014668680023827D8DF80090AB
:102860008DF80110ADF808808DF802200196ADF8C2
:102870000A708DF80330684603F076FC21E04FF0D3
:10288000000903F06FFE0646B4F80C80E78903F0F8
:102890006FFE014668680123827D8DF800908DF8F7
:1028A0000110ADF808808DF802200196ADF80A708D
:1028B0008DF80330684603F057FC02E01348FDF73B
:1028C000FDFE01F01DF92061114800F16802416927
:1028D00061602378022B03D0002908BF806800D0F4
:1028E000C068106003B00020BDE8F04301F03AB9C1
:1028F000001400403415004010070020F4060020AA
:10290000A806090080000020A9060900C8060900E1
:10291000C00600200E4910B50A784C780023A24268
:1029200012D0521CD2B20A70022A00D10B70084A8F
:102930000B78183252F8232002608868104420F087
:102940007F408860012010BD0360002010BD0000A2
:102950000C00002030B52A4D83B0687E002804BFEB
:1029600003B030BD01F046FD002401280BD001F07A
:1029700085FD2448007F10B90120810748600020B0
:1029800003F024FF6C6002F033FFAC706C7605201E
:102990008DF800008DF80140ADF808408DF8024038
:1029A0000194ADF80A408DF80340684603F0DCFB63
:1029B0001548164904704FF44070086003F0E2FDBA
:1029C000012818BF022815D003281CBF03B030BD52
:1029D000009400231A4619461846019403F06AFC35
:1029E000042804BF03B030BD094803B0BDE830403F
:1029F000FDF764BE0021084603F022FDF0E7000069
:102A0000F4060020C00600208000002008F50140E8
:102A1000E801090002490A880280897881707047BC
:102A2000906E00002DE9F0418AB02027002609971A
:102A3000FEF7E4FA054601F09FFE804602F00AF830
:102A4000C82001F0AFFF052001F0DCFF002001F0FD
:102A50004BFE01F0FBFD00208DF820000446002213
:102A6000012108A800F04AFB30B1002002F000F874
:102A7000641CE4B2642CF2D3C82000F017F90120E2
:102A80008DF820000146002208A800F037FB08B3AB
:102A90001E480078F0B1002001F058FE00281DDD2E
:102AA00009AA69460020099701F0DEFDB0B19DF842
:102AB0000000082812D11548DDF801100C38C0F8C4
:102AC00003100DF1010000F07BFB002000F022FA62
:102AD000012603E04FF4967000F0E8F84FF4AF7071
:102AE00000F0E4F801F0B6FF002001F0FDFD002049
:102AF00001F00AFE284601F055FF404601F082FF32
:102B000001F0A4FD0AB03046BDE8F081520000207B
:102B1000002207E010F8013BFF2B01D00020704796
:102B2000521CD2B28A42F5D301207047F0B5074655
:102B3000204889B0154600780E4698B1012814D077
:102B4000022834D110221C4904A8FDF775FC1B494A
:102B50000D2204A8FDF770FC0024164A6846521C9A
:102B600021460DE010221449F3E71022124904A86F
:102B7000FDF762FC04A800F0D9F8EDE7052C02D2BD
:102B8000135D035500E00155641CE4B2102CF5D32D
:102B900001F0F4F904A801F003FA6946084601F0CF
:102BA000C3F92B466A463146384600F069FB09B046
:102BB000F0BD000040000020936E00009806002049
:102BC00070B50C4605460D2910D800F02BF808B159
:102BD000012070BD0648007840B900F059F928B1CD
:102BE00021462846BDE8704000F01CB8002070BDAA
:102BF0004600002001490870704700004000002096
:102C000001460D220148FDF717BC00009806002080
:102C100003490268C1F8012000794871704700003B
:102C200040000020F0B50746081D89B0C6B2062056
:102C30008DF8100004AC0D46601CFFF7EBFE2A4631
:102C40003946201DFDF7F8FB174D287808B1002004
:102C500000E00220FFF7CEFF701EC2B2611C601CB4
:102C6000FFF764FF01200090002301AA314604A869
:102C700000F05AFA18B99DF804000B2802D0002081
:102C800009B0F0BD01AC0322A01DA11DFFF74EFF4E
:102C9000A01D00F0E9FA0028F2D0287810B9601CD5
:102CA000FFF7B6FF0120EBE74600002010B5044611
:102CB00001F060FD6043BDE81040400000F0ACBF93
:102CC000014803F0B3BA000000100000F0B54E2335
:102CD000B3FBF2F5022303704F23841804F8013C80
:102CE00081B10123541E0BE003F003068E5DB6FB99
:102CF000F5F705FB176605FB0366C6545B1CDBB2E4
:102D0000A342F1DB01210DE04318445C13F8013CC0
:102D1000E31ADBB2052B03D2C3F10503234443546A
:102D2000491CC9B29142EFD3F0BD00000349D1F86C
:102D300007200260C97A0171704700004600002038
:102D4000F0B52F4D87B000262878012701ACB0B12F
:102D500003208DF80400601CFFF75CFE0020FFF7E5
:102D600049FF0322611C601CFFF7E0FE002303AA59
:102D7000042101A8009700F0D7F9A0B117E00220C4
:102D80008DF804000521601C00F086F9012206215F
:102D900001A800F0B3F950B1601CFFF739FF2F70A4
:102DA000002007B0F0BD9DF80C00092802D02E705D
:102DB0000320F6E703AC0922601C611CFFF7B6FE96
:102DC000601C00F051FAC0B19DF8100020B101283C
:102DD00005D0022800D12E709DF81000E1E7601D9B
:102DE00000F076F90D21074800F056F90548FFF785
:102DF00007FF012000F08EF8EDE72E700220D0E7EB
:102E000046000020A506002041F6FF700078FF284C
:102E100001D0012070470020704740F6817041F2D8
:102E20007E01095CFF2905D00F20B0EB111F07D0F0
:102E300008097047401E00B20028F0DA0E207047E3
:102E400001F00F00704700003EB5104C00202070CC
:102E5000FFF7DAFF98B94FF4805090F87E00FF2812
:102E60000DD0FFF7DAFF01460E2808D2684600F0C1
:102E700046F80098C4F8030001A800F029F9BDE85D
:102E80003E400248C01C00F09BB9000046000020F4
:102E900010B58AB004208DF804000120014600908E
:102EA000002306AA01A800F03FF930BB9DF81800E6
:102EB0000A2822D10DF11900FFF7AAFE05208DF88E
:102EC000040001AC601CFFF7A5FD0D21201D00F0E2
:102ED000E3F8201DFFF794FE0120FFF78BFE102280
:102EE000611C601CFFF722FE0122112101A800F0E5
:102EF00005F910B101200AB010BD0020FBE701EB7D
:102F0000C10101F580510A6802604A684260097A8D
:102F1000017270472DE9FE4300265E4FB0463446ED
:102F200000285ED00025E94629466846FFF7E7FFFE
:102F300058490422C91C6846FDF7A9FA38B9554911
:102F40000522C91D09F10400FDF7A1FA80B16D1C2D
:102F5000EDB20E2DE8D3002529466846FFF7CFFFD6
:102F60004C490422C91C6846FDF791FA10B10CE0E7
:102F70002C4632E0052109F10400FFF7C9FD20B11C
:102F8000D7F807000190F87A13E06D1CEDB20E2D12
:102F9000E2D3002529466846FFF7B1FF09216846BC
:102FA000FFF7B6FD48B157F8030F0090786801901D
:102FB000387A8DF808002C4631E06D1CEDB20E2DEC
:102FC000E8D3B8F1000F07D004EBC400694609222A
:102FD00000F5805003F060F93EB3FFF715FF28B30A
:102FE00056E0002421466846FFF789FF294904225C
:102FF000C91C6846FDF74BFA0028EED0641CE4B209
:103000000E2CEFD3002421466846FFF778FF0421F9
:103010006846FFF77DFD20B1D7F803000090012638
:10302000D2E7641CE4B20E2CEDD331E0FFF7F5FEDD
:10303000A0422DD00E2C2BD04FF48051002040F612
:1030400081720F2591F87E10531C04E041F27E013D
:103050009042095C0DD0CE43360706D0B5EB111F68
:103060000AD164F31F11C9B20AE001F0F001214353
:1030700006E044F0E00103E0401C00B29842E5DBCA
:1030800041F27E02104403F0E9F80120BDE8FE831E
:103090000020FBE746000020F0B50B4B0025C3F8ED
:1030A000005101241C602A46084E09E0D3F8007143
:1030B000002FFBD037688754C3F80051521CD2B29E
:1030C0008A42F3D35C60F0BD00D0004008D50040D8
:1030D00003490268C1F807200079C87270470000F0
:1030E0004600002010B5044601F08AFA00E030BF27
:1030F00001F03AFBB0EB440FF9D310BD10B5094C09
:10310000134600226270A2700A460146184601F07A
:103110001DFA08B910BD30BF60780028FBD0A07838
:1031200010BD0000460000202DE9FC4780460A2023
:103130000A9D009016460F46284601F099FC01248E
:1031400001F078FA01F0CAFB0028FBD101F00AFB7C
:1031500081461E2001F036FC01F078FA2A463946F5
:103160004046FFF7CBFFE0B10224284601F080FC87
:1031700007208DF804000A20FFF7B4FF2A4601213A
:1031800001A8FFF7BBFF60B1284601F0DFFA40B1AC
:10319000202000906A463146284601F065FA00B1C9
:1031A000002401F047FA00BF01F098FB0028FBD192
:1031B000484601F007FC01F049FA2046BDE8FC87CB
:1031C0002DE9FF41054601F089FB264C0646EDB38B
:1031D00028786978EA7800EB0120A978090401EBE6
:1031E0000261471801F036FC204601F095FB50B112
:1031F0000021084601F07AFB28B1384601F09CFB1B
:1032000008B1012402E0012407E037B12146084655
:1032100001F06CFB08B1012700E00027641CE4B258
:10322000082CF2D301F086FA0446C2B22946684659
:10323000FFF74CFD87B12146684601F08DFB58B180
:103240000120002E05D001F001FA00E007E030B1C6
:10325000012004B0BDE8F0810020002EF9D000204C
:10326000F7E700000406080A10B503220349FDF73A
:103270000EF908B1002010BD012010BD906E0000B5
:1032800070B5002409E000BF11F8015B12F8016B72
:103290007540641C00F8015BE4B29C42F4D370BD3D
:1032A0001FB569460020FFF7C7F908B1FDF726FEF4
:1032B00001A90120FFF7C0F908B1FDF71FFE02A91F
:1032C0000220FFF7B9F908B1FDF718FE03A90320A2
:1032D000FFF7B2F908B1FDF711FE9DF80C009DF85B
:1032E0000810C00040EA81009DF8041040EA410047
:1032F0009DF8001004B00843C043C0B210BD0000E8
:103300002DE9F043264CA4F110092278D9F8048065
:1033100099F80350404694F801C0D9F8086031E0AC
:1033200002EB42036168521C01EBC301A378D2B2E5
:10333000934200D100220B78022B02D0032B21D123
:103340001DE003464F68194603E0B94203D00B461F
:10335000C969B9B1F9E7A9B18B4205D1C06918B9FA
:10336000104E0125B56000260F68C969D96149B1C1
:103370000B683B440B6005E00174C06900E000216C
:103380000028F9D19445CBD1C9E9010689F8035049
:10339000404502D00120BDE8F0830020FBE700009B
:1033A0001C000020001001402DE9F0412A4F044686
:1033B000002607F11005D7F804803EE002D0204631
:1033C000E4691DE02878696800EB4002401CC0B247
:1033D00001EBC2012870AA78904200D12E700A78C1
:1033E0004868012A2BD1027C4ABB8A684260CA68BD
:1033F00082600A69C26049698161F97801B14660F9
:103400004368BA68DFF854C0991A21F07F416145DA
:1034100002D28268114406E0D11A826821F07F410D
:103420008A4202D9511A016000E00660466001211B
:1034300086600174C66103F0C3FA002CBED12878FF
:1034400069788842BED17968414502D00120BDE843
:10345000F0810020FBE700000C000020FFFF7F0050
:103460002DE9F05FC74800260660C7484FF4407555
:103470000560C64806604FF00108C0F80080C448E7
:10348000016821F480710160016821F00F0141F0B1
:1034900006010160016821F4702141F440310160AE
:1034A000041D206820F000702060206840F08070CB
:1034B0002060206820F0FF0040F02000206020689D
:1034C00020F47F4020604FF0E0204FF00209C0F868
:1034D000809200F087FFAF490860091FAE4808607E
:1034E000AE480560AE4802F00BFBAE49AE4D4860F9
:1034F000687F216821F4E02141EA00402060002338
:10350000D5F820C019461822C8002CFA00F0C0B225
:10351000002400F0010744EAC714C0F3400744EA5E
:103520008714C0F3800744EA4714C0F3C00744EA95
:103530000714C0F3001744EAC704C0F3401744EA75
:103540008704C0F3801744EA470444EAD0104C4291
:1035500002EBC404A0400343481CC1B20429D3D3E6
:10356000924803600023D5F824C01946C8002CFAFD
:1035700000F0C0B2002400F0010744EAC714C0F311
:10358000400744EA8714C0F3800744EA4714C0F3B5
:10359000C00744EA0714C0F3001744EAC704C0F3A5
:1035A000401744EA8704C0F3801744EA470444EA1A
:1035B000D0104C4202EBC404A0400343481CC1B2EB
:1035C0000429D3D37A4803600024071D4FF0FF0B72
:1035D00007F1040A2819082C90F8280058D2A107EE
:1035E000C90E0BFA01F2D243042C26D23B681A40D2
:1035F0003A60002200F0010342EAC312C0F3400324
:1036000042EA8312C0F3800342EA4312C0F3C003CC
:1036100042EA0312C0F3001342EAC302C0F34013AC
:1036200042EA8302C0F3801342EA430242EAD01026
:1036300088403968084338602DE0DAF800301A40D5
:10364000CAF80020002200F0010342EAC312C0F3CE
:10365000400342EA8312C0F3800342EA4312C0F3FC
:10366000C00342EA0312C0F3001342EAC302C0F3EC
:10367000401342EA8302C0F3801342EA430242EA63
:10368000D0108840DAF800100843CAF8000002E0C1
:103690004848FDF713F8641C082C9BDB464995F855
:1036A00030000860454895F83110026822F0FF02AA
:1036B0000260002904BF016801600AD0404A131F5C
:1036C000012929D0022930D0032938D03D48FCF700
:1036D000F5FF3F4B95F8320003F1040C0CF10404A4
:1036E00039493A4ADFF8ECA0251DDFF8ECB02F1D70
:1036F00070B3012838D0022818BFBDE8F09FC1F888
:1037000000901A603548CCF800A02060344828604A
:10371000C7F800B0BDE8F09F016841F00101016009
:10372000C2F800B040F2071007E0016841F0020162
:1037300001604FF6FF7010602A481860C9E7016801
:1037400041F0030101606FF07F4010601E60C0E730
:103750000E601A602448CCF800A02060234828603E
:10376000C7F800B0BDE8F09FC1F800801A6020489B
:10377000CCF800A020601F4828601F483860BDE8D2
:10378000F09F000054F5014008F50140FC1F004087
:10379000141500405CF501400411004004F501409F
:1037A0001007002080000020C00600201C150040EB
:1037B00020150040390309000C1500403415004065
:1037C0003C150040C203090010150040005000786D
:1037D000241700404E0000543E420F8208800C60C7
:1037E000886472002110010003800C602264720062
:1037F00002800C6011646600DEC08F82002588B0F4
:103800002E4604242A4629460220FEF72BFF08B143
:10381000FDF774FB002002F095FC08B1FDF76EFB8C
:103820003AA1032002F060FC02F0BCFB0028FBD1AF
:1038300000F0C2FF28B900F083FF00F50340FDF758
:103840005DFB4B2001F0AEF828B900F079FF00F5E0
:103850000340FDF753FB4FF4FC7001F0C3F828B9A7
:1038600000F06EFF00F50340FDF748FBFFF728FA74
:10387000FFF7EAFA00F0EAFE28B900F061FF00F570
:103880000340FDF73BFBFFF70BFD8DF8000009E05F
:10389000FFF706FD8DF8000026B10D216846FFF701
:1038A0008FF911E001F0FCF801F000F911226946EE
:1038B000022000F04BFE08B908E030BF01F0FCF830
:1038C0000028FAD001F0FEF8054607E01DA101200E
:1038D00002F00AFC02F066FB0028FBD186F001062C
:1038E00075B91FA1012002F0FFFB00BF02F05AFBD7
:1038F0000028FBD1FFF796F810B1FFF721FA044634
:10390000002CC5D1FFF71CFA0446C1E74150503ADC
:10391000494E464F3A47617A656C6C2064796E6116
:103920006D69632070616972696E67206578616D89
:10393000706C652E20446576696365206D6F6465E3
:103940002E0D0A004150503A4552524F523A5458A7
:10395000206669666F206572726F72200D0A000022
:103960004150503A4552524F523A47617A656C6C19
:10397000653A207472616E736D697373696F6E203E
:103980006661696C65640D0A000000002DE9F0476E
:103990000E46C0F30729C3B2010E40F307400024CE
:1039A000170C40421FFA82F8062B67D2DFE803F0BB
:1039B0000319314B475E002918BF0121254667F3E3
:1039C0000F0461F3070560F31F4468F31F45304699
:1039D00001F04CF9224629464846BDE8F04700F080
:1039E0001FBE29488068407E002804BF2748FCF796
:1039F00065FE304601F03AF9214664F3070167F3AA
:103A00000F0468F31F4122464846BDE8F04700F026
:103A1000FDBD002918BF012161F3070460F31F44B5
:103A200039B1002E04BF1A48FCF748FE304601F0B9
:103A30001DF921464846BDE8F04700F0BCBE00F045
:103A400053FFBDE8F08713484168491C4160017885
:103A5000002908BFBDE8F087816800291EBF491E04
:103A60008160BDE8F08701F019FA18B1BDE8F047B0
:103A7000FDF7C3BABDE8F04701F02AB8BDE8F0474A
:103A80000548FCF71BBE000060000020B5030500E0
:103A9000C3030500B4060020E303050002490F221A
:103AA0000A70C86070470000600000200948416843
:103AB0004A1C011F426009680B689A4238BF704770
:103AC0000022426003685B1C036049688B4228BF88
:103AD000026070478C00002070B5074C251F2068DD
:103AE00029684968884224BF0448FCF7E7FD286834
:103AF00021688068405C70BD8C000020B20001002D
:103B000001480068704700008C00002001484068B0
:103B1000704700008C00002010B5040004BF054869
:103B2000FCF7CCFD044800210460001D01604160E9
:103B300010BD00002A0001008800002010B50446D6
:103B4000054800684068A0429CBF0448FCF7B6FDE9
:103B50000348046010BD000088000020B900010087
:103B60008C00002010B50446054800680068A0429B
:103B70009CBF0448FCF7A2FD0348446010BD000050
:103B800088000020C50001008C00002000283ED0E5
:103B90001F49204A096800BF00BF00BF00BF00BF27
:103BA00000BF00BF00BF91422FD000BF00BF00BFC9
:103BB00000BF00BF00BF00BF00BF00BF00BF00BF0D
:103BC00000BF00BF00BF00BF00BF00BF00BF00BFFD
:103BD00000BF00BF00BF00BF00BF00BF00BF00BFED
:103BE00000BF00BF00BF00BF00BF00BF00BF00BFDD
:103BF00000BF00BF00BF00BF00BF00BF00BF00BFCD
:103C000000BF00BF00BF00BF00BF401EC3D1704750
:103C10005C0000200024F40000283ED01F49204A08
:103C2000096800BF00BF00BF00BF00BF00BF00BFEA
:103C300000BF91422FD000BF00BF00BF00BF00BF38
:103C400000BF00BF00BF00BF00BF00BF00BF00BF7C
:103C500000BF00BF00BF00BF00BF00BF00BF00BF6C
:103C600000BF00BF00BF00BF00BF00BF00BF00BF5C
:103C700000BF00BF00BF00BF00BF00BF00BF00BF4C
:103C800000BF00BF00BF00BF00BF00BF00BF00BF3C
:103C900000BF00BF00BF401EC3D170475C000020C2
:103CA0000024F4004907090E002806DA00F00F028C
:103CB00002F1E02282F8141D03E000F1E02282F814
:103CC000001400F01F02012191404009800000F122
:103CD000E020C0F88012C0F8001170472DE9F041D3
:103CE000044600792D4F904607EB40150E46E87EBE
:103CF00010B10820BDE8F081707F28772046FDF7DD
:103D00001FF95FEA080068603169296031D02079C5
:103D100096F81C8007EB40104FF4A276007F002835
:103D2000206814D04FF4887102F074FD4FF4907144
:103D3000206802F06FFD4FF49271206802F06AFD76
:103D40003146206802F066FD1549206809E04FF40D
:103D50008E7102F04EFD3146206802F04AFD114995
:103D60002068C0F8041320684146000B40B2FFF7FA
:103D700099FF207907EB4010007F0028206801D0D0
:103D8000082100E00421C0F800150020E87528761D
:103D9000A8750121E976A876ACE7000010010020A3
:103DA00010030200800002002DE9F047054600796B
:103DB0003E4C0E4604EB4013187F38B14FF40050D0
:103DC000B0EB164F02D01020BDE8F087284600F077
:103DD0006FF808B11120F7E79A7500279E609F825F
:103DE00028794FF0010804EB40143E46207F00285C
:103DF000286825D04FF49079494602F00BFD4FF426
:103E0000AC7A5146286802F005FD2868A17DA268B9
:103E1000C0F84425C0F848152868C0F808806068D4
:103E2000F0B94946286802F0F0FC804651462868FF
:103E300002F0EBFC58EA0001F3D058BBA7750FE085
:103E40004FF48E7A514602F0D4FC2868C0F80880FE
:103E50002146286802F02CFE61684FF4807089B119
:103E60003046B1E75146286802F0BEFC10B9A08A7E
:103E70004845F7D1A08A484505D02146286802F078
:103E800017FE00E08146A08AA17D8842EAD3A08A7D
:103E9000484501D10F26D1E75146286802F0A4FC1D
:103EA0000028F9D02868C0F80C80C7E7100100206E
:103EB0000079044901EB4010807D002800D00120EA
:103EC000704700001001002070B50179144A0025E8
:103ED00002EB41140168237FC1F800556168C9B144
:103EE000017902EB4111097F0029016801D00D4AD7
:103EF00001E00C4A8C3AC1F8082301680122090B41
:103F000049B201F01F039A404909890001F1E021FB
:103F1000C1F8802102F084FCE576656070BD000088
:103F2000100100201003020070B5124D06464FF03C
:103F300080746868814202D01022FCF77DFA0E4935
:103F40000020C1F8000101220A6001E0641E0ED0C9
:103F5000D1F80021002AF9D0C1F80001A9688E42E9
:103F600003D010223046FCF767FA012070BD002014
:103F700070BD00000000002000E000400549064838
:103F800001F11002C0E900121032826003480160A2
:103F900001207047300100200000002004E50040AF
:103FA0000146024810220068FCF746BA00000020D3
:103FB0002DE9F05F8046102824BF4348FCF77EFBC4
:103FC000B8F1100F24BF4148FCF778FB08EB480616
:103FD0003F49885D002808BFBDE8F09F3D4A701842
:103FE00002EB860B054610F8022F5BF822400278A0
:103FF000521C027090F800C00022BCF1030F28BFD1
:104000000270885D401E8855002C08BFBDE8F09FF7
:10401000DFF8C4A0314FDFF8C890544504BF3148E1
:10402000FCF74CFB3868062824BF2F48FCF746FBFA
:104030000020396800290BD959F82030A34203D158
:104040002A48FCF73BFB0FE0401CC0B28842F3D388
:104050002749002000EB001201EB4202A24206D0E9
:10406000401CC0B20628F5D32248FCF727FB38686D
:1040700059F8200050451CBF1F48FCF71FFB38684B
:1040800049F82040401C3860B8F1100F24BF0F4899
:10409000FCF714FB0E48815D002908BFBDE8F09FC6
:1040A000A978AB785BF82140A91C5B1CAB70AB789E
:1040B000032B24BF00220A70815D491E8155002C0C
:1040C000ABD1BDE8F09F0000D7000300A6000300BD
:1040D00074080020A4080020ADDEADDEB40000208E
:1040E00064090020DB00030085000300F6000300E4
:1040F0007C090020860003008800030070B51B4E79
:1041000004463068062824BF1948FCF7D7FA002176
:104110003268184D002A0BD955F82130A34203D13B
:104120001548FCF7CBFA0FE0481CC1B29142F3D31B
:10413000124A002101EB011002EB4003A34206D01A
:10414000481CC1B20629F5D30D48FCF7B7FA306810
:104150000C4955F8200088421CBF0B48FCF7AEFA0A
:10416000306845F82040401C306070BDB40000202D
:104170008500030064090020F60003007C0900208C
:1041800086000300ADDEADDE880003000148006854
:1041900070470000B400002010B50446102824BF6A
:1041A0000348FCF78BFA04EB44000249085C10BD9D
:1041B000C80003007408002030B40020144A0146EF
:1041C00000EB400303EB020C8CF801108CF802109A
:1041D000D154401C1028F3D30E4C002104F1180CCC
:1041E0005FF0DE0201EB01100CEB400344F82130DC
:1041F00000201D181A54801C6A702228F9D3491C0B
:104200000629EFD304490620086030BC704700003F
:104210007408002064090020B400002070B5002458
:104220000546102824BF1148FCF748FA05EB450362
:104230000F4AD05CC0B1991802F1300011F802CFDA
:1042400000EB830050F82C4091F800C00CF1010CF9
:1042500081F800C091F800C0BCF1030F24BF00201A
:104260000870D05C401ED054204670BDA6000300EC
:104270007408002070B50D460446102924BF234859
:10428000FCF71CFA0022224816460068002888BF66
:1042900020490BD951F822C0A44503D11E48FCF790
:1042A0000DFA0FE0521CD2B28242F3D31B48002217
:1042B00002EB021100EB4103A34206D0511CCAB22B
:1042C000062AF5D31648FCF7F9F9164B05EB45021B
:1042D000985C032824BF002070BD1348D11800EB60
:1042E000820011F801CF40F82C4091F800C00CF189
:1042F000010C81F800C091F800C0BCF1030F28BF89
:104300000E70985C401C9854012070BD8F00030013
:10431000B400002064090020F60003007C0900209E
:104320009000030074080020A408002010B5044683
:10433000102824BF0948FCF7C1F904EB44000849E0
:104340000A5C002A04BF002010BD064A02EB80026E
:104350000844807852F8200010BD0000B700030028
:1043600074080020A4080020184B10B51968002418
:1043700049B3174ADFF85CC002EB810050F8044CE7
:1043800040F804CC481E4FF0000118600CD000BF6C
:1043900052F821C0A44503D10F48FCF78FF90FE074
:1043A000491CC9B28142F3D30C48002101EB011230
:1043B00000EB4203A34206D0491CC9B20629F5D33B
:1043C0000748FCF77BF9204610BD0000B400002030
:1043D00064090020ADDEADDEF60003007C0900209C
:1043E0007D00030000487047488000400048704747
:1043F0004081004001480078704700009400002090
:1044000070B5124E01247460F460114800250560F7
:1044100074641048006800281CBF0F48FCF74EF970
:104420004FF0FF30C6F80803C6F840510B4904208E
:1044300008600B48456004704570857088154FF022
:10444000E021C1F88002C1F8000170BD0080004089
:104450000885004044850040350004001085004078
:1044600094000020034901200860034900200870DF
:1044700070470000008000409400002007480121A0
:104480004160C160064800224FF0E02C426042705B
:104490000B02CCF8803282700170704700800040BF
:1044A00094000020014840787047000094000020EC
:1044B00030B541EA4201DDE9034541EA830180006C
:1044C00041EA042100F1A04041EA0541C0F800178B
:1044D00030BD1CB5002100910B4601220191FFF770
:1044E000E7FF1CBD1CB500220B460092114601924D
:1044F000FFF7DEFF1CBD1CB5002100910B46012219
:1045000001911146FFF7D4FF1CBD800000F5E0606B
:1045100000F1A040026822F440320260026842EAE0
:104520000141016070470000034908B508440021BB
:1045300001600068009008BD0060004002494058DA
:10454000012800D000207047006000402DE9F041B4
:10455000294C164688460746082804D304202070B4
:104560000020BDE8F081B8F1000F06D0202E09D957
:10457000062020700020BDE8F0810320207000207C
:10458000BDE8F08100F092FB032804D309202070DD
:104590000020BDE8F081384600F07AFB032804D300
:1045A0000A2020700020BDE8F08100F069FB02289D
:1045B00004D2082020700020BDE8F08100F0CAFC81
:1045C000054606704078324640F00100687041466A
:1045D000A81CFBF731FFF8B2294600F073FC002855
:1045E0001CBF0120BDE8F0810448FCF767F80F20EC
:1045F00020700020BDE8F08160000020DD00050093
:104600000149002048607047B40600200348C1609B
:104610000261012141700021817070474600002035
:104620000348C16002610121417081707047000040
:104630004600002010B500F031FC18B1BDE8104074
:10464000FCF7DBBCBDE8104000F042BA05488168C9
:1046500019B9022101700020704710B500F076FAF8
:10466000012010BD600000202DE9F04116460F46E4
:10467000044600F00DFB1A4D60B187B1204600F0F2
:1046800067FC0078316881420ED206202870002035
:10469000BDE8F0810B2028700020BDE8F0810320E8
:1046A00028700020BDE8F081204600F001FC0400E5
:1046B00018BF14F102000BD0227801463846326050
:1046C000FBF7BAFE204600F0D1FA0120BDE8F081E8
:1046D0000448FBF7F3FF0F2028700020BDE8F081AD
:1046E000600000200501050010B5082804D3054925
:1046F00004200870002010BDC0B200F093FA012021
:1047000010BD000060000020094910B58A68527E83
:104710001AB10C200870002010BD082803D3042013
:104720000870002010BDC0B200F086FA012010BD54
:1047300060000020014840687047000060000020D1
:10474000014800787047000060000020082804D36A
:10475000034904200870401F704700F099BA000018
:104760006000002000F096BA0148406870470000E1
:10477000B406002000F094BA10B5012400F098FAB5
:10478000F02808BF052414D008DC90B1042808BF25
:1047900000240ED0EC2808BF06240AE0F42808BF45
:1047A000042406D0F82808BF032402D0FC2808BF40
:1047B0000224204610BD70472DE9F047434C804647
:1047C000002543482570E5600560456085604148E7
:1047D00000F074FA0127A060002872D0407E022603
:1047E000626804F11001012808BF26701FD0102A4A
:1047F0001BD8100019D03848FBF71EFE36486168F8
:1048000000F0C6FB4FF00109B8F1000F12D0B8F16B
:10481000010F08BF022011D0B8F1020F1CBF052004
:1048200020704FF0000009D00BE0072020704FF0FF
:104830000009E9E7012000F027FC01E000F024FC7A
:10484000012000EA0908042000F08EFBA168002086
:10485000497E00291CBF2670284602D100F092FB39
:104860003846A16800EA08080020497E00291CBFDC
:104870002670284602D100F019FD384600EA0808E3
:10488000A068407E00281CBF2670284603D1012066
:1048900000F098FB3846A16800EA08080020497E2D
:1048A000002918BF267002D100F00AFD3D4605EA36
:1048B0000805012000F0A4F9002D1CBF0120BDE86F
:1048C000F08727700020BDE8F0870000600000201E
:1048D000B40600208D390000700000200148806877
:1048E000407E70476000002070470000094A10B504
:1048F00093685B7E1BB102201070002010BD082859
:1049000003D304201070002010BD00F077FC0120BC
:1049100010BD000060000020064910B58A68527E74
:104920001AB102200870002010BD00F0EFFB01203A
:1049300010BD000060000020064910B58A68527E54
:104940001AB102200870002010BD00F01BFC0120ED
:1049500010BD00006000002010B5114CA268527E0E
:10496000012A11D0102913D891B1A8B10A4661606B
:10497000014604F11000FBF75FFD04F110006168CF
:1049800000F006FB012010BD02202070002010BDA9
:1049900007202070002010BD03202070002010BDD3
:1049A00060000020064910B58A68527E1AB10220C4
:1049B0000870002010BD00F061FB012010BD000058
:1049C00060000020064910B58A68527E1AB10220A4
:1049D0000870002010BD00F05DFC012010BD00003B
:1049E00060000020064910B58A68527E1AB1022084
:1049F0000870002010BD00F053FC012010BD000025
:104A000060000020124910B58B68024600205B7ED2
:104A10001BB102200870002010BD072A14D2DFE865
:104A200002F0040F06080A0C0E00042008E0FC2027
:104A300006E0F82004E0F42002E0F02000E0EC20A2
:104A400000F034FC012010BD0E200870002010BDC5
:104A50006000002010B5FFF741FF002806D0FFF7E7
:104A6000E9FD30BFFFF73AFF0028FBD110BD000081
:104A700038B50446012181F31088202505E06A46F7
:104A8000064920460095FFF7EFFD2046FFF75EFE42
:104A90000028F4DC002080F3108838BD7806002060
:104AA000014900204870704746000020014900205D
:104AB0008870704746000020014840787047000029
:104AC0004600002001488078704700004600002022
:104AD00010B5012080F310881748417E002927D0A7
:104AE000817829BB01248470FFF784FC01281FD141
:104AF00001F05EFE00281CBF1048FBF7DFFD00221E
:104B000064210F48FBF7DCFD0E48007F70B90E48AA
:104B1000046000210007C0F80011046000BF00BF5E
:104B200000BF00BFD0F800110029FBD0FFF79AFCAE
:104B3000002080F3108810BDF40600202C06090028
:104B40008D670000C00600201405004070B5234D9D
:104B5000687E002818BF70BDFEF782FC204CA0685C
:104B6000002804BF1F48FBF7A9FD6068002804BFA8
:104B70001D48FBF7A3FD01F015FE00281CBF1B48D4
:104B8000FBF79CFD002001F021FE01246C76FFF76D
:104B900031FC012818BF70BD01F00AFE00281CBFBF
:104BA0001348FBF78BFD002264211248FBF788FDB8
:104BB0001148007F70B91148046000210007C0F857
:104BC0000011046000BF00BF00BF00BFD0F800119B
:104BD0000029FBD0BDE87040FFF744BCF40600207C
:104BE000280700205E0209005F0209006602090032
:104BF0002C0609008D670000C00600201405004047
:104C000010B5044604484068002804BF0348FBF779
:104C100055FD0348047510BD80000020F60309000F
:104C20001007002010B5012181F3108801F072FCFB
:104C3000002080F3108810BD10B50446012181F3D7
:104C4000108808490A78002A1FBF487E00280648B5
:104C5000FBF734FD204601F061FC002080F3108852
:104C600010BD0000F4060020FA02090010B5012171
:104C700081F3108801F06CFC002080F3108810BDD7
:104C800001F068BC0148408B70470000C00600205E
:104C900001F074BC0148406970470000C006002064
:104CA0000148406870470000C006002001F070BC59
:104CB000014890F830007047C00600202DE9F04709
:104CC0000446012080F310886B4D4FF00309002645
:104CD000687085F80090AE706E60AE60AE81EE8157
:104CE0002E6107466E612E7605F11C006E76066019
:104CF00046608660C660066100F118080675C8F84F
:104D00000860C8F80460FFF77BFB204601F074FAE6
:104D100001F040FC002001F051FD05F13400FEF7E8
:104D2000FBFE564880F80064C01F80F800645449B8
:104D3000202081F80004012087F310882978A5F14C
:104D40003404012928D06870687E20B1FFF752FB37
:104D5000012803D020E001F0D9FF1DE001F028FD7B
:104D600000281CBF4748FBF7A9FC002264214648E5
:104D7000FBF7A6FC207F68B9444807600007C0F82D
:104D80000061076000BF00BF00BF00BFD0F8001186
:104D90000029FBD0FFF766FB002080F31088FF207E
:104DA0002061042161773A4820623A48606284F8C1
:104DB0002870022084F8290084F82A9084F82B10A7
:104DC000052184F82C10062184F82D10072184F881
:104DD0002E10082184F82F1084F8306084F83100F8
:104DE00084F832701E2161614FF416716160E060D9
:104DF0002A78022A06D06968002904BFA168C8F889
:104E0000001001D0C8F800000F21A160022A05D0CF
:104E10006A68002A08BFC8F8001001D0C8F800006E
:104E2000002060830120207660760020207701F04A
:104E300029FC69202060687801281CBF1648FBF710
:104E40003DFC2F70AE706E60AE60AE81EE812E6163
:104E50006E612E766E76FEF703FB4FF0E0204FF486
:104E60008071C0F880124903C0F8801286F3108860
:104E70000148BDE8F0870000F406002008E000E0EB
:104E800015E000E02C0609008D67000014050040C5
:104E900004070A0D05080B0E3C0209000348407E7A
:104EA00000280CBF0120002070470000F4060020FD
:104EB00010B5012181F3108801F0A2FB002181F3DC
:104EC000108810BD10B5012282F3108801F09BFB01
:104ED00000282ED01948817831BB407E20B3FFF7DF
:104EE00089FA012820D101F063FC00281CBF144876
:104EF000FBF7E4FB002264211248FBF7E1FB1248B8
:104F0000007F78B911480121016000220007C0F834
:104F10000021016000BF00BF00BF00BFD0F800113A
:104F20000029FBD0FFF79EFA002080F310880120B3
:104F300010BD002080F3108810BD0000F406002092
:104F40002C0609008D670000C006002014050040F3
:104F500001F06ABB10B5012080F3108801F067FBF7
:104F6000002181F3108810BD0449487704490A687C
:104F700022F4E02242EA004008607047C0060020A8
:104F8000181500400149087670470000C00600204F
:104F900070B50C00054604BF0748FBF78FFB002DDA
:104FA00004BF0648FBF78AFB0548C0E90145BDE898
:104FB00070400020FEF7C2BD480309004903090004
:104FC000280700202DE9F0011F49224B204A1C1D13
:104FD00081F83200251D1D49DFF87CC02E1DDFF849
:104FE0007C80371DA0B1012820D002281CBFBDE85D
:104FF000F0017047022008601A601948C4F800C028
:10500000286018483060C7F80080BDE8F00170479C
:10501000002008601A601448C4F800C028601348D3
:105020003060C7F80080BDE8F001704701200860DB
:105030001A600F48C4F800C028600E4830600E485F
:105040003860BDE8F0017047C00600201015004030
:1050500000500078241700404E0000543E420F825A
:1050600008800C608864720003800C602264720007
:1050700002800C6011646600DEC08F8201494883A3
:1050800070470000C006002010B5012181F3108890
:1050900019490A7882422BD04870487E20B1FFF728
:1050A000A9F9012803D023E001F030FE20E001F04F
:1050B0007FFB00281CBF1148FBF700FB0022642186
:1050C0000F48FBF7FDFA0F48007F78B90E48012121
:1050D000016000220007C0F80021016000BF00BF8E
:1050E00000BF00BFD0F800110029FBD0FFF7BAF9CC
:1050F000002080F3108810BDF40600202C06090063
:105100008D670000C0060020140500401B4930B424
:1051100000231A464FF0180C0862D10020FA01F162
:10512000C9B2002401F0010544EAC514C1F34005E9
:1051300044EA8514C1F3800544EA4514C1F3C0056F
:1051400044EA0514C1F3001544EAC504C1F340154F
:1051500044EA8504C1F3801544EA450444EAD111C8
:1051600054420CEBC404A1400B43511CCAB2042AA4
:10517000D3D30348036030BC70470000C006002052
:105180001C1500401B4930B400231A464FF0180C80
:105190004862D10020FA01F1C9B2002401F00105F2
:1051A00044EAC514C1F3400544EA8514C1F38005FF
:1051B00044EA4514C1F3C00544EA0514C1F30015DF
:1051C00044EAC504C1F3401544EA8504C1F38015DF
:1051D00044EA450444EAD11154420CEBC404A14012
:1051E0000B43511CCAB2042AD3D30348036030BC1A
:1051F00070470000C00600202015004008283ED25D
:10520000204AFF2302444FF0000C82F82810820746
:10521000D20E03FA02F201F001034CEAC313C1F308
:10522000400C43EA8C13C1F3800C43EA4C1CC1F3DD
:10523000C0034CEA031CC1F300134CEAC30CC1F3D6
:1052400040134CEA830CC1F380134CEA430343EA56
:10525000D1118307DB0ED2439940042807D20A48B4
:1052600003681A40026002681143016070470748F2
:1052700003681A40026002681143016070470448E5
:10528000FBF71CBAC006002024150040281500407A
:10529000390309000149486170470000C006002039
:1052A0000149486070470000C0060020024981F8AB
:1052B0003000024908607047C00600200C1500400D
:1052C0000149087770470000C006002070B51148FA
:1052D000114C4068407D28B1012000F0BBFCA08942
:1052E000401CA0810D49002630460E600C494A68DA
:1052F0000968551A01F06AFA6069A84224BF094892
:10530000FBF7DCF960690122291A0748FBF7D8F995
:10531000666170BD80000020F406002054F5014055
:10532000C00600204D0609008D6700002DE9F04FF2
:10533000F84CDFF8E483F94F606983B004F1340A74
:105340004FF001090025A4F1340610B9FFF7AAF8BF
:10535000D0B1606800281CBF401E60602078022821
:1053600004D06168002908BFB16800D0F168CAF8AC
:105370000010A178002900F0EF81FEF797FB03B041
:10538000BDE8F04FFDF7E6BA2078012802D00228E8
:1053900006D00CE000F054FC002840F0198206E032
:1053A00098F80000042818BF032800F01182FEF7C7
:1053B0007DFB606800281CBF401E606020780228CA
:1053C00004D06068002808BFB06800D0F068CAF850
:1053D0000000A078E8B1FDF7BDFA00BF00F002FFC1
:1053E0000228C0F0B38100204FF0030C8DF800C0FC
:1053F0008DF80100ADF808000190ADF80A008DF8B5
:1054000002508DF80350684600F0AEFE03B0BDE8D0
:10541000F08F01F07BFC88B10020766801F0D6F9AE
:105420006069B04224BFBE48FBF748F960690122B9
:10543000311ABC48FBF744F96561CFE720780028B2
:1054400000F0348101281AD0022800F01381B648F8
:10545000FBF734F9707E0128C0D120780228BDD036
:1054600061680029BAD14FF08047002800F04281DE
:10547000012800F02781AD48FBF720F9AEE700F0E6
:10548000B7F901F07FF8DFF8A8A20AF1040B28B3FE
:10549000708B00287ED0A18981427BD3012100201E
:1054A00000F0CEFF4FF0010801F05CF80746B4F8B9
:1054B0000CA0B4F80EB001F05BF88DF800808DF808
:1054C0000100ADF808A08DF802500197ADF80AB0C0
:1054D0008DF80350684600F047FE9CE000F082FE25
:1054E000022876D32078022801D0606818B1FEF730
:1054F0000DFB60B38FE02069FEF720FB0020FEF774
:1055000031FB01F0E7F8002863D0A581E58101F0C7
:105510002FF88849086001F02BF809FA00F1864855
:10552000016001F01FF88549086001F015F8834912
:1055300048608348C860FEF7CFFA386001F022F86F
:10554000012870D001F01EF8022857D053E0307EB9
:1055500030B301F0BFF8E0B3A581E58101F008F8B0
:105560007449086001F004F809FA00F1724801601A
:1055700000F0F8FF7149086000F0EEFF6F494860E5
:105580006F48C860FEF7A8FA386000F0FBFF0128FA
:1055900066D000E048E000F0F5FF02285ED02AE087
:1055A000FEF7AEFA2169884235D101F093F880B157
:1055B000A581E58100F0DCFF5E49086000F0D8FFBE
:1055C00009FA00F15C48016000F0CCFF5B4908601B
:1055D00000E020E000F0C0FF584948605848C8602B
:1055E000FEF77AFA386000F0CDFF012838D000F0DD
:1055F000C9FF022832D05348FBF760F82EE000BF05
:1056000000F0A8FAFEF7F2FECAF80000D8F804008D
:105610004068CBF800000120376801F0D7F86069D6
:10562000B8421FD349E01BE0FEF73CFF00281CBF37
:105630004548FBF743F8FEF74FFA3968884202D035
:10564000E089401CE081FEF747FA386000F09AFFDD
:10565000012805D000F096FF0228CCD10020CFE72A
:105660000120CDE760690122391A2E48FBF728F89E
:105670006561EFE64FF0000AFEF72EFA39688842BE
:1056800004D0FEF729FA38604FF0010A98F80010AC
:10569000AAF10100084208BFFCF77EFF00207768EE
:1056A00001F094F86069B842DCD306E00020776826
:1056B00001F08CF86069B842D4D31948FAF7FEFFBC
:1056C000D0E700BF00F05EFF00287FF487AE01F056
:1056D00057F800287FF482AEFEF78CFE01283FF4D5
:1056E0007DAEFEF7CBFE307F70B900BFC7F80490E7
:1056F0000AE000BFFEF77EFE01283FF46FAEFEF722
:10570000BDFE307F0028F1D0002001F05FF8656019
:1057100064E60000F4060020800000200815004028
:105720004D0609008D670000580409007204090045
:1057300050F501402C1500403015004010070020A6
:10574000C92700001E0609000A05090003B0254804
:10575000BDE8F04FFAF7B2BF022809D0FEF7A6F96C
:105760000020766801F032F86069B04223D225E06B
:1057700098F80000042818BF032829D0FEF796F9EE
:105780004FF00009FEF7A8F93968884204D0FEF707
:10579000A3F938604FF0010998F80010A9F1010051
:1057A000084208BFFCF7F8FE0020766801F00EF80A
:1057B0006069B04202D30C48FAF780FF60690122A9
:1057C000311A0A48FAF77CFF656103B0BDE8F08F33
:1057D00070684108616103B00122BDE8F04F0348E1
:1057E000FAF76EBF8C0409004D0609008D670000B2
:1057F00030B44FF0E02401204FF0020C0021C4F837
:1058000080C1724A851EC2F80853C4F880C2C2F82B
:105810000012C2F81011106190616D4B18780128C8
:1058200008BF06205AD0022816BF032802200120F4
:105830007ED0401E00BF00BF00BF00BF00BF00BF42
:1058400000BF00BF00BF00BF00BF00BF00BF00BF60
:1058500000BF00BF00BF00BF00BF00BF00BF00BF50
:1058600000BF00BF00BF00BF00BF00BF00BF00BF40
:1058700000BF00BF00BF00BF00BF00BF00BF00BF30
:1058800000BF00BF00BF00BF00BF00BF00BF00BF20
:1058900000BF00BF00BF00BF00BF00BF00BF00BF10
:1058A00000BF00BFC5D100BFC2F810111970C2F807
:1058B0000012C2F80853C4F880C2C2F80C110320C9
:1058C0005870C2F80011C2F81011C2F804115960E2
:1058D00019755975C4F800C130BC7047401E00BF2F
:1058E00000BF00BF00BF00BF00BF00BF00BF00BFC0
:1058F00000BF00BF00BF00BF00BF00BF00BF00BFB0
:1059000000BF00BF00BF00BF00BF00BF00BF00BF9F
:1059100000BF00BF00BF00BF00BF00BF00BF00BF8F
:1059200000BF00BF00BF00BF00BF00BF00BF00E05E
:1059300011E000BF00BF00BF00BF00BF00BF00BF3D
:1059400000BF00BF00BF00BF00BF00BF00BF00BF5F
:1059500000BFC3D1A8E7401E00BF00BF00BF00BF0B
:1059600000BF00BF00BF00BF00BF00BF00BF00BF3F
:1059700000BF00BF00BF00BF00BF00BF00BF00BF2F
:1059800000BF00BF00BF00BF00BF00BF00BF00BF1F
:1059900000BF00BF00BF00BF00BF00BF00BF00BF0F
:1059A00000BF00BF00BF00BF00BF00BF00BF00BFFF
:1059B00000BF00BF00BF00BF00BF00BF00BF00BFEF
:1059C00000BF00BF00BF00BFC5D16DE700100040A1
:1059D000340700202DE9F0413D483F4E0322036982
:1059E00000253C4C3168012B06D0022B56D0BDE877
:1059F000F0413A48FAF762BE0423037083695B1CE6
:105A00008361C4F8002201274FF0E0280222C8F881
:105A10008022C4F80C51C4F80051C4F81051C4F8E5
:105A200004510822C4F80423097D89B12C4909686E
:105A300081752C48006810F4806F04BF2A48FAF77B
:105A40003DFEC4F81C51A76128494FF480600860EE
:105A5000D4F8000100281CBF2548FAF72FFED4F81F
:105A60000C0100281CBF2348FAF728FED8F80002D2
:105A700010F0020F1CBF2048FAF720FE3068C06803
:105A8000002818BF80473068417D002908BFBDE865
:105A9000F081006819490860BDE8F081C4F80C5134
:105AA000C4F81051C4F80051C4F80451C4F80052AD
:105AB00005704FF0FF33C4F8083342704560057538
:105AC0000869002808BFBDE8F081BDE8F041004743
:105AD00034070020001000409C000020E7020A006C
:105AE0004815004000F50140AD020A0008F50140EC
:105AF000B6020A00B7020A00B8020A000415004004
:105B000070B50F4902254FF0E02608600024C6F862
:105B100080510D490B480860091F0C48086006F5C4
:105B2000C076FFF765FE0A480321047041704460A7
:105B3000046104754475847546F8805C70BD00008E
:105B40009C0000201410004064F501400411004046
:105B5000340700202DE9F04705462E482E4C00EB77
:105B60000517207D00281CBF2C48FAF7A7FD00264A
:105B70004FF0010A002D1CBF012D022D2DD0284809
:105B8000FAF79CFD2748FAF799FDDFF89C806675C7
:105B90004FF0FF30C8F808034FF0E0210220C1F8B1
:105BA0008002DFF888906570032DD9F80000016845
:105BB000A1604268C4E90326A661386860601BD210
:105BC000387AC8F80002FB7A194853B102600068BD
:105BD000002808BF17480AD00BE020780028D1D150
:105BE000D3E701600068002808BF134801D1FAF725
:105BF00065FD787AC8F80403D9F80000007D28B163
:105C0000022D03D10D49A6756802086084F815A01D
:105C1000BDE8F087A46E000034070020DB000A0016
:105C2000F9020A00DD000A00001000409C0000207C
:105C30000415004005010A0000010A0004F50140B6
:105C40000348D0F80401012818BF00207047000065
:105C5000001000402DE9F041214C074621486578AD
:105C600000EB0516607D01281CBF1F48FAF726FDD2
:105C7000207D00281CBF1D48FAF720FD01200021CF
:105C800020756175032D09D2002F04BF31680860AB
:105C9000022D12BF012DB07A207002E01448FAF7ED
:105CA0000DFD14480068007D002808BFBDE8F081A4
:105CB000022D18BFBDE8F0810F48006810F4806F16
:105CC00004BF0E48FAF7FAFC0D480068002818BF18
:105CD000BDE8F0810B48BDE8F041FAF7EFBC0000E9
:105CE00034070020A46E000021010A0022010A00EE
:105CF0003A010A009C00002004F5014040010A001E
:105D00000415004041010A0000487047815D000011
:105D100030B5184C054689B0207828B160788542A6
:105D200002D1002009B030BD202213496846FAF79D
:105D300083FB00208DF814000620009008200190BD
:105D400005200390072002904FF0EB700690094861
:105D5000001DFEF7B9F80DB1002200E0074A054822
:105D60006946001DFDF7BAFF0028DBD10120207035
:105D70006570D6E7300000204C6E0000ED6A000030
:105D80002DE9F04FC1B00D00DDF82CB14D984FF06A
:105D900000011C4690460BEB000A409101D00A26F8
:105DA00000E0002600F0AAFD002873D16F46BCB9C0
:105DB000409840AA3918284600F062FE002869D0B1
:105DC0004046FAF75DFBC22800D9C220054640983C
:105DD0002A4638444146FAF72FFB40982844409021
:105DE0004FF020094098821931320DEB02016844CE
:105DF000002202E000F8019B521CB242FAD30027B5
:105E0000544508D300F8019B00F8019B00F8019B62
:105E100001F8019B26E05C4502D24A9A125D03E03C
:105E20004C9AA4EB0B03D25C84460125AB0022FA0A
:105E300003F808F00F03092B01D9373300E03033A2
:105E4000C5F101086D1E0CF80830EFD20CF102000C
:105E5000A2F1200300F8019B5E2B00D92E2201F84D
:105E6000012B641C7F1C102FCAD30D220A700A223A
:105E70004A7080F8009040988119433168464091FB
:105E800000F042FD30B100F039FD18B9002040901B
:105E90005445A7D341B02046BDE8F08F2DE9F0432B
:105EA000C5B000251C46904689464C9F449500F09D
:105EB00025FDB0BB449804AE311844AA484600F012
:105EC000DFFD00282ED0072F22D2DFE807F00412D2
:105ED000192E384451004046FAF7D2FA0546449844
:105EE0002918FF2914D830442A464146FAF7A4FA63
:105EF0000EE04498226830444146FAF785FF06E0F8
:105F0000D4E90023449841463044FAF77DFF054622
:105F1000294644A8FBF768F818B14499B1F5807F89
:105F200033D9002045B0BDE8F083A0680090D4E9E3
:105F30000023449841463044FAF766FFE7E7D4E986
:105F40000201CDE90001D4E90023449841463044E0
:105F5000FAF75AFFDBE704F1080007C88DE80700ED
:105F6000D4E90023449841463044FAF74DFFCEE788
:105F700004F108000FC88DE80F00D4E9002344980D
:105F800041463044FAF740FFC1E704A800F0BCFCEA
:105F9000C8E70000004870479D5E00000120FFF741
:105FA000B7BE00002DE9F04F87B0FCF7A5FB18B194
:105FB000002007B0BDE8F08F454ED6E9014704EA5E
:105FC000070006EB8000A146641CC5680CE000BF1A
:105FD000C5F3891000EB9550044404EA070006EB72
:105FE0008000A146C568641CA807F1D005F0030035
:105FF0004FF0000B022805D0AA0A01A8C5F38313AD
:10600000002153E004EA070006EB800004F1010AD6
:106010000AEA0704C268381B80004FEA9558001D41
:10602000C5F38913804521D929490C3138B106EBD4
:10603000840400F0FF0CA8EB00000C3404E00C46D4
:10604000002108F0FF0C0846C0B2CDE90210CDE9EE
:10605000004CD6F81444C5F3C2005946A047404549
:1060600011D108F103080AEB98042AE0002106EB9D
:1060700084000C300090CDE901810391C5F3C2008A
:10608000D6F81444EAE760F38F1509EA070006EB37
:106090008000C56016E000BF04EA070C06EB8C0C1C
:1060A000491CDCF80CC040F804CB641C9942F3D3C3
:1060B000C5F3C2000093D6F8105401AB5946A84767
:1060C00000B17460FCF718FB80F0010071E700007C
:1060D00060020020034AFF23936000231360536093
:1060E00000F028B8600200202DE9F047DFF83C807E
:1060F0000446002689463046D8F80870D8F8005083
:10610000FCF7CAFA00280ED0094800213D4040683B
:1061100061F3820064F3C50066F3891008EB850122
:1061200069F39F20C860BDE8F0870000600200208E
:106130006C6E0000024A02F5826203C270470000E2
:106140006002002070B506460020FFF7E1FD040064
:1061500008D1FFF7D9FD0546FFF71CFF3246294657
:10616000FFF7B8FF204670BD70B51B4C0546206890
:10617000002804BF1948FAF7A1FAD4F884000A28C5
:1061800024BF1748FAF79AFAE06F00EB400004EBDF
:1061900080012878087168784871A8788871E87853
:1061A000C87168688860288988816889C881D4F83E
:1061B0008400401CC4F88400E06F401CE067E16F7D
:1061C00000200A2928BFE0674FF400104FF0E021BB
:1061D000C1F8000270BD00005807002034000B0019
:1061E00035000B000348D0F88400C0F10A00C0B2AB
:1061F000704700005807002010B5040004BF09488C
:10620000FAF75CFA08490C600020C867C1F8800002
:10621000C1F884004FF0E0214FF40010C1F80001F4
:1062200010BD000029000B0058070020094A022178
:10623000116009490B68002BFCD0064B1B1D186030
:1062400008680028FCD00020106008680028FCD0F6
:106250007047000004E5014000E4014010B500F083
:1062600003029043D200FF24944003689140A3436B
:10627000CA18074B0121196006490C68002CFCD094
:10628000026008680028FCD00020186010BD0000E3
:1062900004E5014000E40140F0B515460E4607460E
:1062A000002404E0315D3819FFF7D8FF641CAC42CC
:1062B000F8D3F0BD2DE9FF4F584D83B00327DDE93A
:1062C00010B9E86F4FF000080C464646002804BF9E
:1062D0005348FAF7F3F9287803281CBF5148FAF716
:1062E000EDF9E86F417811F0010F69D195F892004E
:1062F000002818BF4FF0000A62D00398002808BF9A
:10630000042767D0059A304662F31700C1F34101B4
:1063100061F31F6005EB8401896BCBF80060C9F85D
:1063200000600190884257D0E86F002804BF3E48C3
:10633000FAF7C4F904F10801E86F0091FDF79AFF3C
:1063400000281ABF4FF00108EE674FF000080AEA74
:10635000080AB8F1000F3FD0009805EB80010198C2
:106360008861069918EA010F35D03048005D80B386
:106370002046FDF711FF002804BF2D48FAF79EF9CB
:106380002046FDF74BFF009068B195F89000274636
:1063900020B12869B84208BF00F04CF9E81980F82C
:1063A00080602248C6550098CBF80000BBF1000F72
:1063B00008BF204807D0002808BF1F4803D004E0CA
:1063C0004FF0010A99E7FAF779F9184802270655BC
:1063D00002E000E017E00127BAF1000F08BFC9F89A
:1063E00000600DD02046FDF7A1FFC9F8000000288D
:1063F00007BF1248C9F8000001210C4818BF015519
:10640000B8F1000F03D1E86FFDF778FEEE672E704C
:1064100000F010F907B03846BDE8F08FE007002023
:106420005B010C005C010C006F020C00A00000205E
:1064300091010C009A010C0096010C003808002014
:106440002DE9F0412B4C05460F46207801281EBF50
:1064500002282948FAF732F90026002D08BF4FF02C
:10646000040826D0207801281CBF2448FAF726F912
:10647000E068002804BF2248FAF720F9E0680078B5
:10648000002808BF4FF0000813D0E06F65680028AF
:1064900004BF1C48FAF712F905F10801E06FFDF797
:1064A000E9FE00280ABF1848E667FAF707F94FF037
:1064B0000208C7B165682846FDF7B0FE07000CD09A
:1064C00094F8900020B12069A84208BF00F0B2F80B
:1064D000601980F880600D484655A068B8421CBF1E
:1064E0000B48FAF7EBF8267000F0A4F84046BDE838
:1064F000F0810000E0070020FC000C0002010C000D
:1065000003010C006F020C000E010C00A000002023
:106510001E010C000830FDF74BBD000070B50A4DA0
:10652000044695F8900020B12969A14208BF00F007
:1065300081F800202919054A81F88000105520466D
:10654000BDE87040FDF734BDE0070020A00000204A
:10655000FDF7D4BDFDF71ABE0148C06870470000C2
:10656000E00700200148806870470000E007002035
:106570000148406870470000E00700200830FDF740
:106580000BBE00000148007870470000E0070020C3
:10659000FDF702BE70B5FDF70FFE0021164BDFF8C8
:1065A0005CC00846024603EB810460F31F62A261EF
:1065B00001F10802044603EB820560F31F64AC613D
:1065C0005C181A4484F8800082F880000CF80100FE
:1065D000491C0829E6D3187058609860D860186183
:1065E000586183F8900083F8910083F85800D867C9
:1065F000012083F8920070BDE0070020A000002079
:106600000830FDF70BBE70B50E4604460025FDF7B9
:10661000BDFD38B121463046FDF72CFE10B100F02B
:1066200009F80125284670BD0830FDF77FBEFDF74B
:106630009BBE00002DE9F041114C2078002806BFD8
:1066400094F890000028BDE8F08108250126002775
:106650006069FDF7A1FD18B184F890606069206160
:106660006069401C6061082808BF676194F8900069
:10667000002818BFBDE8F0816D1EE9D1BDE8F081AA
:10668000E0070020014981F892007047E0070020F0
:1066900070B50E4D287800281CBF0D48FAF70EF88B
:1066A000E86F10B9FDF760FEE86704000CD0FF202A
:1066B00020706078FF2240F0060060702021A01C4E
:1066C000F9F7CCFE03202870204670BDE0070020BB
:1066D0003B010C0070B5264C207800281CBF2548D3
:1066E000F9F7ECFF94F89000002538B3206960605A
:1066F000FDF71CFEA060002804BF1F48F9F7DEFF6D
:10670000A068407810F0010F08D194F8920000289A
:106710001CBF0220E56001D0207013E060680830E3
:10672000FDF73AFD032809D2E06F10B9FDF71CFE12
:10673000E067E060002818BF0120EDD12078002834
:1067400008BF70BDA068002804BF0C48F9F7B6FF69
:106750002069606004EB8001C87E401CC876A16897
:106760004A7860F342024A7084F89050012070BD6C
:10677000E0070020C3000C00C9000C00E7000C007B
:10678000014890F890007047E00700200448017825
:10679000817041780170001D50F821000047000011
:1067A000A80000200148007870470000A8000020E1
:1067B0000148407870470000A80000200249887016
:1067C0004870087070470000A800002010B504460B
:1067D000022824BF0248F9F771FF0248447010BD37
:1067E0002A000D00A80000204058002800D00120F9
:1067F000704708B5002242504058009008BDD0F8BC
:106800000403084000D0012070474058002800D001
:106810000120704708B5002242504058009008BD42
:1068200070B502464FF0FF301168D1F80C35D1F841
:106830001465D1F80855D1F81045C1F80C05C1F818
:1068400014051168C1F80805C1F810051846FDF7D0
:1068500040FE3046FDF73DFE601C02D02046FDF7AD
:1068600038FE681C04D02846BDE87040FDF731BEF4
:1068700070BD000070B5012670044FF0E0210025C6
:10688000C1F88001084C4010C4F84803C4F808035C
:1068900066602F20FDF77AF9A660044C2F20A560D2
:1068A000FDF774F9A57070BD001001400C000020C8
:1068B00070B50546C87D0C4600284FF48471284603
:1068C0000AD0FFF796FFD5F81805627EE168885474
:1068D000607E401C607670BDFFF78BFFD5F8180511
:1068E00070BD1FB501238DF800308DF8081001929E
:1068F000D0E90012684690471FBD00000148FDF72F
:10690000D7BA00003400002070B50D460A46014693
:1069100001240648F9F790FDEAB204490448FDF75E
:1069200043FA00B10024204670BD00006001002041
:10693000340000202DE9F84F204C00256846D4E9AA
:1069400001B6FBF7E7FF8046FCF7DAFC0746A946ED
:10695000B8F1000F25D00023009ACC46606819E0FA
:1069600007680146974202D9BA1A026014E0C1F8DA
:1069700000C0D1F80C80D21BC8693B448A46B8F1EC
:10698000000F07D0F71827F07F47C1E90178CAF850
:106990001C500D460028E3D160602846FCF704FD3A
:1069A00004E02846FCF700FD00B917B15846FBF794
:1069B000B5FE84F80390BDE8F88F00000C000020BD
:1069C0000D4B10B5596831B102680C68A24204D869
:1069D000A21A0A60C161586010BD0B4603E00B4665
:1069E000C969121B21B10C689442F8D3A41A0C6037
:1069F0000260C161D86110BD0C0000202DE9F0419A
:106A00001D4D6C68002C35D01C4800270068A96813
:106A1000B846401A20F07F462068B04215D822467A
:106A2000361A0744E469107C68B182F81080EB687C
:106A300033B1D2E90501984728B1FAF75FFA02E0CD
:106A4000D2E905108847002CE6D129786878814280
:106A500006D1401CC0B26870022801D185F80180BF
:106A600005486978183040F82170BDE8F0411420DD
:106A7000F9F7C0BEBDE8F0810C000020041501400C
:106A800010B5144602004FF001000AD00846126803
:106A900005A1FAF7B9F901462046BDE81040FAF71A
:106AA000A3BA0021216010BD5B253038645D000071
:106AB00070B50C4605464FF48E71FFF79AFEA18A19
:106AC000A068415CA08A401CA082C5F81C1570BD5E
:106AD0001FB500228DF800208DF808108168019103
:106AE0008275D0E90012684690471FBD00780128E2
:106AF00001D1014988707047300000202DE9FF471F
:106B00000C4605464FF40071FFF779FE01274FF45C
:106B10000178002618B34FF4927949462846FFF7CA
:106B200063FEE0B149462846FFF763FEC5F80883D7
:106B3000A07E00B96F6002208DF80000D5F88004B7
:106B4000C5F880040390E07D8DF80800E0680190AE
:106B5000E6752676D4E900126846904727E00421BE
:106B60002846FFF74CFE10B34FF484712846FFF718
:106B70003BFEE0B121462846FFF79AFEE07D617EAC
:106B8000884214D1207E38B1617EE268E0752069C8
:106B9000E0602676667607E0A07E00B96F60C5F8F3
:106BA0000883E675617EE2682046FFF79AFE4FF49F
:106BB0008E7841462846FFF717FE88B1A08AA17D4E
:106BC000884204D221462846FFF772FF08E041467A
:106BD0002846FFF70EFEA17D11B12046FFF778FF92
:106BE0004FF4A27841462846FFF7FEFD002812D058
:106BF00041462846FFF7FDFDA07E00B12F60E07DF5
:106C0000002808D0E675617EE26804B02046BDE841
:106C1000F047FFF766BEBDE8FF872DE9FF410C4650
:106C20004FF4927705463946FFF7EFFD0026C0B1D5
:106C300039462846FFF7EEFD02208DF80000D5F812
:106C40008004C5F880040390D5F83C058DF8080051
:106C5000E0680190E6752676D4E900126846904710
:106C600024E04FF4887739462846FFF7CEFDE8B197
:106C700039462846FFF7CEFDD5F83C05C1B2E07D88
:106C8000884213D1207E60B1E268D5F8000220F07E
:106C90002000C5F80002207EE0752069E0602676BD
:106CA00001E0E675E2682046FFF71BFE4FF4A2778D
:106CB00039462846FFF7A9FD68B139462846FFF74F
:106CC000A9FDE07D38B1E675D5F83C05E268C1B2B2
:106CD0002046FFF706FE4FF4907631462846FFF730
:106CE00094FD00280FD031462846FFF793FDA07D84
:106CF000002808D0D5F84C0504B0C1B22046BDE844
:106D0000F041FFF7E5BEBDE8FF8100002DE9F0414D
:106D1000404D84B028786978884202BF002004B0D2
:106D2000BDE8F081002808BFFCF79AFB68780024D2
:106D3000F0B939494FF440700860FFF723FC01288F
:106D400018BF022802D0032805D011E00021084610
:106D5000FFF776FB07E0002300941A461946184611
:106D60000194FFF7A7FA04281CBF2C48F9F7A6FCEA
:106D70002B480460FEF73CFD2A4EA6F15007346014
