:020000040000FA
:10000000A0200020150400001D0400001F040000B3
:10001000210400002304000025040000000000006B
:1000200000000000000000000000000027040000A5
:1000300029040000000000002B0400002D04000033
:100040002F0400002F0400002F0400002F040000E4
:100050002F0400002F0400005D0400002F040000A6
:100060002F040000810800002F0400002F0400006E
:100070002F0400002F0400002F0400002F040000B4
:100080002F040000ED0500002F0400002F040000E5
:10009000110600002F0400002F0400002F040000B0
:1000A0002F0400002F0400002F0400002F04000084
:1000B0002F0400002F0400000000000000000000DA
:1000C0002F0400002F0400002F0400002F04000064
:1000D0002F0400002F0400002F0400000000000087
:1000E0000000000000000000000000000000000010
:1000F0000000000000000000000000000000000000
:1001000000000000000000000000000000000000EF
:1001100000000000000000000000000000000000DF
:10040000DFF80CD000F018F800480047DD0C0000C1
:10041000A02000200648804706480047FEE7FEE788
:10042000FEE7FEE7FEE7FEE7FEE7FEE7FEE7FEE7A4
:100430001506000001040000064C074D06E0E068C8
:1004400040F0010394E8070098471034AC42F6D31B
:10045000FFF7DAFF44120000641200002DE9FC5F90
:100460000025DFF83891A8464FF4807601242F4606
:10047000304600F0A7FD38B1D9F80403204203D07C
:10048000304600F095FD2543361D64007F1CB6B252
:10049000082FEDD34FF4BE74204600F093FD38B121
:1004A000204600F085FD3E4845F00045D0F800802C
:1004B0003C4E15F0FF0F15D0012700242F420DD020
:1004C00009EB8401D1F81005D1F81015C0F3042010
:1004D00056F82420C1F3014102B190477F00641C0B
:1004E000082CEBD3002D56DA00200190401E4CE082
:1004F000701910F8501F90F9000021F0C004401C42
:1005000038D0012000FA04FA1AEA090F32D04FEA73
:10051000911B204600F08EFA56F82000009010B98A
:10052000BBF1030F26D15146BBF1030F02D1019855
:1005300008430190A00000F1A040D0F800071AEA9B
:10054000080FC0F3014002D0022802D012E00328B5
:1005500010D1BBF1030F07D102281AD00221204687
:1005600000F018FD7F1CFFB2009818B1009A5946A0
:10057000204690476D1C042DBAD3002F0BD008489D
:100580000068404507D080460198002781463D46D7
:10059000AEE70321E3E7BDE8FC9F000000600040F8
:1005A000100500503C00002000F01F020121914086
:1005B0004009800000F1E020C0F88012704700F090
:1005C0001F02012191404009800000F1E020C0F8A5
:1005D0000011704700F01F02012191404009800086
:1005E00000F1E020C0F80012704700000748002129
:1005F000C0F84011C0F84411C0F84811C0F84C11BF
:10060000C0F80011C0F8041100F0D2BD0010014084
:1006100000F06ABD70B58D480023021D0178101DE1
:100620000124062907D115782D0704D10578C5F3D3
:100630000315032D02D0062904D00FE0854E844D0A
:1006400075670EE015782D0708D10578C5F30315F9
:10065000032D06D0042D04D0052D02D0062909D083
:1006600010E04FF08055D5F844527B4EC5F342352B
:10067000356002E015782D0704D10578C5F3031520
:10068000032D02D0062906D011E0744D2E6826F005
:1006900080762E600EE015782D0708D10578C5F319
:1006A0000315032D06D0042D04D0052D02D00629F4
:1006B0000AD011E04FF08045C5F80C31C5F8103173
:1006C000654D2D1F2B6002E015782D0704D10578AC
:1006D000C5F30315032D02D0062905D00CE05E4AB0
:1006E0000321643211600AE015782D0704D10578E2
:1006F000C5F30315032D02D006290DD06AE0584A30
:1007000005211160564978310C60554908310B605C
:100710003F21121D116002E0117809075AD10078BB
:10072000C0F30310052855D14E4800684E490860B3
:100730004C48001D0068091D08604A4808300068E0
:10074000091D086047480C300068091D08604548CD
:1007500010300068091D0860424814300068091D07
:1007600008604048183000683F49203108603D4823
:100770001C300068091D08603A4820300068091DD7
:100780000860384824300068091D08603548283062
:100790000068091D086033482C300068091D086096
:1007A0003048303000683049403108602D483430DE
:1007B0000068091D08602B4838300068091D086072
:1007C00028483C300068091D086026484030006811
:1007D000091D086021487438016841F47001016006
:1007E000BFF34F8FBFF36F8F4FF01021D1F800028E
:1007F000002803DBD1F80402002822DA1B4A146027
:100800001B480468002CFCD01524C1F80042056880
:10081000002DFCD0C1F8044201680029FCD013600F
:1008200001680029FCD0BFF34F8F0C48F0380168F5
:10083000104A01F4E06111430160BFF34F8F00BF24
:10084000FDE70E490C48086070BD0000E00F00F0A5
:100850000DF0ADBA00C007403C050040FCED00E0E3
:10086000105600400404001020C5004004E501407B
:1008700000E401400400FA050090D0033800002095
:100880002DE9F84300250F4C04274FF4A078BE0350
:100890004FEA050908EB850006FA05F122585AB11E
:1008A000D4F804230A4207D044F800902158064A9D
:1008B00000915168126890476D1CEDB2BD42E9D3BA
:1008C000BDE8F883009000409400002002E008C8D2
:1008D000121F08C1002AFAD170477047002001E0BA
:1008E00001C1121F002AFBD170470000094C0020F3
:1008F0002060251D2860084E271F4FF01308304642
:1009000000F016FA386828EA0001216000F01300B0
:100910002860F4E70805005040420F000EB50021A2
:100920000091CDE901106A4644F20100FFF7DEFFB5
:100930000EBD0000B0F5A07F07D10449487808B982
:100940000220087088684968084770470C0000203A
:100950001CB50C490C4AD1E90201CDE90001002087
:100960008DF801008DF8020004208DF80000694622
:10097000044800F0BFFA002802D1044A0121117096
:100980001CBD000034120000350900000C000020DE
:100990002DE9F843984691460F00054605D0012DF4
:1009A00005D035B10720BDE8F8830E20FBE701260E
:1009B00001E04FF48076154C207810B1032802D066
:1009C00006E00820EFE700F025F808B1FFF7A6FFE2
:1009D0002078022802D10E4800F052FA6570C4E96E
:1009E00001780120009033464A460021084800F073
:1009F0006BFA20780228064805D000F057FA032049
:100A000020700020CFE700F0C1FAF8E70C000020CA
:100A10003412000010B5054C2078032804D1044896
:100A200000F0B0FA02202070002010BD0C00002061
:100A3000341200000249084490F930007047000069
:100A40003C0000202DE9F05F26484168F1B3DFF853
:100A500098B00E688146DBF8004087688078E11B1B
:100A600021F07F45ED1CB0B9DFF880804FF4803075
:100A7000C8F84403C8F804031120FFF795FD1120BE
:100A8000FFF79DFD4FF0010AC8F800A02F2000F0ED
:100A900095F989F802A0B54200D23546124BE81903
:100AA0003C3320F07F401860DBF800105A46091BE9
:100AB00021F07F41001B20F07F40C91C81420FD9EB
:100AC000106818602F2000F079F900E004E0BDE81C
:100AD000F05F1120FFF77EBDBDE8F05F00F07ABA4D
:100AE000BDE8F09F180000200415014000100140EF
:100AF0000E4910B50A784C780023A24212D0521C3D
:100B0000D2B20A70022A00D10B70084A0B78183250
:100B100052F8232002608868104420F07F408860EB
:100B2000012010BD0360002010BD0000180000204F
:100B300010B50C460E490A680D4B20EA02011B1D38
:100B400019601040191D08600A48282141600A21D7
:100B5000816000234CF2503207492046FFF718FF0E
:100B6000002803D0BDE81040FFF7D8BE10BD00003C
:100B70000405005000000020391000002DE9F0436A
:100B8000264CA4F110092278D9F8048099F8035072
:100B9000404694F801C0D9F8086031E002EB420306
:100BA0006168521C01EBC301A378D2B2934200D119
:100BB00000220B78022B02D0032B21D11DE003462B
:100BC0004F68194603E0B94203D00B46C969B9B171
:100BD000F9E7A9B18B4205D1C06918B9104E0125BA
:100BE000B56000260F68C969D96149B10B683B44FB
:100BF0000B6005E00174C06900E000210028F9D114
:100C00009445CBD1C9E9010689F80350404502D08B
:100C10000120BDE8F0830020FBE700002800002051
:100C2000001001402DE9F0412A4F0446002607F14B
:100C30001005D7F804803EE002D02046E4691DE0AC
:100C40002878696800EB4002401CC0B201EBC20189
:100C50002870AA78904200D12E700A784868012A3C
:100C60002BD1027C4ABB8A684260CA6882600A69EA
:100C7000C26049698161F97801B146604368BA6828
:100C8000DFF854C0991A21F07F41614502D2826891
:100C9000114406E0D11A826821F07F418A4202D9CC
:100CA000511A016000E0066046600121866001740F
:100CB000C66100F05FFA002CBED1287869788842BE
:100CC000BED17968414502D00120BDE8F081002005
:100CD000FBE7000018000020FFFF7F00FFF738FE51
:100CE00008B1FFF71BFE00200122032102FA00F3E6
:100CF00013F4C02F04D0830003F1A043C3F80017FE
:100D0000401C2028F2D308494FF4C020086000207E
:100D1000091F0860054800F00BF8002000F078F982
:100D200020BF40BF20BFFBE70C05005040420F0032
:100D300000283ED01F49204A096800BF00BF00BFFD
:100D400000BF00BF00BF00BF00BF91422FD000BF57
:100D500000BF00BF00BF00BF00BF00BF00BF00BF9B
:100D600000BF00BF00BF00BF00BF00BF00BF00BF8B
:100D700000BF00BF00BF00BF00BF00BF00BF00BF7B
:100D800000BF00BF00BF00BF00BF00BF00BF00BF6B
:100D900000BF00BF00BF00BF00BF00BF00BF00BF5B
:100DA00000BF00BF00BF00BF00BF00BF00BF401EAC
:100DB000C3D17047380000200024F40000283ED042
:100DC0001F49204A096800BF00BF00BF00BF00BF25
:100DD00000BF00BF00BF91422FD000BF00BF00BFC7
:100DE00000BF00BF00BF00BF00BF00BF00BF00BF0B
:100DF00000BF00BF00BF00BF00BF00BF00BF00BFFB
:100E000000BF00BF00BF00BF00BF00BF00BF00BFEA
:100E100000BF00BF00BF00BF00BF00BF00BF00BFDA
:100E200000BF00BF00BF00BF00BF00BF00BF00BFCA
:100E300000BF00BF00BF00BF00BF401EC3D170474E
:100E4000380000200024F4004907090E002806DAC3
:100E500000F00F0202F1E02282F8141D03E000F11D
:100E6000E02282F8001400F01F02012191404009A5
:100E7000800000F1E020C0F88012C0F80011704737
:100E800000680121C160704730B54FF480340568B7
:100E90008C4013B1C5F8044301E0C5F8084300686D
:100EA00000EB8100C0F8402530BD00000168012240
:100EB0000A600079034A00EB400002EB8000022147
:100EC0000172704794000020F0B40468049E40F260
:100ED0000115D4F800728D40AF43C4F80072046865
:100EE000D4F800521D43C4F800523346F0BCFFF75B
:100EF000CBBF0000F8B504460D460079204900EB51
:100F0000400001EB8006307A08B10820F8BD3AB104
:100F1000326068687060002003464FF4A07709E0F3
:100F20000720F8BD226807EB800153505158401C40
:100F3000C0B2009161798142F4D82068E978000B51
:100F400040B2FFF781FF20686978D0F8042561F38B
:100F50000102C0F804252068A978D0F8082561F3BB
:100F60000102C0F8082520682978D0F8102561F31F
:100F70000302C0F81025012030720020F8BD0000E7
:100F80009400002000680121416070470068012141
:100F900001607047800000F5E06000F1A040026849
:100FA00022F440320260026842EA01410160704767
:100FB000034908B50844002101600068009008BD9D
:100FC0000060004002494058012800D000207047CE
:100FD0000060004070B5012670044FF0E02100254C
:100FE000C1F88001084C4010C4F84803C4F8080355
:100FF00066602F20FFF7E2FEA660044C2F20A5605C
:10100000FFF7DCFEA57070BD001001401800002045
:1010100008490870087820B1012806D00878FFF741
:101020007DBC00214FF4003001E001218804FFF76E
:101030007FBD00000000002070B528480578284CCE
:101040000A23221D111D1DB1012D22D000781AE0A6
:1010500045686D1E45601AD085686D1E856008D193
:10106000836020684FF400338343136000F4003042
:10107000086000234CF25032AFF243011846FFF7EC
:1010800087FC002816D0BDE87040FFF747BC012060
:101090001FE045686D1E45600DD085686D1E85603A
:1010A00008D1836020684FF480238343136000F4E9
:1010B0008020086070BD4FF4C020086000201060E0
:1010C000FFF7A8FC08B1FFF729FC0648FFF730FE40
:1010D0000020BDE87040FFF79BBF0000000000202B
:1010E0000405005040420F002DE9F84F204C002528
:1010F0006846D4E901B6FFF7FBFC8046FFF73EFDEA
:101100000746A946B8F1000F25D00023009ACC4627
:10111000606819E007680146974202D9BA1A02606E
:1011200014E0C1F800C0D1F80C80D21BC8693B4460
:101130008A46B8F1000F07D0F71827F07F47C1E9BA
:101140000178CAF81C500D460028E3D1606028469B
:10115000FFF768FD04E02846FFF764FD00B917B10A
:101160005846FFF76FFC84F80390BDE8F88F000045
:10117000180000200D4B10B5596831B102680C6899
:10118000A24204D8A21A0A60C161586010BD0B4681
:1011900003E00B46C969121B21B10C689442F8D3D5
:1011A000A41A0C600260C161D86110BD1800002053
:1011B0002DE9F0411D4D6C68002C35D01C480027EE
:1011C0000068A968B846401A20F07F462068B042FF
:1011D00015D82246361A0744E469107C68B182F8B3
:1011E0001080EB6833B1D2E90501984728B1FFF7C9
:1011F00095FB02E0D2E905108847002CE6D129785A
:101200006878814206D1401CC0B26870022801D1C2
:1012100085F8018005486978183040F82170BDE8EC
:10122000F0411420FFF7D6B9BDE8F0811800002086
:10123000041501400090004000040000000000067A
:101240000000000064120000000000203C000000CC
:10125000CC080000A01200003C0000206420000028
:10126000DC0800000000000000000000000000009A
:10127000000000000000000000000000000000006E
:10128000000000000000000000000000000000005E
:101290000000000000000000000000000090D003EB
:0400000500000401F2
:00000001FF
