:020000040001F9
:10F00000984C002015F401001DF401001FF40100CC
:10F0100021F4010023F4010025F4010000000000A8
:10F0200000000000000000000000000027F40100C4
:10F0300029F40100000000002BF401002DF4010070
:10F040001DF701002FF401002DFA01002FF401003B
:10F050002FF401002FF4010041F501002FF401000D
:10F060002FF401002FF401002FF401002FF4010010
:10F070002FF401002FF401002FF401002FF4010000
:10F080002FF4010075F701002FF401002FF40100A7
:10F0900099F701002FF401009DF701002FF4010002
:10F0A0002FF401002FF401002FF401002FF40100D0
:10F0B0002FF401002FF40100000000000000000008
:10F0C0002FF401002FF401002FF401002FF40100B0
:10F0D0002FF401002FF401002FF4010000000000C4
:10F0E0000000000000000000000000000000000020
:10F0F0000000000000000000000000000000000010
:10F1000000000000000000000000000000000000FF
:10F1100000000000000000000000000000000000EF
:10F40000DFF80CD000F05EF80048004765320200DB
:10F41000984C00200648804706480047FEE7FEE774
:10F42000FEE7FEE7FEE7FEE7FEE7FEE7FEE7FEE7B4
:10F43000C1F7010001F4010010B5431A934209D24B
:10F440008318881803E010F8011D03F8011D521EEF
:10F45000F9D210BD40EA01039B0703D009E008C9B7
:10F46000121F08C0042AFAD203E011F8013B00F889
:10F47000013B521EF9D210BDD2B201E000F8012BBF
:10F48000491EFBD270470022F6E710B513460A4624
:10F4900004461946FFF7F0FF204610BD421C10F845
:10F4A000011B0029FBD1801A704730B504460020AB
:10F4B000034600E05B1C934203D2E05CCD5C401B42
:10F4C000F8D030BD064C074D06E0E06840F001037F
:10F4D00094E8070098471034AC42F6D3FFF794FF46
:10F4E0000C6B02002C6B020070B58C1810F8015BDD
:10F4F00015F0070301D110F8013B2A1106D110F8CD
:10F50000012B03E010F8016B01F8016B5B1EF9D1D0
:10F510002B0705D40023521E0DD401F8013BFAE756
:10F5200010F8013BCB1A921C03E013F8015B01F8C1
:10F53000015B521EF9D5A142D8D3002070BD000056
:10F540002DE9FC5F0025DFF83891A8464FF480765E
:10F5500001242F46304604F08FF938B1D9F804035E
:10F56000204203D0304604F07DF92543361D640067
:10F570007F1CB6B2082FEDD34FF4BE74204604F0C2
:10F580007BF938B1204604F06DF93E4845F000455E
:10F59000D0F800803C4E15F0FF0F15D00127002455
:10F5A0002F420DD009EB8401D1F81005D1F81015C8
:10F5B000C0F3042056F82420C1F3014102B1904762
:10F5C0007F00641C082CEBD3002D56DA002001903C
:10F5D000401E4CE0701910F8501F90F9000021F007
:10F5E000C004401C38D0012000FA04FA1AEA090FBE
:10F5F00032D04FEA911B204601F0CAFE56F8200097
:10F60000009010B9BBF1030F26D15146BBF1030F97
:10F6100002D1019808430190A00000F1A040D0F869
:10F6200000071AEA080FC0F3014002D0022802D0F6
:10F6300012E0032810D1BBF1030F07D102281AD022
:10F640000221204604F0FFF87F1CFFB2009818B199
:10F65000009A5946204690476D1C042DBAD3002FBE
:10F660000BD008480068404507D080460198002725
:10F6700081463D46AEE70321E3E7BDE8FC9F00007D
:10F680000060004010050050702A002000F01F02AA
:10F69000012191404009800000F1E020C0F8801273
:10F6A000704700F01F02012191404009800000F1E5
:10F6B000E020C0F88011704700F01F020121914046
:10F6C0004009800000F1E020C0F80011704700F010
:10F6D0001F02012191404009800000F1E020C0F8A4
:10F6E0000011704700F01F02012191404009800085
:10F6F00000F1E020C0F8001270474907090E002809
:10F7000006DA00F00F0000F1E02080F8141D7047C9
:10F7100000F1E02080F80014704700002DE9F0416E
:10F720004FF48077384603F0E1FE0124104EA50720
:10F7300048B1384603F0E1FE0120C5F808037470B3
:10F74000002001F0B5FE4FF48277384603F0CEFE7C
:10F7500000280BD0384603F0D0FE0220C5F808037D
:10F76000B470BDE8F041012001F0A2BEBDE8F08117
:10F770005C2A002007480021C0F84011C0F844115D
:10F78000C0F84811C0F84C11C0F80011C0F80411BD
:10F7900006F03CBD0010014006F0B0BC074810B5B3
:10F7A000406830B18047002807D0BDE8104000F025
:10F7B00029BBBDE8104003F02DBA10BD9C220020EB
:10F7C00070B58D480023021D0178101D0124062903
:10F7D00007D115782D0704D10578C5F30315032D3E
:10F7E00002D0062904D00FE0854E844D75670EE0E7
:10F7F00015782D0708D10578C5F30315032D06D01C
:10F80000042D04D0052D02D0062909D010E04FF0B8
:10F810008055D5F844527B4EC5F34235356002E041
:10F8200015782D0704D10578C5F30315032D02D0F3
:10F83000062906D011E0744D2E6826F080762E60E1
:10F840000EE015782D0708D10578C5F30315032DB3
:10F8500006D0042D04D0052D02D006290AD011E0CF
:10F860004FF08045C5F80C31C5F81031654D2D1F9E
:10F870002B6002E015782D0704D10578C5F3031538
:10F88000032D02D0062905D00CE05E4A0321643224
:10F8900011600AE015782D0704D10578C5F303152A
:10F8A000032D02D006290DD06AE0584A05211160C7
:10F8B000564978310C60554908310B603F21121DC3
:10F8C000116002E0117809075AD10078C0F30310E3
:10F8D000052855D14E4800684E4908604C48001D27
:10F8E0000068091D08604A4808300068091D086062
:10F8F00047480C300068091D086045481030006812
:10F90000091D0860424814300068091D086040481D
:10F91000183000683F49203108603D481C300068BD
:10F92000091D08603A4820300068091D0860384801
:10F9300024300068091D0860354828300068091D1A
:10F94000086033482C300068091D086030483030AA
:10F9500000683049403108602D4834300068091D86
:10F9600008602B4838300068091D086028483C3082
:10F970000068091D0860264840300068091D0860BD
:10F9800021487438016841F470010160BFF34F8F62
:10F99000BFF36F8F4FF01021D1F80002002803DB76
:10F9A000D1F80402002822DA1B4A14601B480468BC
:10F9B000002CFCD01524C1F800420568002DFCD0B5
:10F9C000C1F8044201680029FCD0136001680029D5
:10F9D000FCD0BFF34F8F0C48F0380168104A01F497
:10F9E000E06111430160BFF34F8F00BFFDE70E4997
:10F9F0000C48086070BD0000E00F00F00DF0ADBADB
:10FA000000C007403C050040FCED00E010560040FF
:10FA10000404001020C5004004E5014000E401405A
:10FA20000400FA050090D003B02200200448017FB2
:10FA300004480029024901D006F015BD06F084BC37
:10FA4000C82A00200020004002E008C8121F08C198
:10FA5000002AFAD170477047002001E001C1121F4F
:10FA6000002AFBD1704700000121202803DA8140E1
:10FA70000548014003E0402802DA2038814009B1FE
:10FA80000120704700207047FC06FFBC10B560B134
:10FA900059B102780B785208B2EB530F05D1062208
:10FAA000401C491CFFF701FD08B1002010BD0120DA
:10FAB00010BD2DE9FC47002517880646158090F8F3
:10FAC0002D001446894630B13A462146484600F09A
:10FAD00071FF050009D1B0784FF00C0A18B32088E7
:10FAE000C846001DB84202D95046BDE8FC876846AA
:10FAF00079DF0028F9D12088032108F80010208838
:10FB00001921401C80B2208008F800102088401C79
:10FB100080B2208000EB0801BDF8000006F01BFD5C
:10FB2000218808442080F0780222C8B1218896F903
:10FB3000033001F1030C4846BC45D5D84254218816
:10FB40004FF0010C491C89B2218000F801C02188C6
:10FB5000491C89B2218009F801302088401C20808E
:10FB60007068B8B1218890F9003001F1030C484663
:10FB7000BC45B9D8425421880A22491C89B2218047
:10FB800042542188491C89B2218009F8013020881B
:10FB9000401C2080308950B1CDE900474B460622F9
:10FBA000022106F1080006F02FFD05009DD1308AE4
:10FBB00050B1CDE900474B460722032106F1100062
:10FBC00006F022FD050090D1308B50B1CDE9004701
:10FBD0004B461522142106F1180006F015FD05000C
:10FBE00083D1306A30B13B462246494601F0CAFC17
:10FBF0000500DBD1706A30B13B462246494603F02E
:10FC0000B1FB0500D2D196F82C0038B13B46224614
:10FC10004946304605F058FE0500C7D1307838B166
:10FC20003B4622464946304603F0CEFB0500BDD197
:10FC300028465AE7134A0021535C0BB1012203E026
:10FC4000491C0629F8D300220F49012806D00228B2
:10FC500009D003280CD0042812D10DE0487810B147
:10FC60000AB101207047887810B10AB102207047AC
:10FC7000C87808B103207047087908B1042070479C
:10FC8000002070478D2100201025002010B5012292
:10FC90000221002001F096F908B1072810D10722AF
:10FCA0000221012001F08EF908B1072808D10021B6
:10FCB0000A22084601F086F908B1072800D1002081
:10FCC00010BD10B5032000F0F3FB002803D0BDE801
:10FCD000104000F097B810BD70B58CB015460E46B8
:10FCE00000236C46C3F10F01415CE1545B1C102BF7
:10FCF000F8D30D2104F11000FFF7C5FB0020C0F17F
:10FD00000F02315C2244401C11740328F7D368466B
:10FD100043DF0020C0F10F01214491F82010295445
:10FD2000401C0328F6D30CB070BD000006480068E4
:10FD30004FF40021044A8143121D1160111D00F48B
:10FD400000200860704700000405005070B50024D2
:10FD5000064D06E06868012110F8340003F072FCDB
:10FD6000641C28788442F5D3002070BD4C2200200A
:10FD7000F8B515460C460646052A01D20720F8BDFF
:10FD800003F046FD18B903F015FD0028F7D110491E
:10FD900000204E600C70C1E902500E4D08610DE06C
:10FDA00006EBC4006968009181788DF80110007835
:10FDB000094A694603F098FC0028E0D1641EE4B2C9
:10FDC000EED2BDE8F840054A0021024800F026B80E
:10FDD0004C220020F06A020065240200091702008C
:10FDE000BFF34F8F05480168054A01F4E0611143F4
:10FDF0000160BFF34F8F00BFFDE700000CED00E096
:10FE00000400FA050EB500210091CDE901106A4603
:10FE100044F20100FFF7E4FF0EBD0000074B5B68F2
:10FE200023B12AB120B10068037C1BB108207047C0
:10FE30000720704741744261002070477022002003
:10FE40002DE9F047074698461446894690074FF03B
:10FE5000000526D12CB305F045FA134E06F110002B
:10FE6000C6F80C800570457080F80290446075609B
:10FE7000357075701420FFF709FC06211420FFF778
:10FE80003CFC1420FFF718FC0848076006211120ED
:10FE9000FFF733FC0548001F0068B0600020BDE894
:10FEA000F0870720FBE700006022002008150140D2
:10FEB0002DE9FC47DFF87890D9F8043073B368B3C4
:10FEC000052902D20720BDE8FC87436933B3437C90
:10FED000012B25D0002704460025884616468DF8BC
:10FEE0000050684600F038F801A806F075FBC8B16C
:10FEF000012101700F4944600968C0E90218C0E996
:10FF000004769DF8040089F801009DF8000000F0D7
:10FF100047F81420FFF7E6FB2846D4E70820D2E78D
:10FF20000F46D8E704259DF8000000F039F8F3E704
:10FF300070220020041501400649496839B130B1EA
:10FF4000416921B100210174022106F03BB908206A
:10FF5000704700007022002030B5EFF3108172B6B8
:10FF60000D4A9468012324B10370002900D162B6C0
:10FF700030BD93604FF0E023D3F88051074C25400B
:10FF80001560C3F88041D3F8844154605A17C3F810
:10FF9000842100220270E8E7082B0020FC06FFBC49
:10FFA0000B498A68002A11D000280FD1EFF3108086
:10FFB00072B60B684FF0E022C2F800314B68C2F80D
:10FFC000043100228A60002800D162B67047000028
:10FFD000082B002010B5144C00224FF4803120680B
:10FFE000FFF766FF08B1FFF70DFF00224FF4004155
:10FFF0006068FFF75DFF08B1FFF704FF002242F2DF
:020000040002F8
:100000006661A068FFF754FF08B1FFF7FBFE00220E
:100010004FF42031E068FFF74BFF002803D0BDE824
:100020001040FFF7EFBE10BD0C6A02002DE9F0434F
:10003000044687B0008800F059FC8146208802F011
:100040005BFD214F8046667A208800223978A568BA
:1000500000F09AFCB9F1000F33D06079400711D558
:100060000721404603F0DEFFA0B108218DF80C10F7
:1000700021880590ADF80E10ADF8108003A801F0AE
:1000800035FC07E02088B97800F06AFC10B14046E2
:1000900002F01EFD03208DF800002088ADF802005C
:1000A0006079C0F380008DF80400A079C0F380006F
:1000B0008DF805008DF806508DF80760684601F050
:1000C00015FC07B0BDE8F083E82100202DE9F043DE
:1000D0000546007D93B00E460024A0B107949DF81C
:1000E0001C0020F00F00401C20F0F00010308DF8B4
:1000F0001C00707B8DF81D009DF81E0020F006008E
:10010000801C8DF81E001C216846FFF7BCF99DF885
:10011000000040F002008DF80000297D11B140F090
:10012000100001E020F010008DF80000019403940D
:100130000494287D00B107A8CDE9050401278DF8B6
:10014000427042F61920ADF840000D94B07B8DF856
:100150003400F07B8DF835009DF83600142120F036
:100160000600801C20F019008DF83600307B8DF8D9
:10017000440008A8FFF787F90DF140080DF1340994
:10018000ADF8287011A8CDE90889ADF82A40ADF87E
:100190002C700C90A888AB1D08AA6946A2DF002825
:1001A00038D1B06898B38DF8427042F60810ADF8B7
:1001B00040000D94307C8DF834009DF8350020F01F
:1001C000FF008DF835009DF8360020F00600801CF9
:1001D00020F019008DF836000EA8B16800F07EFD01
:1001E0000646142108A8FFF74EF9ADF828600EA8BE
:1001F000CDE90889ADF82A40ADF82C600C90E8886C
:1002000005F10E0208A9A3DF002803D101E0FFE7F2
:10021000EC81002013B0BDE8F083000010B50D495B
:100220000D4805F0ACFAC1B20A48683800F0C2F9CE
:1002300000280DD008280BD0A0F54051043907D074
:1002400043F20141884203D0BDE81040FFF7DABD18
:1002500010BD00007424002030210020F0B50C46B1
:1002600093B01F210726ADF80010ADF80410002749
:1002700050B1C17849070DD56A4602A9FFF719FCAC
:10028000002808D102AD02E00025ADF800706CB185
:10029000E07810B1304613B0F0BD01AA0AA920469B
:1002A000FFF707FC0028F6D10AAA02E00022ADF809
:1002B0000470BDF80400C3B2BDF80000C1B2284606
:1002C00072DFE8E72DE9F0471F46DDF8208013468E
:1002D0008946040042D0EBB3404D0120002628702F
:1002E000EE70202219463E48FFF7A6F8C5E90478CB
:1002F0004FF6FF702881AE613948AE83AE77382162
:100300002030FFF7C0F83648217820300170A178FE
:100310008170E178C170617841703149D4E904237A
:10032000C1E90C23D4E90223C1E90A23D4E9062355
:10033000C1E90E23616AE1B100F1380100F1440224
:1003400041628A60636A1B880B80616A436A89889C
:10035000998000E002E00021436A07E00E20BDE83A
:10036000F087656AAD686D5C5554491C9D888D4267
:10037000F7D8A16AD9B11A4A9032A2F10C018A6069
:100380008162A36A9B888B80A16A836A098819802D
:100390000021836A04E0A56AAD686D5C5554491C70
:1003A0009D888D42F7D894F82C1080F82C10216A83
:1003B00049B10A490A310162226A52884A80216A97
:1003C000026A09881180616801B141604946BDE84F
:1003D000F04703482030FFF741BF000074210020A0
:1003E0001025002010B50188144C102918D01129AF
:1003F0001CD01B2919D1007A002816D1E0780521DC
:10040000401CB0FBF1F201FB120000BF00F050F8FD
:1004100000280AD06169002907D0BDE810400847CC
:10042000C17B012901D18088208110BD002161712B
:10043000808821898842F8D10120E7E774210020D3
:1004400010B5022801D0032810D1094C607800288B
:100450000CD000206070E07800F02AF8002805D069
:100460006169002902D0BDE81040084710BD0000B6
:100470007421002010B574DF0B4C01200B49607112
:100480000020E0710620C87000210848FFF7E6FE52
:10049000002807D1E07800F00BF810B1616901B1D4
:1004A0008847002010BD0000742100203025002066
:1004B0002DE9F0413D4C804686B0207848B184F863
:1004C000038004A801F0DEFC0498012628B16670C0
:1004D00067E0082006B0BDE8F0810025A561344F33
:1004E000A583A577787810B1E078012806D0B87890
:1004F00058B1E078012801D0022806D1216919B14C
:1005000026710820884700E025714046FFF792FBDE
:10051000E070216939B1032801D0042803D138786B
:1005200008B1607990B1A571009502950195039588
:100530008DF800508DF808501C48E17818300529D6
:1005400025D2DFE801F03008111D2100E571A67108
:1005500007208847E8E7A67001908DF80060ADF8A5
:100560000C50ADF80A5014E00221A17001908DF8F2
:100570000060B889ADF80C003889ADF80A0008E0D1
:10058000684605F087FA02E0684605F0A7FAE078C9
:1005900018B1684673DF00289CD1216909B1A078A1
:1005A0008847002096E7A570F7E700007421002037
:1005B0001025002073B586B0040034D0217C9DF84E
:1005C0001C20002091422CD0002501260095ADF87A
:1005D000006007A8ADF802500190E188608A6A4681
:1005E000A4DF00281DD19DF81C002074608AA0F5AE
:1005F0007F41FF3919D0207DB8B10295039504954C
:100600000595E088ADF80800BDF80200ADF80C00D3
:1006100001988DF80A60CDF810D00590608A02A983
:10062000A6DF08B070BD0E20FBE70820F9E738B55B
:100630000D4604001BD0D5B1286820604FF6FF702E
:10064000608228792075FF20207401208DF8020037
:1006500041F60F00ADF80000221D69460120A0DF21
:10066000002803D129462046FFF730FD38BD0E2073
:1006700038BD38B5002823D0002921D00A88102A97
:1006800019D0112A19D0502A1AD10446007D002809
:1006900016D031F8060F6289904211D1488902289C
:1006A0000ED1206800280BD001F10C0000F012FBE5
:1006B00038B1002006E0898801E04FF6FF714182E1
:1006C00038BD01208DF80000226869462046904719
:1006D00038BD000070B5054601461C220F48FEF7E4
:1006E000ABFE0F4C00262670286830B101686160AF
:1006F0004068A060201D7ADF02E00948001D7BDF12
:1007000000280AD14FF6FF7060806670BDE8704027
:10071000044A00210448FFF781BB70BDE02500209A
:1007200094210020616502005C6A020070B51E4CD5
:10073000068800231B49E289102E15D01B4D112E6F
:100740001CD0122E29D0502E17D130F8061F9142FE
:1007500013D14189022910D10C3000F0BBFA88B1C5
:10076000BDE8704000F054BF84884C800469CC60C0
:10077000406908614B70002AF2D070BD4FF6FF70DF
:1007800048804B702868FFF7D7FB0028F5D0A16997
:100790000029F2D0BDE8704008478268CA60C0688E
:1007A0000861DDE794210020E02500205C6A02005A
:1007B00002490A7D091D04F05FBE0000FC250020EF
:1007C00002460248C17D001D04F043BEFC25002006
:1007D00002460248017E001D04F03BBEFC250020BD
:1007E0002DE9F047044603883F4801228CB000F110
:1007F000150A102B09D0112B55D01A2B71D1217A43
:10080000B2EB111F54D2012353E0027D417D054616
:100810008A43011D06A804F02FFE142206A901A890
:10082000FEF70AFEDFF8C0900026374609F11409EA
:100830000DF104080AE000BF08EB46001D22838882
:100840004946281D009704F0C9FD761C0198B04266
:10085000F2D8287DA688C043C0B204F0E1FDA0F51F
:100860007F41FF3917D005EB4000012386803246D7
:100870005146281D04F025FE012332464946281D15
:1008800004F01FFEE07B02280BD000231649A2884B
:100890001631281D20E00CB00420BDE8F047FFF71A
:1008A000B1BA0123F2E70023A2885146001D13E0EC
:1008B00000230D490546A2881731001D04F001FEF2
:1008C000207A0221B1EB101F01D2012300E00023A6
:1008D0000549A2881831281D0CB0BDE8F04704F086
:1008E000F0BD0CB0BDE8F087FC25002070B50A4EC5
:1008F00005460024317D2A46301D04F0AAFD40B192
:10090000B17D2A46301D04F0A4FD08B1022400E0A8
:100910000124204670BD0000FC25002010B50024F5
:10092000204605F04DFE28B1641CE4B2182CF7D324
:10093000182010BD03480122A24001681143016044
:10094000204610BDFC25002010B5044605F038FEF9
:10095000002802D001482044407E10BDFC25002024
:1009600070B505460C46084605F02AFE002808D05A
:1009700004482A460119001D497EBDE8704004F074
:1009800068BD70BDFC25002070B5064615460C46B6
:10099000084605F015FE002809D005482B46011928
:1009A0003246BDE87040001D193104F08ABD70BDAB
:1009B000FC2500207CB5054608880C46093090428D
:1009C00001D90C207CBD68466DDF0028FAD1218852
:1009D0000820685420881B21401C80B220802954A4
:1009E0002088401C80B220802844DDF8011001607E
:1009F000BDF8051081802088801D80B220809DF880
:100A00000010490800D0012129542088401C208072
:100A100000207CBD7FB5044601208DF8060041F61C
:100A20000A00ADF80400454A01A90120A0DF002812
:100A30007ED1228804F13C0552B140482B46801CEF
:100A4000009042F62920616800F0AAFC002873D1CA
:100A5000228952B139482B460A30009042F62420B0
:100A6000E16800F09DFC002866D1228A52B133482B
:100A70002B461230009042F62520616900F090FC70
:100A8000002859D1228B52B12C482B461A300090A5
:100A900042F62720E16900F083FC00284CD1228C2B
:100AA00052B126482B462230009042F62620616A39
:100AB00000F076FC00283FD1228D52B11F482B4612
:100AC0002A30009042F62820E16A00F069FC0028F4
:100AD00032D1216B71B102A805F0EFFA17482B460D
:100AE00032300090082202A942F6232000F058FC80
:100AF000002821D1606B58B110492B463A31009142
:100B00000279016842F62A2000F04AFC002813D13D
:100B1000A16B81B102A804F0C5F908482B46423008
:100B20000090072202A942F6502000F039FC00E0B4
:100B300002E0002800D1002004B070BD0222002095
:100B400010B50446FFF74CFE204603F039FF21465E
:100B50000A4800F06FF8094821461838FFF789FD68
:100B60002046FFF7E3FD204600F05EF9204602F044
:100B7000B9FE2046BDE81040FFF734BC2424002015
:100B800030B50446008C8BB0A0F57F42FF3A23D0ED
:100B900005AA204601F013FE0546ADF8000000202E
:100BA00001900290039004902189ADF80410012176
:100BB000ADF808008DF8061005A8CDF80CD004900B
:100BC000208C01A9A6DF002804D1BDF80010A9429D
:100BD00000D00C200BB030BD0820FBE738B5044630
:100BE00008682060087960714FF6FF70208400204B
:100BF00084F82200A4F84C0001208DF8020041F690
:100C00000D000D46ADF80000A21D69460120A0DFD1
:100C100000280ED12946204601F070FD002808D199
:100C2000A86828B12946204600F094F8002800D191
:100C3000002038BD38B502460888102815D0112884
:100C400015D0502816D1881DC9889389994211D191
:100C50004189144602290DD1216800290AD00C309F
:100C600000F038F838B1002006E0888801E04FF63F
:100C7000FF70108438BD01208DF80000226869469D
:100C80002046904738BD70B50446B0F84C000D467C
:100C900014280AD104F126012622881EFEF7CCFB77
:100CA000B4F84C00401EA4F84C00B4F84C0004EB1F
:100CB0004001401CA4F84C008D8470BD80F82210C7
:100CC000704770B504460D460846FEF7E7FB2080E6
:100CD000656070BD007800F0010070470A7802700E
:100CE000497841700220704700B5164889B000234A
:100CF000006907905022144907A805F093F908B13C
:100D0000FFF780F86A460121002005F075F908B167
:100D1000FFF778F81720ADF81000684605F062F983
:100D200008B1FFF76FF8094805F052F908B1FFF76D
:100D300069F8074805F0AEF9002801D0FFF762F81E
:100D400009B000BD0C6A0200BC230020410B020068
:100D5000A9600200F0B58FB00D4606461C2168461A
:100D6000FEF791FB00249DF80000039440F0020080
:100D70008DF80000012701948DF8367042F6382076
:100D8000049405940694ADF834000C94E87B8DF837
:100D90003000287C8DF831009DF83200142120F0BD
:100DA0000600801C20F019008DF8320007A8FEF71D
:100DB0006AFB0DA807900CA8ADF824700890ADF858
:100DC0002640ADF82870A8680B90F08806F1100353
:100DD00007AA6946A2DF0FB0F0BD00007CB5114E36
:100DE0000C004FF00005306015D06946002000F07F
:100DF000B1F8002815D101A9012000F0ABF80028B6
:100E00000FD19DF8041009B1022003E09DF80010F5
:100E100001B10B202070706810B9FEF737FF05464E
:100E200028467CBD6C21002010B51A4C01886068F2
:100E300010290ED011292BD1401E606028D1FEF759
:100E400025FF002824D02168002921D0BDE81040CA
:100E50000847D0B900210122084600F0B3F808B1D4
:100E600007280FD107220221012000F0ABF808B1BA
:100E7000072807D104220221002000F0A3F820B1A6
:100E8000072802D0216801B188476068401C606073
:100E900010BD00006C21002010B5032000F024FAE2
:100EA00008B1062800D1002010BD00002DE9F04750
:100EB00007460024244802E0641C042C41D250F868
:100EC0002420BA42F8D1042C3BD21F48DFF87C9092
:100ED0001F4E0C38A9F1140841B301290FD0022983
:100EE0002FD104EB440030444578002D29D0D8F8A8
:100EF0001010002925D02846BDE8F047084704EB2C
:100F00004401755C0E44717861B1D8F804100F4A41
:100F100001EB81014900133A8068FEF7C9FF08B967
:100F200088F80170B17809F80410DEE78068FFF7EF
:100F300003F804EB4401314419F804008D78A84209
:100F4000D3D0BDE8F08700002C6A020068210020A1
:100F5000E424002004280CD2074A1268074B13F837
:100F6000203001209840904300D0012008700020DC
:100F700070470020FAE70000100500502C6A0200BC
:100F800001460F4810B54088042907D007290ED024
:100F90000A2914D1BDE8104004F0C2BD132176DF48
:100FA0000BE000280BD0BDE81040FEF72BBFA0F5EA
:100FB0007F41FF3903D1FFF75DFA0828F1D110BD59
:100FC0002821002070B50023042810D20D4D00EB1D
:100FD0004004012A02D101290CD00022094E00EB65
:100FE0004000304461B1012906D0022906D0072310
:100FF000184670BD0D30C2B22A55F9E74270F7E7C6
:101000008270F5E7E4240020044A01460020127AA9
:10101000D20702D0084600F055B87047542100208E
:1010200070B50E462149054600200A61C1E90165F7
:10103000A9071BD50024012211462046FFF7C2FF55
:10104000641C042C02D20028F5D00FE070B972089D
:1010500004211748FEF78CFE40B9FEF777FE28B949
:101060001348144A00211438FEF7D8FEE9070AD0C5
:10107000114A4FF4F01111600F4B00221B1D1A6032
:101080000D4A1032116000280FD109480B4A002187
:101090001C38FEF7C3FE002807D1BDE870400448A5
:1010A0000121074A1838FEF7B9BE70BD542100204F
:1010B0003C6A02002513020008050050C92C0200FA
:1010C0002DFD01002DE9F84F854EDFF810A24FF4F9
:1010D000E01CF16807462CEA010C009100207168C1
:1010E0000AF10404251D7F4B4FF400324FF4802B8E
:1010F00001EB810E8146182F16D2DFE807F00C179E
:10110000173A4E607083868F868FEAA0A0A0A0A0B9
:10111000CAD1D8E1EAEA009A4FF4F0119143216074
:10112000C5F8009086F80090BDE8F88FC4F800C0BC
:101130004846C5F80090DAF800C08CF4F01C5FEA6D
:101140008C3C09D522602860022F02D14FF4E16067
:1011500008E04FF47A6005E02A602060022F3CD05E
:101160004FF4C8706422B0FBF2F0414337700022A4
:101170005EE0C4F800C04846C5F80090DAF800C048
:101180008CF4F01C5FEA8C3C04D5226028604FF49C
:101190004870E7E72A6020601FE0C4F800C04846B6
:1011A000C5F80090DAF800C08CF4F01C5FEA8C3CC3
:1011B00002D522602860CCE72A602060D0E7C4F81E
:1011C00000C04846C5F80090DAF800C08CF4F01C66
:1011D0005FEA8C3CDED522602860C820C2E7C4F8F4
:1011E00000C04846C5F80090DAF800C08CF4F01C46
:1011F0005FEA8C3C02D52260286001E02A60206012
:10120000377014E0C4F800C04DE0DAF800002BEAB3
:101210000002226000F48020286008E0DAF8000074
:101220002BEA0001216000F4802028607146002232
:101230001868BDE8F84FFEF73BBE21602EE09846E7
:101240005868FEF779FED7F1110100D040B1F1687E
:1012500001F4F0112160C5F80090C6F80C9063E726
:101260004FF40022F26001290CD9C82011FB00F1D3
:101270006420B1FBF0F1706800224143D8F804000B
:10128000FEF716FEF16801F4F0112960C4F8009031
:101290004AE74FF4F0112160C5F80090377043E73A
:1012A0004FF4E01121604946C5F8009006E04FF484
:1012B000D01121604946C5F800905A462A60BCE723
:1012C0004FF4C01121604946C5F800904FF4C02288
:1012D000F4E74FF4F01129604946AEE704050050E9
:1012E00054210020206A020070B500210C4D012419
:1012F00055F82120920002F1A042D2F8006704FACA
:1013000001F3034000D0032326F4403646EA0343AA
:10131000C2F80037491C0429EAD3002070BD000040
:101320002C6A020000780221FFF7C0BD05494FF08A
:10133000FF32082841F8202002D3084480F84820D2
:1013400070470000702A0020F0B54FF0FF3512B151
:101350000023082601E008230C260C4C05E000BF02
:1013600054F823707F1C04D05B1CB342F8D328468A
:10137000F0BD26185DB286F8305044F82310002ADC
:10138000F5D1E11881F84800F1E70000702A00204B
:101390000249084490F9300070470000702A00208C
:1013A0002DE9F0438FB01E46DDF8589015460F002A
:1013B000804602D10020FEF725FD15B90020FEF77A
:1013C00021FD1C216846FEF75EF800249DF8000010
:1013D000039440F002008DF80000012001948DF884
:1013E0003600049405940694ADF834800C9430785B
:1013F0008DF8300070788DF831009DF8320014219E
:1014000020F00600801C20F019008DF8320007A89B
:10141000FEF739F80DA807900CA808900748ADF81A
:101420002450ADF82640ADF828500B974B4607AA3C
:1014300069460088A2DF0FB0BDE8F08302220020D9
:1014400038B10549814204D80449814201D90120BB
:101450007047002070470000B4220020C422002002
:10146000044A0168914201D0083101E0014938394C
:1014700001607047F02B002070B504464FF6FF75F1
:101480000A462846AC4208D14FF4807421461046E3
:1014900003F052FAA04209D070BDFF2CFCD82146BF
:1014A000104603F03CFA08B1204670BD284670BDD6
:1014B00070B5084C050009D010342168002907D008
:1014C00008682060496828468847F6E70834F4E74A
:1014D00070BD00005C2A00202DE9F05F26484168BD
:1014E000F1B3DFF898B00E688146DBF800408768FA
:1014F0008078E11B21F07F45ED1CB0B9DFF88080DA
:101500004FF48030C8F84403C8F804031120FEF7F4
:10151000BDF81120FEF7D0F84FF0010AC8F800A07E
:101520002F2001F0F3FF89F802A0B54200D2354622
:10153000124BE8193C3320F07F401860DBF80010B4
:101540005A46091B21F07F41001B20F07F40C91C37
:1015500081420FD9106818602F2001F0D7FF00E0FA
:1015600004E0BDE8F05F1120FEF7BCB8BDE8F05F15
:1015700003F0B8BEBDE8F09F6022002004150140D2
:10158000001001402DE9F04117880646B81D1446A9
:101590000D46984202D90C20BDE8F081318807221F
:1015A00006290AD34FF4486C4FF6FF73614501D901
:1015B000994202D17088062801D21046ECE76045B6
:1015C00001D99842F9D1994203D0984201D0814281
:1015D000F3D80520E85520881221401C80B22080D5
:1015E00029542088401C80B220804119308804F0A2
:1015F000B2FF2188084480B220804119708804F02D
:10160000AAFF2188084420800020C5E7FEF7FABB26
:10161000F8B5134801F03AFB114D0026114C0C3D72
:1016200030B16169B9B101208DF80000684611E060
:10163000287820B1616971B18DF80060F6E76878AB
:1016400058B1A168084800220068FEF731FC10B1CB
:10165000A16901B188472E70F8BD6168F2E700000A
:10166000A0210020E02500205C6A02002DE9FF4156
:101670000C4618B1012004B0BDE8F08120790027A4
:10168000DFF87C80012638B141F61D5501281ED0B7
:10169000022829D00F20EEE702970397E068019017
:1016A000694601A803F042FD68B102988188E18093
:1016B00000882081029803F0ADFDBDF8002008EB02
:1016C00002118E7300E00A2002212171D3E70D4B35
:1016D0006A460021A01D03F0E5FC38B1094908392C
:1016E0008F60CF600A28C6D12846C4E7019803F06E
:1016F00091FD04498A8808EB02118E73F2E700001D
:10170000002C0020882200202DE9F0410026012530
:10171000144C22E06068226900EBC607387805FAAD
:1017200000F1114217D08A43226102F039F80246D3
:101730003878E36805FA00F1194002FA00F399429B
:1017400009D17978012901D0012100E0002151401F
:101750007A6802B19047761CF6B220788642D9D3D7
:10176000BDE8F0814C2200200E4910B50A784C7873
:101770000023A24212D0521CD2B20A70022A00D117
:101780000B70084A0B78183252F8232002608868E0
:10179000104420F07F408860012010BD03600020CD
:1017A00010BD0000602200203EB5094D38CD8DE807
:1017B0003800ADF8041007498DF80620ADF8020096
:1017C00000220978FFF7E0F8684600F08FF83EBD88
:1017D000E06A0200E821002010B503780022072B00
:1017E00006D2DFE803F00504060C1C252B000A7066
:1017F00010BD01220A7002898A81828814E00222C7
:101800000A7002898A818288CA81C2688A60007CE3
:10181000062802D00020087410BD0120FBE7032237
:101820000A70C2888A810289CA81C068886010BD36
:1018300004230B70C0888881CA8110BD0520087000
:1018400010BD000070B5064D0646002455F8241062
:1018500009B130468847641C082CF7D370BD0000DE
:10186000202B00200EB5002911D011290FD0002205
:1018700000920292ADF8020001910D2908D00429CE
:1018800008D009208DF80000684600F03DF80EBD34
:101890000B20F7E70A20F5E701490968084700002F
:1018A000B021002070B5054D06460024304655F89D
:1018B00024108847641C022CF8D370BD786A02009B
:1018C0002DE9F04107460024064E074D05E000BF14
:1018D00056F8241038468847641CE8788442F7DBC1
:1018E000BDE8F081102A0020D821002070B5054DF8
:1018F00006460024304655F824108847641C022C04
:10190000F8D370BDA86A02000149096808470000C1
:10191000EC6A0200704700007FB50446406858B189
:101920000020039020780026384D06285DD2DFE89D
:1019300000F05C05052641690120F2E7A08900F06E
:10194000B3F918B9E08903F077FC80B3A089A0F55A
:101950004040ADF80200A07B8DF8040020780128FB
:10196000606806D048B104208DF8000060680390DC
:101970001AE00028F8D00320F6E70120F4E7A08958
:1019800000F092F918B9E08903F056FC78B1A0890B
:10199000A0F54040ADF80200A07B8DF8040060681F
:1019A00030B105208DF80000A06802901AE01CE01C
:1019B0000220F7E7A08900F077F9B0B1E089A0B97B
:1019C000A089FF21A0F5404080B2ADF802008DF85B
:1019D0000410616881B107208DF800006E70AE7050
:1019E00002F0DEFC684602F0B3FB6878002802D003
:1019F0006E7002F0D5FC7FBD06218DF8001002F05C
:101A00005DFDEBE708208DF80000EBE7C421002026
:101A100000B5114987B00978890702D4022007B0C0
:101A200000BDA0F57F41FF3911D005218DF80010D0
:101A300001218DF80410ADF8060000221146684619
:101A400001F0E6FF28B103F00FFB0020E7E70420D8
:101A5000E5E70820E3E700008022002000B50E48FB
:101A600087B00078800702D4022007B000BD0620AE
:101A70008DF8000000221146684601F0C9FF40B110
:101A80000648017809B10121017303F0EDFA002045
:101A9000EBE70820E9E7000080220020202C00204E
:101AA00000B58DB014216846FDF7EDFC1E480078A6
:101AB000810703D56846FFF7C5FE33E0C00731D183
:101AC000012000F015F900F085F902F03DF870B141
:101AD00006280FD001218DF814100C281BD2DFE846
:101AE00000F01A101A101A181A181A1216120B20CF
:101AF0000DB000BD022000F0FBF8012000F0DEF880
:101B0000D8E7002000E003208DF8180003E0022051
:101B1000FAE78DF818100022114605A801F078FFA9
:101B200003F0A2FA0020E3E78022002038B5040089
:101B300011D0694603F0FAFA88B10A48BDF80010DE
:101B400000EB0110818941B1A27A32B1491E818135
:101B50000020A07238BD052038BD062038BD0A20FF
:101B600038BD0000002C00201FB501A9684603F015
:101B700099FA04B010BD07B513460A46694600201D
:101B800003F090FA0EBD07B513460A4600216846D9
:101B900003F088FA0EBD20B119B10068086000207A
:101BA000704705207047000038B50D46040015D079
:101BB000A5B1694603F0BAFA90B10A49BDF8002010
:101BC000606801EB02129189491C9181286060686C
:101BD0000C3068600120A072002038BD052038BD9F
:101BE0000A2038BD002C002018B10323002204F085
:101BF000D3BD052070470223002204F0CDBD12B1F1
:101C0000022304F0C9BD052070470000064A517840
:101C1000082906D0054B43F82100491C51700020CB
:101C200070470C207047000080220020202B0020ED
:101C300038B504460A480D460078800701D40220D2
:101C400038BD54B16946284604F0B6FE0028F7D1E5
:101C5000BDF800102180658038BD052038BD00002A
:101C60008022002010B504460D480078800701D47A
:101C7000022010BD84B1218802290FD8094800EB49
:101C8000011042896088121A032A07D404F08AFEE0
:101C900000202080608010BD052010BD042010BDF4
:101CA00080220020002C002043F6FE71A0F5404069
:101CB000884201D8012070470020704702490A7805
:101CC00082430A70704700008022002010B504464D
:101CD0000078182802D1FEF721FE207010BD10B543
:101CE00004460078182802D1FEF718FE207010BDB7
:101CF00002490A7802430A707047000080220020DF
:101D000070B51346002206461546042905D0112950
:101D100001D019B170BD012500E001220D4C73B155
:101D20006179FEF731FE2A4621793046FEF72CFE16
:101D3000002261783046FEF727FE002203E061783A
:101D4000FEF722FE2A4621783046BDE87040FEF7B5
:101D50001BBE0000EC210020F8B506461A481F46BD
:101D6000154600780C46C00708D03046FFF768FBE0
:101D700030B13CB1200507D00620F8BD0120F8BDE8
:101D80000220F8BD0320F8BD3068A04204D8716875
:101D900004EB0530884201D90520F8BD7DB16846C5
:101DA00003F0B0F868B100980221C0E90067017241
:101DB000210B8181058203F067F90020F8BD042022
:101DC000F8BD0720F8BD000098220020084603F067
:101DD000B5B800002DE9F0472748284C4FF01021F6
:101DE000001B0209496910464B1C03D14FF080517A
:101DF00049690903DFF888A09AF80070FB0702D050
:101E00000020BDE8F0870023A14607E009EB03149A
:101E1000256815B1646804B1401E5B1C9342F5D37C
:101E2000002422E0002504F0FF0C2B4613E000BF45
:101E300009EB0316D6F80080B8F1000F04D0D6F8ED
:101E40000480B8F1000F05D1767BAE4202D9354649
:101E500003F0FF0C5B1C9342EAD309EB0C13641CE8
:101E600059601D7BA1EB053119608442DAD347F03C
:101E700001018AF80010C3E7C4220020B422002028
:101E80009822002020B10349496E0160002070476C
:101E900003207047302C00202DE9F84307461D48E9
:101EA000DDF820801E46007815460C46C0070CD091
:101EB0003846FFF7C5FA50B15DB154B145EA0400A8
:101EC000800708D00620BDE8F8830120FBE7022048
:101ED000F9E70320F7E73868A04204D8786804EBF4
:101EE0008601884201D20520EDE77EB1684603F005
:101EF00009F868B100980121C0E900780172C0E9D1
:101F00000354868203F0C0F80020DCE70420DAE7FF
:101F10000720D8E79822002070B5174A17490446D1
:101F2000106E0B7800EB400002EBC0009D0715D54A
:101F3000022C02D0032C1BD102E001F03FFD17E080
:101F40004A78521CD2B24A70032A11D900224A7030
:101F5000082103F08BFB02F0BFFF09E0580707D50B
:101F600023F004000870526E12B140F002000870B5
:101F7000BDE8704003F040B8302C002098220020CB
:101F80000EB517A19DF8080020F00F00401C20F0AE
:101F9000F00010308DF808000A2202A87CDF08B19A
:101FA000FDF730FF40F2413078DF08B1FDF72AFF3E
:101FB0000020009001904FF4A071ADF80400ADF83E
:101FC00000104FF4C8704FF40271ADF80600ADF880
:101FD000021068467ADF002801D0FDF713FF0EBD1E
:101FE0004E6F726469635F48524D000070B508B16E
:101FF000012070BD184C0025207B08B1257301E03D
:1020000000F0A2F82078082824D2DFE800F02304AA
:10201000080C1023141EBDE8704000F01FB8BDE886
:10202000704000F07FB8BDE8704000F061B8BDE8D6
:10203000704000F037B808496088203901EB001083
:102040004068BDE8704001F05FBD6560BDE870406C
:1020500001F068BD0F2070BD202C00201049F0B4A5
:102060008A1C00200346A1F120050C18A67A3EB177
:10207000A37205EB0014A68916B9A47B012C0AD023
:10208000401C80B20228F0D30B704B804B60F0BC38
:1020900041F61D5070471080F0BC00F043B80000BE
:1020A000202C002010B50F4CA4F12001608801EB1A
:1020B0000010818961B1052020700B4802210023A6
:1020C00081800168BDE8104001220848FFF744BE46
:1020D0004168002301220548FFF73EFE04212170DC
:1020E00010BD0000202C002090220020B4220020EF
:1020F00038B50A49084803240B684268898803EB0D
:102100008101538804700020DB1C00909BB20448BE
:10211000FFF7C2FE38BD0000202C002090220020D6
:10212000B4220020074910B54888091D03F04CF877
:1021300018B1BDE81040FFF7DBBFBDE81040FFF766
:10214000B1BF0000202C0020F0B51D481D4901251D
:10215000067802248B88A0F12002082E18D2DFE82E
:1021600006F00417171A212C2C160189491C01812D
:102170000021418080F80C1002EB01131B7843B161
:1021800000234418491C89B2A3720229F4D30570B4
:10219000F0BD0123F5E742685288D21C1A448A80B8
:1021A0000470F0BD46880D6802EB061256680E609A
:1021B000556013818C80062100E007210170F0BD7D
:1021C000202C002090220020F0B504460088384DD5
:1021D0008DB050281ED0522802D0542828D103E0B8
:1021E000A08800F0AFFF23E006208DF81400A0883F
:1021F00000F082FCADF81600A188ADF8181000F0D0
:102200005DF9A0880022E978FEF7BEFB05A8FFF77C
:1022100043FB0DE0207B01280AD1A07A012807D1D9
:102220002089A0F52451023902D1A08800F0C4FF12
:10223000A878FEF789FBC8B108A8FEF7B9FA1422FE
:1022400008A96846FDF7F8F800246E460BE000BFC9
:1022500006EB4407A978B888FEF782FB10B1B8886E
:1022600000F070FF641C0098A042F1D86878FEF777
:102270006BFBC8B108A8FEF79BFA142208A96846B0
:10228000FDF7DAF800246E460BE000BF06EB4407CA
:102290006978B888FEF764FB10B1B88800F08CFF4D
:1022A000641C0098A042F1D803F076FA0DB0F0BD9E
:1022B000A82100203EB504464088ADF802002078F1
:1022C000A8B101281FD0022810D1207900280DD0F4
:1022D000608800F051FBA0F57F41FF3906D00F491F
:1022E0000122C978FEF750FB03F056FA3EBD0020EC
:1022F0008DF800006846FFF7CFFA608800F03CFBDD
:1023000000F020FF3EBD01208DF80000A088ADF850
:1023100004006846FFF7C0FA3EBD0000A821002077
:1023200010B50446007801280FD1608800F00AFF3C
:10233000608800F089F9002807D0044960880122EC
:10234000C978BDE81040FEF71FBB10BDA8210020D2
:1023500010B5104C00202070FEF7E0FA6070FEF718
:10236000DDFAA070FEF7DAFAE070FEF7D7FA207116
:10237000617818290BD0A178182908D0E17818299C
:1023800005D0182803D001202070002010BD0320A4
:1023900010BD0000A82100202DE9F04186B000F01A
:1023A000A5F86846FEF704FA00246D464FF6FF775D
:1023B000DFF834800FE000BF05EB4406B08800F082
:1023C0009BFBB84205D1B088012298F80310FEF7B4
:1023D000DBFA641CA4B20098A042EDD803F0DCF94B
:1023E00006B0BDE8F0810000A8210020017807298F
:1023F00002D1408800F0E0BE7047000010B50446EE
:102400000A4841782046FEF7ABFA68B10848002137
:1024100001EB410200EB82025288A24201D1C8B214
:1024200010BD491C0829F3D3FF2010BDC021002096
:102430003026002070B5094D094E002404EB4400FD
:1024400005EB800071784088FEF78AFA20B1641CA1
:10245000082CF3D3FF2070BDE0B270BD3026002001
:10246000C02100202DE9F041124E07460125BD4054
:102470003068FDF761FD00280DD10F4C206928421E
:1024800007D1384601F08CF90028E06805D02843D0
:1024900004E0A8432061BDE8F081A843E060206922
:1024A00028432061A1683068BDE8F0410022FDF7B3
:1024B000FFBC0000F06A02004C2200201CB5054A57
:1024C000D2E90212CDE900120022694601F00DFDA9
:1024D0001CBD0000646A020003484FF6FF71818052
:1024E0000121017000207047B421002010B54FF683
:1024F000FF7001F031FC03498880BDE8104003F013
:1025000077B90000B42100202DE9FC41804600F09D
:10251000F3FA002403250127A0F57F412646FF3961
:1025200008D06A46082101F0BBFC18B90198841D47
:102530008688056832462B4621464046A9DF042896
:1025400004D0082804D00B2808D002E0112000E0B5
:102550000020002F00D10B20BDE8FC810027A80738
:1025600001D50125E6E73443F5D0002426460325AE
:10257000E0E72DE9FC41804600F0BEFA0746A0F5F1
:102580007F40FF380ED001252A466D1C0026ADB2D3
:102590006B460821384601F0ADFC040006D0072C3C
:1025A00024D024E043F20200BDE8FC81019903231A
:1025B0000A1D0B604046891DAADF040004D00C2CC4
:1025C00008D0052C08D008E00821384601F02AFD83
:1025D00004460CE0012600E000240821384601F002
:1025E0000DFD00B10324002ECED100E00C242046C6
:1025F000DAE700001FB504460078012815D12079DC
:10260000012812D1608802AA012101F049FC60B9B9
:1026100002208DF800006088ADF802000949012011
:102620008DF804000968684688470648083880889D
:10263000A0F57F41FF3903D0BDE81F4003F0D8B8B3
:102640001FBD0000BC2100201CB500F055FA6A46F1
:10265000012101F025FC08B100201CBD0198007883
:102660001CBD00002DE9F041084C07464FF6FF76EF
:1026700043F20305324661883846A7DFA84203D1FA
:102680006088401C6080F5E7BDE8F081B42100203F
:102690008188A1F57F42FF3A03D0008808B101206C
:1026A000704700207047000010B51249124803F02F
:1026B00066F8114C81B2103C6068401C60600D48A7
:1026C0006038FEF75DFA58B1082809D0A0F54051EE
:1026D000043905D043F20141884201D0FDF792FB55
:1026E00060680321B0FBF1F201FB120000B1012090
:1026F000207010BD842400203821002070B594B0D3
:102700000024054607949DF81C000E4620F00F009B
:10271000401C20F0F00010308DF81C00087B8DF874
:102720001D009DF81E001C2120F00600801C8DF865
:102730001E006846FCF7A7FE9DF80000019440F0DB
:1027400010008DF8000007A8CDE9044001208DF8A5
:102750004E00039442F637200694ADF84C000D94D9
:10276000707B8DF83400B07B8DF835009DF8360015
:10277000142120F00600801C20F0180040F0010019
:102780008DF8360008A8FCF77EFE13A808900DA867
:1027900009900EAA0021284600F011F8ADF8280093
:1027A0001420ADF82C000EA8ADF82A400C90E88853
:1027B00005F1080308AA6946A2DF14B070BD2DE92F
:1027C000F041044640799046002500B1042594F874
:1027D000220008B145F00205CAB2FF2908D9090A4A
:1027E00088F8012045F0010588F80210032602E070
:1027F00088F801200226B4F84C0008B145F0100515
:10280000002718E0B01C14280BD9B4F84C0004EBD6
:102810004701C01B420004F124002431FCF70CFEE8
:102820000DE004EB470108EB0602898C1170090AE0
:102830005170C6B27F1CB4F84C00B842E2DC34F8E8
:102840004C0FC01B208088F800503046BDE8F08156
:102850003EB5027802230C46B3EB520F17D1B0F805
:102860000110ADF80010C1788DF802108188ADF824
:10287000041080798DF8060002AA01A92046FDF710
:102880002BFA032202A96846FCF70FFE08B10020CC
:102890003EBD01203EBD000010B50C46FFF7AEFD69
:1028A000FF280CD0074900EB400001EB8000416895
:1028B00021600189A180807AA071002010BD0520CF
:1028C00010BD00003026002070B5018890B010299E
:1028D0004FD1011D34226846FCF7AEFD9DF804007F
:1028E0004FF6FF76032134466D46B1EB500F2AD0E8
:1028F00001F096FC9DF8040040080ED001280CD091
:10290000022820D118E00F99281D1131FDF7BEF8DB
:1029100018B100BFBDF8344015E00EAA0DA907207C
:1029200001F056FC0028EED10DE00F99281D491C3E
:10293000FFF78EFF0028EDD10EAA0DA9072001F0A8
:1029400047FC0028F1D1BDF80000291D00F08AFDE8
:10295000B4420ED0BDF80000214600F07EF8BDF86C
:102960000000ADF8360001208DF834000DA8FEF708
:1029700099FF10B070BD0000094A002101EB41032E
:1029800032F82330834205D101EB410002EB800095
:1029900040887047491C0829F0D34FF6FF707047F4
:1029A0003026002010B50D4C18200D4A6070002014
:1029B0004FF6FF7100EB400302EB8303401C59808C
:1029C0000828F7D3FDF7AAFF6070182803D001206C
:1029D0002070002010BD032010BD0000C021002089
:1029E0003026002070B504460D46401C00F05CF90E
:1029F00000280ED01022691C601CFCF756FD48B15F
:102A00005FF0000605F1110104F11100FDF73EF839
:102A1000304370BD0126F5E7018811B9421892785C
:102A20000AB101207047491C0829F7D300207047DC
:102A300010B50C460346FFF7EFFF00280AD01888B0
:102A40002188884205D10822A11C981CFCF72DFD85
:102A500008B1002010BD012010BD01F083BD10B5EC
:102A60000446007888B0002828D12079072825D18D
:102A7000608801AA072101F013FA00281ED101F095
:102A8000CFFB1DE06088BDF80010884218D0049983
:102A90000298FFF7A7FF98B16088FFF76DFFADF8C8
:102AA000160000208DF814006088ADF81800BDF8FD
:102AB0000000ADF81A0005A8FEF7F4FE08B010BD3E
:102AC00003AA6946072001F083FB0028DAD1F5E765
:102AD00070B50446FFF750FF0546204601F0E3F9C4
:102AE0004FF6FF7104468D4203D014B9284601F019
:102AF00039FD204670BD000010B5FFF77FFCFF28B0
:102B000005D0044900EB400031F8200010BD4FF61D
:102B1000FF7010BD302600203EB5044601F080FB5A
:102B20000EE0019920464631FFF782FF28B901994E
:102B300020462A31FFF77CFF10B1BDF808003EBDEA
:102B40006A4602A9072001F043FB0028E9D14FF6AD
:102B5000FF703EBD2DE9F0410F4628B10120FFF77F
:102B6000ADF80120BDE8F081397961B10026264D2C
:102B700001290DD0254C4FF002080229206822D0EF
:102B800003293CD128E000F0CDFF0121397134E068
:102B90005FF0000005EB0011097802290CD0401C01
:102BA00080B20228F6D30220FFF7A2F80120FFF737
:102BB00085F841F61D50D5E705EB0014606800F07C
:102BC000A3FF267019E00146002301221048FFF7F9
:102BD000C3F8A4F804800FE000F096FF0A492268C9
:102BE0002031498805EB01114B6823604A60A288B7
:102BF0000A81A4F804800E703E710028B2D0012032
:102C0000FFF75CF80E20ADE7002C0020902200209A
:102C1000B4220020F8B51C4C2078002832D0E0689F
:102C2000002658B10025607800282BD1684648DF7F
:102C3000052805D030B1FDF7E5F80AE00125F2E7F7
:102C4000012606E0009800F0DBFC216909B100983C
:102C500088479DB96078002814D16088ADF80000DD
:102C60006946A06861DF052803D020B1FDF7CAF8E6
:102C700004E0012502E0D4E902018847002ED2D009
:102C8000002DE6D0F8BD00009C22002005494088B8
:102C90000A88904204D34988884201D801207047AD
:102CA00000207047982100200021425C0AB10120D9
:102CB0007047491C1029F8D300207047800701D0C5
:102CC00000207047012070470348017AC90702D0ED
:102CD0000078FEF7F7B97047542100202DE9F0473E
:102CE000234D81461F46287A0E469046084302D05F
:102CF00026B1002104E00520BDE8F0871C49103111
:102D0000484603F069F80446014600224846FEF7AB
:102D1000F7FF1FB121464846FEF7A4FD0D2C0DD04C
:102D200005DC5CB1042C17D0082C06D106E0112C70
:102D300006D0A4F54050023800D003242046DBE73B
:102D40003246E9784846FDF71FFE4246A9784846D4
:102D5000FDF71AFE0024F1E73246E9784846FDF710
:102D600013FE4246A9784846FDF70EFEE6E700004E
:102D7000EC2100202DE9FC4117460C00064604D04A
:102D80002078C00705D0012004E000217EDFBDE8E7
:102D9000FC8102208DF804003046FFF7ADFE0546A9
:102DA000A0F57F40FF3808D001A800902B463A4696
:102DB0002146304600F021F806E020782146C00781
:102DC000304603D000F07DF804460BE07EDF0400BF
:102DD0004FF00000009007D0002201232946304622
:102DE00002F00AFC14B106E00122F6E79DF8041097
:102DF000304602F02BFC2046C9E72DE9F04F85B0A4
:102E000090468946834600259A462E4601AA072108
:102E100018460E9F01F044F8040008D1029D95F871
:102E20004400183510F0010601D0029D343558EAEF
:102E300004004FF000080FD175B126B905F112005A
:102E4000FFF7EAFD40B12A4605F11201584685DF39
:102E5000044687F8008021E00CB1052C1ED199F8BA
:102E60000000C0070DD003AB01220721504601F03E
:102E700041F804000AD10721504601F035F9040059
:102E800004D1494658467EDF040007D0072150464A
:102E900001F0B4F810B1052800D00324CDF800806B
:102EA000387808B1012300E0002344B100225146E4
:102EB000584602F0A1FB05B02046BDE8F08F012284
:102EC000F5E7FEB50F46064600F0E0FF0546A0F523
:102ED0007F40FF381ED001AB01220721284601F0B8
:102EE00009F804000AD10721284601F0FDF8040082
:102EF00004D1394630467EDF040007D0072128463A
:102F000001F07CF810B1052800D0032401200090C6
:102F10005CB102E003240020009000220123294636
:102F2000304602F069FB2046FEBD0122F6E70000B4
:102F30002DE9F041134D0F46164680462978FDF7DE
:102F40000FFD00281BD04046FFF7D6FD0446A0F534
:102F50007F40FF3813D069784046FDF701FD38B156
:102F600033463A4621464046BDE8F04100F068BE8F
:102F7000324639464046BDE8F041FEF715BCBDE893
:102F8000F0810000E82100202DE9F04385B0814662
:102F9000FDF7DAFC002820D06846FDF709FC002484
:102FA0006E4617E006EB44054946A888FDF7D8FCB5
:102FB00078B10B4FA888B978FDF7D2FC8046A88875
:102FC000F978FDF7CDFC0146A88801234246FFF7BA
:102FD00085FE641C0098A042E4D805B0BDE8F083EB
:102FE000EC2100202DE9F043264CA4F110092278B1
:102FF000D9F8048099F80350404694F801C0D9F8F4
:10300000086031E002EB42036168521C01EBC3012E
:10301000A378D2B2934200D100220B78022B02D0C7
:10302000032B21D11DE003464F68194603E0B94246
:1030300003D00B46C969B9B1F9E7A9B18B4205D1F3
:10304000C06918B9104E0125B56000260F68C9691E
:10305000D96149B10B683B440B6005E00174C0695C
:1030600000E000210028F9D19445CBD1C9E901063F
:1030700089F80350404502D00120BDE8F0830020CC
:10308000FBE7000070220020001001402DE9F04114
:103090002A4F0446002607F11005D7F804803EE0C9
:1030A00002D02046E4691DE02878696800EB400200
:1030B000401CC0B201EBC2012870AA78904200D136
:1030C0002E700A784868012A2BD1027C4ABB8A6894
:1030D0004260CA6882600A69C26049698161F978A0
:1030E00001B146604368BA68DFF854C0991A21F00C
:1030F0007F41614502D28268114406E0D11A82689C
:1031000021F07F418A4202D9511A016000E0066035
:103110004660012186600174C66103F035F8002C19
:10312000BED1287869788842BED17968414502D0FD
:103130000120BDE8F0810020FBE7000060220020B4
:10314000FFFF7F00FEB504460026A0F57F40FF3854
:103150002FD02046FFF7D8F9050013D00B2D15D03E
:10316000112D11D0A5F5405002381CD009208DF842
:1031700000002046FFF7C0FCADF80200ADF80440A7
:1031800002950DE0022002E001260CE003208DF8FC
:1031900000002046FFF7B0FCADF80200ADF8044097
:1031A0006846FEF779FB0348324681782046FDF7F2
:1031B000EBFBFEBDA8210020FEB504460026FFF76C
:1031C000D8F905460C281AD003DCA5B1042D06D188
:1031D00029E0112D11D0A5F5405002381CD009204E
:1031E0008DF800002046FFF787FCADF80200ADF82F
:1031F000044002950DE0012002E001260CE00720CA
:103200008DF80000ADF804402046FFF775FCADF8DE
:1032100002006846FEF740FB0448324641782046EB
:10322000FDF7B2FBFEBD0820EAE70000A821002060
:10323000F8B5054600780C46002620420FD1002044
:103240008DF800006846FCF787FE2878204202D1FE
:103250002043287001269DF80000FCF7A1FE3046AF
:10326000F8BD000098B003F013F8384A40F6CD419D
:103270000320FDF7D5FE08B1FCF7C4FD6946002028
:10328000FDF7ACFD08B1FCF7BDFD9DF8000002287C
:103290005AD00024FDF728FD204601F071F9FEF711
:1032A0006FFE382101A8FCF7EEF802208DF804002B
:1032B00001248DF8064006208DF8070024480325D8
:1032C0000690ADF8145020210FA8FCF7DCF88DF81B
:1032D0003F404FF4967000241390B4200094149053
:1032E0001C4B0FAA214601A8FCF7ECFF08B1FCF724
:1032F00089FD02F02DFB02F0EBF91C216846FCF77A
:10330000C2F84FF42030CDE900404FF47020029015
:1033100011488DF80C508089ADF80E000F480590CB
:103320000F4806908DF810406846FDF7D3F908B1B4
:10333000FCF768FDFCF74EFEFCF7C3FC3EDF0028FF
:10334000FCD0FCF75FFDF9E70124A3E7810F020041
:1033500048210020C138020024240020A1390200A5
:103360000D16020070B5144682880E460546208868
:10337000111D0144921C994201D8FE2A01D90C204A
:1033800070BD521C32542088FF21401C80B2208026
:1033900031542088401C80B220808119288803F095
:1033A000DAF82188084480B22080AA8842B1A9684E
:1033B00041B13044FCF740F82088A98808442080B7
:1033C000002070BD072070BDF8B50E460178144688
:1033D0000546012901D1687830B12088821C9A42C3
:1033E0002DD8012902D006E00720F8BD69780144F4
:1033F000891C994223D8181A801E87B2ADF8007034
:103400002188B01C084469467DDF0028EDD128786A
:10341000022805D1BDF80010B94201D809210AE0FF
:103420000821012805D16878B84202D8ADF800001B
:1034300001E0ADF80070BDF80000FE2801D90C20B5
:10344000F8BD2288401CB0542088401C80B22080E7
:1034500031542088401C2080BDF800100844208092
:103460000020F8BD70B505460C004FF0FF0020D0DD
:103470004FF6FF76B5421CD00E480122417828460F
:10348000FDF782FA2846FEF7B9FFFF2803D1FEF7C1
:10349000D1FFFF280DD0084B00EB400203EB820167
:1034A0004D8023F8226022684A60A2880A81A279AE
:1034B0008A7270BDC02100203026002070B54FF602
:1034C000FF750E46A84201D1002000E0401C84B2E6
:1034D00008E02146304601F04AFA08B1204670BDA6
:1034E000641CA4B2FF2CF4D9284670BD00F18040C2
:1034F0000068002800D00120704708B500F1804026
:10350000002101600068009008BD000000283ED046
:103510001F49204A096800BF00BF00BF00BF00BFAD
:1035200000BF00BF00BF91422FD000BF00BF00BF4F
:1035300000BF00BF00BF00BF00BF00BF00BF00BF93
:1035400000BF00BF00BF00BF00BF00BF00BF00BF83
:1035500000BF00BF00BF00BF00BF00BF00BF00BF73
:1035600000BF00BF00BF00BF00BF00BF00BF00BF63
:1035700000BF00BF00BF00BF00BF00BF00BF00BF53
:1035800000BF00BF00BF00BF00BF401EC3D17047D7
:10359000B02200200024F40010B50B4C207808B1B4
:1035A000852010BD0020A06060602061E0600621E1
:1035B00000F02BF802F068FD012108B90348016012
:1035C0002170002010BD00005C2A0020180500407A
:1035D00038B500208DF800006846FCF7BDFC074CAC
:1035E000207808B9FFF7D8FFE068401CE0600120B0
:1035F000A0709DF80000FCF7D3FC38BD5C2A0020C9
:10360000002801D1FDF754BF70474907090E002873
:1036100006DA00F00F0202F1E02282F8141D03E046
:1036200000F1E02282F8001400F01F020121914015
:103630004009800000F1E020C0F88012C0F80011BD
:10364000704700002DE9F0478846814600F0DEFF14
:103650000124224E0028484618D0FDF799FE304438
:1036600090F848008009032802D0012806D007E01E
:103670001B48006804FA09F4204201D1022100E04D
:1036800003214846BDE8F04700F0DDB800F0CAFF6E
:10369000002820D04846FDF77BFE0546114F4FF429
:1036A000807007EB850100EB8500D1F8102580B212
:1036B00042F00102C1F8102500F0D4F8B8F1000F73
:1036C00009D04846FDF764FE56F82000002802D0D5
:1036D000AC40C7F80443BDE8F0870000702A002022
:1036E00010050050006000402DE9FC41DFF8A48087
:1036F000044608EB0400002790F930001346C01779
:103700000E46401C01D0082740E0F27819462046BA
:10371000FDF71AFE0546401C37D0B07848B1A0002E
:1037200000F1A040D0F8001721F00201C0F8001706
:1037300007E000217378204600910A46019100F0CD
:1037400071F8F078C0B11448317800EB8500D0F8FA
:103750001025124B1A40C0F810254FF4F8524FF4C0
:10376000403302EA042203EA01410A43D0F810156B
:103770000A43C0F8102509E008EB0500327810F87C
:10378000481F41EA8211017000E004273846BDE875
:10379000FC810000702A002000600040FFE0FCFF78
:1037A00003490968C14011F0010000D001207047B1
:1037B0001005005070B5144D95F8540008B108205C
:1037C00070BD0020411E2A18401CC0B282F8301083
:1037D0002028F8D300242046FDF7A8FD641CE4B29D
:1037E0000C2CF8D306210846FFF70FFF4FF4BE70EC
:1037F00000F038F805494FF00040C1F804030120FB
:1038000085F85400002070BD702A00200060004040
:10381000034890F85400002800D0012070470000B1
:10382000702A002030B541EA4201DDE9034541EA52
:103830008301800041EA042100F1A04041EA0541F2
:10384000C0F8001730BD800000F5E06000F1A04036
:10385000026822F440320260026842EA01410160DB
:1038600070470000034908B5084400210160006862
:10387000009008BD0060004002494058012800D077
:1038800000207047006000404058002800D0012010
:10389000704708B5002242504058009008BDD0F84B
:1038A0000403084000D0012070474058002800D091
:1038B0000120704708B5002242504058009008BDD2
:1038C00010B550B103280CD10220FDF79DFB002854
:1038D00007D0BDE81040FCF795BABDE8104002F0F3
:1038E0001FB910BD30B50446008889B03B2824D0EC
:1038F00009DC2A4D022824D0102814D011281AD10E
:103900004FF6FF7016E051281FD0552842D0562898
:1039100011D1A088132176DF00280CD009B0BDE8B2
:103920003040FCF76FBA0720FDF76EFB08B1FCF7DB
:1039300069FAA088688009B030BDA088132176DFBD
:10394000EAE70021688867DFE6E71022A11D04A8E6
:10395000FBF772FD9DF810100029ECD09DF81800BF
:10396000042803D0062801D00528E4D102290FD06D
:103970005FF001008DF800004FF4C170ADF8040055
:10398000A0886946A8DF0028D5D0FCF73BFAD2E72B
:103990000220EFE7A0881721ADDFBDE72821002036
:1039A0000078002807D104483B21408876DF0028B2
:1039B00001D0FCF727BA704728210020134A10B520
:1039C00000215170017A012912D002291DD181896B
:1039D000491C8181C189491C89B2C181028A9142F5
:1039E00013D1002101F042FEBDE8104001F074BA8D
:1039F000838AC28A4FF480619C1A8C4200DAA1B299
:103A0000114489B2C1829942EBD010BD98220020A6
:103A1000F8B51E4D17460E4601466A6F0020032A70
:103A200033D805F17804C6F1080C636C63452CD8D3
:103A300095F87000104400F00300C0EBC00005EBE7
:103A400080001C22FBF7F8FC686F401C6867DEB141
:103A500094F8440094F840100023084400F0070054
:103A600004EBC00000900AE007EBC3020098D2E923
:103A70000012C0E900126846FDF7F2FC5B1CB3427D
:103A8000F2D3606C304460640120F8BD402B00200C
:103A90000389CA1C1A4402814289511AC91E4181F4
:103AA000704700002DE9F04700F58055002700F130
:103AB0000804022090460E460880DFF8489012E085
:103AC0002046FEF7E5FDD0B1A068D9F80420904269
:103AD00001D9C9F804006088318804EB80040844E7
:103AE000C01C30800C34AC4202D22068401CE7D1AC
:103AF000B8F1000F01D088F80070BDE8F087012709
:103B0000E9E700008022002008B50021009101466D
:103B10000223024A0248FEF7BFF908BD046B020007
:103B2000B422002008B50020009004480223044A73
:103B300001680448FEF7B0F908BD0000902200209B
:103B4000FC6A0200B42200202DE9F05F0025374F07
:103B5000DFF8DC80DFF8DC90DFF8DCB02C46AA462A
:103B60002E46386800EB06300268424505D1334ADC
:103B70004168891830D001290DD000214FF48062AE
:103B800050F821305B1C33D009EB0411032008707E
:103B9000641CA4B219E0BAF1000F09D0022209EBAB
:103BA0000411641C0A70DBF800304B600A81A4B277
:103BB00000220BF10401CBF80000FFF773FFBBF804
:103BC0000400022830D008200543761CB6B2032E2C
:103BD000C7D3E8B2BDE8F09F09EB0411002201F859
:103BE000042B01C18A1DFFF75DFF45F00205CFE7F9
:103BF000491C9142C4D3DBF8002059465AB109EB65
:103C0000041102220A7048600A480A812030448068
:103C1000641CA4B205E008600220ABF804004FF079
:103C2000010A45F00105D0E70420CDE7B4220020C9
:103C3000DEC0ADDE002C00209022002002FEE10E4E
:103C400070B5184D0E46044623CD86B08DE823008E
:103C5000154DADF80420ADF802408DF80630A97876
:103C60002046FCF77DFE18B13046FEF731FF0FE02D
:103C70000721304600F0C2F950B1052808D10921CA
:103C80008DF80C100490ADF80E4003A8FDF72EFE41
:103C9000002229782046FCF777FE6846FDF726FECD
:103CA00006B070BDD46A0200E8210020F0B585B0EE
:103CB0000746FCF749FE002814D06846FCF778FD5B
:103CC00000246D460BE000BF05EB44063946B08882
:103CD000FCF746FE10B1B08802F01CF9641C009895
:103CE000A042F1D805B0F0BD70B5054D06460024E0
:103CF000304655F824108847641C052CF8D370BD55
:103D0000846A02003EB5104D002400BF04EB84001D
:103D100005EB800002F01AFD641C082CF6D3012488
:103D2000502008210094CDE901100949C200074B39
:103D300001F5207000F0B0FC08B103203EBD03483F
:103D4000447000203EBD000030290020D02100201A
:103D5000A026002000F038BA00F038BA2DE9FF4163
:103D60000026044600960196029603964088ADF818
:103D7000020020798DF8040037462179608802F02E
:103D8000BCFC21783F4D0A2947D2DFE801F0050548
:103D90003319193537393F4468B1417CC9070AD016
:103DA00002F0E4FC8DF800702078012800D000209B
:103DB0008DF808001AE001208DF80000A06823E0CB
:103DC00078B18168A26891420BD1417CCA0708D0C2
:103DD0006A6821F00101521C41F004016A604174DB
:103DE0001BE002208DF80000E06803906846FFF7B2
:103DF0007BFF12E003200BE0042002E0052007E037
:103E000006208DF80000E0680290EFE70126072009
:103E10008DF80000EAE7E06802906868002826D084
:103E2000194C002505EB850704EB8700417C4A0708
:103E300003D4C1F3400131421FD0817834F8270008
:103E400000F0F0F8C8B105EB8501042834F8211022
:103E5000ADF8021004EB870189788DF8041008D0C2
:103E600009218DF8001002906846FFF73DFFBDE87C
:103E7000FF8108208DF80000F6E76D1C082DD1D3D6
:103E8000F5E70000D02100203029002000F054BACE
:103E900008B513889B0000936B4600F0C9F908BD74
:103EA000002300F0C5B938B505460024204609E0D6
:103EB0008178284600F0A2F810B1052800D003242C
:103EC0000098401C00906946284602F029FC002812
:103ED000EED134B9284600F033FA10B1072802D0E9
:103EE0000324204638BD0724FBE71346002200F0D8
:103EF000D3B900002DE9F0475FEA030815460E46E6
:103F0000824604D0072E05D0082E17D102E00E20DD
:103F1000BDE8F08795B1082D10D8504600F01BFA87
:103F200060B14FF000093146504602F0E6FB041E36
:103F300025D0E068A84213D24F460AE04FF00700B0
:103F4000E6E7207C3844C1B22B4800F0D9FB7F1C47
:103F5000FFB2E068B842F4D8204602F0F7FB0EE06A
:103F600017D9EFB207E0207C3844C1B2224800F0F4
:103F7000C7FB7F1CFFB2E068B842F4D84CB9574683
:103F8000FF214FF6FF7002F0B8FB041E05D007803A
:103F9000A670207CFF2802D00CE01120B8E729464B
:103FA000154800F04BFB014620462174FF2913D031
:103FB0004FF00109E560217C0F4800F08DFB020005
:103FC0000DD0ABB23146404600F052FAB9F1000FC5
:103FD00010D0082E05D00DE002F0B8FBDDE703207D
:103FE00096E7B8F800006FF0050101EB8000D8F803
:103FF0000410888000208BE72029002070B5002461
:1040000002F07BFB05000BD0686820B100F0BCF922
:10401000040000D00324284602F0A8FB204670BD0F
:10402000052070BD7CB50D460646072903D0082D36
:1040300001D007207CBD0020009001908DF8025037
:104040002946304602F059FB040004D0607CC007CA
:1040500003D000207CBD05207CBD217C204800F0E1
:104060003BFB020022D029466846E36800F094F941
:10407000684602F030FB04F1080369463046626886
:1040800000F00AF90146627C1648530704D59307ED
:1040900002D543685B1E436051B111290DD004293C
:1040A00015D0072900D0032108467CBD03207CBD24
:1040B00022F0060040F0010010E04168491C416018
:1040C00022F0020040F0040060740021ECE7436835
:1040D0005B1C436022F0040040F002006074E3E7E0
:1040E00020290020D02100207CB50D46072903D0CF
:1040F000082D01D007207CBD002602F0FEFA040046
:1041000002D0606810B11CE005207CBD217C0F4806
:1041100000F0E2FA02004FF00000009001908DF8EC
:10412000025010D029466846E36800F035F9684629
:1041300002F0D1FA211D684600F00FF90646092861
:1041400001D030467CBD03207CBD0000202900202A
:104150000149096808470000806A020030B587B04D
:104160001748FDF753FD10B1032007B030BDFDF730
:1041700097FC08B10420F8E700F0CCF90020029089
:104180004CF2070403900EE0694604A8FDF70CFD0D
:1041900000988088A0F5404085B204A8FDF7C6FCD1
:1041A000284600F073F902AA04A92046FDF7E3FCB3
:1041B0000028E9D00349012008700020D5E700005D
:1041C00019190200C421002000F086B900F08AB954
:1041D00070B5054686B014460E4600F5404080B2E4
:1041E0000E4A6946FDF7C7FC20B903A96846FDF7EA
:1041F000DBFC10B1002006B070BDA57003984088AC
:1042000020800498606003988088A0F5404030804A
:104210006846FDF78BFC0120EDE70000C821002077
:10422000024800214160816070470000C4210020E5
:10423000F0B587B01D46144607460E46FF280AD83B
:10424000084600F005F930B103AA3146384600F0BF
:10425000E7F840B902E0072007B0F0BD01A903A8C4
:10426000FDF7A2FC08B10520F6E7A670019840888A
:10427000208055B182002868904204D80299606875
:10428000FBF7DAF803E00420E6E70298606003A891
:10429000FDF74CFC0020DFE77FB588B01E460D46D9
:1042A0000446FF282ED8A87800F0D2F850B36868EA
:1042B00006902888ADF81C0004F54040ADF80000D9
:1042C000A87803AA00F54040ADF8020006A80190C6
:1042D0000120ADF80800A978204600F0A1F80528D3
:1042E00012D00AA8FDF7BEFC694603A8FDF77CFCC6
:1042F000B8B107281ED008281AD00E2818D00320DD
:104300000CB070BD0720FBE70A9828B10AAA6946DD
:1043100003A8FDF774FCEBE7694603A8FDF76BFC07
:10432000E6E71EB1314603A8FDF735FC0020E7E7BC
:104330001120E5E70420E3E74FF6FF7000F0A6B890
:1043400010B5FF2801D9072010BD00F0A5F800F036
:1043500027F8002010BD00F0F1B870B504460D46F6
:10436000807800F075F858B121882846FDF760FC88
:10437000002804D0072805D0092800D0032070BDEC
:10438000072070BD042070BD01B56846FDF76AFCCA
:10439000002800D0032008BD9BB200F069B80000DF
:1043A000F0B589B000264FF6FF770496384605969B
:1043B00003E0204600F082F8204600F08DF8044625
:1043C000B84208D004F5404080B204AA06A9FDF71F
:1043D000DAFB0A28EDD0114DA87800281AD1BC428A
:1043E00018D0012704F54040AF7080B2FDF710FBF4
:1043F000082811D000280DD0AE7009218DF80010CA
:10440000CDE90260FF21ADF802408DF80410684646
:10441000FFF79EFE09B0F0BD6F70FBE7C4210020DE
:104420007CB5054616460C46084600F011F80020FB
:10443000009005F54045019004F54044A8B2A1B2B2
:104440006B463246FDF790FB002800D005207CBD6E
:1044500007280BD0012809D0082807D0052805D047
:10446000062803D0042801D000207047012070479F
:1044700010B503EB83034FF6FF7404EA0313817056
:10448000DB1C99084260018010BD00000149FCF767
:10449000F3BF0000D029002010B50446A0F57F40EE
:1044A000FF3807D004492046FCF7E6FFA04201D1BF
:1044B000012010BD002010BDF029002010B50446D9
:1044C000044900F0F1FE03492046BDE810402031C8
:1044D00000F0EABED02900200149FEF7EFBF00003E
:1044E000F029002070B50A49FEF7E8FF04464FF6B0
:1044F000FF7507E000F02CF838B105492046FEF7BB
:10450000DDFF0446AC42F5D170BD204670BD000011
:10451000D029002010B508484021FAF7B4FF4FF425
:1045200080742146044800F0F3F921460248BDE8B2
:104530001040203000F0ECB9D0290020FF2803D82B
:104540000146024800F013BA00207047D02900202D
:10455000FF2803D80146024800F009BA002070473E
:10456000F029002010B50C46FDF748FFFF2804D0C5
:10457000024900EB400021F8204010BD3026002009
:104580001CB5044600F088F908B1FBF73BFC24B1E8
:1045900000F09CFB08B1FBF735FC00200090019077
:1045A0009DF8000020F0720040F00100303020F053
:1045B00080008DF8000007208DF8010010208DF894
:1045C00002009DF8030040F003008DF803009DF801
:1045D000040040F003008DF80400684600F0A8FBDA
:1045E00008B1FBF70FFC074800F08CFB08B1FBF7A4
:1045F00009FC0548FDF70AFB002801D0FBF702FC87
:104600001CBD000049470200151902000449084476
:1046100090F93000082801DB012070470020704726
:10462000702A00200449084490F93000082801D27B
:104630000120704700207047702A00202DE9F041CA
:104640000F46060026D0306820B3706810B3FF24F0
:1046500000251CE02946706800F061F948B1FF2C84
:1046600000D12C46281B401CB8420ED12046BDE884
:10467000F081FF2C06D108E02146304600F040F8DA
:10468000641CE4B2AC42F7D3FF246D1CEDB2B068F9
:10469000A842DFD8FF20EAE72DE9F0410400DDE978
:1046A0000705069E16D0A9B1A3B100FB05F79742F6
:1046B00010D8C21DB6EBD20F0CD358B155B1E5607E
:1046C0002160C4E9013081B2184600F021F90020D0
:1046D000BDE8F0810720FBE770B504000D460DD062
:1046E000206858B1606848B1FF2D07D000F03FF94D
:1046F00020B1E168206805FB010070BD002070BD9D
:1047000070B504000D4611D0206800280ED06068F6
:1047100000280BD0FF2D09D000F029F9002805D082
:1047200029466068BDE8704000F02DB970BD01F009
:1047300017BA0000034A12780AB101F045BA0820FE
:1047400070470000D821002008B501780F290ED24B
:10475000DFE801F0080D080E1B22300D270D302C6C
:10476000300D3200808800F0F5F917E0D0B908BDAF
:10477000418901F6FA71B1F5005FF8D14088012155
:10478000FFF7D8FF0828F1D108BD0021009140882B
:104790006946FFF7CCFF08BDFDF760F91128E5D1A8
:1047A00008BD0020BDE80840FBF72CBBBDE8084071
:1047B000FBF787BA8068D9E7BDE8084000F09EB8EB
:1047C00070B586B0044614216846FAF75CFE60882E
:1047D000ADF80400FEF7D0F8ADF80200257800200F
:1047E0000822072105230A2D29D2DFE805F0050557
:1047F0000C0E1017192B1D208DF809008DF80010D4
:104800008DF808201BE00D200BE00E2009E08DF84C
:1048100009008DF800108DF8083010E00F2000E03E
:1048200010208DF800000AE08DF8003007E0062027
:104830008DF80000A0680290A088ADF802006846DC
:10484000FDF73EF806B070BD10B50446007886B09E
:10485000D8B1012817D10F49608801224979FCF7A6
:1048600093F814216846FAF70EFE6088ADF802004E
:104870006088FEF741F9ADF8040000208DF80000D3
:104880006846FDF71DF806B010BDE08800F058F945
:10489000F9E70000D821002070B5FFF75FFC48BBA6
:1048A000FFF730FA30BB01F067F918BB01F076FA78
:1048B00000BBFDF74DFDE8B9FDF70EFED0B9FEF7E0
:1048C00071F8B8B90C4C4FF6FF700025E080182045
:1048D000A56020716071FCF721F82071182809D0BB
:1048E000FCF71CF86071182804D065700120207056
:1048F000002070BD032070BDD8210020034800783F
:10490000002801D0FDF748BD70470000D8210020E5
:10491000002803D0C91DC908FAF7B5BD70470028A3
:1049200009D001F0070301229A40D2B200EBD10076
:104930001146FEF77DBC70472DE9F0410D4606009B
:1049400013D0002401270EE004F0070007FA00F05E
:10495000C1B206EBD400FEF76BFC10B12046BDE8F7
:10496000F081641CA4B2AC42EED32846F7E740B114
:1049700000EBD10001F007020078012191400840CE
:1049800000D001207047F8B50400C1F3C70501F05D
:1049900007014FF0010000FA01F0C6B20FD0605DD0
:1049A00030420CD000208DF800006846FBF7D4FAA6
:1049B000605DB04360559DF80000FBF7F1FAF8BD6B
:1049C00010B504460748007800280AD02046FDF7B5
:1049D0007BFF204601F0B8F82046BDE81040FDF707
:1049E000F3BB10BDD8210020F0B58BB004461421D4
:1049F0006846FAF748FD6088ADF80400FDF7BCFF93
:104A0000ADF80200237801200822072100264B4D33
:104A10004FF6FF770A2B6CD2DFE803F00510263C37
:104A2000444E6C8D85878DF8001021798DF8081023
:104A30008DF8096003968DF80A0079E08DF8001072
:104A400021798DF808108DF80960A16803918DF81F
:104A50000A00A86800286BD0A168814268D1AE60C6
:104A6000BDF80400E88013E08DF8002020798DF86F
:104A700008008DF80960A0680390E0680490A868B9
:104A8000B0B3A168814253D1AE60E868401EE860CF
:104A900003964DE08DF8001021798DF808108DF8FF
:104AA0000900F5E78DF8002021798DF808108DF8C0
:104AB0000900A06804903BE009208DF80000A87868
:104AC000B0B13846FFF748F9B84231D13846FFF760
:104AD00041F9B8422CD1AE70142105A8FAF7D3FCE5
:104AE0000B208DF81400ADF81870ADF8167016E0B4
:104AF0001EE020E00A208DF80000A0680290A8784F
:104B0000B0B1AE70142105A8FAF7BDFC0C208DF8E9
:104B10001400ADF81870ADF81670A068079005A8DD
:104B2000FCF7CEFE04E0052000E006208DF8000032
:104B30006846FCF7C5FE0BB0F0BD0000D821002090
:104B40000349097809B1FDF7C3BF08207047000089
:104B5000D8210020F0B52D4C074687B0207838B119
:104B60002B49D1E90201CDE90501607818B10EE0C9
:104B7000082007B0F0BD254900230C311A46881FD4
:104B800000F048F808B1052801D101206070607874
:104B9000A168401E084301D0112534E0E0880026BA
:104BA00087421CD1E068D0B1002514216846FAF78D
:104BB0006AFC07208DF800003846FDF7DDFEADF8F1
:104BC000020006208DF808008DF80960ADF8047029
:104BD00003968DF80A606846FCF772FE13E0E06801
:104BE0000A4A401CE060083205A93846FFF77DF903
:104BF000050008D0A660E068401EE060112D02D0DC
:104C0000042D00D003252846B3E70000D82100205A
:104C1000986A02002DE9FF4F2A4883B09946007830
:104C200092468B46B8B14FF6FF763046FFF794F8C0
:104C3000804600200090244801AA062100680190C7
:104C4000CDF808D04046FFF723F900256C1E374603
:104C5000072804D017E0082007B0BDE8F08F052032
:104C6000FAE700200090A84201D305464746A0423B
:104C700001D2044646464046FFF76EF8804601AA38
:104C80000621FFF705F9D8B10528EAD0A8F57F413C
:104C9000FF3901D00320DFE70399002001B10F8025
:104CA000BBF1000F01D0CBF80050BAF1000F01D0DA
:104CB000AAF80060B9F1000FCED0C9F80040CBE7E8
:104CC0000098D0E7D8210020986A020070B50C48FF
:104CD000017829B1012181704FF6FF75284607E060
:104CE000082070BDFFF72CFF08B1032070BD2046DF
:104CF000FFF732F80446A842F4D1002070BD00004E
:104D0000D8210020084A117821B1D178032903D392
:104D10000420704708207047044B43F82100491CC9
:104D2000D170002070470000D8210020102A0020F8
:104D30000349097809B100F069BF082070470000F5
:104D4000D82100202DE9F04385B004460127142125
:104D50006846FAF798FB6088ADF80200504E94F868
:104D600000C0002507200322317973794FF0020932
:104D7000BCF10D0F76D2DFE80CF0848F071A2D3EC0
:104D8000484D57646A6C800001208DF8000020793E
:104D900008B1012200E00022012806D00025608829
:104DA000FBF7F2FD60882A4610E00125F7E78DF851
